:020000040800F2
:1000000000A00020E5E800084DE900084DE90008DF
:100010004DE900084DE900084DE900080000000026
:100020000000000000000000000000004DE9000892
:100030004DE90008000000004DE90008D5800008E7
:100040004DE900084DE900084DE900084DE90008B8
:100050004DE900084DE900084DE900084DE90008A8
:100060004DE90008CF8000084DE900084DE900087F
:100070004DE900084DE9000851AF00084DE90008BE
:100080004DE900084DE900084DE900084DE9000878
:100090004DE900084DE900084DE900084DE9000868
:1000A000B1B1000869B10008C1B1000859B1000838
:1000B0006DB100087DB100088DB100084DE9000860
:1000C0004DE900084DE900084DE900084DE9000838
:1000D0004DE9000891AF00089DAF00084DE9000808
:1000E000C98000084DE900084DE900084DE9000805
:1000F000ADB100084DE900089DB100084DE90008C8
:100100000000000000000000000000004DE90008B1
:100110004DE900084DE900084DE900084DE90008E7
:100120004DE900084DE900084DE900084DE90008D7
:100130004DE900084DE90008000000000000000043
:100140004DE900084DE900084DE9000800000000F5
:10015000000000000000000000000000000000009F
:1001600000000000000000004DE900084DE9000813
:100170004DE9000800000000000000000000000041
:08018000000000004DE9000839
:1001C00010B50F4B1A786A2A17D15A88B2F5AA6F60
:1001D00013D11A79BE2A10D193F84E25EF2A0CD1EB
:1001E000084C002213F8011BA342104682EA0102C8
:1001F000F8D1431A5842584110BD0020FCE700BF17
:1002000000F0030850F50308024A93680343936023
:10021000704700BF68040020024A936823EA000385
:100220009360704768040020044A0123B2F8501517
:1002300083400B43A2F85035704700BF680400208C
:10024000044A01238340B2F8500520EA0300A2F8D3
:10025000500570476804002010B50C4CB4F85205E6
:10026000B4F85435184380B260B9FFF7E9FFB4F829
:10027000500510F0010004D1D4F85805003818BF1B
:10028000012010BD0020FFF7CFFFF0E76804002039
:10029000704B71481A68596870B5D0F85C45A21A5D
:1002A0008A4215DB1A7A9AB190F86025B0F8506549
:1002B0000132D2B280F86025002101252E4208D1FA
:1002C00001316D000929ADB2F8D15A6822441A6093
:1002D00070BD89B20139072905D8DFE801F01BACF0
:1002E00090819D452E7064225A605D7A5B4A4FF47E
:1002F00080404FF4005190612DB111854FF40041C1
:100300001185002204E091614FF4004191610122C6
:100310005A72DAE75D7A64225A604FF480404F4A9D
:100320004FF4004125B1108591614FF40051E7E78A
:10033000906191614FF40051E8E790F861154748EA
:1003400021B364225A604FF4804282614FF400521C
:1003500082614FF400420285B7E74FF48042018585
:1003600002854FF40052F6E790F861153B4869B1F9
:1003700064225A60828A92B282F4005282824FF4DE
:10038000804282614FF4004282619EE702F00302E4
:100390007821022A59604FF40041DED0032A0AD0A6
:1003A000012A01854FF4804201D0826100E002857C
:1003B0004FF40052E8E781614FF48042F5E790F88E
:1003C0006125002A81D064225A60244A4FF480417A
:1003D00011854FF4004191614FF40051916174E730
:1003E0001E4964225A604FF480428A614FF40042F1
:1003F0008A618A8A92B282F400528A8265E7642214
:100400005A60164A4FF4804191614FF40041916166
:100410004FF40051118558E7104964225A604FF497
:1004200000528A618A8A92B282F480428A824FF4B0
:1004300000428A6149E7642112F0010F5960074ABE
:100440004FF480414FF4004001D11085C3E7906123
:10045000DDE700BF0000002068040020000800481D
:10046000FDEEC07A17EE903A2033402B43D8DFEDF3
:10047000237A9FED237AB4EEE70AF1EE10FA28DC36
:10048000DFED207A9FED1E7AB4EEE70AF1EE10FA66
:1004900022D4DFED1D7AB4EEE70AF1EE10FA1EDD8C
:1004A00030EE670A37EEC00A60EE007ADFED176AB9
:1004B0009FED177AA7EEA67ADFED166AE7EE876A58
:1004C0009FED157AA7EEA67A20EE276AA6EE070A18
:1004D000704730EE470ACEE730EE070AD4E79FEDCB
:1004E0000F7AB4EEC70AF1EE10FA44BF30EE270AD5
:1004F00037EE400AD8E79FED0A0A7047DB0F494004
:10050000DB0FC940DB0F49C0DB0FC93F9A7C2E3699
:10051000FAAF4FB93587083CA4AA2ABEDB0FC9BF82
:100520000000000003685A1C026019707047002325
:100530001B68FFDE30B5484BD3F86425B3F96E1560
:100540009578D278B3F98C05002A41D00A1A82EA4C
:10055000E274A4EBE274AC4223DD012012F5997F32
:1005600083F88E051ADD062092FBF0F2502AA8BF10
:100570005022B3F89005024412B2A3F8AA25A3F8BA
:10058000902593F8B025002A61D040F2DC529142C8
:100590005DDC4FF47A72A3F8AA2530BD6FF031020A
:1005A000E7E793F88E2532B1D3F89825C3F8942560
:1005B000002283F88E25D3F89C25D3F8A04510445B
:1005C00022889042D8DB62888242A8BF0246D3E7E5
:1005D00040F2DC529142214C23DDA1F2DC529542E3
:1005E00028DAA1F2DC52002ABCBF6FF4BB628A1881
:1005F0009210782AA8BF7822C3F8AC250122A272F3
:1006000083F88E25D3F89C25D3F8A0451044228882
:10061000904203DB62888242A8BF0246A3F8AA2563
:10062000AFE7521A954205DAB1F5896FD9DC6FF060
:100630006302E1E70022A27293F88E45C3F8AC256D
:10064000002CDFD0D3F89845C3F89445D8E70022B2
:1006500083F8B025A1E700BF680400200000002057
:10066000134BD3ED037A134BF5EE407AF1EE10FA0B
:100670004FF0000203F1040103F1080003D11A60F6
:100680000A6002607047F0EE086A86EEA77A80ED95
:10069000007A27EEA77A67EE877A86EE876AF7EE0A
:1006A000006A86EEA77A81ED006A83ED007A7047D2
:1006B000000000201C0A0020034BB3F8C0351D2B9E
:1006C00001D80420B0E5704768040020054B0022E3
:1006D000C3F8C425C3F8C82503F2CC5300221A601E
:1006E0005A60704768040020074B0022C3F8D425E5
:1006F000C3F8D825C3F8DC2503F5BC6300221A60D3
:100700005A609A60704700BF6804002010B5164C0C
:1007100094F8EC355A0706D523F00503042084F835
:10072000EC3507F0AFFE94F8ED25104B0AB100222E
:100730001A7401225A74782200215A82042040F24D
:1007400014529A8284F8EE1584F8EF1584F8F015A7
:10075000C4F8F415FFF774FD0520FFF771FD84F868
:10076000F81584F8B01510BD6804002000000020C2
:100770002DE9F047C44C94F8F935B4F8FA2504EBA8
:100780004303B3F968359342C0F26481B4F8FC25A1
:10079000934200F35F8194F8FE550DB994F8FF552C
:1007A00094F8023684F8005684F80156002B00F0C5
:1007B0000D81D4F80476D4F80836FB1AC72B40F222
:1007C000058194F80C86B8F1000F40F0F5804146A1
:1007D000404608F0A7FBAD4BAD48002D08BF1846BA
:1007E0000BF0B0FED4F8106694F8FE95022E40F09F
:1007F0008681B4F85035DA0740F12E81A54BC4F854
:100800001436D4F81486B8F1000F06D00620002163
:1008100008F088FB40460BF095FE002110200136C1
:10082000C4F8106608F07EFBB4F8C0359A480A2177
:10083000B3FBF1F201FB12339BB298490AF090FF2F
:1008400095480BF07FFE0721002008F06BFBB9F103
:10085000000F40F05D8194F8FF2591488B4B002AF2
:1008600008BF18460BF06EFED4F82C66D4F85C3541
:1008700094F8302616F0010600F04C81002A40F072
:100880004E81C4F83426B4F85025D20504D501228F
:1008900084F83026C4F8383607210846D4F83436B0
:1008A0004FF47A724FF03C0AB3FBF2F808F03AFBCF
:1008B000B8FBFAF97B4978484A460AF051FF764876
:1008C0000BF040FE07210C2008F02CFB7649724803
:1008D0000AFB19820AF044FF6F480BF033FE102028
:1008E000072108F01FFB7148714B002E08BF184606
:1008F0000BF028FE002D5FD10221012008F012FB31
:100900000A266C49B4F93E26634892FBF6F20AF0D7
:1009100027FF61480BF016FE0321012008F002FBBF
:100920006549B4F93C265C4892FBF6F20AF018FFE0
:1009300059480BF007FE0421012008F0F3FAB4F93E
:1009400042265E4954480AF00BFF53480BF0FAFD6B
:1009500002210B2008F0E6FAB4F96A2558494E48FE
:100960000AF0FEFE4C480BF0EDFD03210B2008F0D1
:10097000D9FAB4F96825504947480AF0F1FE4648CB
:100980000BF0E0FD04210B2008F0CCFAB4F96C2543
:100990004A4941480AF0E4FE3F480BF0D3FD0521E7
:1009A0000B2008F0BFFAB4F96E2546493A480AF020
:1009B000D7FE39480BF0C6FD94F84436AB4201D05F
:1009C0000BF0A9FD84F84456C4F80876002D00F019
:1009D000228107F087FBD4F84836C31A002BC0F2F7
:1009E000A480394DAB690344C4F848362B7F9BB1D2
:1009F000364B00264FF400522E729A614FF400429B
:100A00009A6101214FF480429A6108460AF028FA5F
:100A100001232E7784F84C362D4BC4F8503604222F
:100A2000A4F85426188A10F004001CBF00210846C0
:100A30004FF4802208BF0121C4F8582608F058F965
:100A4000012102200AF00CFABDE8F0470121002044
:100A50000AF006BA0025A3E6980701D51D4BCEE69D
:100A6000D90601D41A0701D51B4BC8E6980605D450
:100A7000B9F1000F04D194F8FF250AB9174BBEE66F
:100A800059072FD5164BBAE668040020701C0108E0
:100A90006A1C0108881C0108800A0020E21C010869
:100AA000761C0108EA1C0108F21C01087C1C0108E4
:100AB000821C0108F81C0108021D01080C1D010818
:100AC000161D0108201D0108000000200008004834
:100AD00000040048921C01089C1C0108A61C010887
:100AE000B01C01085A0601D55B4B88E6180601D5F3
:100AF0005A4B84E6D9057FF584AE594B7FE6052E27
:100B000001BF584BC4F81436C4F81086464678E640
:100B10005548A7E6002A3FF4BFAE84F83066D4F803
:100B200038269B1AC4F83436B6E6504A0023A2F1A0
:100B3000B801101D157815B3032B06D050F82350BB
:100B400021F8135001330132F4E7D4F86C36A4F8DD
:100B50006E3594F8703613B10023A4F87236444E03
:100B60000023012516F8012B002A50D0DBB2013BEF
:100B7000042B08D8DFE803F0111B293741000133AB
:100B8000042BE0D1E5E701200BF006FD002384F8FB
:100B9000753684F874560123E4E701200BF0EEFC6F
:100BA000002384F8743684F875560223DAE70420AB
:100BB0000BF0F2FC40200BF0E1FC012384F87636C8
:100BC000002384F877360323CCE740200BF0E4FCC5
:100BD00004200BF0D3FC012384F87736002384F83B
:100BE00076360423BEE708200BF0D6FC002384F8F9
:100BF000793684F878560523B4E708200BF0BEFC5C
:100C0000002384F8795684F87836BDE8F0870133FC
:100C1000062BA7D1F9E794F84C36002BF5D001212B
:100C20002846C4F8605684F85C56C4F8645684F8C4
:100C30005D56C4F8685684F85E56C4F86C5684F85D
:100C40005F5684F870560AF00BF90A4B84F84C563C
:100C500001221A721A77D8E7BA1C0108C41C0108CD
:100C6000CE1C0108D81C0108761C0108C40A00200B
:100C7000DC0A002000000020224B93F8EC2512F043
:100C8000010F02F0040103D1D3F87C06012833DC04
:100C900093F8800680B393F8810668BB39B11A4A8D
:100CA0001346516843F8081BD2681A607047D3F89E
:100CB0002C16480124D491071FD442F0040283F873
:100CC000EC2593F8EE2522B9012283F8EE25D3F81E
:100CD0005C250E4AB3F84216D183D3F85C25D3F8CD
:100CE0005C1593F88E214FF47A7012FB00120520E8
:100CF000C3F8942607F0C6BB11B9012007F0E8BB82
:100D0000704700BF68040020EC0A002000000020AB
:100D100070B5104CD4F89856284607F01FFC287A76
:100D200004F29C6400226FF01806192112FB026382
:100D3000434303F6C41353430132072A93FBF1F3F1
:100D400024F8023BF2D128460349BDE8704007F081
:100D500021BC00BF68040020380500202DE9F84FB1
:100D60004FF4AA622DED028B0021C8489FEDC88A7E
:100D70000FF0FEF9C54A02F5E4730021C2F8AC3663
:100D800002F22A566A2303244FF4006015461370BA
:100D9000547182F8B016C2F89866FFF735FA8020D1
:100DA000FFF732FA0220FFF72FFA4FF40060FFF747
:100DB0002BFA4FF48070FFF727FAC823A5F8FA3012
:100DC000B44BDFF83CC3DFF83CE385F832414FF425
:100DD0008037C5E93B73B04BC5F8F4304FF47A73F4
:100DE000A5F8343142F22013C5E94AC34FF0A0639D
:100DF000C5F8C431A94B85F828154FF07E58C5E9D0
:100E000051E340F64303A5F84C312A46A5F8E41017
:100E100085F8E610C5F8FC10A5F80011C5F8E81033
:100E200085F8F810C5F81081C5F81481C5F8188147
:100E300085ED478A85ED488A85ED498AA5F8301108
:100E4000A5F8B81185ED6F8A85ED708AA5F83E1179
:100E50002B462C460329CCBF0122002201F10101BF
:100E600083F84E2114BF1E220522122983F84F2138
:100E700003F10203EED18A4BC4F84031834B0022C8
:100E80004FF47A704FF4FA610132042AA3F8720128
:100E9000A3F8741103F10403F6D1824A824B83490B
:100EA000C4E96323824BC4F8D030A3F1FA73643BE6
:100EB000C4F8D43003F5602303F5CB73C4F8D830FD
:100EC0007C4B00274FF00109C4E9371384F8827185
:100ED00084F894910AF012FD40F6AC53A381764B4E
:100EE000C4F8C83103F10343A3F51D23A3F29D7396
:100EF000C4F8CC317148724B724AC4F8F821C4E985
:100F00007403714BC4F8D8312D2384F8DD3141F6D8
:100F10001E63A4F8DE316D4BC4F8E031C4F8FC2147
:100F200045F205336A4AA4F8E431C4F81422642374
:100F30004B2284F8E63184F8182240F201534FF432
:100F4000FA72A4F8E831A4F81A22624BC4F8043209
:100F500040F2DC52C4F80832A4F834255E4BC4F8E1
:100F6000F43144F25A125D4BA4F82A254FF07F5118
:100F70003222A773C4F81032C4F81C72C4F82C25AE
:100F8000A4F8307584F83275C4F8EC11C4F8F01187
:100F9000C4F8008284ED838AA4F82272C4F82C324B
:100FA00042F62803A4F83032152384F834324C4B2F
:100FB000C4F82472C4F838324A4F4B4B84F8449238
:100FC000DFF83891C4F83C3240F60822474BA4F8C9
:100FD0002822C4F84032BA4609F1080BB84617F87F
:100FE000011B002943D14FF42053A4F8DE324FF403
:100FF0004873A4F8E2323E4BC4F88431C823A4F805
:101000008A3184F8DD1284F8E01284F8E41284F85E
:1010100088110C23013B05F1100585ED008AF9D1FB
:1010200034494FF4907288180BF0C2FA31494FF4EA
:10103000907201F510700BF0BBFAD4F82A35C4F8A1
:1010400036352D4A73685360B368D4F82A15936017
:10105000C4F842155361012384F84033716811616B
:10106000022384F86034BDEC028BBDE8F88F23487E
:101070000FF0CCF80028B1D058453FBFA0EB0900D5
:101080000019A8EB0A0880F83681A7E76804002059
:10109000000000002A005802FA0020006C077503C7
:1010A000001E0001000105960101C800B4053200D0
:1010B0004C04D00750463200012828962828783C56
:1010C0000A0A4600CDCCCC3E0002210A1E321E0088
:1010D000000040408FC2F53C000020400000A040CE
:1010E0009A99193F2A1D0108F6287C3F1F856B3FFE
:1010F0000AC81405300600209E0900203814010893
:10110000190A0A2ADC054C042DE9F843FFF758F8C0
:1011100010B9032007F047F9C14C07F00BFB4FF45F
:10112000AA62C04920460BF043FA94F82865022EC3
:1011300088BF00264FF4907506FB05F504EB050209
:1011400088BF84F8286592F82032022B84BF0023E0
:1011500082F820320C2284F8B03605F5E47702FBE1
:10116000034303F22A5308202744C4F89836C4F8EE
:10117000AC76FFF751F84FF40050FFF74DF801201F
:10118000FFF74AF84FF48040FFF746F8FFF73CF8C6
:101190004FF4907303FB0643002283F8452241F28B
:1011A0000302A3F84622A04AC3F8482202F1805263
:1011B000A2F57E42C3F84C229C4A4FF4866CC3E9E8
:1011C00094C2202283F85822052384F8F93540F28E
:1011D000AA53A4F8FA3540F20E63A4F8FC35944BF8
:1011E000012283F82020A36846F209021A4203D1A3
:1011F0004FF40050FFF708F8A368D80703D54FF461
:101200000050FFF709F8A368590409D50820FFF733
:1012100003F84FF40050FEF7FFFF0120FEF7FCFF3C
:10122000A3681A0706D54FF40050FEF7F5FF01201A
:10123000FEF7F2FFA3689B0402D54020FEF7ECFF07
:10124000012384F8B93194F88C312BB194F89031A2
:1012500013B1002384F89031DFF8EC81C4F8B48630
:10126000002002464FF0FF0E04EBC003B3F89A11C2
:101270004B0803F077334FEA910909F03339CB1A61
:10128000A3EB09034FEAD10909F01139A3EB0903D4
:1012900003EB231303F00F33B3FBFEF9C9EB09296A
:1012A00001F0010CA3EB09036244012BD2B207DD6C
:1012B000022B0BD1BCF1000F08D011F0BC0F05D0F0
:1012C00001300428D0D1013A012A01D90AF016FBD5
:1012D000FFF71EFD302200215648DFF870910EF016
:1012E00047FF05F24520394620440AF035FB4FF40C
:1012F000907303FB0646C4F8E89696F8C80105F01B
:10130000B9FA09F18E03C4F8EC3694F88431DFEDB4
:101310004A6AC4F830876421C82213FB0123B4F859
:10132000F210C4F8F4360023C4F8F836C4F8FC36DA
:10133000C4F80037C4F80437C4F80837C4F80C37C9
:10134000A4F81037C4F81437C4F8183707EE901A09
:1013500009F10603C4F82037A9F11E03B4F8F4100C
:10136000C4F82437F8EE677A09F19A03C4F82C37E9
:1013700009F23E63C3ED017A07EE901AB6F828121F
:10138000A4F8341796F8441284F8361794F88F119D
:1013900084F84017B6F8E212C4F8443707EE101A82
:1013A000F8EE677AB8EEC77AC3ED027AC6EE877AAE
:1013B00005F50C732344C4F8483705F2DD2509F21E
:1013C0005663A9F126022544C4F82827C4F85077AB
:1013D0004FF07E519FED197A67EE877AC3ED007A60
:1013E00009F25E63C4F86455C4F8A025144A1A6073
:1013F0004FF07C5209F272695A6000229A60D960FB
:101400001A61104BC9F80030C9F80410C9F8082057
:10141000C9F80C10C9F81020BDE8F84307F0A2B9CC
:101420006804002000F003083001030010050010DC
:1014300000000020200B0020000061444C3D0F44C0
:101440000AD7233CCDCCCC3D9E0500205E05002074
:101450002DE9F74F07F06EF9434B6A221A704FF4EB
:10146000AA625A80BE221A71EF22A3F84E2540F2DA
:10147000515100221846013955D13C4B80F84F2577
:101480001A69120604D53A4A5A6002F188325A6043
:10149000364C384E03254FF03409C4F80C900AF04E
:1014A0001BFA0428DFF8C08038D1236943F0020317
:1014B0002361314B6361236943F0400323610AF0E8
:1014C0000BFA2369042823F00203236126D14FF08D
:1014D000000BDA4658F8047BCDF804A00AF0FCF9BA
:1014E00004281BD1236943F0010323610BF100633E
:1014F00003F57C33BAB21A800AF0EEF9042816D14B
:101500000BEB06030193019B3F0C1F800AF0E4F9EB
:101510002369042823F0010323610DD0013D15F058
:10152000FF05BAD10DE013F8014B6240A3E7236930
:1015300023F001032361F1E70BF1040BBBF5AA6F64
:10154000C8D10A4A1369042843F08003136102D109
:10155000FEF736FE10B9042006F025FF03B0BDE803
:10156000F04F07F0FFB800BF6804002000200240E1
:101570002301674502F0030800F003082DE9F04F4E
:10158000D54ED6F89886B6F96EE5B8F80A202DED56
:10159000048B9645A9B0C0F2B581BEF5FA6F98F8F4
:1015A0000740BDBFAEEB020313FB04F3C2F5FA62C2
:1015B000C4F16403BCBF93FBF2F3C3F16403019372
:1015C000B6F844310393C54BD6F8ACB6069303F591
:1015D0000B7203F13C070592A3F5AD6503F22F22D0
:1015E00008F10403DA460492002064210793069B65
:1015F00033F9022B029206931346039A9B1A03F2C5
:10160000F31240F2E634A24200F27E81002BB8BF12
:101610005B42022800F07B819BF815211AB19A42A7
:10162000B4BF9B1A0023B3FBF1FC05EB4C024FF651
:101630009C74B2F99A97B2F99C271CFB043CA2EB6C
:1016400009020CFB02F292FBF1F24A443A80079A3B
:10165000125C12FB03F3A24A93FBF2F3019A643388
:101660009BB2534393FBF1F31AF8012F059C5A43A5
:1016700092FBF1F204F8012B9AF8162005945A43D4
:10168000049B92FBF1F203F8012B022804931EBF86
:10169000944B019AC254DDE9023208BF85F8AA17BB
:1016A0009342B8BF3B8800F10100BCBF5B423B8066
:1016B000032807F102079AD1DFF83492D5F82C8677
:1016C000B9F92230581C0DD018F0080F0AD0D5F8FF
:1016D0009825323B934205DC40F2DC539E45C8BF5F
:1016E000A5F86E3595F8EF351BB1B9F81430A5F8AB
:1016F0006E35B5F96E35B5F846219342C0F23281A8
:10170000B3F5FA6FA8BF4FF4FA639B1A4FF47A71DE
:101710004B43C2F5FA626424B3FBF2F393FBF4F19A
:1017200005EB41026FF06307B2F9AC07B2F9AE27DF
:1017300007FB0133121A534393FBF4F30344A5F858
:10174000AA35B5F8C437590639D5B5F84236B9F8CF
:101750001E20DFED657A9FED650A9B1A1BB205EE30
:10176000903AF8EEE55A65EEA75A35EE800AFEF794
:1017700077FEB0EE405AB0EE650AFEF771FEB5F99D
:10178000A63506EE903AB5F9A43507EE103AF8EE14
:10179000E66AB8EEC77A67EE007A20EE660AE6EEF1
:1017A000857AA7EE050AFDEEE77ABDEEC00A10EED7
:1017B000103AA5F8A43517EE903AA5F8A635D5F855
:1017C000C8A71AF0020F00F0E280D5F8CC27D5F8B0
:1017D000D03745F20721D31A8B4240F3D88002203C
:1017E000C5F8D02709F0A2FBC2075EBFC0F3CF0443
:1017F0001923B4FBF3F495F8D437D5F8D82705EBC3
:10180000430148BF4FF6FF74B1F8DC07A1F8DC478D
:10181000121A144401336422B3FBF2F102FB1133B8
:1018200085F8D43795F8A438C5F8D847632B9EBF00
:101830000133DBB285F8A438B4FBF3F495F8A5388E
:10184000A7B2032BA5F8C07540F08E800A2F40F296
:101850009E8099F8241001EB810101EB81010023A6
:101860004FEAC11B01EB01114FF416721FFA8BFBFB
:10187000C90085F8A538282041F26803A5F8A628F4
:10188000A5F8A838A5F8AC18A5F8AAB806F07CFD0C
:101890002A21B7FBF1F107EB8707013107EB870737
:1018A00089B2BF000829BFB228BF0821A7EB0B07E8
:1018B0004FF4167241F268037A43A3EB0B0389F8E5
:1018C000241092FBF3F3A5F8AE38034AB2F8AC3813
:1018D000A4B2633BA3420DE068040020D0090020BD
:1018E0000CFEFFFF100C002035FA8E3CDB0FC93FC9
:1018F000000000204BDD0123082082F8A53806F007
:10190000C1FD44E064235AE64FF4FA7381E69BF884
:1019100016211AB19A42B4BF9B1A0023B3FBF1FC03
:1019200005EB4C024FF69C74B2F99C96B2F99E26D8
:101930001CFB043CA2EB09020CFB02F295F9EEC081
:1019400092FBF1F2CCF1000C4A4412FB0CF2A5F828
:10195000A82598F8062012FB03F3B74A93FBF2F38D
:10196000643381E61346D0E60A2F00F2AD800323EC
:1019700085F8A538002389F82430A5F8AC38A5F8F7
:10198000AA38A5F8A838A5F8A638A5F8AE381AF4EC
:10199000006FAA4C59D0D4F8CC27D4F8B03845F20F
:1019A0000721D31A8B4250DDD4F85C35C4F8B02837
:1019B000D4F8B428C4F8B4380120A3EB020B09F022
:1019C000B5FA00B2632840F3B080642390FBF3F0D3
:1019D00007EE900AF8EEE77AB2EE047AC7EE876A6D
:1019E0009FED977AC6EE877AFCEEE77A17EE903A8B
:1019F000B3F5803FAABF00221A461346C4F8B828A0
:101A00009BB2DFF848A2D4F8C078DAF80420E3FBF0
:101A10000B72914600238B4A384649460AF0DCFE99
:101A2000C317B0F5803F73F100032ABF00230346BC
:101A30001846C4F8C838B4F8AE38C4F8C0781B1AD1
:101A40009BB2CAF80490C4F8CC3818F4805F02D076
:101A50000A2006F017FDD4F8D098B9F1000F22D073
:101A6000D4F85C35D4F8D4289A421CD894F8DA38E3
:101A7000B4F8D878002B5AD1D9F80430012284F870
:101A8000DA28DB5D3BB137B999F80030053B93426A
:101A900001D806F027FBD9F80430DB5DFE2B4AD1D4
:101AA0000023A4F8D83894F8EC154B074FF0080041
:101AB00051D5FEF7B9FB0720FEF7C2FB0620FEF763
:101AC000BFFB614F0023C4E0012B05D0022B1FD0C8
:101AD000002B3FF4FAAE5AE795F8EC3523F00203F9
:101AE00085F8EC35B5F8AA38A4B2633BA34204DD0F
:101AF000022385F8A538072014E0B5F8AC38643324
:101B00009C420EDD002385F8A538FEF7D5FD3EE7A3
:101B1000B5F8AA38A4B264339C42ECDD012385F801
:101B2000A538082006F0AEFCEFE7002369E70023A4
:101B300084F8DA38AFE7FF2B02D106F091FCB2E768
:101B4000D4F85C250A2113FB01230137C4F8D438EB
:101B5000A4F8D878A7E7FEF773FB18F0010F10D1AF
:101B600094F8DB381F0702D594F88036CBBB0720EA
:101B700021F0010184F8EC15FEF762FB0620FEF768
:101B800053FBB4F8502594F8DC38500734D5EBB942
:101B900084F81C37D4F814374BB94FF49673C4F853
:101BA0001437D4F85C3503F59673C4F81837D4F8B5
:101BB0005C35D4F818279B1A002B1FDB012384F80F
:101BC000DC380023C4F81437C4F8183794F8DB382D
:101BD0001B0713D50220FEF733FB002384F8DC3803
:101BE0000CE041F00101072084F8EC15FEF71CFB26
:101BF0000620FEF725FBC4E7002BE7D1B4F8C0357B
:101C0000222B11D90023032084F88136FEF718FB1C
:101C1000FEF722FB00283FF454AF94F8EC3523F094
:101C2000010384F8EC354CE70123032084F8813666
:101C3000FEF7FAFAECE700BF0CFEFFFF6804002095
:101C40006F12033B80EE36004C0E0020280D002062
:101C5000132397F84A800193B8F1010F40F0BE8139
:101C60003B68C4F8E078C4F8E4384FF005094FF059
:101C7000000BD4F8E40803685B689847002800F07C
:101C80006D81D4F8E4080368DB689847D4F8E0A8CD
:101C90009AF84830052B12D8DFE803F0030A9FA416
:101CA000B3BD242840F0CD8001238AF8483006E0F7
:101CB000A0F14D014842484140008AF848009AF896
:101CC0004830062BD5D19AF849307C2B00F2CC80D5
:101CD000002B00F016875A1E7B2A00F20D87DFE8E2
:101CE00012F0160123018F019A01AF010B070B07B8
:101CF0000B070B070B070B070B070B070B070B0754
:101D00000B070B070B070B070B070B070B070B0743
:101D10000B070B070B070B070B070B070B070B0733
:101D20000B070B0755040B0799050B079E050B07BF
:101D3000BF050B07D1050B07D7050B070B070B07D3
:101D40000B070B0726060B077C040B076D060B071A
:101D5000AC050B071F034E040B0750030B070B07C3
:101D60002D060B073F060B070B07DB069206B20694
:101D70000B075A030B07F5050B0703060B070B07A9
:101D80000B070B070B070B070B070B070B070B07C3
:101D90000B070B070B070B070B070B070B070B07B3
:101DA0000B070B070B070B070B07F301A7020B072A
:101DB000DD02F0020B070B070703150324035F0383
:101DC000A1030B0716055B05A50441040B07ED04F1
:101DD0000B070B070B07F90600073C2814BF00236D
:101DE000032362E7402802D98AF848B067E78AF8F7
:101DF00005008AF804B08AF807B08AF806000423C0
:101E000053E79AF806308AF8490043408AF80630CA
:101E10008AF8489053E79AF804309AF805109AF82F
:101E20000620994208D942408AF806205A1C534499
:101E30008AF80420187242E790420CBF0623002360
:101E400033E794F8EC355A073FF539AFD4F8E83862
:101E50001B7883427FF433AF8F4B904AC3F8FC2F3B
:101E60008F4B904ADA602AE7F02B00F0B2843CD81E
:101E7000DD2B00F02586DE2B00F02686A02B00F05F
:101E8000B684C72B40F23D86C83B2A2B00F2398628
:101E9000DFE813F0B506370603073706DD078808C5
:101EA00092081B08800837069C06AC06B006370669
:101EB0006008370637066E087B0837063706370690
:101EC000370637063706370637063706370637062A
:101ED000370637063706370637063706370637061A
:101EE0003706E20637063706B006FE2B00F064849C
:101EF000FF2B00F06981F22BC3D9FA2B40F0018649
:101F000094F8EC355B0740F16C8600F0FABD0320D5
:101F100006F00DFC002006F0ABFB002006F0A8FB4D
:101F2000182006F0A5FB0FE0082006F000FCDFF803
:101F300084914FF0000819F8010B08F1010806F030
:101F400097FBB8F1080FF6D1D4F8E038987906F08D
:101F50008FFBD4F8E038002283F8482094F8AF399A
:101F6000002B3BD0D7F80080D8F8003040465B69A2
:101F70009847002801F05681D4F8C8374A49D80458
:101F80004CBFD4F82437D4F8283794F8B0099B888C
:101F900000221BB25FFA82FC8445C1F0488109F03F
:101FA00037F8322006F0F0F9002394F8B0193F4AD0
:101FB0009C46D8B28842C1F03F81322006F0E4F955
:101FC000D4F8C837590306D5A3685A0303D440F29E
:101FD000DC5006F0D9F9324B324ADA60019B132B00
:101FE00007F14C077FF434AED4F8843A002B01F0AB
:101FF00044812F4829B0BDEC048BBDE8F04F184751
:10200000032006F094FB022006F032FB022006F0CB
:102010002FFB002085E7102006F089FB0C2006F03E
:1020200057FBDFF894904FF0000819F8010B08F106
:10203000010806F01DFBB8F10C0FF6D10020D5E029
:102040001A2006F074FBDFF874904FF0000819F8BE
:10205000010B08F1010806F00BFBB8F10B0FF6D1EC
:10206000DFF85C904FF0000819F8010B08F1010847
:1020700006F0FEFAB8F1080FF6D1DFF848904FF0FD
:10208000000819F8010B08F1010806F0F1FAB8F19F
:10209000070FF6D158E700BF00900020EFBEADDE7D
:1020A00000ED00E00400FA05E40B00201C0E002007
:1020B000F40E0020331D01083C1D0108491D0108D4
:1020C000541D01085D1D01080B2006F030FBB4F81B
:1020D000500506F0FDFAD4F8EC28CB4B9A420CBF21
:1020E000B4F8F008B4F8F20880B206F0F1FAD6F8C5
:1020F000F438C3F3C000C3F38002800040EA42001A
:10210000C3F340021043C3F3401240EAC200C3F3DA
:10211000001340EA031000F01F0006F0D9FAB6F8E9
:10212000C42796F8EC35D6F82C1696F8F888DFF820
:10213000E0C2500000F00200C3F380030343C2F387
:10214000400043EA800302F008000343C2F380002A
:1021500043EA0013C2F3801043EA401301F4E07035
:102160001843C2F3001340EA4320C2F3401340EA8D
:102170008320C2F3002340EAC32001F47F230343FA
:1021800001F480100343C2F3402043EA405301F0BE
:102190000071C2F380220B43002043EA82634FF0B8
:1021A000010E0246424504D306F09BFA94F8280536
:1021B000B7E61CF8011B0EFA01F119421CBF0EFA1A
:1021C00002F108430132EDE70023B4F85015A4F8FA
:1021D000143901220A420CD101335200092B92B268
:1021E000F8D1022006F0A3FAB4F8140906F070FA48
:1021F000AAE69BB2013B072B05D8DFE803F0080AEB
:102200000C0F111315170123A4F81439E9E7022361
:10221000FAE74023F8E74FF48073F5E78023F3E70C
:102220002023F1E71023EFE70823EDE70423EBE792
:10223000122006F07CFA754BB5F91609DB8CB3F564
:10224000806F88BF4FF0080890FBF8F080B206F06E
:102250003FFAB5F9180990FBF8F080B206F038FAA9
:10226000B5F91A0990FBF8F080B206F031FAB5F82A
:102270001C0906F02DFAB5F81E0906F029FAB5F882
:10228000200906F025FAB5F8220906F021FAB5F87A
:10229000240906F01DFAB5F82609A7E7102006F074
:1022A00046FADFF870914FF00F0808F1FF3819F87F
:1022B000010B5FFA88F806F0DBF9B8F1FF0FF4D1F3
:1022C00042E694F82809DFF85091400000F0FE0043
:1022D00006F02DFA4FF0000894F828399845BFF41D
:1022E00033AE39F8020B06F0F3F908F10108F3E711
:1022F000062006F01CFAB4F82A0906F0E9F9B4F849
:102300002C0906F0E5F9B4F842066FE7062006F05E
:102310000EFAD4F8980506F0E4F9B4F8300965E748
:10232000042006F004FA002070E2072006F0FFF90E
:10233000B4F8C005FF28A8BFFF20C0B206F098F986
:10234000D4F8CC384FF6FF784345A8BF434623EA7C
:10235000E37080B206F0BCF9B4F8340906F0B8F9BD
:1023600094F83331D4F8B80843B10A2358434045B0
:10237000A8BF404620EAE07080B237E700F30F00C4
:10238000FAE7022006F0D3F994F88E0106F070F90E
:1023900094F88D01C5E5022006F0C9F9A08925E76A
:1023A0000B2006F0C4F9D5F89836187806F060F9D5
:1023B000D5F89836587806F05BF9D5F8983618793C
:1023C00006F056F9D5F89836587906F051F9D5F84F
:1023D0009836987906F04CF9D5F89836D87906F001
:1023E00047F9D5F89836987806F042F9D5F8983636
:1023F000D87806F03DF9D5F89836588906F068F98E
:10240000D5F89836187A8CE500540040000000207A
:10241000610D0020E40B0020D00900200000C8421C
:1024200000007A44212006F082F9D4F8AC361B78FB
:10243000022B4FF000087DD11FED089A5FED088A4E
:10244000B2EE048AD6F8AC3603EB880393ED090AA2
:1024500020EE080A0CF0A8FB80F30800C0B206F0DA
:1024600007F9D6F8AC3603EB880393ED0C0A20EE9F
:10247000090A0CF099FB80F30800C0B206F0F8F8E6
:10248000D6F8AC3603EB880393ED0F0A20EE280A4A
:102490000CF08AFB80F30800C0B208F1010806F0D6
:1024A000E7F8B8F1030FCDD1B8F1070FD4F8AC3687
:1024B0002AD193ED120A20EE080A0CF075FB80F386
:1024C0000800C0B206F0D4F8D4F8AC3693ED130A85
:1024D00020EE080A0CF068FB80F30800C0B206F09A
:1024E000C7F8D4F8AC3693F8503000EE103AB8EE96
:1024F000400A0CF059FBFF28A8BFFF20C0B206F02D
:10250000B7F84FF00808CFE74344587806F0B0F822
:10251000D4F8AC364344187B06F0AAF8D4F8AC36AD
:10252000434408F10108D87D06F0A2F8B8F10B0F7A
:10253000BAD109E5D4F8AC364344587806F098F897
:10254000D4F8AC364344187B06F092F8D4F8AC3695
:10255000434408F10108D87D06F08AF8B8F10B0F62
:10256000E8D1F1E42F2006F0E2F8DFF83C8418F817
:10257000010B00283FF4E8AC06F07AF8F7E70120F9
:1025800006F0D5F8D4F8AC361878CAE4502006F036
:10259000CEF8DFF818A44FF000094FF00C0BD4F878
:1025A000AC3603EB890809F1010998F87D300BFB83
:1025B00003A393F8500006F05BF898F87E0006F04D
:1025C00057F898F87F0006F053F898F8800006F066
:1025D0004FF8B9F1140FE2D1B6E4482006F0A7F89D
:1025E0004FF000094FF0060AD5F8AC360AFB09385F
:1025F00009F1010998F8D20006F03AF898F8CD00F0
:1026000006F036F898F8CE0006F032F898F8CF00C9
:1026100006F02EF898F8D00006F02AF898F8D100C5
:1026200006F026F8B9F10C0FDED18DE402230293F7
:102630004FF0000A4FF0010BD949D94B94F8F80834
:10264000CB1A83420CDB029B012B3FF47DAC5FFA7B
:102650008AF006F06CF8012302934FF0000BEBE7D1
:1026600011F8010B00230C2202FB03F8CD4A18F8E5
:1026700002C0844503D001331C2BF4D1DDE7C94BE4
:1026800003919844D8F804000AF03AF803990346F5
:10269000BBF1000F10D08244CFE7D8F8040010F847
:1026A0000900CDE9031305F0E3FFDDE9031309F1A8
:1026B00001094B45F1DCC0E7D946FAE7DFF8ECA2A7
:1026C00094F8F808DFF8D89206F031F84FF00008D7
:1026D0004FF00C0B0AF1480294F8F8389845BFF413
:1026E00033AC19F8010B00210BFB01F313F802C006
:1026F000844505D001311C29F6D108F10108EBE72A
:10270000534493F8500005F0B3FFA64AF5E71620AE
:1027100006F00DF8B6F8440105F0DAFFB6F8D0007F
:1027200005F0D6FFB6F8D20005F0D2FFB6F8D40017
:1027300005F0CEFFB6F8860105F0CAFF002005F0CF
:1027400097FF002005F094FF002005F091FF96F818
:10275000330105F08DFF96F8400105F089FF002058
:1027600005F086FFD6F8AC36B3F95A000A2390FB81
:10277000F3F080B205F0ACFF96F8280105F078FF81
:1027800096F82C0105F074FF96F82B0105F070FF08
:1027900096F82D01FFF7C5BB082005F0C8FF4FF0E4
:1027A00001085FFA88F008F1010805F061FFB8F14F
:1027B000090FF6D1FFF7C8BB082005F0B8FF0020CD
:1027C00005F086FF002005F083FF002005F080FF64
:1027D00034E4042005F0ABFFD4F8AC36B3F85E0067
:1027E00005F076FFD4F8AC36B3F85C00FEE4DFF811
:1027F000C0810C2005F09BFFD8F8AC0705F071FFF5
:10280000D8F8B00705F06DFFD8F8B40705F069FFF8
:10281000FFF79ABB042005F08AFFA068F6E70620C0
:1028200005F085FFB4F8E80005F052FFB4F8EA00BF
:1028300005F04EFFB4F8EC00D8E4042005F077FF73
:1028400094F8280105F014FF94F82C0105F010FF0E
:1028500094F82B0105F00CFF94F82D01FFF761BBF4
:10286000072005F064FFB4F82E0105F031FFB4F83D
:10287000300105F02DFF94F8320105F0F9FEB4F8AF
:102880003401B3E4012005F052FF6079FFF749BB42
:102890000C2005F04CFF94F83E0105F0E9FEB4F879
:1028A000480105F015FFB4F8440105F011FFB4F834
:1028B000460105F00DFF94F83F0105F0D9FEB4F88C
:1028C0004A0105F005FFB4F84C018FE4042005F03F
:1028D0002EFF94F8840105F0CBFE94F8850105F0F5
:1028E000C7FEB4F8860181E494F82809DFF8C480B3
:1028F00000EB4000C0B205F01AFF4FF0000994F859
:102900002839994508F10208BFF41EAB98F84C012C
:1029100005F0AEFE98F84D0100EB800000EB800062
:1029200000F2EE2005F0D4FE09F10109E7E70120ED
:1029300005F0FDFE94F84001FFF7F3BA082005F01A
:10294000F6FEDFF874904FF0000819F8010F08F157
:10295000010805F08DFEB8F1080FF6D1FFF7F4BAC3
:10296000102005F0E4FE607905F082FEA06805F015
:10297000B8FE94F83E0105F07BFEB4F8E80005F0DF
:10298000A7FEB4F8EA0005F0A3FEB4F8EC0005F0E9
:102990009FFEB4F82E0105F09BFEB4F8300125E44B
:1029A000610D0020801401084D140108381401083D
:1029B00000F0FF1F680400209D05002094F83609F0
:1029C000DFF80084C0EBC000C0B205F0B0FE4FF0ED
:1029D000000908F6381A4FF00C0B98F998010023FB
:1029E0000BFB03F212F90A20824200F02D8401331E
:1029F000042BF5D109F10109B9F1040F08F1080818
:102A0000EBD1FFF7A1BADFF8A8830D2005F08FFE08
:102A100009F08AFC05F02CFEB8F8280005F061FEEC
:102A2000D8F8340005F05DFE94F8693994F8680927
:102A3000984296BF181AC0F1800000231844D4F8B9
:102A40006C391844E2E605F069FE8046842005F002
:102A50006EFE404605F045FED54B5A6B08F18003EB
:102A600093428CBFA2EB08094FF0800909F088FC63
:102A70004A46404608A909F021FD0DF1200881468B
:102A80004FF0000ACA45BFF65FAA18F8010B05F01F
:102A9000EFFD0AF1010AF5E7132005F048FEDFF823
:102AA00028934FF0000819F8010B08F1010805F010
:102AB000DFFDB8F10B0FF6D1002005F012FE32E475
:102AC00005F022FEFFF740BA05F028FE05F026FECD
:102AD000FFF73ABA022005F02AFEB54B588CFFF7F3
:102AE00085BB032005F023FE94F8ED0505F0F0FD0D
:102AF000AF4B187CFFF715BA4E2B3FF6C2A9222B1D
:102B000003D808F029FEFFF71FBA233B4FF0000857
:102B10002B2BF6D801A252F823F000BF852D000818
:102B2000032B0008FB2F0008032B000809300008C6
:102B3000032B000845300008032B0008032B000876
:102B4000032B000867300008032B0008032B000844
:102B5000032B0008032B0008032B00081B3100087F
:102B6000032B0008052E0008032B000897310008EE
:102B7000032B000823300008032B0008032B000858
:102B8000892C0008032B00086F2C0008032B000879
:102B9000032B000825310008032B000855310008DD
:102BA00015320008032B0008032B0008032B000834
:102BB000D12F0008032B0008812C0008032B0008EC
:102BC000AB300008032B0008C530000894F8EC3542
:102BD0005B070FD405F08EFD032828BF002084F882
:102BE0002805FEF735FCFEF78FFA03E005F08CFDB3
:102BF000A4F87206002005F09AFDFFF7A5B99AF82F
:102C00000580B8F1250F00F2D0800DF120094FEAC0
:102C10005808CB464FF0000AC2450CD365494346DD
:102C20000022084690450DDC0022122B10D1012312
:102C300084F89439DEE705F067FD0AF1010A2BF804
:102C4000020BE9E739F802CB21F802CB0132E9E7C0
:102C500020F813200133E8E705F056FDD4F8AC86E0
:102C6000A8F85E0005F050FDA8F85C00C2E705F08A
:102C700041FD84F88E0105F03DFD84F88D01B9E732
:102C800005F042FDA081B5E7D4F8AC8605F032FD31
:102C900088F8000003F0EEFDACE7D4F8AC8698F8B5
:102CA0000030022B5DD19FED449ADFED448A08F19C
:102CB000240908F1300AB2EE048A05F01BFD07EE84
:102CC000900AF8EE677A87EE887AA9EC017A05F027
:102CD00011FD07EE900AF8EE677A87EE897A89EDA2
:102CE000027A05F007FD07EE900AF8EE677ACA450A
:102CF00087EEA87A89ED057ADFD108F104094FF053
:102D0000030ABAF1070F1FD105F0F4FC07EE900A91
:102D1000F8EE677A87EE887A88ED127A05F0EAFC99
:102D200007EE900AF8EE677A87EE887A88ED137AD4
:102D300005F0E0FC88F850000AF1010ABAF10B0F27
:102D400009F10109DDD155E705F0D4FC89F800004F
:102D500005F0D0FC89F80B0005F0CCFC89F81600D2
:102D6000EAE708F10B0905F0C5FC08F8010F05F0CA
:102D7000C1FC88F80B0005F0BDFCC14588F81600C1
:102D8000F1D137E705F0B6FC132880460DD8D4F80A
:102D9000AC9605F0AFFC0A4A0023117A814215D0A7
:102DA00001331C2B02F10C02F7D108F0D5FC21E70E
:102DB00000000020D80D00200000C84200007A4426
:102DC0008014010868040020491D0108DC4A0C2118
:102DD00001FB032309EB880893F8483088F87D301D
:102DE00005F088FC88F87E0005F084FC88F87F00F8
:102DF00005F080FC494688F8800009F17D0008F064
:102E0000ABFDF7E605F076FC0B288146CDD8D4F86B
:102E1000AC8605F06FFC0328C7D8062303FB09889E
:102E200088F8D20005F066FC88F8CD0005F062FC59
:102E300088F8CE0005F05EFC88F8CF0005F05AFC5B
:102E400088F8D00005F056FC88F8D100D2E69AF850
:102E50000530092BA9D9D5F8988605F04BFC88F8E0
:102E6000000005F047FC88F8010005F043FC6428E9
:102E7000A8BF642088F8040005F03CFC6428A8BFC3
:102E8000642088F8050005F035FC88F8060005F098
:102E900031FC642828BF642088F8070005F02AFC6C
:102EA00088F8020005F026FC88F8030005F02CFCE9
:102EB000D5F8E038A8F80A005B790A2B7FF69AAEBD
:102EC00005F018FC88F8080094E605F01DFC6FF486
:102ED000AF6C00EB0C039BB2C62B98BFA4F8440167
:102EE00005F012FCA5F8D00005F00EFCA5F8D20004
:102EF00005F00AFCA5F8D40005F006FCA5F886014B
:102F000005F0F8FB05F0F6FB05F0F4FB05F0F2FB2D
:102F100085F8330105F0EEFB85F8400105F0EAFB8A
:102F200005F0F2FBD5F8AC3600EB80004000A3F8CA
:102F30005A0005F0DFFB85F8280105F0DBFB85F87A
:102F40002C0105F0D7FB85F82B0105F0D3FB85F8A4
:102F50002D014FE6DFF8F0914FF0000805F0D4FBAB
:102F600008F10108B8F1080F29F8020BF6D141E683
:102F700094F8EF35002B7FF43DAE05F0C5FB714BA7
:102F800084F8ED0501221A7434E605F0BDFB6D4BA3
:102F900058842FE694F8EC3558073FF52BAEFDF733
:102FA000DDFE1EE694F8EC3559073FF523AE4FF4ED
:102FB000C873A4F852351DE694F8EC355A073FF56E
:102FC00019AE94F8DB3843F0040384F8DB3811E6DB
:102FD00045F2082009F0C6F9062007F079FF012321
:102FE000C72084F8AE3907F073FF002384F86939ED
:102FF00084F86839C4F86C39FCE5C4F8088005F039
:103000008DFBFDF701F9F5E505F07EFBA4F8E8007E
:1030100005F07AFBA4F8EA0005F076FBA4F8EC00D2
:10302000E8E505F067FB84F8280105F063FB84F808
:103030002C0105F05FFB84F82B0105F05BFB84F8A5
:103040002D01D7E505F060FBA4F82E0105F05CFB2F
:10305000A4F8300105F04EFB84F8320105F054FB72
:10306000A4F83401C6E505F045FB84F83E0105F0FF
:103070004BFBA4F8480105F047FBA4F8440105F018
:1030800043FBA4F8460105F035FB84F83F019AF8AC
:103090000530082B7FF6AEAD05F036FBA4F84A01EB
:1030A00005F032FBA4F84C01A4E505F023FB84F8FD
:1030B000840105F01FFB84F8850105F025FBA4F8C9
:1030C000860197E59AF80580B8F1380F3FF66DAEA6
:1030D000DFF878904FF0000A40F6CA0B0323B8FBE4
:1030E000F3F8C24509F10209BFF484AD05F002FB13
:1030F00089F84C0105F008FB5845A8BF584640F236
:10310000EE239842B8BF18461922B0FBF2F01E38E1
:1031100089F84D010AF1010AE3E705F0EBFA84F8BA
:10312000400167E5DFF828904FF0000805F0E2FA6B
:1031300008F10108B8F1080F09F8010FF6D159E5B7
:103140003814010800000020FE0D00206804002053
:103150009D05002005F0CEFAC4F8088005F0DEFADF
:10316000FDF752F805F0C6FA84F83E0105F0CCFAF6
:10317000A4F8E80005F0C8FAA4F8EA0005F0C4FADB
:10318000A4F8EC0005F0C0FAA4F82E0105F0BCFA92
:10319000A4F830012EE59AF805304FF00708B3FB8C
:1031A000F8F8C8EBC8029B1ADBB2002B7FF4FDAD28
:1031B0005FFA88F808F1FF385FFA88F8B8F1FF0F76
:1031C0003FF418AD05F096FAD4F8E82840B2002391
:1031D000911C11F933C0844503D00133042BF8D17D
:1031E000E3E502EBC30989F8020005F08DFAA9F8BE
:1031F000040005F07FFA89F8060005F07BFA89F8EB
:10320000070005F077FA89F8090005F073FA89F8E4
:103210000800CFE71B4B4FF480421A85012384F846
:10322000AF39E7E40A2005F0AFF8FEF79DBE21F8BC
:10323000023B0132FEF7AEBE52F8040B00680133C8
:10324000C0F800C0FEF7B5BEC0B205F011FAB8F87C
:103250009A0105F03DFA98F89C0105F009FA98F8F2
:103260009D0105F005FA98F89F0105F001FA98F81C
:103270009E0105F0FDF9FFF7BDBB29B0BDEC048B45
:10328000BDE8F08F0008004808B5FEF7E1F8FDF74B
:103290003BFFBDE80840012005F01AB92DE9F04FC9
:1032A000B44DD5F8CC2795F8946A02F59C432033A9
:1032B0008BB0C5F8903A002E00F0DF80D5F8983A30
:1032C0009A4202D9013E85F8946AAA4CD4F8C8877C
:1032D00018F48053019305D0D4F82C36D80701D4C4
:1032E000FDF714FAD4F8B426937A23B304EB43031E
:1032F000127BB3F966351AB1C3F53B6308331BB2D1
:10330000A3F57A73B3F57A7FA8BF4FF47A7323EAF3
:10331000E37307EE903ADFED986AF8EEE77A87EE0E
:10332000A67ADFED967A67EE277AFCEEE77A17EE5B
:10333000903AA5F8343918F4807F00F03081D4F841
:10334000CC178F4A94F8F236914240F2258113B996
:10335000012384F8F23694F8116794F8EC25D4F838
:103360002CA6012E02F0040B14BF032700274FF0F8
:103370000009A2E1072C98BF195D8248BB6B88BF8A
:1033800021469847032C19D8C0B1D5F8B43603EBC1
:1033900084039A8FDB8F801A9B1A08FB00F090FB46
:1033A000F3F040F2EE2300F57A709842B8BF184669
:1033B00040F6CA039842A8BF184680B205EB440401
:1033C0000136A4F89C0A95F828B9D5F8B436F4B2B9
:1033D000A345CFD8D5F8C827D5F85C05019042F2AF
:1033E00001010A40039208D095F8FF2585F8FE25D3
:1033F000654A92F83D1082F83C1095F8FE85B8F1C8
:10340000000F04D0604A92F83C8088F0010895F8DB
:10341000C17A01995D4C0F2285F8C02A0322B7FBBF
:10342000F2F202EB420201F51671BA1AD2B205911C
:10343000A4F5AD61049204F25A5904F2A45A22464A
:10344000002602915E451CDB4A4E96F8C03A0F2BCF
:103450006DD1D6F82C365B0169D4D6F85C35D6F838
:10346000FC26C6F8F8369B1AC82B02D9012386F829
:103470001137013786F8C17A27E7434F4FF47A783E
:10348000A1E7B8F1000F33D0414931F91600998A0C
:1034900080B281422ED8D98A81422BD30599CAF8AD
:1034A0000010039900B2D9B1049929F811000299CA
:1034B00091F8541B29B9022F12D90298012180F8E2
:1034C000541BB9F80010B9F802000844B9F8041008
:1034D0000844304900B221F81600032190FBF1F0B6
:1034E00022F8020B013609F106090AF1040AA9E7DC
:1034F0004046CCE7DAF800100198814201D91088E3
:10350000CFE7F0B2CDE9063205F044F9032EDDE94C
:103510000632C6DCDFF85CE04FF0010C9EF8C01A02
:103520000CFA06FC21EA0C018EF8C01AB9E7164B1A
:10353000012283F83D2083F83C20D6F85C35D6F88C
:10354000F826C6F8FC369B1AD6F8F426934202D920
:10355000002386F811374FF0000807E05FFA88F083
:1035600005F018F924F8020B08F10108C345F5DC51
:103570007FE700BF6804002000007A4400C07F4459
:10358000404B4C00900D002000000020D00900208E
:10359000040F0020BE0F0020002B7FF4DCAE019B47
:1035A000B4F96E95002B00F0E580B4F84431B4F81E
:1035B000DE20991A494580F2E08013444B4540F3E0
:1035C000DC80FDF783F8FDF78FF84FF0000AAC4B75
:1035D00093F83EB094F8EC35590740F1D58018F0D7
:1035E000100F00F0D18094F8DB38DA0600F1CC80BF
:1035F000BBF1000F00F01D8194F88E31BAF1000F7D
:1036000040F006813BB1D4F85C15D4F894365B1ACF
:10361000002BC0F2B580102004F034FF012384F8A1
:10362000743BB1E0BBF1000F0DD0012E05D0052099
:10363000FCF7FAFD022384F8ED35002FAFD03846B1
:1036400004F020FFABE71AF0806F4FF4806005D0E4
:1036500008F0A2FF0023C4F80037EEE708F08EFF61
:10366000F8E7012E29D1052125E0012E04BF05210F
:1036700084F81017BBF1000F0FD0D5F8701BB1F90B
:103680000E10A5F86A15A5F86C15A5F86815D5F8FB
:10369000EC164988A5F86E156746D4F85C05D4F891
:1036A0000417814202D3BBF1000F60D142F21071C6
:1036B000C4F80C17032184F8101794F810C794F875
:1036C000EC05BCF1050FB8D801A151F82CF000BFF2
:1036D00025360008633600086B360008E936000816
:1036E000193700085137000840F0020085F8EC0552
:1036F000FDF70CF8D5F85C05D5F80C170144C5F8B2
:103700000817042185F810174FF4806008F036FF81
:103710000520FCF795FDD0E7012E11D1D4F85C35DA
:10372000D4F80817994288D2554991F83E1011B93A
:103730001AF0010F81D120F0020084F8EC0592E725
:10374000D4F85C25D4F80C371344C4F8083774E770
:10375000D5F8EC06D5F85C15C08885F8F396642397
:1037600003FB0011C5F8001785F81097CCE7012E70
:10377000A3D062E7B4F8463120E74FF0010A26E70C
:10378000FCF7C4FF84F874AB94F88C31019394F87F
:103790008D01B4F846C1B4F848E13A4900231E4609
:1037A00031F9027BB6086745C4BF66F07F06F6B202
:1037B00001337745B8BF46F04006042BF0D194F8AA
:1037C000753BB34239D194F8767BF92F03D8013792
:1037D000FFB284F8767B84F8756B08F00408BBF1BF
:1037E000000F40F0CC84D4F82C36DB0738D5BAF182
:1037F000000F24D194F8EC35D80706D5590702D428
:10380000012384F8B035FDF737FA142F53D140E087
:103810003BB1D4F85C154FF47A7013FB0013C4F875
:10382000943694F8743B002BAED004F019FE0023BC
:10383000F5E6BAF1000FF4D1EDE60027C9E7D4F8B8
:103840007C360A2BE1DCB4F850355A07DDD494F805
:10385000EF35002BD9D1FCF739FFFCF745FFD2E754
:1038600094F8EC355B07D0D594F8FE35002BCCD01E
:1038700010B1FCF74BFFC8E7BAF1000FC5D1F8E76C
:1038800000000020D0090020019B13B17D2E00F024
:10389000808494F8EC355F070DD4572E40F0CD802E
:1038A000D4F8F4384FF47A7213F00803A4F85425CE
:1038B00001D1A4F84236B8F1000F40F0E480D4F80A
:1038C000AC660023C4F82C3606F17F0706F1CF085A
:1038D0004FF0010917F8010C394604F019FE40B108
:1038E00017F8023CD4F82C2609FA03F31343C4F862
:1038F0002C3604374745EDD1B24F06F1CE0B4FF0D1
:103900000C0806F58B764FF000094FF0010A1BF802
:10391000010C594604F0FCFDE8B19BF804109BF83B
:10392000023008FB0140013BD0F8BC2603EB430307
:103930003B4493420FD09BF80320C0F8BC3694F868
:103940007D3B80F8B8260AFA01F123EA0103C0F8AA
:10395000C09684F87D3B0BF1060B5E45D7D1D4F8B9
:103960005C35019394F8FE350293019BD4F898B628
:10397000954F03F5FA73002603937968002900F048
:10398000388191F800A0BAF1000F00F03281BA68D6
:10399000019B9A1A002A0ADB039B94F87D2BBB60DB
:1039A000012303FA06F022EA000284F87D2B029B31
:1039B000002B00F01E813A78487894F87D8B043211
:1039C000D2B2002840F0888304EB4202B2F96805C5
:1039D000B4F8442102F1C80C604540F3F98091F835
:1039E000029048FA06F1CA0700F10381B9F1000F0D
:1039F000CCBF0220012004F06BFD0AF1FF31132936
:103A000000F28081DFE811F0710185019001A001D1
:103A1000B801C0011E027902E0020E033A037E01E2
:103A2000A001AD01C0011E027902E40141029E0223
:103A30000B2004F027FD84F8767BB8F1000F01D04D
:103A40005A2E17D0A6F15603082B57D8DFE803F0FB
:103A5000545656565652560550000123DEB2013BCD
:103A600084F82835FDF7F4FCFDF74EFB304604F0F2
:103A70002FFD20E794F8773B4BB1002384F8773B88
:103A8000012384F8783B94F8793B53B91FE094F80C
:103A9000793B83F0010384F8793BABB10C2004F04F
:103AA000F1FC94F8EC35580711D5B4F846314B4584
:103AB0000DDAD4F82C3613F0010302BF3222A4F839
:103AC0007A2B84F8793B02E00D2004F0DBFCD4F87B
:103AD0002C36D90366D594F87C3B2BB994F8773B08
:103AE00013B93223A4F87A3B012384F87C3BE6E641
:103AF0000323B3E70223B1E7FFF7C6FB334B93F889
:103B00003E3043B16F2E02D1FDF7B6F8D3E6019BEC
:103B10000BB17E2EF8D0972E04D14FF4C873A4F8C1
:103B20005235C8E6A72E06D194F8DB3843F00403DB
:103B300084F8DB38BFE60023B73E0993072E3FF633
:103B4000BAAE01A353F826F09F3B0008B73800082F
:103B5000B7380008B7380008693B0008B7380008D4
:103B6000973B00086F3B00080223002201E000237E
:103B70000222D5F8AC16B1F85C000244A1F85C2032
:103B8000B1F85E201344A1F85E30FFF77DFB0023FF
:103B900085F8763B8FE600236FF00102E9E76FF0CE
:103BA0000103E2E794F8773B002B3FF488AE94F8EA
:103BB000EC3513F0040302BF84F8773B012384F84B
:103BC000783B7CE6D0150108200B00200000002087
:103BD000C83A904203DA8A78C2F1000901E701236A
:103BE000B34028EA030384F87D3B019B03F5FA7395
:103BF000BB600136042E07F10C077FF4BEAED4F88B
:103C00002C56AB0706D4D4F8C837DF0507D594F88F
:103C1000F33623B1D4F8F4389E0700F196820120E0
:103C200008F0ACFC0123690740F19A82002B00F0F8
:103C30009782012008F0A2FCB4F8C4379A0704D494
:103C40000220FCF743FD08F0A7FC94F8EC355B0775
:103C500008D4B4F8C43703F044031BB1B4F84236B7
:103C6000A4F87236D4F8F43813F00A0F2AD0EF060D
:103C700040F17A82B4F8C4375E0706D4042008F015
:103C80008BFCB4F84236A4F87236A80640F1708274
:103C9000B4F8C437590602D4402008F07DFC6A0607
:103CA00042BFC54AB4F84236D38315F0080307D0A3
:103CB00094F8F83533B9C04AB4F84236D3830123B7
:103CC00084F8F8352B054FF4807040F1558208F0E8
:103CD00063FC6379082B02D00E2B40F061824020F8
:103CE0000BB0BDE8F04F08F049BC9BF800304B44E6
:103CF000FA2BA8BFFA2323EAE3738BF80030584667
:103D000004F02CFC0123B34048EA030884F87D8BBF
:103D10006FE79BF801304B44642BA8BF642323EA70
:103D2000E3738BF80130EAE79BF803304B44642BD4
:103D3000A8BF642323EAE3738BF80330D4F8801B15
:103D4000584604F027FCDDE79BF805104944642938
:103D5000A8BF642121EAE171BAF10D0F8BF80510BB
:103D6000D0D09BF804304B44642BA8BF642323EAD3
:103D7000E3738BF80430C5E79BF806304B4483F3BC
:103D800008038BF80630BDE7D4F8840B01780229CC
:103D900043D107EE909AF8EEE76AF2EE047A86EEE7
:103DA000A77AD0ED0A7A37EE277AB5EEC07AF1EE2F
:103DB00010FA2FD4DFED827AB4EEE77AF1EE10FA42
:103DC000D8BFF0EE477AC0ED0A7ABAF10F0F99D05A
:103DD000D4F8841B0B78022B2BD107EE909AF8EEC7
:103DE000E76AF2EE047A86EEA77AD1ED097A37EE29
:103DF000277AB5EEC07AF1EE10FA17D4DFED707ABB
:103E0000B4EEE77AF1EE10FAD8BFF0EE477AC1EDE2
:103E1000097A77E7DFED6B7AD5E781784944C829DD
:103E2000A8BFC82121EAE1718170CEE7DFED657A94
:103E3000EDE74B784B44C82BA8BFC82323EAE373B4
:103E40004B705FE7D4F8840B0178022940D107EE6C
:103E5000909AF8EEE76ADFED5A7A86EEA77AD0ED0F
:103E60000D6A37EE267AB5EEC07AF1EE10FA2CD450
:103E7000B4EEE77AF1EE10FAD8BFF0EE477AC0ED73
:103E80000D7ABAF1100F3FF43DAFD4F8841B0B78D4
:103E9000022B29D107EE909AF8EEE76ADFED487A17
:103EA00086EEA77AD1ED0C6A37EE267AB5EEC07AA7
:103EB000F1EE10FA15D4B4EEE77AF1EE10FAD8BFAD
:103EC000F0EE477AC1ED0C7A1CE7DFED3E7AD6E7DB
:103ED000417B4944C829A8BFC82121EAE171417347
:103EE000CFE7DFED387AEDE70B7B4B44C82BA8BF5B
:103EF000C82323EAE3730B7304E7D4F8840B017837
:103F0000022944D107EE909AF8EEE76ADFED2B7AAA
:103F100086EEA77AD0ED107A37EE277AB5EEC07A22
:103F2000F1EE10FA30D4DFED267AB4EEE77AF1EE56
:103F300010FAD8BFF0EE477AC0ED107ABAF1110F3F
:103F40003FF4E0AED4F8841B0B78022B2BD107EEA4
:103F5000909AF8EEE76ADFED197A86EEA77AD1ED4E
:103F60000F7A37EE277AB5EEC07AF1EE10FA17D451
:103F7000DFED137AB4EEE77AF1EE10FAD8BFF0EE87
:103F8000477AC1ED0F7ABDE6DFED0E7AD4E7017E08
:103F90004944C829A8BFC82121EAE1710176CDE7CB
:103FA000DFED087AEDE7CB7D4B44C82BA8BFC823D3
:103FB00023EAE373CB75A5E60000002000007A44F5
:103FC0000000C84200000000D4F8841B0B78022BCC
:103FD0001FD107EE909AF8EEE76AF2EE047A86EEC9
:103FE000A77AD1ED0B7A37EE277AB5EEC07AF1EEEB
:103FF00010FA0BD45FED0E7AB4EEE77AF1EE10FA18
:10400000D8BFF0EE477AC1ED0B7A7BE65FED137A0D
:10401000F9E7CB784B44C82BA8BFC82323EAE37346
:10402000CB706FE6D4F8841B0B78022B1DD107EE02
:10403000909AF8EEE76A5FED1E7A86EEA77AD1EDE8
:104040000E6A37EE267AB5EEC07AF1EE10FA09D490
:10405000B4EEE77AF1EE10FAD8BFF0EE477AC1ED90
:104060000E7A4FE65FED297AF9E78B7B4B44C82B3C
:10407000A8BFC82323EAE3738B7343E6D4F8841BF9
:104080000B78022B1FD107EE909AF8EEE76A5FEDEE
:10409000357A86EEA77AD1ED117A37EE277AB5EE2A
:1040A000C07AF1EE10FA0BD45FED3B7AB4EEE77A0A
:1040B000F1EE10FAD8BFF0EE477AC1ED117A21E6A1
:1040C0005FED407AF9E74B7E4B44C82BA8BFC8236D
:1040D00023EAE3734B7615E601287FF413AEBAF1B9
:1040E0000C0F7FF40FAE04EB42028978B2F9680539
:1040F00040F633029042A8BF1046B0F5617FB8BFCA
:104100004FF46170A0F561704FF49662B2FBF1F26A
:10411000B0FBF2F094F8B026C0B282423FF4F2ADA8
:10412000032894BF0246022285F8B0260AFB0252F9
:1041300002F22A520490C5F89826FCF7E9FD04988B
:104140000130C0B204F0C4F9DCE5B4F8C437D807D4
:1041500004D40120FCF7BAFA08F01EFA002362E545
:10416000022008F00BFA70E5042008F007FA8CE54D
:10417000402008F003FA92E508F000FAA9E5142FB0
:104180007FF499AB94F8EC755F2E07F004077FF489
:104190007BAB002F3FF44CACFCF7B8FAFFF779BBD0
:1041A0000BB0BDE8F08F1649D1F8883043F47003A6
:1041B000C1F88830134B1A6842F001021A6058683F
:1041C000114A02405A601A6822F0847222F4803246
:1041D0001A601A6822F480221A605A6822F4FE02D9
:1041E0005A60DA6A22F00F02DA62186B074A02405C
:1041F0001A6300229A604FF000638B60704700BF23
:1042000000ED00E0001002400CC07FF8CCFC00FF85
:1042100080EAE073A3EBE0738B4206DB002801DD4C
:10422000401A704702D008447047002070472DE9BB
:10423000F041824CD4F8883BA0EB030842F20F73A4
:1042400098452DED048B40F2EB8044F620639845B1
:104250007B4DC4F8880B81BF0023C4F8943BC4F89D
:10426000983BC4F89C3B95F83F3043B394F8EC2559
:1042700012F0040223D1734BC4F8942B002119606F
:1042800040F2DC50C4F8982BC4F89C2B85F83F20F2
:10429000C4F8A42BC4F89C25A3F24C42A3F5876371
:1042A000694EA4F88C054FF07E5010605660916006
:1042B000D060116118605E609960D8601961D4F8AF
:1042C000A86BD4F8AC3BB3426ED0F31A08EE903A28
:1042D000DFED5E7A5E4BF8EE688A68EEA78AD3ED72
:1042E000007AF5EEC07AF1EE10FA40F29D8013EDFF
:1042F000017AB5EEC07AF1EE10FA40F2958087EEC1
:10430000270AB5EEC00AF1EE10FA40F28D80DFED1B
:10431000517A93ED018A38EE278A0AF073FBDFEDBC
:104320004E7A28EE000A20EE270ADFED4C7A20EEC6
:10433000270AF6EE007AF4EEE78AF1EE10FA31DCA5
:10434000B4F9B03B0F2B72D1B4F9B23B444A02EB43
:10435000830201331BB20F2B08BF0023A4F8B23B2A
:10436000D2ED007A0E23A4F8B03B3E4B93ED017AD8
:1043700077EE877A30EE670A83ED000AB4F92A39BE
:10438000002BB8BF5B429BB21E2B07D8B4F92C3967
:10439000002BB8BF5B429BB21E2B4CD9324BEB605B
:1043A000FCF75EF9C4F8AC6BD4F8983B002BC9BF9E
:1043B000D4F8942B9FED2D9A07EE902AB8EEE77A69
:1043C000C4BF07EE903AF8EEE77A294BC8BF87EEF4
:1043D000279A9FED287AA3EC019AD3ED007A69EE33
:1043E000277AF4EEC77AF1EE10FA08D49FED227A1C
:1043F000F4EEC77AF1EE10FAD8BFB0EE677AB4F9EE
:10440000083C1E4E0027052B86ED007AC4F8947BED
:10441000C4F8987BC4F89C7B36DC0133A4F8083CD4
:10442000BDEC048BBDE8F0819FED100A81E7144BD1
:10443000D3ED007A99E74FF08043B0E7680400209D
:104440000000002008100020CDCCCC3D6F12833A34
:10445000F00A0020339388438E2BEA410000C842C3
:104460001C1000205C1000200000A0400000000094
:1044700064100020000048C4000048446C10002074
:10448000581000200024744907EE908A1FED036A3B
:1044900016ED190A56ED039A56ED058AF8EE677A7D
:1044A000A6F5CA63C7EE866AA6F5C96216ED046A68
:1044B000D3ED005AD6ED027A66EE255AA6F24C6389
:1044C000E5EEA67AD3ED005AC6ED027A66EE255ADD
:1044D00077EE877AA5EEA60AD2ED005A26EE256A77
:1044E00067EEA67AE6EE269AB0EE407AB6EE006A5D
:1044F000A7EE867A30EE270AE7EE268A06ED190A3D
:1045000046ED039A46ED058A0AF04EFB39EEA80AFD
:1045100008EE100A0AF048FBB4F9B01BB5F84020C9
:104520000E2902F1010207EE900A12B2A6F1500321
:1045300000F3F2800E2ACCBF3A46174603EB820303
:104540000131A5F84070C3ED008AA4F8B01B834F79
:1045500097ED036A97ED007AD7ED016A97ED020AAD
:1045600057ED045A36EE076AB8EEC88A76EE266A28
:1045700038EE408A86EE267AF7EE006AA7EE080A41
:1045800087ED047A36EEC77A17ED038A87ED020AC3
:1045900027EE067A17ED056A87ED037A17ED027AA2
:1045A00037EE067AF8EEE77A77EE255A77EEC87A94
:1045B00087EE256AA6EE278A76EEC66A07ED016ABF
:1045C00066EE876A07ED038A47ED026A0AF0ECFAA5
:1045D000B0EE480A0646C4F8100C0AF0E5FAB4F941
:1045E0003C36C4F89805002BB8BF5B429BB2B3F5CC
:1045F000487F07F2AC4780F0AE80B4F93E36002B1E
:10460000B8BF5B429BB2B3F5487F80F0A48094F8BA
:10461000EC25AB7A97ED007AD4F8508712F00402BB
:1046200008BFC4F89405002B40F08E80D4F8943570
:10463000181AB0F5FA7F4A4BA8BF4FF4FA709842A7
:10464000B8BF18460521FFF7E3FD98F80430454947
:1046500043438B427BDB002BB8BF7F33DB11B3F5C9
:10466000967FA8BF4FF49673991B98F80A303E487E
:104670004B4383426DDB002BB8BF1F335B11B3F597
:10468000967FA8BF4FF496732AB198F81500D4F816
:10469000A42B01FB0022B2F5161F3449A8BF4FF42A
:1046A00016128A42B8BF0A46C4F8A42B002ABCBF1F
:1046B00002F5FF521F3203EB623398F8202007EE19
:1046C000902A37EE097AF8EEE77A6FF0950167EEF7
:1046D000877A9FED277A67EE877AFDEEE77A17EE05
:1046E000902A962AA8BF96228A42ACBF9B1A5B1AD0
:1046F00030460521C4F89C3587ED009AFFF788FD08
:10470000002EB8BF7642C82EC8BF0123C4F83009B6
:10471000C8BF85F83F3083E6B4F8B21BA5F8402047
:1047200001310F2A09B206D1A5F84070C3ED008A05
:10473000A4F8B21B0BE703EB82030F29C3ED008A39
:10474000F6D1A4F8B27B02E7D4F8AC358CE7094B7C
:104750008AE7084B98E70023CAE700BFD00B002088
:104760000CFEFFFF8169FFFF61DAFFFF0080DAFFC7
:104770000000003BD4FEFFFFD0ED005A9FED2B4A16
:1047800008B535EE840AFBF76BFEF0EE403AB0EE6A
:10479000650AFBF765FE90ED015AF0EE404A35EEF2
:1047A000040AFBF75DFEF0EE405AB0EE450AFBF757
:1047B00057FE90ED023AB0EE405A33EE040AFBF792
:1047C0004FFEB0EE404AB0EE430AFBF749FE65EEFD
:1047D000C07A20EE236A24EE847AC1ED017AF0EEED
:1047E000467AE5EE077A24EE233A64EE806AC1ED5C
:1047F000037AF0EE437AE5EE667AA5EE067AE5EE08
:10480000436A24EE254A64EEE54A65EEA35A81ED3B
:10481000004A81ED025AC1ED047AC1ED054AC1EDAD
:10482000066A81ED077AC1ED085A08BDDB0FC93F62
:104830002DE9F04F2DED028BB1B04FF00009FBF7E1
:10484000BFFC18B9FCF78AFAFCF702FEBA4DBB4C64
:10485000FCF75AFC95F8188C48F0010385F8183CD1
:10486000B74B4FF47002C3F88820002304930593DC
:104870000693236843F480332360236803F40033F2
:104880000593049B01330493059B1BB9049BB3F56B
:10489000A04FF2D1236813F4003318BF012305930E
:1048A000059B012B40F0018302230693A54B1222A6
:1048B0001A606368636063686360636843F480637D
:1048C0006360636823F47C136360636843F4E813F4
:1048D0006360236843F08073236023689F01FCD5E5
:1048E000636823F003036360636843F0020363605B
:1048F000636803F00C03082BFAD1069B904EC5F8B1
:104900001C3C914BF360636A636A43F0807363629B
:10491000636943F4FC031CAF636103238DF87230B9
:10492000394641F6FF734FF09040ADF8703006F015
:10493000BDFC4FF6FF738548ADF87030394606F080
:10494000B5FC8348394606F0B1FC8248394606F08A
:10495000ADFC8148394606F0A9FC39467F4806F08F
:10496000A5FC384603F0DCFF1C9B7D4AB3FBF2F349
:10497000C5F8203C7B4B7C4ADFF8FCC14FF0000EB1
:10498000C5F824ECC3F804E04FF0E0230DF1740AFD
:104990005A61F02286F823200722C3F818E01A6132
:1049A000BCE80F003E460FC6BCE80F000FC69CE8EF
:1049B0000F00D5F808B0C5F8C8B786E80F006369DE
:1049C00043F400236361636943F400236361636913
:1049D00043F400236361636943F4003363614FF080
:1049E000904310221A8520221A8540221A85584A9F
:1049F0004FF4804393614FF4005393614FF40043AD
:104A0000936176465AF8040C5146013606F04EFC86
:104A1000062E0AF1080AF5D1544B1C936369DFF89E
:104A20005CA14A4843F480236361394606F03EFCAA
:104A30009AF820200823002A40F03A82434A9361E2
:104A40004B48C5F8E80804233022002100F2A27088
:104A500085F8363901260BF08BFB1422002117A8AC
:104A600085F8446948F005080BF082FB1BF4802FA1
:104A700008BF85F82C6C85F8188CE369334E43F435
:104A80008043E361236943F480432361636943F412
:104A900080236361736A23F470037362736A43F45F
:104AA000A0037362736A23F070637362736A43F0E6
:104AB000A0637362736A23F070437362736A43F096
:104AC000A0437362336A23F470033362336A43F49E
:104AD000A0033362736A23F470237362736A43F42E
:104AE000A023736240F2023B4FF4604339463046E4
:104AF000CDE91C3B06F098FB2022012339463046C5
:104B00004FF480581C928DF8743006F08DFB3946B6
:104B10003046CDF8708006F087FB236943F480436C
:104B20002361236923F480432361124B998821F484
:104B300080510904090C23E06804002000100240A1
:104B400000ED00E0002002400005FA0500040048E6
:104B500000080048000C00480010004800140048FD
:104B600040420F008C1000203F1901000800010294
:104B7000FE050020003800400C160108000000204F
:104B80009980998889B241EA08019980198801F4CD
:104B9000415141F4437141F003011980998821F496
:104BA00070610904090C41F4E0619980998B21F44A
:104BB00000610904090C998307211982198889B2B7
:104BC000202241F040011980B261C6F81880636963
:104BD000DFF8B883C5F8EC8843F480236361E369A8
:104BE00043F40013E361236B23F010032363236B6F
:104BF00043F010032363736A23F00F037362736A35
:104C000043F004037362736A23F0F0037362736A00
:104C100043F04003736239464FF480733046CDE968
:104C20001C3B06F001FB4FF40073394630461C93E1
:104C300006F0FAFAD8F80030B5F9E81023F00103CD
:104C4000C8F80030D8F80020C24B1340C8F8003034
:104C5000C14BC8F81030D8F80030B5F9EA20002070
:104C600043F00103C8F80030C8F80800C8F80C0089
:104C7000C8F80800D8F8083043F40043C8F80830F2
:104C8000D8F80030C8F80030D8F8043023F0784362
:104C900023F40043C8F80430D8F8003043F001038F
:104CA000C8F80030B5F9EC3041EA02041C431FD0CB
:104CB00007EE901A9FEDA97A8AF84200F8EEE77A9B
:104CC000A74967EE877A3846CDED1C7A07EE902A21
:104CD000F8EEE77A67EE877ACDED1D7A07EE903A27
:104CE000F8EEE77A67EE877ACDED1E7AFFF744FD9E
:104CF0009C4EB5F8F03003934FF0000B102259464C
:104D0000A6F5EE70C5F858BC95F8EF4095F8F78019
:104D100085F854BCC6E901BB0BF02AFA2320C5F87C
:104D200068BCA5F864BCC6E905BBC5F874BC03F053
:104D30002BFB0BAA0121752004F0BAF9002840D002
:104D4000894AC5F86C2C894AC5F8702C43F6433261
:104D5000A5F8682C01210FAA584604F0A9F99DF87E
:104D60003C20002800F0A780EA2A40F0A48042F608
:104D70003352594606267F20A5F8682C85F8646CC6
:104D800004F0E5F80A2003F0FFFA7821032004F08C
:104D9000DEF80A2003F0F8FA0121304604F0D7F8D3
:104DA0000A2003F0F1FA3F21072004F0D0F8142084
:104DB00003F0EAFA5946072004F0C9F80A2003F084
:104DC000E3FA95F8643C0022062B85F8782C40F035
:104DD000DF80674BC5F87C3A664BC5F8803A664B76
:104DE0006649D960D5F8F4380A2C43F00101C5F8BA
:104DF000F41828BF144640F2FD2121FA04F212F003
:104E0000010240F05681012C40F051819E0785F847
:104E1000792C00F15B81D5F87C3A03989847002300
:104E200085F87A3CB8F1000F40F054814FF000084B
:104E3000002422467F2168208DF8704004F063F83A
:104E400032220F21682004F05EF8224603216820F8
:104E500004F059F801223B4611460C2004F0A5F855
:104E60009DF87030092B40F03E81454BC5F87C3CE5
:104E7000444BC5F8803C072385F87A3CD5F8F438D4
:104E800043F00803C5F8F43895F8E4300BB185F821
:104E9000783C95F8E5300BB185F8793C95F8E6302B
:104EA000002B78D085F87A3C75E00123069324E541
:104EB000354A1385C4E502F07E028DF83C2040B1EE
:104EC000682A06D1012385F8643C1D2385F8683CD7
:104ED00077E79DF82C3003F07E03682B8DF82C309B
:104EE00032D1062102233A46084685F8643C04F094
:104EF000DFF89DF875309DF873209B00520002F09A
:104F0000020203F0040313439DF8712002F0010232
:104F100013430CD0012B03D1002385F8653C50E7E7
:104F2000022B01D10123F8E7022003F03CFA13AA77
:104F300001210C2004F0BCF89DF84C3013F00F0355
:104F4000F2D0042BEED1E7E7702B04BF042385F8E1
:104F5000643C36E7FFE0CF007A25E00035FA8E3C6E
:104F600098100020C0100020B19000084F8F00085A
:104F7000A9B30008C1620008E40E00202D23FA3B0B
:104F8000578F0008C79000080004004800540040F4
:104F9000022385F8543C95F8F830052B7DD8012480
:104FA00004FA03F313F0160F40F0A58013F0290F55
:104FB00073D00A2003F0E8F94CF6EF030FA90220A2
:104FC000ADF83C3006F002FE002800F09480204648
:104FD00003F0DAF913A902208DF84C908DF84D906A
:104FE00006F0DAFC002800F08680BDF84C305BBA91
:104FF00003F03F03082B7ED1424B9DF84C90D3F831
:10500000040293F808321C9039463B7105209DF844
:105010004DB006F0DBFD00286DD03B4C4FF2C77859
:1050200004F110060FA90220ADF83C8006F0CEFD79
:10503000002860D0012003F0A7F913A902208DF801
:105040004C908DF84DB006F0A7FCBDF84C309DF8A3
:105050004C909DF84DB05BBA9BB200284BD007EE48
:10506000903AF8EEE77AE4EC017AA642DAD1274BDF
:10507000C5F8A83C264BC5F8B03C264B00221A6068
:105080006223C5F8B83CD5F85C35C5F8BC3C0320B4
:10509000002385F8C03C06F0EDFDD5F8F43843F068
:1050A0000403C5F8F4381C4C49F6117647E0144661
:1050B000A3E6002285F8792C184AC5F8582C43F04D
:1050C0000303174AC5F85C2CC5F8F438D5F8583CEA
:1050D0009847A0E6A8F10203032B7FF6A9AEB8F12A
:1050E000010F04D1D0E6B8F1000F3FF4CDAE00239C
:1050F00085F87A3C9AE695F8543C43F0200385F80D
:10510000543CD0E738140108EC10002075BC0008AE
:1051100031BA00081C1100200008004895B30008AF
:105120008D620008A38A9BB283F40053A382A38AF2
:105130009BB283F48043A382642003F025F93B46AD
:10514000022200214020ADF8706003F0E9FD002844
:10515000E8D0D5F81C3C012B02BF95F8543C43F035
:10516000400385F8543C95F8540C00287FF4DDAEDC
:1051700095F8183CC24C43F0020385F8183C4FF4F4
:10518000005323854FF48043A3610F26A38A9BB26B
:1051900083F40053A382A38A9BB283F48043A38247
:1051A000A38A9BB283F40043A382192003F0ECF896
:1051B000013E192003F0E8F816F0FF06E6D14FF49F
:1051C0008043A3614FF40053A3614FF40043A361F4
:1051D000D5F8F4381C0705D5D5F87C3C9847012351
:1051E00085F8C13CD5F84437DFEDA66A1B7BA5F8EE
:1051F000C23CBAF82630A44807EE103AB8EEC77A97
:105200001A22C6EE877AFF219FEDA07A67EE877A91
:10521000C0ED007AA0F206300AF0AAFFD5F8F41823
:1052200001230022880785F8F83885F8F92807D582
:1052300085F8FA38032385F8F838022385F8FB3817
:105240004A0708D595F8F8385A1C2B4485F8F828F1
:10525000032283F8F92895F8F83811F00A0F03F1C2
:105260000102D2B210D0E9182A44042081F8F908CA
:10527000052182F8F918DA1C023355FA83F385F810
:10528000F828062283F8F928D5F8C877BB0608D590
:1052900095F8F8385A1C2B4485F8F828072283F82B
:1052A000F9286B79082B01D00E2B08D195F8F83826
:1052B0005A1C2B4485F8F8280B2283F8F92895F816
:1052C000F828A918531C0C207C07DBB281F8F908D8
:1052D00005D52B440232102183F8F918D3B2E9180E
:1052E00012205A1CD2B281F8F908780585F8F828FE
:1052F00009D595F8B81131B102332A4485F8F83848
:10530000132382F8F938B90508D595F8F8385A1CEE
:105310002B4485F8F828152283F8F928FA0508D5D2
:1053200095F8F8385A1C2B4485F8F8281A2283F887
:10533000F928982200215648564C0AF019FF0120FE
:1053400003F08EF94FF04C0B00286AD1D5F8E43900
:10535000B5F944C1C5F8E4384F4BC5F8703B00229D
:10536000A5F8F02685F8F226C5F81427C5F8182701
:10537000C5F8B43685F8C12AD5F8AC16B5F844019D
:1053800003F23246624603F6D613F82526F8022BBE
:105390000135D4F85C25EDB202F516720A2D43F8FA
:1053A000042B65D1FB0454BFB4F84A310346A4F87A
:1053B0006E3501F1500591F87D30ABB991F87F2041
:1053C00091F880309A420FD2002A6BD0013A02EB5A
:1053D000820202EB820202F5617293B291F87E20A2
:1053E00004EB4202A2F8703504318D42E3D13E074E
:1053F0006DD594F83E21062A63D8DFE812F05B00F1
:10540000310434045C047D04970497040BFB06FA12
:1054100004EB0A0999F82E8AB8F1000F04D001367E
:10542000F6B2022EF2D191E702791C4B90F90000FE
:10543000CDF8048003EB820303220092D3F80C32F0
:105440004246012106F0BEFE039068B1144848228E
:10545000414650440AF08CFE039BC9F8E43901230D
:105460001E4489F82E3AF6B2012003F0D3F86BE718
:10547000022D9DBFB4F84621643212B2624685E720
:10548000000800480AE81C41681000200000C842DB
:105490004C0E0020680400209E05002038140108EE
:1054A000500E0020013303EB830303EB830303F56A
:1054B000617393E745F2F053A4F8C43C06F0BAFEDA
:1054C00028B90820FAF7A8FEC54BC64A9A6317F414
:1054D000804F18BF1223C24D1EBF84F82839C24B1B
:1054E000AB6342F201031F4211D044F62063A4F8DB
:1054F000C43CBB0441BF082384F82839BB4BAB63D1
:10550000FE0741BF0C2384F82839B94BAB6394F8EC
:105510002839B84F043B84F8293932209F234FF4AF
:1055200080580DF14C091CAE139302F02DFF00239F
:10553000A7F828800422494630468DF8713006F0DD
:10554000C3FE9DF87130C7F818809DF872201B04C7
:1055500043EA02239DF873201343A74A934200F0C5
:10556000268400F31D84A2F51A42033A934200F008
:10557000258402F51A420232934200F04B84002344
:10558000C5E90C33AB6202F0ADFD6379C4F8180DC8
:10559000052B04BF4FF4C873A4F85235FBF760F82D
:1055A0004FF47A73DFF87C82A4F854350320D4F8E2
:1055B000A83C9847DFED917A47460837C8ED007A56
:1055C0004FF0650AB0EE677AB0EE678AB5EE407AC2
:1055D000F1EE10FAC7ED007A40F04384BAF1010A07
:1055E00040F02A8494F8DB3843F0080384F8DB3871
:1055F00094F8EC3523F0020384F8EC35D4F8C8377E
:1056000040F602021A4222D00027032384F8A5386C
:10561000394601237A4885F82430C822A4F8A878AE
:10562000A4F8AC78A4F8AA78A4F8AE780AF0A0FDA3
:10563000D4F85C35C4F8B438724BC4F8D87700207D
:105640000021C3E9000184F8D47784F8A47894F8A1
:10565000183C6D4FD4F80880C4F8C88763F07F0306
:1056600084F8183C3B464FF0804243F8042B674ACD
:105670001A60674BBB604FF49663A4F87235654BB4
:10568000AB610120644D84F82C0C002105F035FE3F
:105690000321002005F031FE95E80F000DF11C0AF2
:1056A0008AE80F0005F110030FCB0DF12C0E8EE8E8
:1056B0000F0005F120030FCB0DF13C0C8CE80F001F
:1056C00005F130030FCB89E80F0005F140030FCB44
:1056D00086E80F009AE80F0007F10C0585E80F0037
:1056E0009EE80F0007F11C0A8AE80F009CE80F00F3
:1056F00007F12C0E8EE80F0099E80F0007F13C0C23
:105700008CE80F0096E80F0007F14C0C8CE80F00B6
:105710004FF4967002F038FE4FF48C7207F15C0083
:1057200000210AF025FD3D4BDA6942F00702DA61FB
:105730009A6942F4A5229A615A6942F4C0225A61D8
:1057400000200F27AA7B696895F80FC002F00703B5
:10575000D20801EB82029B00116A0CFA03FC07FAE3
:1057600003F321EA03031362136A04304CEA0303D0
:105770001428136205F11005E4D16279D4F8E81811
:10578000182A9DBF264BD34003F0010300238DF858
:1057900066300022881C10F93250022D00F09383ED
:1057A0000132042AF7D100228DF86120C8F34002AB
:1057B0008DF86220C8F380128DF86420C8F340325F
:1057C0008DF85C20C8F3C0328DF85F2018F40062B9
:1057D0002AD094F83221D51E6A426A4124E000BFE3
:1057E00000000020C9600008E5600008CD600008E6
:1057F000D96000080004004818BA2000000000002A
:10580000440C0020280D002084110020ABAAAA3FE0
:1058100026B4973EA08601006416010800100240DD
:1058200000410001EC0A00208DF86020C8F300421E
:105830008DF8652008F001028DF85D20C8F3C002E4
:105840008DF85E20C8F3804218F4805FB4F8D4105D
:105850008DF86320B4F8E020ADF86A101CBFB4F8EE
:10586000DC10ADF86A10B2F5FA7FADF8682094BF8D
:10587000BDF86A200022ADF86A2094F8822184F8ED
:10588000902E00225B0018F0090FA4F8912ECB4A4D
:1058900018BF013302EB83034FF6FF79D3F87C3254
:1058A000A3F102080833039338F8020F484500F0CB
:1058B000C880030A022B00F0C080C14AC0B2012B8D
:1058C0004FEA001B02EB001040F085839DF85D302D
:1058D000002B00F0B28004EB0B07002384F8943E09
:1058E000C4F8983EC4F89C3EC4F8A03EC4F8D43E28
:1058F00084F8DC3E97F8353DB7F8302DC4F8E80E53
:1059000031468DF87230D7F82C0DADF87020022397
:10591000C4F8D89E8DF8733005F0C8FC94F8902E2A
:10592000D7F8285D97F832AD012A18BF00212A6AFE
:1059300008BF0321BAF1000F40F0CC8222F001022F
:105940002A62AA69286A22F0F30242EA011220F0D0
:105950000A0042F0010240F00100AA612862AA692F
:1059600022F00C02AA61AA69AA610122002128463C
:1059700005F0A2FB2A88934F92B242F00102BB4489
:105980002A809BF833BD584606F0CEFABBF11B0FB8
:1059900002D1192006F0C8FA8B4AC7F8EC2E4FF056
:1059A000000B8A4AC7F8F02E2846C7F8F4BE05F067
:1059B000FBFA062841D80A214143854A01EB9A01A6
:1059C00007EB810C131DCCF8782DCCF8883D4FEAFD
:1059D0009A0C0223E96803FA0CF39BB20B43EB60C9
:1059E00028234343A2F5BA7203F120011144EFF3D7
:1059F000128C4FF0500E8EF312880C33134453F870
:105A0000042F0AB10A60111D0BF1010BBBF1040F49
:105A1000F5D100230B605FFA8CFC8CF311882823EE
:105A200003FB0077D7F8983D002B40F0D082EB685D
:105A300023F001031B041B0CEB60039B43457FF425
:105A400033AF644E644D042384F8B0390FCE0FC5D4
:105A50000FCE0FC50FCE0FC596E80F0085E80F00DB
:105A6000D4F8C837D4F82867D4F8240703F4805250
:105A7000A5F256650023002A00F0E082818825F80F
:105A8000021B01330C2BF6D1544B0F934FF0904374
:105A9000CDE913334FF44173ADF82C30504B514DD9
:105AA00021954FF0A041CDE91C1301204FF0805308
:105AB000002713AC0BAE05F10D094FF0020B0DF1F1
:105AC0001C080DF13C0ACDE91E0303F558531CA830
:105AD0002093ADF81C70CDF89490CDF89CB0CDF823
:105AE0008880CDF88CA02494269606F0F3F83E4AE0
:105AF0003E490F922022ADF8402007C984E80700F4
:105B00003B4ADFF808C111889278ADF82C10B270CA
