:020000040800F2
:1000000000A00020E5E800084DE900084DE90008DF
:100010004DE900084DE900084DE900080000000026
:100020000000000000000000000000004DE9000892
:100030004DE90008000000004DE90008DD800008DF
:100040004DE900084DE900084DE900084DE90008B8
:100050004DE900084DE900084DE900084DE90008A8
:100060004DE90008D78000084DE900084DE9000877
:100070004DE900084DE9000859AF00084DE90008B6
:100080004DE900084DE900084DE900084DE9000878
:100090004DE900084DE900084DE900084DE9000868
:1000A000B9B1000871B10008C9B1000861B1000818
:1000B00075B1000885B1000895B100084DE9000848
:1000C0004DE900084DE900084DE900084DE9000838
:1000D0004DE9000899AF0008A5AF00084DE90008F8
:1000E000D18000084DE900084DE900084DE90008FD
:1000F000B5B100084DE90008A5B100084DE90008B8
:100100000000000000000000000000004DE90008B1
:100110004DE900084DE900084DE900084DE90008E7
:100120004DE900084DE900084DE900084DE90008D7
:100130004DE900084DE90008000000000000000043
:100140004DE900084DE900084DE9000800000000F5
:10015000000000000000000000000000000000009F
:1001600000000000000000004DE900084DE9000813
:100170004DE9000800000000000000000000000041
:08018000000000004DE9000839
:1001C00010B50F4B1A786A2A17D15A88B2F5AA6F60
:1001D00013D11A79BE2A10D193F84E25EF2A0CD1EB
:1001E000084C002213F8011BA342104682EA0102C8
:1001F000F8D1431A5842584110BD0020FCE700BF17
:1002000000F0030850F50308024A93680343936023
:10021000704700BF68040020024A936823EA000385
:100220009360704768040020044A0123B2F8501517
:1002300083400B43A2F85035704700BF680400208C
:10024000044A01238340B2F8500520EA0300A2F8D3
:10025000500570476804002010B50C4CB4F85205E6
:10026000B4F85435184380B260B9FFF7E9FFB4F829
:10027000500510F0010004D1D4F85805003818BF1B
:10028000012010BD0020FFF7CFFFF0E76804002039
:10029000704B71481A68596870B5D0F85C45A21A5D
:1002A0008A4215DB1A7A9AB190F86025B0F8506549
:1002B0000132D2B280F86025002101252E4208D1FA
:1002C00001316D000929ADB2F8D15A6822441A6093
:1002D00070BD89B20139072905D8DFE801F01BACF0
:1002E00090819D452E7064225A605D7A5B4A4FF47E
:1002F00080404FF4005190612DB111854FF40041C1
:100300001185002204E091614FF4004191610122C6
:100310005A72DAE75D7A64225A604FF480404F4A9D
:100320004FF4004125B1108591614FF40051E7E78A
:10033000906191614FF40051E8E790F861154748EA
:1003400021B364225A604FF4804282614FF400521C
:1003500082614FF400420285B7E74FF48042018585
:1003600002854FF40052F6E790F861153B4869B1F9
:1003700064225A60828A92B282F4005282824FF4DE
:10038000804282614FF4004282619EE702F00302E4
:100390007821022A59604FF40041DED0032A0AD0A6
:1003A000012A01854FF4804201D0826100E002857C
:1003B0004FF40052E8E781614FF48042F5E790F88E
:1003C0006125002A81D064225A60244A4FF480417A
:1003D00011854FF4004191614FF40051916174E730
:1003E0001E4964225A604FF480428A614FF40042F1
:1003F0008A618A8A92B282F400528A8265E7642214
:100400005A60164A4FF4804191614FF40041916166
:100410004FF40051118558E7104964225A604FF497
:1004200000528A618A8A92B282F480428A824FF4B0
:1004300000428A6149E7642112F0010F5960074ABE
:100440004FF480414FF4004001D11085C3E7906123
:10045000DDE700BF0000002068040020000800481D
:10046000FDEEC07A17EE903A2033402B43D8DFEDF3
:10047000237A9FED237AB4EEE70AF1EE10FA28DC36
:10048000DFED207A9FED1E7AB4EEE70AF1EE10FA66
:1004900022D4DFED1D7AB4EEE70AF1EE10FA1EDD8C
:1004A00030EE670A37EEC00A60EE007ADFED176AB9
:1004B0009FED177AA7EEA67ADFED166AE7EE876A58
:1004C0009FED157AA7EEA67A20EE276AA6EE070A18
:1004D000704730EE470ACEE730EE070AD4E79FEDCB
:1004E0000F7AB4EEC70AF1EE10FA44BF30EE270AD5
:1004F00037EE400AD8E79FED0A0A7047DB0F494004
:10050000DB0FC940DB0F49C0DB0FC93F9A7C2E3699
:10051000FAAF4FB93587083CA4AA2ABEDB0FC9BF82
:100520000000000003685A1C026019707047002325
:100530001B68FFDE30B5484BD3F86425B3F96E1560
:100540009578D278B3F98C05002A41D00A1A82EA4C
:10055000E274A4EBE274AC4223DD012012F5997F32
:1005600083F88E051ADD062092FBF0F2502AA8BF10
:100570005022B3F89005024412B2A3F8AA25A3F8BA
:10058000902593F8B025002A61D040F2DC529142C8
:100590005DDC4FF47A72A3F8AA2530BD6FF031020A
:1005A000E7E793F88E2532B1D3F89825C3F8942560
:1005B000002283F88E25D3F89C25D3F8A04510445B
:1005C00022889042D8DB62888242A8BF0246D3E7E5
:1005D00040F2DC529142214C23DDA1F2DC529542E3
:1005E00028DAA1F2DC52002ABCBF6FF4BB628A1881
:1005F0009210782AA8BF7822C3F8AC250122A272F3
:1006000083F88E25D3F89C25D3F8A0451044228882
:10061000904203DB62888242A8BF0246A3F8AA2563
:10062000AFE7521A954205DAB1F5896FD9DC6FF060
:100630006302E1E70022A27293F88E45C3F8AC256D
:10064000002CDFD0D3F89845C3F89445D8E70022B2
:1006500083F8B025A1E700BF680400200000002057
:10066000134BD3ED037A134BF5EE407AF1EE10FA0B
:100670004FF0000203F1040103F1080003D11A60F6
:100680000A6002607047F0EE086A86EEA77A80ED95
:10069000007A27EEA77A67EE877A86EE876AF7EE0A
:1006A000006A86EEA77A81ED006A83ED007A7047D2
:1006B000000000201C0A0020034BB3F8C0351D2B9E
:1006C00001D80420B0E5704768040020054B0022E3
:1006D000C3F8C425C3F8C82503F2CC5300221A601E
:1006E0005A60704768040020074B0022C3F8D425E5
:1006F000C3F8D825C3F8DC2503F5BC6300221A60D3
:100700005A609A60704700BF6804002010B5164C0C
:1007100094F8EC355A0706D523F00503042084F835
:10072000EC3507F0B3FE94F8ED25104B0AB100222A
:100730001A7401225A74782200215A82042040F24D
:1007400014529A8284F8EE1584F8EF1584F8F015A7
:10075000C4F8F415FFF774FD0520FFF771FD84F868
:10076000F81584F8B01510BD6804002000000020C2
:100770002DE9F047C74C94F8F935B4F8FA2504EBA5
:100780004303B3F968359342C0F26D81B4F8FC2598
:10079000934200F3688194F8FE550DB994F8FF5523
:1007A00094F8023684F8005684F80156002B00F0C5
:1007B0000D81D4F80476D4F80836FB1AC72B40F222
:1007C000058194F80C86B8F1000F40F0F5804146A1
:1007D000404608F0ABFBB04BB048002D08BF1846B0
:1007E0000BF0B4FED4F8106694F8FE95022E40F09B
:1007F0008C81B4F85035DA0740F13781A84BC4F842
:100800001436D4F81486B8F1000F06D00620002163
:1008100008F08CFB40460BF099FE002110200136B9
:10082000C4F8106608F082FBB4F8C0359D480A2170
:10083000B3FBF1F201FB12339BB29B490AF094FF28
:1008400098480BF083FE0721002008F06FFBB9F1F8
:10085000000F40F0638194F8FF2594488E4B002AE6
:1008600008BF18460BF072FED4F82C66D4F85C353D
:1008700094F8302616F0010600F05281002A40F06C
:100880005481C4F83426B4F85025D20504D5012289
:1008900084F83026C4F8383607210846D4F83436B0
:1008A0004FF47A724FF03C0AB3FBF2F808F03EFBCB
:1008B000B8FBFAF97E497B484A460AF055FF794869
:1008C0000BF044FE07210C2008F030FB79497548F5
:1008D0000AFB19820AF048FF72480BF037FE10201D
:1008E000072108F023FB7448744B002E08BF1846FC
:1008F0000BF02CFE002D5FD10221012008F016FB29
:100900000A266F49B4F93E26664892FBF6F20AF0D1
:100910002BFF64480BF01AFE0321012008F006FBB0
:100920006849B4F93C265F4892FBF6F20AF01CFFD6
:100930005C480BF00BFE0421012008F0F7FAB4F933
:100940004226614957480AF00FFF56480BF0FEFD5A
:1009500002210B2008F0EAFAB4F96A255B495148F4
:100960000AF002FF4F480BF0F1FD03210B2008F0C5
:10097000DDFAB4F9682553494A480AF0F5FE4948BA
:100980000BF0E4FD04210B2008F0D0FAB4F96C253B
:100990004D4944480AF0E8FE42480BF0D7FD0521D6
:1009A0000B2008F0C3FAB4F96E2549493D480AF016
:1009B000DBFE3C480BF0CAFD94F84436AB4201D054
:1009C0000BF0ADFD84F84456C4F80876002D00F015
:1009D000288107F08BFBD4F84836C31A002BC0F2ED
:1009E000AA803C4DAB690344C4F848362B7F9BB1C9
:1009F000394B00264FF400522E729A614FF4004298
:100A00009A6101214FF480429A6108460AF02CFA5B
:100A100001232E7784F84C364FF090434FF48072C8
:100A2000A4F85426C4F850361B8A4FF40032DB0574
:100A3000C4F8582609D494F8ED35012B05D00123CC
:100A400084F8ED352B7496236B82012100200AF087
:100A50000BFA012102200AF007FABDE8F047002155
:100A600001200AF001BA00259AE6980701D51B4B30
:100A7000C5E6D90601D41A0701D5194BBFE6980679
:100A800005D4B9F1000F2FD194F8FF2562BB154BA7
:100A9000B5E600BF68040020701C01086A1C01084C
:100AA000881C0108800A0020E21C0108761C01084D
:100AB000EA1C0108F21C01087C1C0108821C0108C8
:100AC000F81C0108021D01080C1D0108161D010873
:100AD000201D01080000002000080048921C0108A9
:100AE0009C1C0108A61C0108590701D55D4B86E630
:100AF0005A0601D55C4B82E6180601D55B4B7EE6B3
:100B0000D9057FF57EAE5A4B79E6052E01BF594BCC
:100B1000C4F81436C4F81086464672E65648A1E674
:100B2000002A3FF4B9AE84F83066D4F838269B1A10
:100B3000C4F83436B0E6514A0023A2F1B801101DC2
:100B4000157815B3032B06D050F8235021F8135015
:100B500001330132F4E7D4F86C36A4F86E3594F81A
:100B6000703613B10023A4F87236454E00230125D8
:100B700016F8012B002A50D0DBB2013B042B08D819
:100B8000DFE803F0111B293741000133042BE0D1CA
:100B9000E5E701200BF004FD002384F8753684F8A6
:100BA00074560123E4E701200BF0ECFC002384F8E9
:100BB000743684F875560223DAE704200BF0F0FC53
:100BC00040200BF0DFFC012384F87636002384F804
:100BD00077360323CCE740200BF0E2FC04200BF037
:100BE000D1FC012384F87736002384F87636042379
:100BF000BEE708200BF0D4FC002384F8793684F893
:100C000078560523B4E708200BF0BCFC002384F8D9
:100C1000795684F87836BDE8F0870133062BA7D1E2
:100C2000F9E794F84C36002BF5D001212846C4F89A
:100C3000605684F85C56C4F8645684F85D56C4F86F
:100C4000685684F85E56C4F86C5684F85F5684F88B
:100C500070560AF009F90B4B84F84C5601221A72AF
:100C60001A77D8E7B01C0108BA1C0108C41C010897
:100C7000CE1C0108D81C0108761C0108C40A0020FB
:100C8000DC0A002000000020224B93F8EC2512F033
:100C9000010F02F0040103D1D3F87C06012833DCF4
:100CA00093F8800680B393F8810668BB39B11A4A7D
:100CB0001346516843F8081BD2681A607047D3F88E
:100CC0002C16480124D491071FD442F0040283F863
:100CD000EC2593F8EE2522B9012283F8EE25D3F80E
:100CE0005C250E4AB3F84216D183D3F85C25D3F8BD
:100CF0005C1593F88E214FF47A7012FB00120520D8
:100D0000C3F8942607F0C2BB11B9012007F0E4BB79
:100D1000704700BF68040020EC0A0020000000209B
:100D200070B5104CD4F89856284607F01BFC287A6A
:100D300004F29C6400226FF01806192112FB026372
:100D4000434303F6C41353430132072A93FBF1F3E1
:100D500024F8023BF2D128460349BDE8704007F071
:100D60001DBC00BF68040020380500202DE9F84FA5
:100D70004FF4AA622DED028B0021C8489FEDC88A6E
:100D80000FF0F6F9C54A02F5E4730021C2F8AC365B
:100D900002F22A566A2303244FF4006015461370AA
:100DA000547182F8B016C2F89866FFF72DFA8020C9
:100DB000FFF72AFA0220FFF727FA4FF40060FFF747
:100DC00023FA4FF48070FFF71FFAC823A5F8FA3012
:100DD000B44BDFF83CC3DFF83CE385F832414FF415
:100DE0008037C5E93B73B04BC5F8F4304FF47A73E4
:100DF000A5F8343142F22013C5E94AC34FF0A0638D
:100E0000C5F8C431A94B85F828154FF07E58C5E9BF
:100E100051E340F64303A5F84C312A46A5F8E41007
:100E200085F8E610C5F8FC10A5F80011C5F8E81023
:100E300085F8F810C5F81081C5F81481C5F8188137
:100E400085ED478A85ED488A85ED498AA5F83011F8
:100E5000A5F8B81185ED6F8A85ED708AA5F83E1169
:100E60002B462C460329CCBF0122002201F10101AF
:100E700083F84E2114BF1E220522122983F84F2128
:100E800003F10203EED18A4BC4F84031834B0022B8
:100E90004FF47A704FF4FA610132042AA3F8720118
:100EA000A3F8741103F10403F6D1824A824B8349FB
:100EB000C4E96323824BC4F8D030A3F1FA73643BD6
:100EC000C4F8D43003F5602303F5CB73C4F8D830ED
:100ED0007C4B00274FF00109C4E9371384F8827175
:100EE00084F894910AF00EFD40F6AC53A381764B42
:100EF000C4F8C83103F10343A3F51D23A3F29D7386
:100F0000C4F8CC317148724B724AC4F8F821C4E974
:100F10007403714BC4F8D8312D2384F8DD3141F6C8
:100F20001E63A4F8DE316D4BC4F8E031C4F8FC2137
:100F300045F205336A4AA4F8E431C4F81422642364
:100F40004B2284F8E63184F8182240F201534FF422
:100F5000FA72A4F8E831A4F81A22624BC4F80432F9
:100F600040F2DC52C4F80832A4F834255E4BC4F8D1
:100F7000F43144F25A125D4BA4F82A254FF07F5108
:100F80003222A773C4F81032C4F81C72C4F82C259E
:100F9000A4F8307584F83275C4F8EC11C4F8F01177
:100FA000C4F8008284ED838AA4F82272C4F82C323B
:100FB00042F62803A4F83032152384F834324C4B1F
:100FC000C4F82472C4F838324A4F4B4B84F8449228
:100FD000DFF83891C4F83C3240F60822474BA4F8B9
:100FE0002822C4F84032BA4609F1080BB84617F86F
:100FF000011B002943D14FF42053A4F8DE324FF4F3
:101000004873A4F8E2323E4BC4F88431C823A4F8F4
:101010008A3184F8DD1284F8E01284F8E41284F84E
:1010200088110C23013B05F1100585ED008AF9D1EB
:1010300034494FF4907288180BF0BEFA31494FF4DE
:10104000907201F510700BF0B7FAD4F82A35C4F895
:1010500036352D4A73685360B368D4F82A15936007
:10106000C4F842155361012384F84033716811615B
:10107000022384F86034BDEC028BBDE8F88F23486E
:101080000FF0C4F80028B1D058453FBFA0EB0900CD
:101090000019A8EB0A0880F83681A7E76804002049
:1010A000000000002A005802FA0020006C077503B7
:1010B000001E0001000105960101C800B4053200C0
:1010C0004C04D00750463200012828962828783C46
:1010D0000A0A4600CDCCCC3E0002210A1E321E0078
:1010E000000040408FC2F53C000020400000A040BE
:1010F0009A99193F2A1D0108F6287C3F1F856B3FEE
:101100000AC81405300600209E0900203814010882
:10111000190A0A2ADC054C042DE9F843FFF750F8B8
:1011200010B9032007F043F9C14C07F007FB4FF457
:10113000AA62C04920460BF03FFA94F82865022EB7
:1011400088BF00264FF4907506FB05F504EB0502F9
:1011500088BF84F8286592F82032022B84BF0023D0
:1011600082F820320C2284F8B03605F5E47702FBD1
:10117000034303F22A5308202744C4F89836C4F8DE
:10118000AC76FFF749F84FF40050FFF745F801201F
:10119000FFF742F84FF48040FFF73EF8FFF734F8CE
:1011A0004FF4907303FB0643002283F8452241F27B
:1011B0000302A3F84622A04AC3F8482202F1805253
:1011C000A2F57E42C3F84C229C4A4FF4866CC3E9D8
:1011D00094C2202283F85822052384F8F93540F27E
:1011E000AA53A4F8FA3540F20E63A4F8FC35944BE8
:1011F000012283F82020A36846F209021A4203D193
:101200004FF40050FFF700F8A368D80703D54FF458
:101210000050FFF701F8A368590409D50820FEF72C
:10122000FBFF4FF40050FEF7F7FF0120FEF7F4FF3D
:10123000A3681A0706D54FF40050FEF7EDFF012012
:10124000FEF7EAFFA3689B0402D54020FEF7E4FF07
:10125000012384F8B93194F88C312BB194F8903192
:1012600013B1002384F89031DFF8EC81C4F8B48620
:10127000002002464FF0FF0E04EBC003B3F89A11B2
:101280004B0803F077334FEA910909F03339CB1A51
:10129000A3EB09034FEAD10909F01139A3EB0903C4
:1012A00003EB231303F00F33B3FBFEF9C9EB09295A
:1012B00001F0010CA3EB09036244012BD2B207DD5C
:1012C000022B0BD1BCF1000F08D011F0BC0F05D0E0
:1012D00001300428D0D1013A012A01D90AF012FBC9
:1012E000FFF71EFD302200215648DFF870910EF006
:1012F0003FFF05F24520394620440AF031FB4FF408
:10130000907303FB0646C4F8E89696F8C80105F00A
:10131000B5FA09F18E03C4F8EC3694F88431DFEDA8
:101320004A6AC4F830876421C82213FB0123B4F849
:10133000F210C4F8F4360023C4F8F836C4F8FC36CA
:10134000C4F80037C4F80437C4F80837C4F80C37B9
:10135000A4F81037C4F81437C4F8183707EE901AF9
:1013600009F10603C4F82037A9F11E03B4F8F410FC
:10137000C4F82437F8EE677A09F19A03C4F82C37D9
:1013800009F23E63C3ED017A07EE901AB6F828120F
:10139000A4F8341796F8441284F8361794F88F118D
:1013A00084F84017B6F8E212C4F8443707EE101A72
:1013B000F8EE677AB8EEC77AC3ED027AC6EE877A9E
:1013C00005F50C732344C4F8483705F2DD2509F20E
:1013D0005663A9F126022544C4F82827C4F850779B
:1013E0004FF07E519FED197A67EE877AC3ED007A50
:1013F00009F25E63C4F86455C4F8A025144A1A6063
:101400004FF07C5209F272695A6000229A60D960EA
:101410001A61104BC9F80030C9F80410C9F8082047
:10142000C9F80C10C9F81020BDE8F84307F09EB9C0
:101430006804002000F003083001030010050010CC
:1014400000000020200B0020000061444C3D0F44B0
:101450000AD7233CCDCCCC3D9E0500205E05002064
:101460002DE9F74F07F06AF9434B6A221A704FF4DF
:10147000AA625A80BE221A71EF22A3F84E2540F2CA
:10148000515100221846013955D13C4B80F84F2567
:101490001A69120604D53A4A5A6002F188325A6033
:1014A000364C384E03254FF03409C4F80C900AF03E
:1014B00017FA0428DFF8C08038D1236943F002030B
:1014C0002361314B6361236943F0400323610AF0D8
:1014D00007FA2369042823F00203236126D14FF081
:1014E000000BDA4658F8047BCDF804A00AF0F8F9AE
:1014F00004281BD1236943F0010323610BF100632E
:1015000003F57C33BAB21A800AF0EAF9042816D13E
:101510000BEB06030193019B3F0C1F800AF0E0F9DF
:101520002369042823F0010323610DD0013D15F048
:10153000FF05BAD10DE013F8014B6240A3E7236920
:1015400023F001032361F1E70BF1040BBBF5AA6F54
:10155000C8D10A4A1369042843F08003136102D1F9
:10156000FEF72EFE10B9042006F021FF03B0BDE8FF
:10157000F04F07F0FBB800BF6804002000200240D5
:101580002301674502F0030800F003082DE9F04F3E
:10159000D54ED6F89886B6F96EE5B8F80A202DED46
:1015A000048B9645A9B0C0F2B581BEF5FA6F98F8E4
:1015B0000740BDBFAEEB020313FB04F3C2F5FA62B2
:1015C000C4F16403BCBF93FBF2F3C3F16403019362
:1015D000B6F844310393C54BD6F8ACB6069303F581
:1015E0000B7203F13C070592A3F5AD6503F22F22C0
:1015F00008F10403DA460492002064210793069B55
:1016000033F9022B029206931346039A9B1A03F2B4
:10161000F31240F2E634A24200F27E81002BB8BF02
:101620005B42022800F07B819BF815211AB19A4297
:10163000B4BF9B1A0023B3FBF1FC05EB4C024FF641
:101640009C74B2F99A97B2F99C271CFB043CA2EB5C
:1016500009020CFB02F292FBF1F24A443A80079A2B
:10166000125C12FB03F3A24A93FBF2F3019A643378
:101670009BB2534393FBF1F31AF8012F059C5A4395
:1016800092FBF1F204F8012B9AF8162005945A43C4
:10169000049B92FBF1F203F8012B022804931EBF76
:1016A000944B019AC254DDE9023208BF85F8AA17AB
:1016B0009342B8BF3B8800F10100BCBF5B423B8056
:1016C000032807F102079AD1DFF83492D5F82C8667
:1016D000B9F92230581C0DD018F0080F0AD0D5F8EF
:1016E0009825323B934205DC40F2DC539E45C8BF4F
:1016F000A5F86E3595F8EF351BB1B9F81430A5F89B
:101700006E35B5F96E35B5F846219342C0F2328197
:10171000B3F5FA6FA8BF4FF4FA639B1A4FF47A71CE
:101720004B43C2F5FA626424B3FBF2F393FBF4F18A
:1017300005EB41026FF06307B2F9AC07B2F9AE27CF
:1017400007FB0133121A534393FBF4F30344A5F848
:10175000AA35B5F8C437590639D5B5F84236B9F8BF
:101760001E20DFED657A9FED650A9B1A1BB205EE20
:10177000903AF8EEE55A65EEA75A35EE800AFEF784
:101780006FFEB0EE405AB0EE650AFEF769FEB5F99D
:10179000A63506EE903AB5F9A43507EE103AF8EE04
:1017A000E66AB8EEC77A67EE007A20EE660AE6EEE1
:1017B000857AA7EE050AFDEEE77ABDEEC00A10EEC7
:1017C000103AA5F8A43517EE903AA5F8A635D5F845
:1017D000C8A71AF0020F00F0E280D5F8CC27D5F8A0
:1017E000D03745F20721D31A8B4240F3D88002202C
:1017F000C5F8D02709F09EFBC2075EBFC0F3CF0437
:101800001923B4FBF3F495F8D437D5F8D82705EBB2
:10181000430148BF4FF6FF74B1F8DC07A1F8DC477D
:10182000121A144401336422B3FBF2F102FB1133A8
:1018300085F8D43795F8A438C5F8D847632B9EBFF0
:101840000133DBB285F8A438B4FBF3F495F8A5387E
:10185000A7B2032BA5F8C07540F08E800A2F40F286
:101860009E8099F8241001EB810101EB8101002396
:101870004FEAC11B01EB01114FF416721FFA8BFBEB
:10188000C90085F8A538282041F26803A5F8A628E4
:10189000A5F8A838A5F8AC18A5F8AAB806F078FD00
:1018A0002A21B7FBF1F107EB8707013107EB870727
:1018B00089B2BF000829BFB228BF0821A7EB0B07D8
:1018C0004FF4167241F268037A43A3EB0B0389F8D5
:1018D000241092FBF3F3A5F8AE38034AB2F8AC3803
:1018E000A4B2633BA3420DE068040020D0090020AD
:1018F0000CFEFFFF100C002035FA8E3CDB0FC93FB9
:10190000000000204BDD0123082082F8A53806F0F6
:10191000BDFD44E064235AE64FF4FA7381E69BF878
:1019200016211AB19A42B4BF9B1A0023B3FBF1FCF3
:1019300005EB4C024FF69C74B2F99C96B2F99E26C8
:101940001CFB043CA2EB09020CFB02F295F9EEC071
:1019500092FBF1F2CCF1000C4A4412FB0CF2A5F818
:10196000A82598F8062012FB03F3B74A93FBF2F37D
:10197000643381E61346D0E60A2F00F2AD800323DC
:1019800085F8A538002389F82430A5F8AC38A5F8E7
:10199000AA38A5F8A838A5F8A638A5F8AE381AF4DC
:1019A000006FAA4C59D0D4F8CC27D4F8B03845F2FF
:1019B0000721D31A8B4250DDD4F85C35C4F8B02827
:1019C000D4F8B428C4F8B4380120A3EB020B09F012
:1019D000B1FA00B2632840F3B080642390FBF3F0C7
:1019E00007EE900AF8EEE77AB2EE047AC7EE876A5D
:1019F0009FED977AC6EE877AFCEEE77A17EE903A7B
:101A0000B3F5803FAABF00221A461346C4F8B8288F
:101A10009BB2DFF848A2D4F8C078DAF80420E3FBE0
:101A20000B72914600238B4A384649460AF0D4FE91
:101A3000C317B0F5803F73F100032ABF00230346AC
:101A40001846C4F8C838B4F8AE38C4F8C0781B1AC1
:101A50009BB2CAF80490C4F8CC3818F4805F02D066
:101A60000A2006F013FDD4F8D098B9F1000F22D067
:101A7000D4F85C35D4F8D4289A421CD894F8DA38D3
:101A8000B4F8D878002B5AD1D9F80430012284F860
:101A9000DA28DB5D3BB137B999F80030053B93425A
:101AA00001D806F023FBD9F80430DB5DFE2B4AD1C8
:101AB0000023A4F8D83894F8EC154B074FF0080031
:101AC00051D5FEF7B1FB0720FEF7BAFB0620FEF763
:101AD000B7FB614F0023C4E0012B05D0022B1FD0C0
:101AE000002B3FF4FAAE5AE795F8EC3523F00203E9
:101AF00085F8EC35B5F8AA38A4B2633BA34204DDFF
:101B0000022385F8A538072014E0B5F8AC38643313
:101B10009C420EDD002385F8A538FEF7CDFD3EE79B
:101B2000B5F8AA38A4B264339C42ECDD012385F8F1
:101B3000A538082006F0AAFCEFE7002369E7002398
:101B400084F8DA38AFE7FF2B02D106F08DFCB2E75C
:101B5000D4F85C250A2113FB01230137C4F8D438DB
:101B6000A4F8D878A7E7FEF76BFB18F0010F10D1A7
:101B700094F8DB381F0702D594F88036CBBB0720DA
:101B800021F0010184F8EC15FEF75AFB0620FEF760
:101B90004BFBB4F8502594F8DC38500734D5EBB93A
:101BA00084F81C37D4F814374BB94FF49673C4F843
:101BB0001437D4F85C3503F59673C4F81837D4F8A5
:101BC0005C35D4F818279B1A002B1FDB012384F8FF
:101BD000DC380023C4F81437C4F8183794F8DB381D
:101BE0001B0713D50220FEF72BFB002384F8DC38FB
:101BF0000CE041F00101072084F8EC15FEF714FB1E
:101C00000620FEF71DFBC4E7002BE7D1B4F8C03572
:101C1000222B11D90023032084F88136FEF710FB14
:101C2000FEF71AFB00283FF454AF94F8EC3523F08C
:101C3000010384F8EC354CE70123032084F8813656
:101C4000FEF7F2FAECE700BF0CFEFFFF680400208D
:101C50006F12033B80EE36004C0E0020280D002052
:101C6000132397F84A800193B8F1010F40F0BE8129
:101C70003B68C4F8E078C4F8E4384FF005094FF049
:101C8000000BD4F8E40803685B689847002800F06C
:101C90006D81D4F8E4080368DB689847D4F8E0A8BD
:101CA0009AF84830052B12D8DFE803F0030A9FA406
:101CB000B3BD242840F0CD8001238AF8483006E0E7
:101CC000A0F14D014842484140008AF848009AF886
:101CD0004830062BD5D19AF849307C2B00F2CC80C5
:101CE000002B00F016875A1E7B2A00F20D87DFE8D2
:101CF00012F0160123018F019A01AF010B070B07A8
:101D00000B070B070B070B070B070B070B070B0743
:101D10000B070B070B070B070B070B070B070B0733
:101D20000B070B070B070B070B070B070B070B0723
:101D30000B070B0755040B0799050B079E050B07AF
:101D4000BF050B07D1050B07D7050B070B070B07C3
:101D50000B070B0726060B077C040B076D060B070A
:101D6000AC050B071F034E040B0750030B070B07B3
:101D70002D060B073F060B070B07DB069206B20684
:101D80000B075A030B07F5050B0703060B070B0799
:101D90000B070B070B070B070B070B070B070B07B3
:101DA0000B070B070B070B070B070B070B070B07A3
:101DB0000B070B070B070B070B07F301A7020B071A
:101DC000DD02F0020B070B070703150324035F0373
:101DD000A1030B0716055B05A50441040B07ED04E1
:101DE0000B070B070B07F90600073C2814BF00235D
:101DF000032362E7402802D98AF848B067E78AF8E7
:101E000005008AF804B08AF807B08AF806000423AF
:101E100053E79AF806308AF8490043408AF80630BA
:101E20008AF8489053E79AF804309AF805109AF81F
:101E30000620994208D942408AF806205A1C534489
:101E40008AF80420187242E790420CBF0623002350
:101E500033E794F8EC355A073FF539AFD4F8E83852
:101E60001B7883427FF433AF8F4B904AC3F8FC2F2B
:101E70008F4B904ADA602AE7F02B00F0B2843CD80E
:101E8000DD2B00F02586DE2B00F02686A02B00F04F
:101E9000B684C72B40F23D86C83B2A2B00F2398618
:101EA000DFE813F0B506370603073706DD078808B5
:101EB00092081B08800837069C06AC06B006370659
:101EC0006008370637066E087B0837063706370680
:101ED000370637063706370637063706370637061A
:101EE000370637063706370637063706370637060A
:101EF0003706E20637063706B006FE2B00F064848C
:101F0000FF2B00F06981F22BC3D9FA2B40F0018638
:101F100094F8EC355B0740F16C8600F0FABD0320C5
:101F200006F009FC002006F0A7FB002006F0A4FB49
:101F3000182006F0A1FB0FE0082006F0FCFBDFF8FC
:101F400084914FF0000819F8010B08F1010806F020
:101F500093FBB8F1080FF6D1D4F8E038987906F081
:101F60008BFBD4F8E038002283F8482094F8AF398E
:101F7000002B3BD0D7F80080D8F8003040465B6992
:101F80009847002801F05681D4F8C8374A49D80448
:101F90004CBFD4F82437D4F8283794F8B0099B887C
:101FA00000221BB25FFA82FC8445C1F0488109F02F
:101FB00033F8322006F0ECF9002394F8B0193F4AC8
:101FC0009C46D8B28842C1F03F81322006F0E0F949
:101FD000D4F8C837590306D5A3685A0303D440F28E
:101FE000DC5006F0D5F9324B324ADA60019B132BF4
:101FF00007F14C077FF434AED4F8843A002B01F09B
:1020000044812F4829B0BDEC048BBDE8F04F184740
:10201000032006F090FB022006F02EFB022006F0C3
:102020002BFB002085E7102006F085FB0C2006F036
:1020300053FBDFF894904FF0000819F8010B08F1FA
:10204000010806F019FBB8F10C0FF6D10020D5E01D
:102050001A2006F070FBDFF874904FF0000819F8B2
:10206000010B08F1010806F007FBB8F10B0FF6D1E0
:10207000DFF85C904FF0000819F8010B08F1010837
:1020800006F0FAFAB8F1080FF6D1DFF848904FF0F1
:10209000000819F8010B08F1010806F0EDFAB8F193
:1020A000070FF6D158E700BF00900020EFBEADDE6D
:1020B00000ED00E00400FA05E40B00201C0E0020F7
:1020C000F40E0020331D01083C1D0108491D0108C4
:1020D000541D01085D1D01080B2006F02CFBB4F80F
:1020E000500506F0F9FAD4F8EC28CB4B9A420CBF15
:1020F000B4F8F008B4F8F20880B206F0EDFAD6F8B9
:10210000F438C3F3C000C3F38002800040EA420009
:10211000C3F340021043C3F3401240EAC200C3F3CA
:10212000001340EA031000F01F0006F0D5FAB6F8DD
:10213000C42796F8EC35D6F82C1696F8F888DFF810
:10214000E0C2500000F00200C3F380030343C2F377
:10215000400043EA800302F008000343C2F380001A
:1021600043EA0013C2F3801043EA401301F4E07025
:102170001843C2F3001340EA4320C2F3401340EA7D
:102180008320C2F3002340EAC32001F47F230343EA
:1021900001F480100343C2F3402043EA405301F0AE
:1021A0000071C2F380220B43002043EA82634FF0A8
:1021B000010E0246424504D306F097FA94F828052A
:1021C000B7E61CF8011B0EFA01F119421CBF0EFA0A
:1021D00002F108430132EDE70023B4F85015A4F8EA
:1021E000143901220A420CD101335200092B92B258
:1021F000F8D1022006F09FFAB4F8140906F06CFA40
:10220000AAE69BB2013B072B05D8DFE803F0080ADA
:102210000C0F111315170123A4F81439E9E7022351
:10222000FAE74023F8E74FF48073F5E78023F3E7FC
:102230002023F1E71023EFE70823EDE70423EBE782
:10224000122006F078FA754BB5F91609DB8CB3F558
:10225000806F88BF4FF0080890FBF8F080B206F05E
:102260003BFAB5F9180990FBF8F080B206F034FAA1
:10227000B5F91A0990FBF8F080B206F02DFAB5F81E
:102280001C0906F029FAB5F81E0906F025FAB5F87A
:10229000200906F021FAB5F8220906F01DFAB5F872
:1022A000240906F019FAB5F82609A7E7102006F068
:1022B00042FADFF870914FF00F0808F1FF3819F873
:1022C000010B5FFA88F806F0D7F9B8F1FF0FF4D1E7
:1022D00042E694F82809DFF85091400000F0FE0033
:1022E00006F029FA4FF0000894F828399845BFF411
:1022F00033AE39F8020B06F0EFF908F10108F3E705
:10230000062006F018FAB4F82A0906F0E5F9B4F840
:102310002C0906F0E1F9B4F842066FE7062006F052
:102320000AFAD4F8980506F0E0F9B4F8300965E740
:10233000042006F000FA002070E2072006F0FBF906
:10234000B4F8C005FF28A8BFFF20C0B206F094F97A
:10235000D4F8CC384FF6FF784345A8BF434623EA6C
:10236000E37080B206F0B8F9B4F8340906F0B4F9B5
:1023700094F83331D4F8B80843B10A2358434045A0
:10238000A8BF404620EAE07080B237E700F30F00B4
:10239000FAE7022006F0CFF994F88E0106F06CF906
:1023A00094F88D01C5E5022006F0C5F9A08925E75E
:1023B0000B2006F0C0F9D5F89836187806F05CF9CD
:1023C000D5F89836587806F057F9D5F89836187930
:1023D00006F052F9D5F89836587906F04DF9D5F847
:1023E0009836987906F048F9D5F89836D87906F0F5
:1023F00043F9D5F89836987806F03EF9D5F898362E
:10240000D87806F039F9D5F89836588906F064F985
:10241000D5F89836187A8CE500540040000000206A
:10242000610D0020E40B0020D00900200000C8420C
:1024300000007A44212006F07EF9D4F8AC361B78EF
:10244000022B4FF000087DD11FED089A5FED088A3E
:10245000B2EE048AD6F8AC3603EB880393ED090A92
:1024600020EE080A0CF0A0FB80F30800C0B206F0D2
:1024700003F9D6F8AC3603EB880393ED0C0A20EE93
:10248000090A0CF091FB80F30800C0B206F0F4F8E2
:10249000D6F8AC3603EB880393ED0F0A20EE280A3A
:1024A0000CF082FB80F30800C0B208F1010806F0CE
:1024B000E3F8B8F1030FCDD1B8F1070FD4F8AC367B
:1024C0002AD193ED120A20EE080A0CF06DFB80F37E
:1024D0000800C0B206F0D0F8D4F8AC3693ED130A79
:1024E00020EE080A0CF060FB80F30800C0B206F092
:1024F000C3F8D4F8AC3693F8503000EE103AB8EE8A
:10250000400A0CF051FBFF28A8BFFF20C0B206F024
:10251000B3F84FF00808CFE74344587806F0ACF81A
:10252000D4F8AC364344187B06F0A6F8D4F8AC36A1
:10253000434408F10108D87D06F09EF8B8F10B0F6E
:10254000BAD109E5D4F8AC364344587806F094F88B
:10255000D4F8AC364344187B06F08EF8D4F8AC3689
:10256000434408F10108D87D06F086F8B8F10B0F56
:10257000E8D1F1E42F2006F0DEF8DFF83C8418F80B
:10258000010B00283FF4E8AC06F076F8F7E70120ED
:1025900006F0D1F8D4F8AC361878CAE4502006F02A
:1025A000CAF8DFF818A44FF000094FF00C0BD4F86C
:1025B000AC3603EB890809F1010998F87D300BFB73
:1025C00003A393F8500006F057F898F87E0006F041
:1025D00053F898F87F0006F04FF898F8800006F05E
:1025E0004BF8B9F1140FE2D1B6E4482006F0A3F895
:1025F0004FF000094FF0060AD5F8AC360AFB09384F
:1026000009F1010998F8D20006F036F898F8CD00E3
:1026100006F032F898F8CE0006F02EF898F8CF00C1
:1026200006F02AF898F8D00006F026F898F8D100BD
:1026300006F022F8B9F10C0FDED18DE402230293EB
:102640004FF0000A4FF0010BD949D94B94F8F80824
:10265000CB1A83420CDB029B012B3FF47DAC5FFA6B
:102660008AF006F068F8012302934FF0000BEBE7C5
:1026700011F8010B00230C2202FB03F8CD4A18F8D5
:1026800002C0844503D001331C2BF4D1DDE7C94BD4
:1026900003919844D8F804000AF032F803990346ED
:1026A000BBF1000F10D08244CFE7D8F8040010F837
:1026B0000900CDE9031305F0DFFFDDE9031309F19C
:1026C00001094B45F1DCC0E7D946FAE7DFF8ECA297
:1026D00094F8F808DFF8D89206F02DF84FF00008CB
:1026E0004FF00C0B0AF1480294F8F8389845BFF403
:1026F00033AC19F8010B00210BFB01F313F802C0F6
:10270000844505D001311C29F6D108F10108EBE719
:10271000534493F8500005F0AFFFA64AF5E71620A2
:1027200006F009F8B6F8440105F0D6FFB6F8D00077
:1027300005F0D2FFB6F8D20005F0CEFFB6F8D4000F
:1027400005F0CAFFB6F8860105F0C6FF002005F0C7
:1027500093FF002005F090FF002005F08DFF96F814
:10276000330105F089FF96F8400105F085FF002050
:1027700005F082FFD6F8AC36B3F95A000A2390FB75
:10278000F3F080B205F0A8FF96F8280105F074FF79
:1027900096F82C0105F070FF96F82B0105F06CFF00
:1027A00096F82D01FFF7C5BB082005F0C4FF4FF0D8
:1027B00001085FFA88F008F1010805F05DFFB8F143
:1027C000090FF6D1FFF7C8BB082005F0B4FF0020C1
:1027D00005F082FF002005F07FFF002005F07CFF60
:1027E00034E4042005F0A7FFD4F8AC36B3F85E005B
:1027F00005F072FFD4F8AC36B3F85C00FEE4DFF805
:10280000C0810C2005F097FFD8F8AC0705F06DFFEC
:10281000D8F8B00705F069FFD8F8B40705F065FFF0
:10282000FFF79ABB042005F086FFA068F6E70620B4
:1028300005F081FFB4F8E80005F04EFFB4F8EA00B7
:1028400005F04AFFB4F8EC00D8E4042005F073FF6B
:1028500094F8280105F010FF94F82C0105F00CFF06
:1028600094F82B0105F008FF94F82D01FFF761BBE8
:10287000072005F060FFB4F82E0105F02DFFB4F835
:10288000300105F029FF94F8320105F0F5FEB4F8A7
:102890003401B3E4012005F04EFF6079FFF749BB36
:1028A0000C2005F048FF94F83E0105F0E5FEB4F871
:1028B000480105F011FFB4F8440105F00DFFB4F82C
:1028C000460105F009FF94F83F0105F0D5FEB4F884
:1028D0004A0105F001FFB4F84C018FE4042005F033
:1028E0002AFF94F8840105F0C7FE94F8850105F0ED
:1028F000C3FEB4F8860181E494F82809DFF8C480A7
:1029000000EB4000C0B205F016FF4FF0000994F84C
:102910002839994508F10208BFF41EAB98F84C011C
:1029200005F0AAFE98F84D0100EB800000EB800056
:1029300000F2EE2005F0D0FE09F10109E7E70120E1
:1029400005F0F9FE94F84001FFF7F3BA082005F00E
:10295000F2FEDFF874904FF0000819F8010F08F14B
:10296000010805F089FEB8F1080FF6D1FFF7F4BAB7
:10297000102005F0E0FE607905F07EFEA06805F00D
:10298000B4FE94F83E0105F077FEB4F8E80005F0D7
:10299000A3FEB4F8EA0005F09FFEB4F8EC0005F0E1
:1029A0009BFEB4F82E0105F097FEB4F8300125E443
:1029B000610D0020801401084D140108381401082D
:1029C00000F0FF1F680400209D05002094F83609E0
:1029D000DFF80084C0EBC000C0B205F0ACFE4FF0E1
:1029E000000908F6381A4FF00C0B98F998010023EB
:1029F0000BFB03F212F90A20824200F02D8401330E
:102A0000042BF5D109F10109B9F1040F08F1080807
:102A1000EBD1FFF7A1BADFF8A8830D2005F08BFEFC
:102A200009F086FC05F028FEB8F8280005F05DFEE8
:102A3000D8F8340005F059FE94F8693994F868091B
:102A4000984296BF181AC0F1800000231844D4F8A9
:102A50006C391844E2E605F065FE8046842005F0F6
:102A60006AFE404605F041FED54B5A6B08F18003E3
:102A700093428CBFA2EB08094FF0800909F084FC57
:102A80004A46404608A909F01DFD0DF1200881467F
:102A90004FF0000ACA45BFF65FAA18F8010B05F00F
:102AA000EBFD0AF1010AF5E7132005F044FEDFF81B
:102AB00028934FF0000819F8010B08F1010805F000
:102AC000DBFDB8F10B0FF6D1002005F00EFE32E46D
:102AD00005F01EFEFFF740BA05F024FE05F022FEC9
:102AE000FFF73ABA022005F026FEB54B588CFFF7E7
:102AF00085BB032005F01FFE94F8ED0505F0ECFD05
:102B0000AF4B187CFFF715BA4E2B3FF6C2A9222B0C
:102B100003D808F025FEFFF71FBA233B4FF000084B
:102B20002B2BF6D801A252F823F000BF952D0008F8
:102B3000132B00080B300008132B00081930000875
:102B4000132B000855300008132B0008132B000826
:102B5000132B000877300008132B0008132B0008F4
:102B6000132B0008132B0008132B00082B3100082F
:102B7000132B0008152E0008132B0008A73100089E
:102B8000132B000833300008132B0008132B000808
:102B9000992C0008132B00087F2C0008132B000829
:102BA000132B000835310008132B0008653100088D
:102BB00025320008132B0008132B0008132B0008E4
:102BC000E12F0008132B0008912C0008132B00089C
:102BD000BB300008132B0008D530000894F8EC3502
:102BE0005B070FD405F08AFD032828BF002084F876
:102BF0002805FEF735FCFEF78FFA03E005F088FDA7
:102C0000A4F87206002005F096FDFFF7A5B99AF822
:102C10000580B8F1250F00F2D0800DF120094FEAB0
:102C20005808CB464FF0000AC2450CD365494346CD
:102C30000022084690450DDC0022122B10D1012302
:102C400084F89439DEE705F063FD0AF1010A2BF8F8
:102C5000020BE9E739F802CB21F802CB0132E9E7B0
:102C600020F813200133E8E705F052FDD4F8AC86D4
:102C7000A8F85E0005F04CFDA8F85C00C2E705F07E
:102C80003DFD84F88E0105F039FD84F88D01B9E72A
:102C900005F03EFDA081B5E7D4F8AC8605F02EFD29
:102CA00088F8000003F0EAFDACE7D4F8AC8698F8A9
:102CB0000030022B5DD19FED449ADFED448A08F18C
:102CC000240908F1300AB2EE048A05F017FD07EE78
:102CD000900AF8EE677A87EE887AA9EC017A05F017
:102CE0000DFD07EE900AF8EE677A87EE897A89ED96
:102CF000027A05F003FD07EE900AF8EE677ACA45FE
:102D000087EEA87A89ED057ADFD108F104094FF042
:102D1000030ABAF1070F1FD105F0F0FC07EE900A85
:102D2000F8EE677A87EE887A88ED127A05F0E6FC8D
:102D300007EE900AF8EE677A87EE887A88ED137AC4
:102D400005F0DCFC88F850000AF1010ABAF10B0F1B
:102D500009F10109DDD155E705F0D0FC89F8000043
:102D600005F0CCFC89F80B0005F0C8FC89F81600CA
:102D7000EAE708F10B0905F0C1FC08F8010F05F0BE
:102D8000BDFC88F80B0005F0B9FCC14588F81600B9
:102D9000F1D137E705F0B2FC132880460DD8D4F8FE
:102DA000AC9605F0ABFC0A4A0023117A814215D09B
:102DB00001331C2B02F10C02F7D108F0D1FC21E702
:102DC00000000020D80D00200000C84200007A4416
:102DD0008014010868040020491D0108DC4A0C2108
:102DE00001FB032309EB880893F8483088F87D300D
:102DF00005F084FC88F87E0005F080FC88F87F00F0
:102E000005F07CFC494688F8800009F17D0008F057
:102E1000A7FDF7E605F072FC0B288146CDD8D4F863
:102E2000AC8605F06BFC0328C7D8062303FB098892
:102E300088F8D20005F062FC88F8CD0005F05EFC51
:102E400088F8CE0005F05AFC88F8CF0005F056FC53
:102E500088F8D00005F052FC88F8D100D2E69AF844
:102E60000530092BA9D9D5F8988605F047FC88F8D4
:102E7000000005F043FC88F8010005F03FFC6428E1
:102E8000A8BF642088F8040005F038FC6428A8BFB7
:102E9000642088F8050005F031FC88F8060005F08C
:102EA0002DFC642828BF642088F8070005F026FC64
:102EB00088F8020005F022FC88F8030005F028FCE1
:102EC000D5F8E038A8F80A005B790A2B7FF69AAEAD
:102ED00005F014FC88F8080094E605F019FC6FF47E
:102EE000AF6C00EB0C039BB2C62B98BFA4F8440157
:102EF00005F00EFCA5F8D00005F00AFCA5F8D200FC
:102F000005F006FCA5F8D40005F002FCA5F8860142
:102F100005F0F4FB05F0F2FB05F0F0FB05F0EEFB2D
:102F200085F8330105F0EAFB85F8400105F0E6FB82
:102F300005F0EEFBD5F8AC3600EB80004000A3F8BE
:102F40005A0005F0DBFB85F8280105F0D7FB85F872
:102F50002C0105F0D3FB85F82B0105F0CFFB85F89C
:102F60002D014FE6DFF8F0914FF0000805F0D0FB9F
:102F700008F10108B8F1080F29F8020BF6D141E673
:102F800094F8EF35002B7FF43DAE05F0C1FB714B9B
:102F900084F8ED0501221A7434E605F0B9FB6D4B97
:102FA00058842FE694F8EC3558073FF52BAEFDF723
:102FB000DDFE1EE694F8EC3559073FF523AE4FF4DD
:102FC000C873A4F852351DE694F8EC355A073FF55E
:102FD00019AE94F8DB3843F0040384F8DB3811E6CB
:102FE00045F2082009F0C2F9062007F075FF012319
:102FF000C72084F8AE3907F06FFF002384F86939E1
:1030000084F86839C4F86C39FCE5C4F8088005F028
:1030100089FBFDF7F9F8F5E505F07AFBA4F8E8007F
:1030200005F076FBA4F8EA0005F072FBA4F8EC00CA
:10303000E8E505F063FB84F8280105F05FFB84F800
:103040002C0105F05BFB84F82B0105F057FB84F89D
:103050002D01D7E505F05CFBA4F82E0105F058FB27
:10306000A4F8300105F04AFB84F8320105F050FB6A
:10307000A4F83401C6E505F041FB84F83E0105F0F3
:1030800047FBA4F8480105F043FBA4F8440105F010
:103090003FFBA4F8460105F031FB84F83F019AF8A4
:1030A0000530082B7FF6AEAD05F032FBA4F84A01DF
:1030B00005F02EFBA4F84C01A4E505F01FFB84F8F5
:1030C000840105F01BFB84F8850105F021FBA4F8C1
:1030D000860197E59AF80580B8F1380F3FF66DAE96
:1030E000DFF878904FF0000A40F6CA0B0323B8FBD4
:1030F000F3F8C24509F10209BFF484AD05F0FEFA08
:1031000089F84C0105F004FB5845A8BF584640F229
:10311000EE239842B8BF18461922B0FBF2F01E38D1
:1031200089F84D010AF1010AE3E705F0E7FA84F8AE
:10313000400167E5DFF828904FF0000805F0DEFA5F
:1031400008F10108B8F1080F09F8010FF6D159E5A7
:103150003814010800000020FE0D00206804002043
:103160009D05002005F0CAFAC4F8088005F0DAFAD7
:10317000FDF74AF805F0C2FA84F83E0105F0C8FAF6
:10318000A4F8E80005F0C4FAA4F8EA0005F0C0FAD3
:10319000A4F8EC0005F0BCFAA4F82E0105F0B8FA8A
:1031A000A4F830012EE59AF805304FF00708B3FB7C
:1031B000F8F8C8EBC8029B1ADBB2002B7FF4FDAD18
:1031C0005FFA88F808F1FF385FFA88F8B8F1FF0F66
:1031D0003FF418AD05F092FAD4F8E82840B2002385
:1031E000911C11F933C0844503D00133042BF8D16D
:1031F000E3E502EBC30989F8020005F089FAA9F8B2
:10320000040005F07BFA89F8060005F077FA89F8E2
:10321000070005F073FA89F8090005F06FFA89F8DC
:103220000800CFE71B4B4FF480421A85012384F836
:10323000AF39E7E40A2005F0ABF8FEF79DBE21F8B0
:10324000023B0132FEF7AEBE52F8040B00680133B8
:10325000C0F800C0FEF7B5BEC0B205F00DFAB8F870
:103260009A0105F039FA98F89C0105F005FA98F8EA
:103270009D0105F001FA98F89F0105F0FDF998F815
:103280009E0105F0F9F9FFF7BDBB29B0BDEC048B39
:10329000BDE8F08F0008004808B5FEF7E1F8FDF73B
:1032A0003BFFBDE80840012005F016B92DE9F04FBD
:1032B000B44DD5F8CC2795F8946A02F59C43203399
:1032C0008BB0C5F8903A002E00F0DF80D5F8983A20
:1032D0009A4202D9013E85F8946AAA4CD4F8C8876C
:1032E00018F48053019305D0D4F82C36D80701D4B4
:1032F000FDF70CFAD4F8B426937A23B304EB430316
:10330000127BB3F966351AB1C3F53B6308331BB2C0
:10331000A3F57A73B3F57A7FA8BF4FF47A7323EAE3
:10332000E37307EE903ADFED986AF8EEE77A87EEFE
:10333000A67ADFED967A67EE277AFCEEE77A17EE4B
:10334000903AA5F8343918F4807F00F03081D4F831
:10335000CC178F4A94F8F236914240F2258113B986
:10336000012384F8F23694F8116794F8EC25D4F828
:103370002CA6012E02F0040B14BF032700274FF0E8
:103380000009A2E1072C98BF195D8248BB6B88BF7A
:1033900021469847032C19D8C0B1D5F8B43603EBB1
:1033A00084039A8FDB8F801A9B1A08FB00F090FB36
:1033B000F3F040F2EE2300F57A709842B8BF184659
:1033C00040F6CA039842A8BF184680B205EB4404F1
:1033D0000136A4F89C0A95F828B9D5F8B436F4B2A9
:1033E000A345CFD8D5F8C827D5F85C05019042F29F
:1033F00001010A40039208D095F8FF2585F8FE25C3
:10340000654A92F83D1082F83C1095F8FE85B8F1B7
:10341000000F04D0604A92F83C8088F0010895F8CB
:10342000C17A01995D4C0F2285F8C02A0322B7FBAF
:10343000F2F202EB420201F51671BA1AD2B205910C
:10344000A4F5AD61049204F25A5904F2A45A22463A
:10345000002602915E451CDB4A4E96F8C03A0F2BBF
:103460006DD1D6F82C365B0169D4D6F85C35D6F828
:10347000FC26C6F8F8369B1AC82B02D9012386F819
:103480001137013786F8C17A27E7434F4FF47A782E
:10349000A1E7B8F1000F33D0414931F91600998AFC
:1034A00080B281422ED8D98A81422BD30599CAF89D
:1034B0000010039900B2D9B1049929F811000299BA
:1034C00091F8541B29B9022F12D90298012180F8D2
:1034D000541BB9F80010B9F802000844B9F80410F8
:1034E0000844304900B221F81600032190FBF1F0A6
:1034F00022F8020B013609F106090AF1040AA9E7CC
:103500004046CCE7DAF800100198814201D91088D2
:10351000CFE7F0B2CDE9063205F040F9032EDDE940
:103520000632C6DCDFF85CE04FF0010C9EF8C01AF2
:103530000CFA06FC21EA0C018EF8C01AB9E7164B0A
:10354000012283F83D2083F83C20D6F85C35D6F87C
:10355000F826C6F8FC369B1AD6F8F426934202D910
:10356000002386F811374FF0000807E05FFA88F073
:1035700005F014F924F8020B08F10108C345F5DC45
:103580007FE700BF6804002000007A4400C07F4449
:10359000404B4C00900D002000000020D00900207E
:1035A000040F0020BE0F0020002B7FF4DCAE019B37
:1035B000B4F96E95002B00F0E580B4F84431B4F80E
:1035C000DE20991A494580F2E08013444B4540F3D0
:1035D000DC80FDF77BF8FDF787F84FF0000AAC4B75
:1035E00093F83EB094F8EC35590740F1D58018F0C7
:1035F000100F00F0D18094F8DB38DA0600F1CC80AF
:10360000BBF1000F00F01D8194F88E31BAF1000F6C
:1036100040F006813BB1D4F85C15D4F894365B1ABF
:10362000002BC0F2B580102004F030FF012384F895
:10363000743BB1E0BBF1000F0DD0012E05D0052089
:10364000FCF7F2FD022384F8ED35002FAFD03846A9
:1036500004F01CFFABE71AF0806F4FF4806005D0D8
:1036600008F09EFF0023C4F80037EEE708F08AFF59
:10367000F8E7012E29D1052125E0012E04BF0521FF
:1036800084F81017BBF1000F0FD0D5F8701BB1F9FB
:103690000E10A5F86A15A5F86C15A5F86815D5F8EB
:1036A000EC164988A5F86E156746D4F85C05D4F881
:1036B0000417814202D3BBF1000F60D142F21071B6
:1036C000C4F80C17032184F8101794F810C794F865
:1036D000EC05BCF1050FB8D801A151F82CF000BFE2
:1036E00035360008733600087B360008F9360008C6
:1036F000293700086137000840F0020085F8EC0522
:10370000FDF704F8D5F85C05D5F80C170144C5F8A9
:103710000817042185F810174FF4806008F032FF75
:103720000520FCF78DFDD0E7012E11D1D4F85C35D2
:10373000D4F80817994288D2554991F83E1011B92A
:103740001AF0010F81D120F0020084F8EC0592E715
:10375000D4F85C25D4F80C371344C4F8083774E760
:10376000D5F8EC06D5F85C15C08885F8F396642387
:1037700003FB0011C5F8001785F81097CCE7012E60
:10378000A3D062E7B4F8463120E74FF0010A26E7FC
:10379000FCF7BCFF84F874AB94F88C31019394F877
:1037A0008D01B4F846C1B4F848E13A4900231E46F9
:1037B00031F9027BB6086745C4BF66F07F06F6B2F2
:1037C00001337745B8BF46F04006042BF0D194F89A
:1037D000753BB34239D194F8767BF92F03D8013782
:1037E000FFB284F8767B84F8756B08F00408BBF1AF
:1037F000000F40F0CC84D4F82C36DB0738D5BAF172
:10380000000F24D194F8EC35D80706D5590702D417
:10381000012384F8B035FDF737FA142F53D140E077
:103820003BB1D4F85C154FF47A7013FB0013C4F865
:10383000943694F8743B002BAED004F015FE0023B0
:10384000F5E6BAF1000FF4D1EDE60027C9E7D4F8A8
:103850007C360A2BE1DCB4F850355A07DDD494F8F5
:10386000EF35002BD9D1FCF731FFFCF73DFFD2E754
:1038700094F8EC355B07D0D594F8FE35002BCCD00E
:1038800010B1FCF743FFC8E7BAF1000FC5D1F8E764
:1038900000000020D0090020019B13B17D2E00F014
:1038A000808494F8EC355F070DD4572E40F0CD801E
:1038B000D4F8F4384FF47A7213F00803A4F85425BE
:1038C00001D1A4F84236B8F1000F40F0E480D4F8FA
:1038D000AC660023C4F82C3606F17F0706F1CF084A
:1038E0004FF0010917F8010C394604F015FE40B1FC
:1038F00017F8023CD4F82C2609FA03F31343C4F852
:103900002C3604374745EDD1B24F06F1CE0B4FF0C0
:103910000C0806F58B764FF000094FF0010A1BF8F2
:10392000010C594604F0F8FDE8B19BF804109BF82F
:10393000023008FB0140013BD0F8BC2603EB4303F7
:103940003B4493420FD09BF80320C0F8BC3694F858
:103950007D3B80F8B8260AFA01F123EA0103C0F89A
:10396000C09684F87D3B0BF1060B5E45D7D1D4F8A9
:103970005C35019394F8FE350293019BD4F898B618
:10398000954F03F5FA73002603937968002900F038
:10399000388191F800A0BAF1000F00F03281BA68C6
:1039A000019B9A1A002A0ADB039B94F87D2BBB60CB
:1039B000012303FA06F022EA000284F87D2B029B21
:1039C000002B00F01E813A78487894F87D8B043201
:1039D000D2B2002840F0888304EB4202B2F96805B5
:1039E000B4F8442102F1C80C604540F3F98091F825
:1039F000029048FA06F1CA0700F10381B9F1000FFD
:103A0000CCBF0220012004F067FD0AF1FF31132929
:103A100000F28081DFE811F0710185019001A001C1
:103A2000B801C0011E027902E0020E033A037E01D2
:103A3000A001AD01C0011E027902E40141029E0213
:103A40000B2004F023FD84F8767BB8F1000F01D041
:103A50005A2E17D0A6F15603082B57D8DFE803F0EB
:103A6000545656565652560550000123DEB2013BBD
:103A700084F82835FDF7F4FCFDF74EFB304604F0E2
:103A80002BFD20E794F8773B4BB1002384F8773B7C
:103A9000012384F8783B94F8793B53B91FE094F8FC
:103AA000793B83F0010384F8793BABB10C2004F03F
:103AB000EDFC94F8EC35580711D5B4F846314B4578
:103AC0000DDAD4F82C3613F0010302BF3222A4F829
:103AD0007A2B84F8793B02E00D2004F0D7FCD4F86F
:103AE0002C36D90366D594F87C3B2BB994F8773BF8
:103AF00013B93223A4F87A3B012384F87C3BE6E631
:103B00000323B3E70223B1E7FFF7C6FB334B93F878
:103B10003E3043B16F2E02D1FDF7B6F8D3E6019BDC
:103B20000BB17E2EF8D0972E04D14FF4C873A4F8B1
:103B30005235C8E6A72E06D194F8DB3843F00403CB
:103B400084F8DB38BFE60023B73E0993072E3FF623
:103B5000BAAE01A353F826F0AF3B0008C7380008FF
:103B6000C7380008C7380008793B0008C738000884
:103B7000A73B00087F3B00080223002201E000234E
:103B80000222D5F8AC16B1F85C000244A1F85C2022
:103B9000B1F85E201344A1F85E30FFF77DFB0023EF
:103BA00085F8763B8FE600236FF00102E9E76FF0BE
:103BB0000103E2E794F8773B002B3FF488AE94F8DA
:103BC000EC3513F0040302BF84F8773B012384F83B
:103BD000783B7CE6D0150108200B00200000002077
:103BE000C83A904203DA8A78C2F1000901E701235A
:103BF000B34028EA030384F87D3B019B03F5FA7385
:103C0000BB600136042E07F10C077FF4BEAED4F87A
:103C10002C56AB0706D4D4F8C837DF0507D594F87F
:103C2000F33623B1D4F8F4389E0700F196820120D0
:103C300008F0A8FC0123690740F19A82002B00F0EC
:103C40009782012008F09EFCB4F8C4379A0704D488
:103C50000220FCF73BFD08F0A3FC94F8EC355B0771
:103C600008D4B4F8C43703F044031BB1B4F84236A7
:103C7000A4F87236D4F8F43813F00A0F2AD0EF06FD
:103C800040F17A82B4F8C4375E0706D4042008F005
:103C900087FCB4F84236A4F87236A80640F1708268
:103CA000B4F8C437590602D4402008F079FC6A06FB
:103CB00042BFC54AB4F84236D38315F0080307D093
:103CC00094F8F83533B9C04AB4F84236D3830123A7
:103CD00084F8F8352B054FF4807040F1558208F0D8
:103CE0005FFC6379082B02D00E2B40F061824020EC
:103CF0000BB0BDE8F04F08F045BC9BF800304B44DA
:103D0000FA2BA8BFFA2323EAE3738BF80030584656
:103D100004F028FC0123B34048EA030884F87D8BB3
:103D20006FE79BF801304B44642BA8BF642323EA60
:103D3000E3738BF80130EAE79BF803304B44642BC4
:103D4000A8BF642323EAE3738BF80330D4F8801B05
:103D5000584604F023FCDDE79BF80510494464292C
:103D6000A8BF642121EAE171BAF10D0F8BF80510AB
:103D7000D0D09BF804304B44642BA8BF642323EAC3
:103D8000E3738BF80430C5E79BF806304B4483F3AC
:103D900008038BF80630BDE7D4F8840B01780229BC
:103DA00043D107EE909AF8EEE76AF2EE047A86EED7
:103DB000A77AD0ED0A7A37EE277AB5EEC07AF1EE1F
:103DC00010FA2FD4DFED827AB4EEE77AF1EE10FA32
:103DD000D8BFF0EE477AC0ED0A7ABAF10F0F99D04A
:103DE000D4F8841B0B78022B2BD107EE909AF8EEB7
:103DF000E76AF2EE047A86EEA77AD1ED097A37EE19
:103E0000277AB5EEC07AF1EE10FA17D4DFED707AAA
:103E1000B4EEE77AF1EE10FAD8BFF0EE477AC1EDD2
:103E2000097A77E7DFED6B7AD5E781784944C829CD
:103E3000A8BFC82121EAE1718170CEE7DFED657A84
:103E4000EDE74B784B44C82BA8BFC82323EAE373A4
:103E50004B705FE7D4F8840B0178022940D107EE5C
:103E6000909AF8EEE76ADFED5A7A86EEA77AD0EDFF
:103E70000D6A37EE267AB5EEC07AF1EE10FA2CD440
:103E8000B4EEE77AF1EE10FAD8BFF0EE477AC0ED63
:103E90000D7ABAF1100F3FF43DAFD4F8841B0B78C4
:103EA000022B29D107EE909AF8EEE76ADFED487A07
:103EB00086EEA77AD1ED0C6A37EE267AB5EEC07A97
:103EC000F1EE10FA15D4B4EEE77AF1EE10FAD8BF9D
:103ED000F0EE477AC1ED0C7A1CE7DFED3E7AD6E7CB
:103EE000417B4944C829A8BFC82121EAE171417337
:103EF000CFE7DFED387AEDE70B7B4B44C82BA8BF4B
:103F0000C82323EAE3730B7304E7D4F8840B017826
:103F1000022944D107EE909AF8EEE76ADFED2B7A9A
:103F200086EEA77AD0ED107A37EE277AB5EEC07A12
:103F3000F1EE10FA30D4DFED267AB4EEE77AF1EE46
:103F400010FAD8BFF0EE477AC0ED107ABAF1110F2F
:103F50003FF4E0AED4F8841B0B78022B2BD107EE94
:103F6000909AF8EEE76ADFED197A86EEA77AD1ED3E
:103F70000F7A37EE277AB5EEC07AF1EE10FA17D441
:103F8000DFED137AB4EEE77AF1EE10FAD8BFF0EE77
:103F9000477AC1ED0F7ABDE6DFED0E7AD4E7017EF8
:103FA0004944C829A8BFC82121EAE1710176CDE7BB
:103FB000DFED087AEDE7CB7D4B44C82BA8BFC823C3
:103FC00023EAE373CB75A5E60000002000007A44E5
:103FD0000000C84200000000D4F8841B0B78022BBC
:103FE0001FD107EE909AF8EEE76AF2EE047A86EEB9
:103FF000A77AD1ED0B7A37EE277AB5EEC07AF1EEDB
:1040000010FA0BD45FED0E7AB4EEE77AF1EE10FA07
:10401000D8BFF0EE477AC1ED0B7A7BE65FED137AFD
:10402000F9E7CB784B44C82BA8BFC82323EAE37336
:10403000CB706FE6D4F8841B0B78022B1DD107EEF2
:10404000909AF8EEE76A5FED1E7A86EEA77AD1EDD8
:104050000E6A37EE267AB5EEC07AF1EE10FA09D480
:10406000B4EEE77AF1EE10FAD8BFF0EE477AC1ED80
:104070000E7A4FE65FED297AF9E78B7B4B44C82B2C
:10408000A8BFC82323EAE3738B7343E6D4F8841BE9
:104090000B78022B1FD107EE909AF8EEE76A5FEDDE
:1040A000357A86EEA77AD1ED117A37EE277AB5EE1A
:1040B000C07AF1EE10FA0BD45FED3B7AB4EEE77AFA
:1040C000F1EE10FAD8BFF0EE477AC1ED117A21E691
:1040D0005FED407AF9E74B7E4B44C82BA8BFC8235D
:1040E00023EAE3734B7615E601287FF413AEBAF1A9
:1040F0000C0F7FF40FAE04EB42028978B2F9680529
:1041000040F633029042A8BF1046B0F5617FB8BFB9
:104110004FF46170A0F561704FF49662B2FBF1F25A
:10412000B0FBF2F094F8B026C0B282423FF4F2AD98
:10413000032894BF0246022285F8B0260AFB0252E9
:1041400002F22A520490C5F89826FCF7E9FD04987B
:104150000130C0B204F0C0F9DCE5B4F8C437D807C8
:1041600004D40120FCF7B2FA08F01AFA002362E541
:10417000022008F007FA70E5042008F003FA8CE545
:10418000402008F0FFF992E508F0FCF9A9E5142FAA
:104190007FF499AB94F8EC755F2E07F004077FF479
:1041A0007BAB002F3FF44CACFCF7B0FAFFF779BBC8
:1041B0000BB0BDE8F08F1649D1F8883043F4700396
:1041C000C1F88830134B1A6842F001021A6058682F
:1041D000114A02405A601A6822F0847222F4803236
:1041E0001A601A6822F480221A605A6822F4FE02C9
:1041F0005A60DA6A22F00F02DA62186B074A02404C
:104200001A6300229A604FF000638B60704700BF12
:1042100000ED00E0001002400CC07FF8CCFC00FF75
:1042200080EAE073A3EBE0738B4206DB002801DD3C
:10423000401A704702D008447047002070472DE9AB
:10424000F041824CD4F8883BA0EB030842F20F7394
:1042500098452DED048B40F2EB8044F620639845A1
:104260007B4DC4F8880B81BF0023C4F8943BC4F88D
:10427000983BC4F89C3B95F83F3043B394F8EC2549
:1042800012F0040223D1734BC4F8942B002119605F
:1042900040F2DC50C4F8982BC4F89C2B85F83F20E2
:1042A000C4F8A42BC4F89C25A3F24C42A3F5876361
:1042B000694EA4F88C054FF07E50106056609160F6
:1042C000D060116118605E609960D8601961D4F89F
:1042D000A86BD4F8AC3BB3426ED0F31A08EE903A18
:1042E000DFED5E7A5E4BF8EE688A68EEA78AD3ED62
:1042F000007AF5EEC07AF1EE10FA40F29D8013EDEF
:10430000017AB5EEC07AF1EE10FA40F2958087EEB0
:10431000270AB5EEC00AF1EE10FA40F28D80DFED0B
:10432000517A93ED018A38EE278A0AF06BFBDFEDB4
:104330004E7A28EE000A20EE270ADFED4C7A20EEB6
:10434000270AF6EE007AF4EEE78AF1EE10FA31DC95
:10435000B4F9B03B0F2B72D1B4F9B23B444A02EB33
:10436000830201331BB20F2B08BF0023A4F8B23B1A
:10437000D2ED007A0E23A4F8B03B3E4B93ED017AC8
:1043800077EE877A30EE670A83ED000AB4F92A39AE
:10439000002BB8BF5B429BB21E2B07D8B4F92C3957
:1043A000002BB8BF5B429BB21E2B4CD9324BEB604B
:1043B000FCF756F9C4F8AC6BD4F8983B002BC9BF96
:1043C000D4F8942B9FED2D9A07EE902AB8EEE77A59
:1043D000C4BF07EE903AF8EEE77A294BC8BF87EEE4
:1043E000279A9FED287AA3EC019AD3ED007A69EE23
:1043F000277AF4EEC77AF1EE10FA08D49FED227A0C
:10440000F4EEC77AF1EE10FAD8BFB0EE677AB4F9DD
:10441000083C1E4E0027052B86ED007AC4F8947BDD
:10442000C4F8987BC4F89C7B36DC0133A4F8083CC4
:10443000BDEC048BBDE8F0819FED100A81E7144BC1
:10444000D3ED007A99E74FF08043B0E7680400208D
:104450000000002008100020CDCCCC3D6F12833A24
:10446000F00A0020339388438E2BEA410000C842B3
:104470001C1000205C1000200000A0400000000084
:1044800064100020000048C4000048446C10002064
:10449000581000200024744907EE908A1FED036A2B
:1044A00016ED190A56ED039A56ED058AF8EE677A6D
:1044B000A6F5CA63C7EE866AA6F5C96216ED046A58
:1044C000D3ED005AD6ED027A66EE255AA6F24C6379
:1044D000E5EEA67AD3ED005AC6ED027A66EE255ACD
:1044E00077EE877AA5EEA60AD2ED005A26EE256A67
:1044F00067EEA67AE6EE269AB0EE407AB6EE006A4D
:10450000A7EE867A30EE270AE7EE268A06ED190A2C
:1045100046ED039A46ED058A0AF046FB39EEA80AF5
:1045200008EE100A0AF040FBB4F9B01BB5F84020C1
:104530000E2902F1010207EE900A12B2A6F1500311
:1045400000F3F2800E2ACCBF3A46174603EB8203F3
:104550000131A5F84070C3ED008AA4F8B01B834F69
:1045600097ED036A97ED007AD7ED016A97ED020A9D
:1045700057ED045A36EE076AB8EEC88A76EE266A18
:1045800038EE408A86EE267AF7EE006AA7EE080A31
:1045900087ED047A36EEC77A17ED038A87ED020AB3
:1045A00027EE067A17ED056A87ED037A17ED027A92
:1045B00037EE067AF8EEE77A77EE255A77EEC87A84
:1045C00087EE256AA6EE278A76EEC66A07ED016AAF
:1045D00066EE876A07ED038A47ED026A0AF0E4FA9D
:1045E000B0EE480A0646C4F8100C0AF0DDFAB4F939
:1045F0003C36C4F89805002BB8BF5B429BB2B3F5BC
:10460000487F07F2AC4780F0AE80B4F93E36002B0D
:10461000B8BF5B429BB2B3F5487F80F0A48094F8AA
:10462000EC25AB7A97ED007AD4F8508712F00402AB
:1046300008BFC4F89405002B40F08E80D4F8943560
:10464000181AB0F5FA7F4A4BA8BF4FF4FA70984297
:10465000B8BF18460521FFF7E3FD98F80430454937
:1046600043438B427BDB002BB8BF7F33DB11B3F5B9
:10467000967FA8BF4FF49673991B98F80A303E486E
:104680004B4383426DDB002BB8BF1F335B11B3F587
:10469000967FA8BF4FF496732AB198F81500D4F806
:1046A000A42B01FB0022B2F5161F3449A8BF4FF41A
:1046B00016128A42B8BF0A46C4F8A42B002ABCBF0F
:1046C00002F5FF521F3203EB623398F8202007EE09
:1046D000902A37EE097AF8EEE77A6FF0950167EEE7
:1046E000877A9FED277A67EE877AFDEEE77A17EEF5
:1046F000902A962AA8BF96228A42ACBF9B1A5B1AC0
:1047000030460521C4F89C3587ED009AFFF788FDF7
:10471000002EB8BF7642C82EC8BF0123C4F83009A6
:10472000C8BF85F83F3083E6B4F8B21BA5F8402037
:1047300001310F2A09B206D1A5F84070C3ED008AF5
:10474000A4F8B21B0BE703EB82030F29C3ED008A29
:10475000F6D1A4F8B27B02E7D4F8AC358CE7094B6C
:104760008AE7084B98E70023CAE700BFD00B002078
:104770000CFEFFFF8169FFFF61DAFFFF0080DAFFB7
:104780000000003BD4FEFFFFD0ED005A9FED2B4A06
:1047900008B535EE840AFBF763FEF0EE403AB0EE62
:1047A000650AFBF75DFE90ED015AF0EE404A35EEEA
:1047B000040AFBF755FEF0EE405AB0EE450AFBF74F
:1047C0004FFE90ED023AB0EE405A33EE040AFBF78A
:1047D00047FEB0EE404AB0EE430AFBF741FE65EEFD
:1047E000C07A20EE236A24EE847AC1ED017AF0EEDD
:1047F000467AE5EE077A24EE233A64EE806AC1ED4C
:10480000037AF0EE437AE5EE667AA5EE067AE5EEF7
:10481000436A24EE254A64EEE54A65EEA35A81ED2B
:10482000004A81ED025AC1ED047AC1ED054AC1ED9D
:10483000066A81ED077AC1ED085A08BDDB0FC93F52
:104840002DE9F04F2DED028BB1B04FF00009FBF7D1
:10485000B7FC18B9FCF78AFAFCF702FEBA4DBB4C5C
:10486000FCF75AFC95F8188C48F0010385F8183CC1
:10487000B74B4FF47002C3F88820002304930593CC
:104880000693236843F480332360236803F40033E2
:104890000593049B01330493059B1BB9049BB3F55B
:1048A000A04FF2D1236813F4003318BF01230593FE
:1048B000059B012B40F0018302230693A54B122296
:1048C0001A606368636063686360636843F480636D
:1048D0006360636823F47C136360636843F4E813E4
:1048E0006360236843F08073236023689F01FCD5D5
:1048F000636823F003036360636843F0020363604B
:10490000636803F00C03082BFAD1069B904EC5F8A0
:104910001C3C914BF360636A636A43F0807363628B
:10492000636943F4FC031CAF636103238DF87230A9
:10493000394641F6FF734FF09040ADF8703006F005
:10494000B9FC4FF6FF738548ADF87030394606F074
:10495000B1FC8348394606F0ADFC8248394606F082
:10496000A9FC8148394606F0A5FC39467F4806F087
:10497000A1FC384603F0D8FF1C9B7D4AB3FBF2F341
:10498000C5F8203C7B4B7C4ADFF8FCC14FF0000EA1
:10499000C5F824ECC3F804E04FF0E0230DF1740AED
:1049A0005A61F02286F823200722C3F818E01A6122
:1049B000BCE80F003E460FC6BCE80F000FC69CE8DF
:1049C0000F00D5F808B0C5F8C8B786E80F006369CE
:1049D00043F400236361636943F400236361636903
:1049E00043F400236361636943F4003363614FF070
:1049F000904310221A8520221A8540221A85584A8F
:104A00004FF4804393614FF4005393614FF400439C
:104A1000936176465AF8040C5146013606F04AFC7A
:104A2000062E0AF1080AF5D1544B1C936369DFF88E
:104A30005CA14A4843F480236361394606F03AFC9E
:104A40009AF820200823002A40F03A82434A9361D2
:104A50004B48C5F8E80804233022002100F2A27078
:104A600085F8363901260BF083FB1422002117A8A4
:104A700085F8446948F005080BF07AFB1BF4802F99
:104A800008BF85F82C6C85F8188CE369334E43F425
:104A90008043E361236943F480432361636943F402
:104AA00080236361736A23F470037362736A43F44F
:104AB000A0037362736A23F070637362736A43F0D6
:104AC000A0637362736A23F070437362736A43F086
:104AD000A0437362336A23F470033362336A43F48E
:104AE000A0033362736A23F470237362736A43F41E
:104AF000A023736240F2023B4FF4604339463046D4
:104B0000CDE91C3B06F094FB2022012339463046B8
:104B10004FF480581C928DF8743006F089FB3946AA
:104B20003046CDF8708006F083FB236943F4804360
:104B30002361236923F480432361124B998821F474
:104B400080510904090C23E0680400200010024091
:104B500000ED00E0002002400005FA0500040048D6
:104B600000080048000C00480010004800140048ED
:104B700040420F008C1000203F1901000800010284
:104B8000FE050020003800400C160108000000203F
:104B90009980998889B241EA08019980198801F4BD
:104BA000415141F4437141F003011980998821F486
:104BB00070610904090C41F4E0619980998B21F43A
:104BC00000610904090C998307211982198889B2A7
:104BD000202241F040011980B261C6F81880636953
:104BE000DFF8B883C5F8EC8843F480236361E36998
:104BF00043F40013E361236B23F010032363236B5F
:104C000043F010032363736A23F00F037362736A24
:104C100043F004037362736A23F0F0037362736AF0
:104C200043F04003736239464FF480733046CDE958
:104C30001C3B06F0FDFA4FF40073394630461C93D6
:104C400006F0F6FAD8F80030B5F9E81023F00103C1
:104C5000C8F80030D8F80020C24B1340C8F8003024
:104C6000C14BC8F81030D8F80030B5F9EA20002060
:104C700043F00103C8F80030C8F80800C8F80C0079
:104C8000C8F80800D8F8083043F40043C8F80830E2
:104C9000D8F80030C8F80030D8F8043023F0784352
:104CA00023F40043C8F80430D8F8003043F001037F
:104CB000C8F80030B5F9EC3041EA02041C431FD0BB
:104CC00007EE901A9FEDA97A8AF84200F8EEE77A8B
:104CD000A74967EE877A3846CDED1C7A07EE902A11
:104CE000F8EEE77A67EE877ACDED1D7A07EE903A17
:104CF000F8EEE77A67EE877ACDED1E7AFFF744FD8E
:104D00009C4EB5F8F03003934FF0000B102259463B
:104D1000A6F5EE70C5F858BC95F8EF4095F8F78009
:104D200085F854BCC6E901BB0BF022FA2320C5F874
:104D300068BCA5F864BCC6E905BBC5F874BC03F043
:104D400027FB0BAA0121752004F0B6F9002840D0FA
:104D5000894AC5F86C2C894AC5F8702C43F6433251
:104D6000A5F8682C01210FAA584604F0A5F99DF872
:104D70003C20002800F0A780EA2A40F0A48042F6F8
:104D80003352594606267F20A5F8682C85F8646CB6
:104D900004F0E1F80A2003F0FBFA7821032004F084
:104DA000DAF80A2003F0F4FA0121304604F0D3F8CF
:104DB0000A2003F0EDFA3F21072004F0CCF814207C
:104DC00003F0E6FA5946072004F0C5F80A2003F07C
:104DD000DFFA95F8643C0022062B85F8782C40F029
:104DE000DF80674BC5F87C3A664BC5F8803A664B66
:104DF0006649D960D5F8F4380A2C43F00101C5F8AA
:104E0000F41828BF144640F2FD2121FA04F212F0F2
:104E1000010240F05681012C40F051819E0785F837
:104E2000792C00F15B81D5F87C3A039898470023F0
:104E300085F87A3CB8F1000F40F054814FF000083B
:104E4000002422467F2168208DF8704004F05FF82E
:104E500032220F21682004F05AF8224603216820EC
:104E600004F055F801223B4611460C2004F0A1F84D
:104E70009DF87030092B40F03E81454BC5F87C3CD5
:104E8000444BC5F8803C072385F87A3CD5F8F438C4
:104E900043F00803C5F8F43895F8E4300BB185F811
:104EA000783C95F8E5300BB185F8793C95F8E6301B
:104EB000002B78D085F87A3C75E00123069324E531
:104EC000354A1385C4E502F07E028DF83C2040B1DE
:104ED000682A06D1012385F8643C1D2385F8683CC7
:104EE00077E79DF82C3003F07E03682B8DF82C308B
:104EF00032D1062102233A46084685F8643C04F084
:104F0000DBF89DF875309DF873209B00520002F08D
:104F1000020203F0040313439DF8712002F0010222
:104F200013430CD0012B03D1002385F8653C50E7D7
:104F3000022B01D10123F8E7022003F038FA13AA6B
:104F400001210C2004F0B8F89DF84C3013F00F0349
:104F5000F2D0042BEED1E7E7702B04BF042385F8D1
:104F6000643C36E7FFE0CF007A25E00035FA8E3C5E
:104F700098100020C0100020B9900008578F00083A
:104F8000B1B30008C9620008E40E00202D23FA3BEB
:104F90005F8F0008CF9000080004004800540040D4
:104FA000022385F8543C95F8F830052B7DD8012470
:104FB00004FA03F313F0160F40F0A58013F0290F45
:104FC00073D00A2003F0E4F94CF6EF030FA9022096
:104FD000ADF83C3006F0FEFD002800F0948020463D
:104FE00003F0D6F913A902208DF84C908DF84D905E
:104FF00006F0D6FC002800F08680BDF84C305BBA85
:1050000003F03F03082B7ED1424B9DF84C90D3F820
:10501000040293F808321C9039463B7105209DF834
:105020004DB006F0D7FD00286DD03B4C4FF2C7784D
:1050300004F110060FA90220ADF83C8006F0CAFD6D
:10504000002860D0012003F0A3F913A902208DF8F5
:105050004C908DF84DB006F0A3FCBDF84C309DF897
:105060004C909DF84DB05BBA9BB200284BD007EE38
:10507000903AF8EEE77AE4EC017AA642DAD1274BCF
:10508000C5F8A83C264BC5F8B03C264B00221A6058
:105090006223C5F8B83CD5F85C35C5F8BC3C0320A4
:1050A000002385F8C03C06F0E9FDD5F8F43843F05C
:1050B0000403C5F8F4381C4C49F6117647E0144651
:1050C000A3E6002285F8792C184AC5F8582C43F03D
:1050D0000303174AC5F85C2CC5F8F438D5F8583CDA
:1050E0009847A0E6A8F10203032B7FF6A9AEB8F11A
:1050F000010F04D1D0E6B8F1000F3FF4CDAE00238C
:1051000085F87A3C9AE695F8543C43F0200385F8FC
:10511000543CD0E738140108EC1000207DBC000896
:1051200039BA00081C110020000800489DB300088F
:1051300095620008A38A9BB283F40053A382A38ADA
:105140009BB283F48043A382642003F021F93B46A1
:10515000022200214020ADF8706003F0E5FD002838
:10516000E8D0D5F81C3C012B02BF95F8543C43F025
:10517000400385F8543C95F8540C00287FF4DDAECC
:1051800095F8183CC24C43F0020385F8183C4FF4E4
:10519000005323854FF48043A3610F26A38A9BB25B
:1051A00083F40053A382A38A9BB283F48043A38237
:1051B000A38A9BB283F40043A382192003F0E8F88A
:1051C000013E192003F0E4F816F0FF06E6D14FF493
:1051D0008043A3614FF40053A3614FF40043A361E4
:1051E000D5F8F4381C0705D5D5F87C3C9847012341
:1051F00085F8C13CD5F84437DFEDA66A1B7BA5F8DE
:10520000C23CBAF82630A44807EE103AB8EEC77A86
:105210001A22C6EE877AFF219FEDA07A67EE877A81
:10522000C0ED007AA0F206300AF0A2FFD5F8F4181B
:1052300001230022880785F8F83885F8F92807D572
:1052400085F8FA38032385F8F838022385F8FB3807
:105250004A0708D595F8F8385A1C2B4485F8F828E1
:10526000032283F8F92895F8F83811F00A0F03F1B2
:105270000102D2B210D0E9182A44042081F8F908BA
:10528000052182F8F918DA1C023355FA83F385F800
:10529000F828062283F8F928D5F8C877BB0608D580
:1052A00095F8F8385A1C2B4485F8F828072283F81B
:1052B000F9286B79082B01D00E2B08D195F8F83816
:1052C0005A1C2B4485F8F8280B2283F8F92895F806
:1052D000F828A918531C0C207C07DBB281F8F908C8
:1052E00005D52B440232102183F8F918D3B2E918FE
:1052F00012205A1CD2B281F8F908780585F8F828EE
:1053000009D595F8B81131B102332A4485F8F83837
:10531000132382F8F938B90508D595F8F8385A1CDE
:105320002B4485F8F828152283F8F928FA0508D5C2
:1053300095F8F8385A1C2B4485F8F8281A2283F877
:10534000F928982200215648564C0AF011FF0120F6
:1053500003F08AF94FF04C0B00286AD1D5F8E439F4
:10536000B5F944C1C5F8E4384F4BC5F8703B00228D
:10537000A5F8F02685F8F226C5F81427C5F81827F1
:10538000C5F8B43685F8C12AD5F8AC16B5F844018D
:1053900003F23246624603F6D613F82526F8022BAE
:1053A0000135D4F85C25EDB202F516720A2D43F8EA
:1053B000042B65D1FB0454BFB4F84A310346A4F86A
:1053C0006E3501F1500591F87D30ABB991F87F2031
:1053D00091F880309A420FD2002A6BD0013A02EB4A
:1053E000820202EB820202F5617293B291F87E2092
:1053F00004EB4202A2F8703504318D42E3D13E073E
:105400006DD594F83E21062A63D8DFE812F05B00E0
:105410002D04300458047904930493040BFB06FA1A
:1054200004EB0A0999F82E8AB8F1000F04D001366E
:10543000F6B2022EF2D191E702791C4B90F90000EE
:10544000CDF8048003EB820303220092D3F80C32E0
:105450004246012106F0BAFE039068B11448482282
:10546000414650440AF084FE039BC9F8E439012305
:105470001E4489F82E3AF6B2012003F0CFF86BE70C
:10548000022D9DBFB4F84621643212B2624685E710
:10549000000800480AE81C41681000200000C842CB
:1054A0004C0E0020680400209E05002038140108DE
:1054B000500E0020013303EB830303EB830303F55A
:1054C000617393E745F2F053A4F8C43C06F0B6FECE
:1054D00028B90820FAF7A0FEC34BC44A9A6317F410
:1054E000804F18BF1223C04D1EBF84F82839C04B0F
:1054F000AB6342F201031F4211D044F62063A4F8CB
:10550000C43CBB0441BF082384F82839B94BAB63C2
:10551000FE0741BF0C2384F82839B74BAB6394F8DE
:105520002839B64F043B84F8293932209F234FF4A1
:1055300080580DF14C091CAE139302F029FF002393
:10554000A7F828800422494630468DF8713006F0CD
:10555000BFFE9DF87130C7F818809DF872201B04BB
:1055600043EA02239DF873201343A54A934200F0B7
:10557000228400F31984A2F51A42033A934200F000
:10558000218402F51A420232934200F0478400233C
:10559000C5E90C33AB6202F0A9FD6379C4F8180DBC
:1055A000052B04BF4FF4C873A4F85235FBF758F825
:1055B0004FF47A73DFF87482A4F854350320D4F8DA
:1055C000A83C9847DFED8F7A47460837C8ED007A48
:1055D0004FF0650AB0EE677AB0EE678AB5EE407AB2
:1055E000F1EE10FAC7ED007A40F03F84BAF1010AFB
:1055F00040F0268494F8DB3843F0080384F8DB3865
:1056000094F8EC3523F0020384F8EC35D4F8C8376D
:1056100040F602021A4222D00027032384F8A5385C
:1056200039460123784885F82430C822A4F8A878A0
:10563000A4F8AC78A4F8AA78A4F8AE780AF098FD9B
:10564000D4F85C35C4F8B438704BC4F8D87700206F
:105650000021C3E9000184F8D47784F8A4780123F9
:1056600084F82C3C94F8183C694FD4F80880C4F8AE
:10567000C88763F07F0384F8183C3B464FF08042B4
:1056800043F8042B634A1A60634BBB604FF4966384
:10569000A4F87235614BAB610021614D084605F0FD
:1056A00030FE95E80F000DF11C0A8AE80F0005F1A5
:1056B00010030FCB0DF12C0E8EE80F0005F1200327
:1056C0000FCB0DF13C0C8CE80F0005F130030FCB34
:1056D00089E80F0005F140030FCB86E80F009AE838
:1056E0000F0007F10C0585E80F009EE80F0007F199
:1056F0001C0A8AE80F009CE80F0007F12C0E8EE8C8
:105700000F0099E80F0007F13C0C8CE80F0096E8B9
:105710000F0007F14C0C8CE80F004FF4967002F06C
:1057200037FE4FF48C7207F15C0000210AF020FD77
:105730003C4BDA6942F00702DA619A6942F4A52229
:105740009A615A6942F4C0225A6100200F27AA7B4D
:10575000696895F80FC002F00703D20801EB8202D6
:105760009B00116A0CFA03FC07FA03F321EA030316
:105770001362136A04304CEA03031428136205F120
:105780001005E4D16279D4F8E818182A9DBF264B99
:10579000D34003F0010300238DF866300022881CFB
:1057A00010F93250022D00F092830132042AF7D111
:1057B00000228DF86120C8F340028DF86220C8F302
:1057C00080128DF86420C8F340328DF85C20C8F355
:1057D000C0328DF85F2018F4006229D094F832218D
:1057E000D51E6A426A4123E000000020D160000813
:1057F000ED600008D5600008E16000080004004882
:1058000018BA200000000000440C0020280D0020E1
:1058100084110020ABAAAA3F26B4973EA0860100BF
:10582000641601080010024000410001EC0A00204B
:105830008DF86020C8F300428DF8652008F0010261
:105840008DF85D20C8F3C0028DF85E20C8F3804259
:1058500018F4805FB4F8D4108DF86320B4F8E02019
:10586000ADF86A101CBFB4F8DC10ADF86A10B2F5E0
:10587000FA7FADF8682094BFBDF86A200022ADF829
:105880006A2094F8822184F8902E00225B0018F0A0
:10589000090FA4F8912ECB4A18BF013302EB830302
:1058A0004FF6FF79D3F87C32A3F102080833039353
:1058B00038F8020F484500F0C880030A022B00F0B8
:1058C000C080C14AC0B2012B4FEA001B02EB00109E
:1058D00040F085839DF85D30002B00F0B28004EB32
:1058E0000B07002384F8943EC4F8983EC4F89C3E0D
:1058F000C4F8A03EC4F8D43E84F8DC3E97F8353DA9
:10590000B7F8302DC4F8E80E31468DF87230D7F86C
:105910002C0DADF870200223C4F8D89E8DF873309A
:1059200005F0C8FC94F8902ED7F8285D97F832ADB2
:10593000012A18BF00212A6A08BF0321BAF1000F0B
:1059400040F0CC8222F001022A62AA69286A22F081
:10595000F30242EA011220F00A0042F0010240F094
:105960000100AA612862AA6922F00C02AA61AA6950
:10597000AA6101220021284605F0A2FB2A88934F44
:1059800092B242F00102BB442A809BF833BD5846D4
:1059900006F0CEFABBF11B0F02D1192006F0C8FAAF
:1059A0008B4AC7F8EC2E4FF0000B8A4AC7F8F02E4E
:1059B0002846C7F8F4BE05F0FBFA062841D80A21AC
:1059C0004143854A01EB9A0107EB810C131DCCF88A
:1059D000782DCCF8883D4FEA9A0C0223E96803FA47
:1059E0000CF39BB20B43EB6028234343A2F5BA723E
:1059F00003F120011144EFF3128C4FF0500E8EF39F
:105A000012880C33134453F8042F0AB10A60111D95
:105A10000BF1010BBBF1040FF5D100230B605FFA12
:105A20008CFC8CF31188282303FB0077D7F8983D72
:105A3000002B40F0D082EB6823F001031B041B0C09
:105A4000EB60039B43457FF433AF644E644D042306
:105A500084F8B0390FCE0FC50FCE0FC50FCE0FC5CE
:105A600096E80F0085E80F00D4F8C837D4F8286707
:105A7000D4F8240703F48052A5F256650023002AC7
:105A800000F0E082818825F8021B01330C2BF6D14F
:105A9000544B0F934FF09043CDE913334FF44173C0
:105AA000ADF82C30504B514D21954FF0A041CDE930
:105AB0001C1301204FF08053002713AC0BAE05F1EF
:105AC0000D094FF0020B0DF11C080DF13C0ACDE958
:105AD0001E0303F558531CA82093ADF81C70CDF895
:105AE0009490CDF89CB0CDF88880CDF88CA024940B
:105AF000269606F0F3F83E4A3E490F922022ADF872
:105B0000402007C984E807003B4ADFF808C1118834
