:020000040800F2
:1000000000A00020CDE9000835EA000835EA000824
:1000100035EA000835EA000835EA0008000000006B
:1000200000000000000000000000000035EA0008A9
:1000300035EA00080000000035EA00084D8100089C
:1000400035EA000835EA000835EA000835EA000814
:1000500035EA000835EA000835EA000835EA000804
:1000600035EA00084781000835EA000835EA00084B
:1000700035EA000835EA000825B0000835EA00082E
:1000800035EA000835EA000835EA000835EA0008D4
:1000900035EA000835EA000835EA000835EA0008C4
:1000A00085B200083DB2000895B200082DB20008E4
:1000B00041B2000851B2000861B2000835EA0008F8
:1000C00035EA000835EA000835EA000835EA000894
:1000D00035EA000865B0000871B0000835EA00088C
:1000E0004181000835EA000835EA000835EA0008D1
:1000F00081B2000835EA000871B2000835EA00084C
:1001000000000000000000000000000035EA0008C8
:1001100035EA000835EA000835EA000835EA000843
:1001200035EA000835EA000835EA000835EA000833
:1001300035EA000835EA0008000000000000000071
:1001400035EA000835EA000835EA0008000000003A
:10015000000000000000000000000000000000009F
:10016000000000000000000035EA000835EA000841
:1001700035EA000800000000000000000000000058
:080180000000000035EA000850
:1001C00010B50F4B1A786A2A17D15A88B2F5AA6F60
:1001D00013D11A79BE2A10D193F84E25EF2A0CD1EB
:1001E000084C002213F8011BA342104682EA0102C8
:1001F000F8D1431A5842584110BD0020FCE700BF17
:1002000000F0030850F50308024A93680343936023
:10021000704700BF68040020024A936823EA000385
:100220009360704768040020044A0123B2F8501517
:1002300083400B43A2F85035704700BF680400208C
:10024000044A01238340B2F8500520EA0300A2F8D3
:10025000500570476804002010B50C4CB4F85205E6
:10026000B4F85435184380B260B9FFF7E9FFB4F829
:10027000500510F0010004D1D4F85805003818BF1B
:10028000012010BD0020FFF7CFFFF0E76804002039
:10029000704B71481A68596870B5D0F85C45A21A5D
:1002A0008A4215DB1A7A9AB190F86025B0F8506549
:1002B0000132D2B280F86025002101252E4208D1FA
:1002C00001316D000929ADB2F8D15A6822441A6093
:1002D00070BD89B20139072905D8DFE801F01BACF0
:1002E00090819D452E7064225A605D7A5B4A4FF47E
:1002F00080404FF4005190612DB111854FF40041C1
:100300001185002204E091614FF4004191610122C6
:100310005A72DAE75D7A64225A604FF480404F4A9D
:100320004FF4004125B1108591614FF40051E7E78A
:10033000906191614FF40051E8E790F861154748EA
:1003400021B364225A604FF4804282614FF400521C
:1003500082614FF400420285B7E74FF48042018585
:1003600002854FF40052F6E790F861153B4869B1F9
:1003700064225A60828A92B282F4005282824FF4DE
:10038000804282614FF4004282619EE702F00302E4
:100390007821022A59604FF40041DED0032A0AD0A6
:1003A000012A01854FF4804201D0826100E002857C
:1003B0004FF40052E8E781614FF48042F5E790F88E
:1003C0006125002A81D064225A60244A4FF480417A
:1003D00011854FF4004191614FF40051916174E730
:1003E0001E4964225A604FF480428A614FF40042F1
:1003F0008A618A8A92B282F400528A8265E7642214
:100400005A60164A4FF4804191614FF40041916166
:100410004FF40051118558E7104964225A604FF497
:1004200000528A618A8A92B282F480428A824FF4B0
:1004300000428A6149E7642112F0010F5960074ABE
:100440004FF480414FF4004001D11085C3E7906123
:10045000DDE700BF0000002068040020000800481D
:10046000FDEEC07A17EE903A2033402B43D8DFEDF3
:10047000237A9FED237AB4EEE70AF1EE10FA28DC36
:10048000DFED207A9FED1E7AB4EEE70AF1EE10FA66
:1004900022D4DFED1D7AB4EEE70AF1EE10FA1EDD8C
:1004A00030EE670A37EEC00A60EE007ADFED176AB9
:1004B0009FED177AA7EEA67ADFED166AE7EE876A58
:1004C0009FED157AA7EEA67A20EE276AA6EE070A18
:1004D000704730EE470ACEE730EE070AD4E79FEDCB
:1004E0000F7AB4EEC70AF1EE10FA44BF30EE270AD5
:1004F00037EE400AD8E79FED0A0A7047DB0F494004
:10050000DB0FC940DB0F49C0DB0FC93F9A7C2E3699
:10051000FAAF4FB93587083CA4AA2ABEDB0FC9BF82
:100520000000000003685A1C026019707047002325
:100530001B68FFDE30B5484BD3F86425B3F96E1560
:100540009578D278B3F98C05002A41D00A1A82EA4C
:10055000E274A4EBE274AC4223DD012012F5997F32
:1005600083F88E051ADD062092FBF0F2502AA8BF10
:100570005022B3F89005024412B2A3F8AA25A3F8BA
:10058000902593F8B025002A61D040F2DC529142C8
:100590005DDC4FF47A72A3F8AA2530BD6FF031020A
:1005A000E7E793F88E2532B1D3F89825C3F8942560
:1005B000002283F88E25D3F89C25D3F8A04510445B
:1005C00022889042D8DB62888242A8BF0246D3E7E5
:1005D00040F2DC529142214C23DDA1F2DC529542E3
:1005E00028DAA1F2DC52002ABCBF6FF4BB628A1881
:1005F0009210782AA8BF7822C3F8AC250122A272F3
:1006000083F88E25D3F89C25D3F8A0451044228882
:10061000904203DB62888242A8BF0246A3F8AA2563
:10062000AFE7521A954205DAB1F5896FD9DC6FF060
:100630006302E1E70022A27293F88E45C3F8AC256D
:10064000002CDFD0D3F89845C3F89445D8E70022B2
:1006500083F8B025A1E700BF680400200000002057
:10066000134BD3ED037A134BF5EE407AF1EE10FA0B
:100670004FF0000203F1040103F1080003D11A60F6
:100680000A6002607047F0EE086A86EEA77A80ED95
:10069000007A27EEA77A67EE877A86EE876AF7EE0A
:1006A000006A86EEA77A81ED006A83ED007A7047D2
:1006B000000000201C0A0020034BB3F8C0351D2B9E
:1006C00001D80420B0E5704768040020054B0022E3
:1006D000C3F8C425C3F8C82503F2CC5300221A601E
:1006E0005A60704768040020074B0022C3F8D425E5
:1006F000C3F8D825C3F8DC2503F5BC6300221A60D3
:100700005A609A60704700BF6804002010B5164C0C
:1007100094F8EC355A0706D523F00503042084F835
:10072000EC3507F0EBFE94F8ED25104B0AB10022F2
:100730001A7401225A74782200215A82042040F24D
:1007400014529A8284F8EE1584F8EF1584F8F015A7
:10075000C4F8F415FFF774FD0520FFF771FD84F868
:10076000F81584F8B01510BD6804002000000020C2
:100770002DE9F047C04C94F8F935B4F8FA2504EBAC
:100780004303B3F968359342C0F25481B4F8FC25B1
:10079000934200F34F8194F8FE550DB994F8FF553C
:1007A00094F8023684F8005684F80156002B00F0C5
:1007B0000D81D4F80476D4F80836FB1AC72B40F222
:1007C000058194F80C86B8F1000F40F0F5804146A1
:1007D000404608F0FFFBA94BA948002D08BF18466A
:1007E0000BF01EFFD4F8106694F8FE95022E40F030
:1007F0007A81B4F85035DA0740F11E81A14BC4F874
:100800001436D4F81486B8F1000F06D00620002163
:1008100008F0E0FB40460BF003FF002110200136FA
:10082000C4F8106608F0D6FBB4F8C03596480A2123
:10083000B3FBF1F201FB12339BB294490AF0FEFFC5
:1008400091480BF0EDFE0721002008F0C3FBB9F141
:10085000000F40F0518194F8FF258D48874B002A06
:1008600008BF18460BF0DCFED4F82C66D4F85C35D3
:1008700094F8302616F0010600F04081002A40F07E
:100880004281C4F83426B4F85025D20504D501229B
:1008900084F83026C4F8383607210846D4F83436B0
:1008A0004FF47A724FF03C0AB3FBF2F808F092FB77
:1008B000B8FBFAF9774974484A460AF0BFFF724814
:1008C0000BF0AEFE07210C2008F084FB72496E4845
:1008D0000AFB19820AF0B2FF6B480BF0A1FE102050
:1008E000072108F077FB6D486D4B002E08BF1846B6
:1008F0000BF096FE002D5FD10221012008F06AFB6B
:100900000A266849B4F93E265F4892FBF6F20AF0DF
:1009100095FF5D480BF084FE0321012008F05AFB8F
:100920006149B4F93C26584892FBF6F20AF086FF7A
:1009300055480BF075FE0421012008F04BFBB4F97B
:1009400042265A4950480AF079FF4F480BF068FE9A
:1009500002210B2008F03EFBB4F96A2554494A48AD
:100960000AF06CFF48480BF05BFE03210B2008F0F7
:1009700031FBB4F968254C4943480AF05FFF42480F
:100980000BF04EFE04210B2008F024FBB4F96C257B
:1009900046493D480AF052FF3B480BF041FE052115
:1009A0000B2008F017FBB4F96E25424936480AF0CF
:1009B00045FF35480BF034FE94F84436AB4201D085
:1009C0000BF017FE84F84456C4F80876002D00F0AA
:1009D000498107F0C3FBD4F84836C31A002BC0F294
:1009E000CB80354EB3690344C4F84836337FDBB15E
:1009F000324B334800274FF40052C4F84C76C4F809
:100A0000507637729A614FF400429A614FF48042F7
:100A10009A614FF4FA710122C4F8581608F0BEF931
:100A20000123377784F85C3694F85406D4F85836A6
:100A300000228FE00025B3E6980701D5214BDEE6C2
:100A4000D90601D41A0701D51F4BD8E6980605D45C
:100A5000B9F1000F04D194F8FF250AB91B4BCEE67B
:100A6000590701D51A4BCAE65A0601D5194BC6E6F5
:100A7000180633D5184BC2E668040020541D01083F
:100A80004E1D01086C1D0108800A0020C61D0108CA
:100A90005A1D0108CE1D0108D61D0108601D010860
:100AA000661D0108DC1D0108E61D0108F01D010896
:100AB000FA1D0108041E010800000020000800487B
:100AC000B40A0020761D0108801D01088A1D010856
:100AD000941D01089E1D0108A81D0108D9057FF578
:100AE00090AE714B8BE6052E01BF704BC4F81436E7
:100AF000C4F81086464684E66D48B3E6002A3FF403
:100B0000CBAE84F83066D4F838269B1AC4F8343655
:100B1000C2E6D4F85C25521A002AFADB30B1D4F8C8
:100B20005C15D4F84C260A44C4F8502694F85D2687
:100B300072B1D4F8682640F6C41611689AB2B2426F
:100B4000A8BF3246B2F5FA7FB8BF4FF4FA720A6016
:100B500064332A46B3F5FA6FD4F85016D9DD0AB1DA
:100B6000C4F85836012102200AF0D2F9BDE8F04756
:100B7000012100200AF0CCB94E4A0023A2F1EC0179
:100B8000101D1578B5B1032B06D050F8235021F86D
:100B9000135001330132F4E7D4F8A036A4F86E35CF
:100BA00094F8A43613B10023A4F8A636424E0023CD
:100BB00001250CE00133042BECD1F1E701200BF00F
:100BC00059FD002384F8A93684F8A856012316F8A5
:100BD000012B002A42D0DBB2013B042BEED8DFE828
:100BE00003F0030D1B29330001200BF035FD00231A
:100BF00084F8A83684F8A9560223E8E704200BF00D
:100C000039FD40200BF028FD012384F8AA3600238B
:100C100084F8AB360323DAE740200BF02BFD0420E9
:100C20000BF01AFD012384F8AB36002384F8AA36B2
:100C30000423CCE708200BF01DFD002384F8AD361B
:100C400084F8AC560523C2E708200BF005FD00230D
:100C500084F8AD5684F8AC36BDE8F0870133062B36
:100C6000B5D1F9E794F85C36002BF5D0134BC4F8F6
:100C70009456012284F89056C4F8985684F89156F8
:100C8000C4F89C5684F89256C4F8A05684F893563B
:100C900084F8A456C4F84C56C4F850561A721A7701
:100CA00084F85C56D8E700BFB21D0108BC1D0108DE
:100CB0005A1D0108F80A0020100B00200000002037
:100CC000224B93F8EC2512F0010F02F0040103D13E
:100CD000D3F8B006012833DC93F8B40680B393F858
:100CE000B50668BB39B11A4A1346516843F8081B68
:100CF000D2681A607047D3F82C16480124D49107A3
:100D00001FD442F0040283F8EC2593F8EE2522B9B3
:100D1000012283F8EE25D3F85C250E4AB3F842167B
:100D2000D183D3F85C25D3F85C1593F88E214FF46A
:100D30007A7012FB00120520C3F8C82607F0DEBB4C
:100D400011B9012007F000BC704700BF6804002003
:100D5000200B00200000002070B5104CD4F8CC56B9
:100D6000284607F037FC287A04F5DA6400226FF091
:100D70001806192112FB0263434303F6C4135343BD
:100D80000132072A93FBF1F324F8023BF2D1284603
:100D90000349BDE8704007F039BC00BF680400207B
:100DA000380500202DE9F84F4FF4AA622DED028B93
:100DB0000021C8489FEDC88A0FF04EFAC54A02F5D7
:100DC000E4730021C2F8E03602F22A566A230324B3
:100DD0004FF4006015461370547182F8E416C2F89F
:100DE000CC66FFF711FA8020FFF70EFA0220FFF71A
:100DF0000BFA4FF40060FFF707FA4FF48070FFF72B
:100E000003FAC823A5F8FA30B44BDFF83CC3DFF887
:100E10003CE385F832414FF48037C5E93B73B04B72
:100E2000C5F8F4304FF47A73A5F8343142F2201348
:100E3000C5E94AC34FF0A063C5F8C431A94B85F892
:100E400028154FF07E58C5E951E340F64303A5F855
:100E50004C312A46A5F8E41085F8E610C5F8FC10D8
:100E6000A5F80011C5F8E81085F8F810C5F810814C
:100E7000C5F81481C5F8188185ED478A85ED488A43
:100E800085ED498AA5F83011A5F8B81185ED6F8A6E
:100E900085ED708AA5F83E112B462C460329CCBF60
:100EA0000122002201F1010183F84E2114BF1E220C
:100EB0000522122983F84F2103F10203EED18A4B58
:100EC000C4F84031834B00224FF47A704FF4FA613A
:100ED0000132042AA3F87201A3F8741103F1040388
:100EE000F6D1824A824B8349C4E96323824BC4F81A
:100EF000D030A3F1FA73643BC4F8D43003F5602317
:100F000003F5CB73C4F8D8307C4B00274FF00109B0
:100F1000C4E9371384F8827184F894910AF05CFD77
:100F200040F6AC53A381764BC4F8C83103F10343B8
:100F3000A3F51D23A3F29D73C4F8CC317148724B05
:100F4000724AC4F8F821C4E97403714BC4F8D8316B
:100F50002D2384F8DD3141F61E63A4F8DE316D4B9C
:100F6000C4F8E031C4F8FC2145F205336A4AA4F81C
:100F7000E431C4F8142264234B2284F8E63184F867
:100F8000182240F201534FF4FA72A4F8E831A4F8A1
:100F90001A22624BC4F8043240F2DC52C4F8083220
:100FA000A4F834255E4BC4F8F43144F25A125D4B78
:100FB000A4F82A254FF07F513222A773C4F81032CB
:100FC000C4F81C72C4F82C25A4F8307584F8327566
:100FD000C4F8EC11C4F8F011C4F8008284ED838ADF
:100FE000A4F82272C4F82C3242F62803A4F8303256
:100FF000152384F834324C4BC4F82472C4F83832C8
:101000004A4F4B4B84F84492DFF83891C4F83C3295
:1010100040F60822474BA4F82822C4F84032BA46CA
:1010200009F1080BB84617F8011B002943D14FF40A
:101030002053A4F8DE324FF44873A4F8E2323E4B5A
:10104000C4F88431C823A4F88A3184F8DD1284F806
:10105000E01284F8E41284F888110C23013B05F1B6
:10106000100585ED008AF9D134494FF49072881843
:101070000BF00CFB31494FF4907201F510700BF03E
:1010800005FBD4F82A35C4F836352D4A7368536009
:10109000B368D4F82A159360C4F84215536101234C
:1010A00084F8403371681161022384F86034BDEC28
:1010B000028BBDE8F88F23480FF01CF90028B1D04F
:1010C00058453FBFA0EB09000019A8EB0A0880F8BB
:1010D0003681A7E768040020000000002A005802BB
:1010E000FA0020006C077503001E00010001059640
:1010F0000101C800B40532004C04D007504632004C
:10110000012828962828783C0A0A4600CDCCCC3EF7
:101110000002210A1E321E00000040408FC2F53C32
:10112000000020400000A0409A99193F0E1E0108BF
:10113000F6287C3F1F856B3F0AC814053006002047
:101140009E09002020150108190A0A2ADC054C0412
:101150002DE9F843FFF734F810B9032007F05FF9E1
:10116000C14C07F023FB4FF4AA62C04920460BF0A4
:101170008DFA94F82865022E88BF00264FF49075EA
:1011800006FB05F504EB050288BF84F8286592F894
:101190002032022B84BF002382F820320C2284F8F4
:1011A000E43605F5E47702FB034303F22A530820F3
:1011B0002744C4F8CC36C4F8E076FFF72DF84FF496
:1011C0000050FFF729F80120FFF726F84FF4804080
:1011D000FFF722F8FFF718F84FF4907303FB06436C
:1011E000002283F8452241F20302A3F84622A04AD6
:1011F000C3F8482202F18052A2F57E42C3F84C2285
:101200009C4A4FF4866CC3E994C2202283F858228A
:10121000052384F8F93540F2AA53A4F8FA3540F2D0
:101220000E63A4F8FC35944B012283F82020A368B8
:1012300046F209021A4203D14FF40050FEF7E4FFD0
:10124000A368D80703D54FF40050FEF7E5FFA36865
:10125000590409D50820FEF7DFFF4FF40050FEF7D0
:10126000DBFF0120FEF7D8FFA3681A0706D54FF46D
:101270000050FEF7D1FF0120FEF7CEFFA3689B04CC
:1012800002D54020FEF7C8FF012384F8B93194F855
:101290008C312BB194F8903113B1002384F8903144
:1012A000DFF8EC81C4F8E886002002464FF0FF0E1C
:1012B00004EBC003B3F89A114B0803F077334FEAFD
:1012C000910909F03339CB1AA3EB09034FEAD1098D
:1012D00009F01139A3EB090303EB231303F00F33D8
:1012E000B3FBFEF9C9EB092901F0010CA3EB0903DB
:1012F0006244012BD2B207DD022B0BD1BCF1000FEF
:1013000008D011F0BC0F05D001300428D0D1013A2B
:10131000012A01D90AF060FBFFF71EFD30220021EF
:101320005648DFF870910EF097FF05F245203946D8
:1013300020440AF07FFB4FF4907303FB0646C4F889
:101340001C9796F8C80105F0D1FA09F18E03C4F88C
:10135000203794F88431DFED4A6AC4F86487642149
:10136000C82213FB0123B4F8F210C4F82837002375
:10137000C4F82C37C4F83037C4F83437C4F83837D9
:10138000C4F83C37C4F84037A4F84437C4F84837A9
:10139000C4F84C3707EE901A09F10603C4F8543725
:1013A000A9F11E03B4F8F410C4F85837F8EE677AC0
:1013B00009F19A03C4F8603709F27263C3ED017A48
:1013C00007EE901AB6F82812A4F8681796F8441297
:1013D00084F86A1794F88F1184F87417B6F8E2123B
:1013E000C4F8783707EE101AF8EE677AB8EEC77AC5
:1013F000C3ED027AC6EE877A05F50C732344C4F870
:101400007C3705F2DD2509F28A63A9F1260225441D
:10141000C4F85C27C4F884774FF07E519FED197AA9
:1014200067EE877AC3ED007A09F29263C4F86455D7
:10143000C4F8A025144A1A604FF07C5209F2A6693C
:101440005A6000229A60D9601A61104BC9F80030C6
:10145000C9F80410C9F80820C9F80C10C9F8102000
:10146000BDE8F84307F0BAB96804002000F00308AB
:10147000300103001005001000000020540B002074
:10148000000061444C3D0F440AD7233CCDCCCC3DF9
:101490009E0500205E0500202DE9F74F07F086F934
:1014A000434B6A221A704FF4AA625A80BE221A7104
:1014B000EF22A3F84E2540F251510022184601397F
:1014C00055D13C4B80F84F251A69120604D53A4A8B
:1014D0005A6002F188325A60364C384E03254FF07C
:1014E0003409C4F80C900AF065FA0428DFF8C080CB
:1014F00038D1236943F002032361314B63612369CF
:1015000043F0400323610AF055FA2369042823F0CD
:101510000203236126D14FF0000BDA4658F8047B12
:10152000CDF804A00AF046FA04281BD1236943F041
:10153000010323610BF1006303F57C33BAB21A8017
:101540000AF038FA042816D10BEB06030193019B2D
:101550003F0C1F800AF02EFA2369042823F00103B0
:1015600023610DD0013D15F0FF05BAD10DE013F850
:10157000014B6240A3E7236923F001032361F1E7F4
:101580000BF1040BBBF5AA6FC8D10A4A13690428F2
:1015900043F08003136102D1FEF712FE10B904205C
:1015A00006F03DFF03B0BDE8F04F07F017B900BFEC
:1015B00068040020002002402301674502F0030870
:1015C00000F003082DE9F04FD54ED6F8CC86B6F9D9
:1015D0006EE5B8F80A202DED048B9645A9B0C0F24F
:1015E000B581BEF5FA6F98F80740BDBFAEEB0203B8
:1015F00013FB04F3C2F5FA62C4F16403BCBF93FBAE
:10160000F2F3C3F164030193B6F844310393C54B7D
:10161000D6F8E0B6069303F5187203F13C0705927D
:10162000A3F5AD6503F2632208F10403DA460492E0
:10163000002064210793069B33F9022B0292069344
:101640001346039A9B1A03F2F31240F2E634A242C5
:1016500000F27E81002BB8BF5B42022800F07B8144
:101660009BF815211AB19A42B4BF9B1A0023B3FB11
:10167000F1FC05EB4C024FF69C74B2F9CE97B2F92F
:10168000D0271CFB043CA2EB09020CFB02F292FBEC
:10169000F1F24A443A80079A125C12FB03F3A24A21
:1016A00093FBF2F3019A64339BB2534393FBF1F340
:1016B0001AF8012F059C5A4392FBF1F204F8012B12
:1016C0009AF8162005945A43049B92FBF1F203F812
:1016D000012B022804931EBF944B019AC254DDE9EA
:1016E000023208BF85F8DE179342B8BF3B8800F18D
:1016F0000100BCBF5B423B80032807F102079AD17F
:10170000DFF83492D5F82C86B9F92230581C0DD068
:1017100018F0080F0AD0D5F89825323B934205DC23
:1017200040F2DC539E45C8BFA5F86E3595F8EF35FD
:101730001BB1B9F81430A5F86E35B5F96E35B5F8AA
:1017400046219342C0F23281B3F5FA6FA8BF4FF43D
:10175000FA639B1A4FF47A714B43C2F5FA62642420
:10176000B3FBF2F393FBF4F105EB41026FF0630777
:10177000B2F9E007B2F9E22707FB0133121A53432B
:1017800093FBF4F30344A5F8AA35B5F8F8375906E6
:1017900039D5B5F84236B9F81E20DFED657A9FEDF0
:1017A000650A9B1A1BB205EE903AF8EEE55A65EE13
:1017B000A75A35EE800AFEF753FEB0EE405AB0EE5F
:1017C000650AFEF74DFEB5F9A63506EE903AB5F975
:1017D000A43507EE103AF8EEE66AB8EEC77A67EE7F
:1017E000007A20EE660AE6EE857AA7EE050AFDEE9F
:1017F000E77ABDEEC00A10EE103AA5F8A43517EE50
:10180000903AA5F8A635D5F8FCA71AF0020F00F01B
:10181000E280D5F80028D5F8043845F20721D31A1C
:101820008B4240F3D8800220C5F8042809F0D6FB8B
:10183000C2075EBFC0F3CF041923B4FBF3F495F8DD
:101840000838D5F80C2805EB430148BF4FF6FF7464
:10185000B1F81008A1F81048121A14440133642298
:10186000B3FBF2F102FB113385F8083895F8D8384C
:10187000C5F80C48632B9EBF0133DBB285F8D8381E
:10188000B4FBF3F495F8D938A7B2032BA5F8C075CB
:1018900040F08E800A2F40F29E8099F8241001EBD0
:1018A000810101EB810100234FEAC11B01EB011112
:1018B0004FF416721FFA8BFBC90085F8D93828201F
:1018C00041F26803A5F8DA28A5F8DC38A5F8E01895
:1018D000A5F8DEB806F094FD2A21B7FBF1F107EB7D
:1018E0008707013107EB870789B2BF000829BFB21C
:1018F00028BF0821A7EB0B074FF4167241F26803CB
:101900007A43A3EB0B0389F8241092FBF3F3A5F8B9
:10191000E238034AB2F8E038A4B2633BA3420DE0D8
:1019200068040020D00900200CFEFFFF440C0020BA
:1019300035FA8E3CDB0FC93F000000204BDD012350
:10194000082082F8D93806F0D9FD44E064235AE62D
:101950004FF4FA7381E69BF816211AB19A42B4BF8C
:101960009B1A0023B3FBF1FC05EB4C024FF69C7471
:10197000B2F9D096B2F9D2261CFB043CA2EB0902C4
:101980000CFB02F295F9EEC092FBF1F2CCF1000CE7
:101990004A4412FB0CF2A5F8A82598F8062012FB81
:1019A00003F3AF4A93FBF2F3643381E61346D0E6C8
:1019B0000A2F00F2AD80032385F8D938002389F877
:1019C0002430A5F8E038A5F8DE38A5F8DC38A5F80D
:1019D000DA38A5F8E2381AF4006FA24C59D0D4F8DE
:1019E0000028D4F8E43845F20721D31A8B4250DDA1
:1019F000D4F85C35C4F8E428D4F8E828C4F8E8380A
:101A00000120A3EB020B09F0E9FA00B2632840F3CE
:101A1000B080642390FBF3F007EE900AF8EEE77ACB
:101A2000B2EE047AC7EE876A9FED8F7AC6EE877AA8
:101A3000FCEEE77A17EE903AB3F5803FAABF00229A
:101A40001A461346C4F8EC289BB2DFF82CA2D4F84F
:101A5000F078DAF80420E3FB0B7291460023834A06
:101A6000384649460AF018FFC317B0F5803F73F1B6
:101A700000032ABF002303461846C4F8F838B4F818
:101A8000E238C4F8F0781B1A9BB2CAF80490C4F884
:101A9000FC3818F4805F02D00A2006F02FFDD4F83D
:101AA0000099B9F1000F22D0D4F85C35D4F804299C
:101AB0009A421CD894F80A39B4F80879002B5AD104
:101AC000D9F80430012284F80A29DB5D3BB137B92B
:101AD00099F80030053B934201D806F03FFBD9F856
:101AE0000430DB5DFE2B4AD10023A4F8083994F8BA
:101AF000EC154B074FF0080051D5FEF795FB07207A
:101B0000FEF79EFB0620FEF79BFB594F0023B6E035
:101B1000012B05D0022B1FD0002B3FF4FAAE5AE761
:101B200095F8EC3523F0020385F8EC35B5F8DE388E
:101B3000A4B2633BA34204DD022385F8D938072011
:101B400014E0B5F8E03864339C420EDD002385F8DC
:101B5000D938FEF7B1FD3EE7B5F8DE38A4B26433FC
:101B60009C42ECDD012385F8D938082006F0C6FC3C
:101B7000EFE7002369E7002384F80A39AFE7FF2B7A
:101B800002D106F0A9FCB2E7D4F85C250A2113FBC8
:101B900001230137C4F80439A4F80879A7E7FEF750
:101BA0004FFB18F0010F10D194F80B391F0702D525
:101BB00094F8B4364BBB072021F0010184F8EC15F2
:101BC000FEF73EFB0620FEF72FFBB4F8503594F8E5
:101BD0000C79580724D56FB926483A464FF49671C8
:101BE00007F0DCF8F0B1012384F80C39C4F8487729
:101BF000C4F84C7794F80B391B0713D50220FEF775
:101C00001FFB002384F80C390CE041F00101072090
:101C100084F8EC15FEF708FB0620FEF711FBD4E76D
:101C2000002FE7D1B4F8C035222B11D900230320AF
:101C300084F8B536FEF704FBFEF70EFB00283FF4F0
:101C400064AF94F8EC3523F0010384F8EC355CE7DD
:101C50000123032084F8B536FEF7E6FAECE700BF6F
:101C60000CFEFFFF680400206F12033B80EE36007D
:101C70007C0E0020B00B0020580D0020132397F895
:101C80004A800193B8F1010F40F0BE813B68C4F86F
:101C90001079C4F814394FF005094FF0000BD4F84F
:101CA000140903685B689847002800F06D81D4F838
:101CB00014090368DB689847D4F810A99AF84830EB
:101CC000052B12D8DFE803F0030A9FA4B3BD242834
:101CD00040F0CD8001238AF8483006E0A0F14D01A4
:101CE0004842484140008AF848009AF84830062B9C
:101CF000D5D19AF849307C2B00F2CC80002B00F033
:101D000016875A1E7B2A00F20D87DFE812F01601B3
:101D100023018F019A01AF010B070B070B070B077C
:101D20000B070B070B070B070B070B070B070B0723
:101D30000B070B070B070B070B070B070B070B0713
:101D40000B070B070B070B070B070B070B070B0703
:101D500055040B0799050B079E050B07BF050B07DD
:101D6000D1050B07D7050B070B070B070B070B0755
:101D700026060B077C040B076D060B07AC050B074B
:101D80001F034E040B0750030B070B072D060B0711
:101D90003F060B070B07DB069206B2060B075A033A
:101DA0000B07F5050B0703060B070B070B070B07C4
:101DB0000B070B070B070B070B070B070B070B0793
:101DC0000B070B070B070B070B070B070B070B0783
:101DD0000B070B070B07F301A7020B07DD02F0024D
:101DE0000B070B070703150324035F03A1030B076E
:101DF00016055B05A50441040B07ED040B070B0753
:101E00000B07F90600073C2814BF0023032362E7F1
:101E1000402802D98AF848B067E78AF805008AF8AE
:101E200004B08AF807B08AF80600042353E79AF84A
:101E300006308AF8490043408AF806308AF848900C
:101E400053E79AF804309AF805109AF80620994258
:101E500008D942408AF806205A1C53448AF80420C4
:101E6000187242E790420CBF0623002333E794F830
:101E7000EC355A073FF539AFD4F818391B7883424F
:101E80007FF433AF8F4B904AC3F8FC2F8F4B904AAF
:101E9000DA602AE7F02B00F0B2843CD8DD2B00F0AA
:101EA0002586DE2B00F02686A02B00F0B684C72BFB
:101EB00040F23D86C83B2A2B00F23986DFE813F05A
:101EC000B506370603073706DD07880892081B08A2
:101ED000800837069C06AC06B00637066008370651
:101EE00037066E087B08370637063706370637068B
:101EF00037063706370637063706370637063706FA
:101F00003706370637063706370637063706E2063E
:101F100037063706B006FE2B00F06484FF2B00F076
:101F20006981F22BC3D9FA2B40F0018694F8EC3585
:101F30005B0740F16C8600F0FABD032006F033FC2D
:101F4000002006F0D1FB002006F0CEFB182006F0A2
:101F5000CBFB0FE0082006F026FCDFF884914FF061
:101F6000000819F8010B08F1010806F0BDFBB8F1F3
:101F7000080FF6D1D4F81039987906F0B5FBD4F8EB
:101F80001039002283F8482094F8DF39002B3BD029
:101F9000D7F80080D8F8003040465B6998470028A1
:101FA00001F05681D4F8FC374A49D8044CBFD4F824
:101FB0005837D4F85C3794F8E0099B8800221BB2AC
:101FC0005FFA82FC8445C1F0488109F08BF8322029
:101FD00006F016FA002394F8E0193F4A9C46D8B25E
:101FE0008842C1F03F81322006F00AFAD4F8FC376B
:101FF000590306D5A3685A0303D440F2DC5006F017
:10200000FFF9324B324ADA60019B132B07F14C0780
:102010007FF434AED4F8B43A002B01F044812F4859
:1020200029B0BDEC048BBDE8F04F1847032006F043
:10203000BAFB022006F058FB022006F055FB0020F8
:1020400085E7102006F0AFFB0C2006F07DFBDFF8E3
:1020500094904FF0000819F8010B08F1010806F000
:1020600043FBB8F10C0FF6D10020D5E01A2006F0A2
:102070009AFBDFF874904FF0000819F8010B08F193
:10208000010806F031FBB8F10B0FF6D1DFF85C90D8
:102090004FF0000819F8010B08F1010806F024FBC5
:1020A000B8F1080FF6D1DFF848904FF0000819F8A2
:1020B000010B08F1010806F017FBB8F1070FF6D184
:1020C00058E700BF00900020EFBEADDE00ED00E05D
:1020D0000400FA05180C00204C0E0020240F0020EC
:1020E000171E0108201E01082D1E0108381E0108B8
:1020F000411E01080B2006F056FBB4F8500506F00F
:1021000023FBD4F81C29CB4B9A420CBFB4F820090E
:10211000B4F8220980B206F017FBD6F82439C3F3CD
:10212000C000C3F38002800040EA4200C3F34002D3
:102130001043C3F3401240EAC200C3F3001340EA65
:10214000031000F01F0006F0FFFAB6F8F82796F823
:10215000EC35D6F82C1696F82889DFF8E0C2500046
:1021600000F00200C3F380030343C2F3400043EADC
:10217000800302F008000343C2F3800043EA001327
:10218000C2F3801043EA401301F4E0701843C2F335
:10219000001340EA4320C2F3401340EA8320C2F315
:1021A000002340EAC32001F47F23034301F480109D
:1021B0000343C2F3402043EA405301F00071C2F3ED
:1021C00080220B43002043EA82634FF0010E024657
:1021D000424504D306F0C1FA94F82805B7E61CF886
:1021E000011B0EFA01F119421CBF0EFA02F108435D
:1021F0000132EDE70023B4F85015A4F84439012268
:102200000A420CD101335200092B92B2F8D10220BC
:1022100006F0C9FAB4F8440906F096FAAAE69BB2A9
:10222000013B072B05D8DFE803F0080A0C0F111358
:1022300015170123A4F84439E9E70223FAE74023FC
:10224000F8E74FF48073F5E78023F3E72023F1E705
:102250001023EFE70823EDE70423EBE7122006F055
:10226000A2FA754BB5F94609DB8CB3F5806F88BFD0
:102270004FF0080890FBF8F080B206F065FAB5F967
:10228000480990FBF8F080B206F05EFAB5F94A0909
:1022900090FBF8F080B206F057FAB5F84C0906F05A
:1022A00053FAB5F84E0906F04FFAB5F8500906F0A2
:1022B0004BFAB5F8520906F047FAB5F8540906F09A
:1022C00043FAB5F85609A7E7102006F06CFADFF8D4
:1022D00070914FF00F0808F1FF3819F8010B5FFA01
:1022E00088F806F001FAB8F1FF0FF4D142E694F84D
:1022F0005809DFF85091400000F0FE0006F053FA54
:102300004FF0000894F858399845BFF433AE39F8C7
:10231000020B06F019FA08F10108F3E7062006F0AF
:1023200042FAB4F85A0906F00FFAB4F85C0906F05C
:102330000BFAB4F842066FE7062006F034FAD4F838
:10234000980506F00AFAB4F8600965E7042006F07B
:102350002AFA002070E2072006F025FAB4F8C0053A
:10236000FF28A8BFFF20C0B206F0BEF9D4F8FC38A1
:102370004FF6FF784345A8BF434623EAE37080B297
:1023800006F0E2F9B4F8640906F0DEF994F83331A6
:10239000D4F8EC0843B10A2358434045A8BF40464F
:1023A00020EAE07080B237E700F30F00FAE702207E
:1023B00006F0F9F994F88E0106F096F994F88D017B
:1023C000C5E5022006F0EFF9A08925E70B2006F00D
:1023D000EAF9D5F8CC36187806F086F9D5F8CC3677
:1023E000587806F081F9D5F8CC36187906F07CF9E2
:1023F000D5F8CC36587906F077F9D5F8CC369879F7
:1024000006F072F9D5F8CC36D87906F06DF9D5F822
:10241000CC36987806F068F9D5F8CC36D87806F03E
:1024200063F9D5F8CC36588906F08EF9D5F8CC3654
:10243000187A8CE50054004000000020910D002027
:10244000180C0020D00900200000C84200007A4487
:10245000212006F0A8F9D4F8E0361B78022B4FF0C3
:1024600000087DD11FED089A5FED088AB2EE048A5C
:10247000D6F8E03603EB880393ED090A20EE080A4C
:102480000CF006FC80F30800C0B206F02DF9D6F877
:10249000E03603EB880393ED0C0A20EE090A0CF0FA
:1024A000F7FB80F30800C0B206F01EF9D6F8E0365C
:1024B00003EB880393ED0F0A20EE280A0CF0E8FBEB
:1024C00080F30800C0B208F1010806F00DF9B8F178
:1024D000030FCDD1B8F1070FD4F8E0362AD193ED30
:1024E000120A20EE080A0CF0D3FB80F30800C0B2F9
:1024F00006F0FAF8D4F8E03693ED130A20EE080A55
:102500000CF0C6FB80F30800C0B206F0EDF8D4F87A
:10251000E03693F8503000EE103AB8EE400A0CF076
:10252000B7FBFF28A8BFFF20C0B206F0DDF84FF0D0
:102530000808CFE74344587806F0D6F8D4F8E036D8
:102540004344187B06F0D0F8D4F8E036434408F151
:102550000108D87D06F0C8F8B8F10B0FBAD109E52B
:10256000D4F8E0364344587806F0BEF8D4F8E036A4
:102570004344187B06F0B8F8D4F8E036434408F139
:102580000108D87D06F0B0F8B8F10B0FE8D1F1E4FE
:102590002F2006F008F9DFF83C8418F8010B00281A
:1025A0003FF4E8AC06F0A0F8F7E7012006F0FBF8EE
:1025B000D4F8E0361878CAE4502006F0F4F8DFF8D2
:1025C00018A44FF000094FF00C0BD4F8E03603EBE1
:1025D000890809F1010998F87D300BFB03A393F8F2
:1025E000500006F081F898F87E0006F07DF898F823
:1025F0007F0006F079F898F8800006F075F8B9F1D8
:10260000140FE2D1B6E4482006F0CDF84FF00009EF
:102610004FF0060AD5F8E0360AFB093809F101093E
:1026200098F8D20006F060F898F8CD0006F05CF853
:1026300098F8CE0006F058F898F8CF0006F054F855
:1026400098F8D00006F050F898F8D10006F04CF851
:10265000B9F10C0FDED18DE4022302934FF0000A92
:102660004FF0010BD949D94B94F82809CB1A834272
:102670000CDB029B012B3FF47DAC5FFA8AF006F085
:1026800092F8012302934FF0000BEBE711F8010BD6
:1026900000230C2202FB03F8CD4A18F802C084453F
:1026A00003D001331C2BF4D1DDE7C94B03919844CF
:1026B000D8F804000AF084F803990346BBF1000F30
:1026C00010D08244CFE7D8F8040010F80900CDE913
:1026D000031306F009F8DDE9031309F101094B457D
:1026E000F1DCC0E7D946FAE7DFF8ECA294F8280954
:1026F000DFF8D89206F057F84FF000084FF00C0BB7
:102700000AF1480294F828399845BFF433AC19F817
:10271000010B00210BFB01F313F802C0844505D027
:1027200001311C29F6D108F10108EBE7534493F875
:10273000500005F0D9FFA64AF5E7162006F033F859
:10274000B6F8440106F000F8B6F8D00005F0FCFF3A
:10275000B6F8D20005F0F8FFB6F8D40005F0F4FFA3
:10276000B6F8860105F0F0FF002005F0BDFF00205F
:1027700005F0BAFF002005F0B7FF96F8330105F029
:10278000B3FF96F8400105F0AFFF002005F0ACFF65
:10279000D6F8E036B3F95A000A2390FBF3F080B282
:1027A00005F0D2FF96F8280105F09EFF96F82C015F
:1027B00005F09AFF96F82B0105F096FF96F82D018B
:1027C000FFF7C5BB082005F0EEFF4FF001085FFAE8
:1027D00088F008F1010805F087FFB8F1090FF6D17C
:1027E000FFF7C8BB082005F0DEFF002005F0ACFFB6
:1027F000002005F0A9FF002005F0A6FF34E4042026
:1028000005F0D1FFD4F8E036B3F85E0005F09CFF88
:10281000D4F8E036B3F85C00FEE4DFF8C0810C20A9
:1028200005F0C1FFD8F8AC0705F097FFD8F8B0075E
:1028300005F093FFD8F8B40705F08FFFFFF79ABBB8
:10284000042005F0B0FFA068F6E7062005F0ABFF16
:10285000B4F8E80005F078FFB4F8EA0005F074FF7A
:10286000B4F8EC00D8E4042005F09DFF94F82801AA
:1028700005F03AFF94F82C0105F036FF94F82B018F
:1028800005F032FF94F82D01FFF761BB072005F03A
:102890008AFFB4F82E0105F057FFB4F8300105F0B7
:1028A00053FF94F8320105F01FFFB4F83401B3E48C
:1028B000012005F078FF6079FFF749BB0C2005F097
:1028C00072FF94F83E0105F00FFFB4F8480105F0DF
:1028D0003BFFB4F8440105F037FFB4F8460105F0BA
:1028E00033FF94F83F0105F0FFFEB4F84A0105F00C
:1028F0002BFFB4F84C018FE4042005F054FF94F84A
:10290000840105F0F1FE94F8850105F0EDFEB4F8C0
:10291000860181E494F85809DFF8C48000EB400098
:10292000C0B205F040FF4FF0000994F858399945BE
:1029300008F10208BFF41EAB98F84C0105F0D4FE74
:1029400098F84D0100EB800000EB800000F2EE20D3
:1029500005F0FAFE09F10109E7E7012005F023FF80
:1029600094F84001FFF7F3BA082005F01CFFDFF8E8
:1029700074904FF0000819F8010F08F1010805F0F4
:10298000B3FEB8F1080FF6D1FFF7F4BA102005F046
:102990000AFF607905F0A8FEA06805F0DEFE94F855
:1029A0003E0105F0A1FEB4F8E80005F0CDFEB4F854
:1029B000EA0005F0C9FEB4F8EC0005F0C5FEB4F875
:1029C0002E0105F0C1FEB4F8300125E4910D002080
:1029D00068150108351501082015010800F0FF1FD2
:1029E000680400209D05002094F86609DFF8008443
:1029F000C0EBC000C0B205F0D6FE4FF0000908F6EB
:102A0000681A4FF00C0B98F9980100230BFB03F2A6
:102A100012F90A20824200F02D840133042BF5D1F3
:102A200009F10109B9F1040F08F10808EBD1FFF72A
:102A3000A1BADFF8A8830D2005F0B5FE09F0E2FC8D
:102A400005F052FEB8F8280005F087FED8F83400EB
:102A500005F083FE94F8983994F89909834296BF5B
:102A6000C31AC3F1800300201844D4F89C391844D9
:102A7000E2E605F08FFE8046842005F094FE404695
:102A800005F06BFED54B5A6B08F1800393428CBF67
:102A9000A2EB08094FF0800909F0E0FC4A464046E5
:102AA00008A909F079FD0DF1200881464FF0000AD0
:102AB000CA45BFF65FAA18F8010B05F015FE0AF12A
:102AC000010AF5E7132005F06EFEDFF828934FF0BA
:102AD000000819F8010B08F1010805F005FEB8F12E
:102AE0000B0FF6D1002005F038FE32E405F048FE69
:102AF000FFF740BA05F04EFE05F04CFEFFF73ABA7C
:102B0000022005F050FEB54B588CFFF785BB032023
:102B100005F049FE94F8ED0505F016FEAF4B187C64
:102B2000FFF715BA4E2B3FF6C2A9222B03D808F0A7
:102B300081FEFFF71FBA233B4FF000082B2BF6D87E
:102B400001A252F823F000BFB12D00082F2B00087E
:102B5000273000082F2B0008353000082F2B0008E5
:102B6000713000082F2B00082F2B00082F2B000896
:102B7000933000082F2B00082F2B00082F2B000864
:102B80002F2B00082F2B0008473100082F2B00089F
:102B9000312E00082F2B0008C33100082F2B00080E
:102BA0004F3000082F2B00082F2B0008B52C0008F1
:102BB0002F2B00089B2C00082F2B00082F2B000820
:102BC000513100082F2B00088131000841320008E4
:102BD0002F2B00082F2B00082F2B0008FD2F00089B
:102BE0002F2B0008AD2C00082F2B0008D730000831
:102BF0002F2B0008F130000894F8EC355B070FD458
:102C000005F0B4FD032828BF002084F82805FEF74E
:102C100043FCFEF79DFA03E005F0B2FDA4F8A6061A
:102C2000002005F0C0FDFFF7A5B99AF80580B8F1BE
:102C3000250F00F2D0800DF120094FEA5808CB464D
:102C40004FF0000AC2450CD36549434600220846AE
:102C500090450DDC0022122B10D1012384F8C439D9
:102C6000DEE705F08DFD0AF1010A2BF8020BE9E71A
:102C700039F802CB21F802CB0132E9E720F8132022
:102C80000133E8E705F07CFDD4F8E086A8F85E00A3
:102C900005F076FDA8F85C00C2E705F067FD84F852
:102CA0008E0105F063FD84F88D01B9E705F068FD3C
:102CB000A081B5E7D4F8E08605F058FD88F800005B
:102CC00003F014FEACE7D4F8E08698F80030022B4D
:102CD0005DD19FED449ADFED448A08F1240908F1A3
:102CE000300AB2EE048A05F041FD07EE900AF8EED4
:102CF000677A87EE887AA9EC017A05F037FD07EE4E
:102D0000900AF8EE677A87EE897A89ED027A05F003
:102D10002DFD07EE900AF8EE677ACA4587EEA87A8D
:102D200089ED057ADFD108F104094FF0030ABAF101
:102D3000070F1FD105F01AFD07EE900AF8EE677A2B
:102D400087EE887A88ED127A05F010FD07EE900A7A
:102D5000F8EE677A87EE887A88ED137A05F006FD3B
:102D600088F850000AF1010ABAF10B0F09F10109C4
:102D7000DDD155E705F0FAFC89F8000005F0F6FC16
:102D800089F80B0005F0F2FC89F81600EAE708F173
:102D90000B0905F0EBFC08F8010F05F0E7FC88F8DB
:102DA0000B0005F0E3FCC14588F81600F1D137E7C8
:102DB00005F0DCFC132880460DD8D4F8E09605F029
:102DC000D5FC0A4A0023117A814215D001331C2B0D
:102DD00002F10C02F7D108F02DFD21E700000020E0
:102DE000080E00200000C84200007A44681501085F
:102DF000680400202D1E0108DC4A0C2101FB03237E
:102E000009EB880893F8483088F87D3005F0AEFC6F
:102E100088F87E0005F0AAFC88F87F0005F0A6FC83
:102E2000494688F8800009F17D0008F003FEF7E6C6
:102E300005F09CFC0B288146CDD8D4F8E08605F03F
:102E400095FC0328C7D8062303FB098888F8D2001D
:102E500005F08CFC88F8CD0005F088FC88F8CE00E1
:102E600005F084FC88F8CF0005F080FC88F8D000DD
:102E700005F07CFC88F8D100D2E69AF80530092BE1
:102E8000A9D9D5F8CC8605F071FC88F8000005F0CA
:102E90006DFC88F8010005F069FC6428A8BF642077
:102EA00088F8040005F062FC6428A8BF642088F854
:102EB000050005F05BFC88F8060005F057FC642867
:102EC00028BF642088F8070005F050FC88F802004D
:102ED00005F04CFC88F8030005F052FCD5F81039D9
:102EE000A8F80A005B790A2B7FF69AAE05F03EFC43
:102EF00088F8080094E605F043FC6FF4AF6C00EB33
:102F00000C039BB2C62B98BFA4F8440105F038FC13
:102F1000A5F8D00005F034FCA5F8D20005F030FC8F
:102F2000A5F8D40005F02CFCA5F8860105F01EFCE0
:102F300005F01CFC05F01AFC05F018FC85F83301BF
:102F400005F014FC85F8400105F010FC05F018FCB4
:102F5000D5F8E03600EB80004000A3F85A0005F0F9
:102F600005FC85F8280105F001FC85F82C0105F029
:102F7000FDFB85F82B0105F0F9FB85F82D014FE6E7
:102F8000DFF8F0914FF0000805F0FAFB08F10108B6
:102F9000B8F1080F29F8020BF6D141E694F8EF35A5
:102FA000002B7FF43DAE05F0EBFB714B84F8ED0593
:102FB00001221A7434E605F0E3FB6D4B58842FE6CA
:102FC00094F8EC3558073FF52BAEFDF7EBFE1EE607
:102FD00094F8EC3559073FF523AE4FF4C873A4F8C5
:102FE00052351DE694F8EC355A073FF519AE94F8C2
:102FF0000B3943F0040384F80B3911E645F208203D
:1030000009F01EFA062007F0BBFF0123C72084F851
:10301000DE3907F0B5FF002384F8993984F8983930
:10302000C4F89C39FCE5C4F8088005F0B3FBFDF753
:10303000EBF8F5E505F0A4FBA4F8E80005F0A0FB2B
:10304000A4F8EA0005F09CFBA4F8EC00E8E505F024
:103050008DFB84F8280105F089FB84F82C0105F02C
:1030600085FB84F82B0105F081FB84F82D01D7E561
:1030700005F086FBA4F82E0105F082FBA4F83001D0
:1030800005F074FB84F8320105F07AFBA4F83401F2
:10309000C6E505F06BFB84F83E0105F071FBA4F872
:1030A000480105F06DFBA4F8440105F069FBA4F8A4
:1030B000460105F05BFB84F83F019AF80530082BC8
:1030C0007FF6AEAD05F05CFBA4F84A0105F058FBB5
:1030D000A4F84C01A4E505F049FB84F8840105F04F
:1030E00045FB84F8850105F04BFBA4F8860197E5C4
:1030F0009AF80580B8F1380F3FF66DAEDFF878909A
:103100004FF0000A40F6CA0B0323B8FBF3F8C245A0
:1031100009F10209BFF484AD05F028FB89F84C01E0
:1031200005F02EFB5845A8BF584640F2EE239842C2
:10313000B8BF18461922B0FBF2F01E3889F84D01CD
:103140000AF1010AE3E705F011FB84F8400167E5A5
:10315000DFF828904FF0000805F008FB08F101089F
:10316000B8F1080F09F8010FF6D159E5201501084B
:10317000000000202E0E0020680400209D05002085
:1031800005F0F4FAC4F8088005F004FBFDF73CF8FC
:1031900005F0ECFA84F83E0105F0F2FAA4F8E80034
:1031A00005F0EEFAA4F8EA0005F0EAFAA4F8EC005B
:1031B00005F0E6FAA4F82E0105F0E2FAA4F83001D1
:1031C0002EE59AF805304FF00708B3FBF8F8C8EB86
:1031D000C8029B1ADBB2002B7FF4FDAD5FFA88F8C2
:1031E00008F1FF385FFA88F8B8F1FF0F3FF418AD27
:1031F00005F0BCFAD4F8182940B20023911C11F94B
:1032000033C0844503D00133042BF8D1E3E502EB4E
:10321000C30989F8020005F0B3FAA9F8040005F023
:10322000A5FA89F8060005F0A1FA89F8070005F06B
:103230009DFA89F8090005F099FA89F80800CFE7A6
:103240001B4B4FF480421A85012384F8DF39E7E4F1
:103250000A2005F0D5F8FEF79DBE21F8023B0132A9
:10326000FEF7AEBE52F8040B00680133C0F800C090
:10327000FEF7B5BEC0B205F037FAB8F89A0105F00E
:1032800063FA98F89C0105F02FFA98F89D0105F073
:103290002BFA98F89F0105F027FA98F89E0105F09F
:1032A00023FAFFF7BDBB29B0BDEC048BBDE8F08F5E
:1032B0000008004808B5FEF7EFF8FDF749FFBDE844
:1032C0000840012005F040B92DE9F04FB44DD5F884
:1032D000002895F8C46A02F59C4320338BB0C5F8EA
:1032E000C03A002E00F0DF80D5F8C83A9A4202D9E1
:1032F000013E85F8C46AAA4CD4F8FC8718F48053C0
:10330000019305D0D4F82C36D80701D4FDF7FEF987
:10331000D4F8E826937A23B304EB4303127BB3F982
:1033200066351AB1C3F53B6308331BB2A3F57A7354
:10333000B3F57A7FA8BF4FF47A7323EAE37307EEFD
:10334000903ADFED986AF8EEE77A87EEA67ADFED3D
:10335000967A67EE277AFCEEE77A17EE903AA5F8B0
:10336000643918F4807F00F03081D4F800188F4A57
:1033700094F82637914240F2258113B9012384F84D
:10338000263794F8456794F8EC25D4F82CA6012E3E
:1033900002F0040B14BF032700274FF00009A2E13D
:1033A000072C98BF195D8248BB6B88BF21469847A0
:1033B000032C19D8C0B1D5F8E83603EB84039A8FF3
:1033C000DB8F801A9B1A08FB00F090FBF3F040F2B1
:1033D000EE2300F57A709842B8BF184640F6CA034B
:1033E0009842A8BF184680B205EB44040136A4F801
:1033F000CC0A95F858B9D5F8E836F4B2A345CFD839
:10340000D5F8FC27D5F85C05019042F201010A408D
:10341000039208D095F8FF2585F8FE25654A92F8B5
:103420003D1082F83C1095F8FE85B8F1000F04D0ED
:10343000604A92F83C8088F0010895F8F17A019989
:103440005D4C0F2285F8F02A0322B7FBF2F202EB63
:10345000420201F51671BA1AD2B20591A4F5AD6116
:10346000049204F28A5904F2D45A224600260291A8
:103470005E451CDB4A4E96F8F03A0F2B6DD1D6F81C
:103480002C365B0169D4D6F85C35D6F83027C6F8FF
:103490002C379B1AC82B02D9012386F845370137F0
:1034A00086F8F17A27E7434F4FF47A78A1E7B8F12D
:1034B000000F33D0414931F91600998A80B2814218
:1034C0002ED8D98A81422BD30599CAF800100399C6
:1034D00000B2D9B1049929F81100029991F8841B1E
:1034E00029B9022F12D90298012180F8841BB9F85A
:1034F0000010B9F802000844B9F804100844304933
:1035000000B221F81600032190FBF1F022F8020B23
:10351000013609F106090AF1040AA9E74046CCE799
:10352000DAF800100198814201D91088CFE7F0B293
:10353000CDE9063205F06AF9032EDDE90632C6DC74
:10354000DFF85CE04FF0010C9EF8F01A0CFA06FC74
:1035500021EA0C018EF8F01AB9E7164B012283F824
:103560003D2083F83C20D6F85C35D6F82C27C6F8E9
:1035700030379B1AD6F82827934202D9002386F8C1
:1035800045374FF0000807E05FFA88F005F03EF994
:1035900024F8020B08F10108C345F5DC7FE700BF02
:1035A0006804002000007A4400C07F44404B4C0077
:1035B000C00D002000000020D0090020340F0020A2
:1035C000EE0F0020002B7FF4DCAE019BB4F96E956A
:1035D000002B00F0E580B4F84431B4F8DE20991AED
:1035E000494580F2E08013444B4540F3DC80FDF711
:1035F0006DF8FDF779F84FF0000AAC4B93F83EB048
:1036000094F8EC35590740F1D58018F0100F00F010
:10361000D18094F80B39DA0600F1CC80BBF1000FB1
:1036200000F01D8194F88E31BAF1000F40F0068150
:103630003BB1D4F85C15D4F8C8365B1A002BC0F245
:10364000B580102004F05AFF012384F8A43BB1E0B8
:10365000BBF1000F0DD0012E05D00520FCF7E4FDD5
:10366000022384F8ED35002FAFD0384604F046FF32
:10367000ABE71AF0806F4FF4806005D008F0FAFFD6
:103680000023C4F83437EEE708F0E6FFF8E7012E30
:1036900029D1052125E0012E04BF052184F8441716
:1036A000BBF1000F0FD0D5F8A01BB1F90E10A5F893
:1036B0006A15A5F86C15A5F86815D5F8201749887E
:1036C000A5F86E156746D4F85C05D4F83817814222
:1036D00002D3BBF1000F60D142F21071C4F8401761
:1036E000032184F8441794F844C794F8EC05BCF11E
:1036F000050FB8D801A151F82CF000BF51360008D1
:103700008F3600089736000815370008453700083F
:103710007D37000840F0020085F8EC05FCF7F6FF65
:10372000D5F85C05D5F840170144C5F83C170421CD
:1037300085F844174FF4806008F08EFF0520FCF7F1
:103740007FFDD0E7012E11D1D4F85C35D4F83C17B9
:10375000994288D2554991F83E1011B91AF0010FDB
:1037600081D120F0020084F8EC0592E7D4F85C25C2
:10377000D4F840371344C4F83C3774E7D5F8200731
:10378000D5F85C15C08885F82797642303FB0011E2
:10379000C5F8341785F84497CCE7012EA3D062E72B
:1037A000B4F8463120E74FF0010A26E7FCF7AEFFF8
:1037B00084F8A4AB94F88C31019394F88D01B4F89B
:1037C00046C1B4F848E13A4900231E4631F9027B6C
:1037D000B6086745C4BF66F07F06F6B20133774589
:1037E000B8BF46F04006042BF0D194F8A53BB34295
:1037F00039D194F8A67BF92F03D80137FFB284F8AA
:10380000A67B84F8A56B08F00408BBF1000F40F01C
:10381000CC84D4F82C36DB0738D5BAF1000F24D18C
:1038200094F8EC35D80706D5590702D4012384F85B
:10383000B035FDF745FA142F53D140E03BB1D4F831
:103840005C154FF47A7013FB0013C4F8C83694F873
:10385000A43B002BAED004F03FFE0023F5E6BAF106
:10386000000FF4D1EDE60027C9E7D4F8B0360A2BF3
:10387000E1DCB4F850355A07DDD494F8EF35002B6D
:10388000D9D1FCF723FFFCF72FFFD2E794F8EC35F2
:103890005B07D0D594F8FE35002BCCD010B1FCF7E7
:1038A00035FFC8E7BAF1000FC5D1F8E700000020E6
:1038B000D0090020019B13B17D2E00F0808494F884
:1038C000EC355F070DD4572E40F0CD80D4F8243965
:1038D0004FF47A7213F00803A4F8542501D1A4F828
:1038E0004236B8F1000F40F0E480D4F8E0660023DF
:1038F000C4F82C3606F17F0706F1CF084FF0010916
:1039000017F8010C394604F03FFE40B117F8023CAD
:10391000D4F82C2609FA03F31343C4F82C360437E1
:103920004745EDD1B24F06F1CE0B4FF00C0806F52E
:103930008B764FF000094FF0010A1BF8010C594635
:1039400004F022FEE8B19BF804109BF8023008FB5B
:103950000140013BD0F8F02603EB43033B44934284
:103960000FD09BF80320C0F8F03694F8AD3B80F8F8
:10397000EC260AFA01F123EA0103C0F8F49684F870
:10398000AD3B0BF1060B5E45D7D1D4F85C35019306
:1039900094F8FE350293019BD4F8CCB6954F03F50D
:1039A000FA73002603937968002900F0388191F8B2
:1039B00000A0BAF1000F00F03281BA68019B9A1A98
:1039C000002A0ADB039B94F8AD2BBB60012303FAAA
:1039D00006F022EA000284F8AD2B029B002B00F0D7
:1039E0001E813A78487894F8AD8B0432D2B2002820
:1039F00040F0888304EB4202B2F96805B4F8442130
:103A000002F1C80C604540F3F98091F8029048FA41
:103A100006F1CA0700F10381B9F1000FCCBF022003
:103A2000012004F091FD0AF1FF31132900F2808199
:103A3000DFE811F0710185019001A001B801C0011A
:103A40001E027902E0020E033A037E01A001AD01DD
:103A5000C0011E027902E40141029E020B2004F023
:103A60004DFD84F8A67BB8F1000F01D05A2E17D077
:103A7000A6F15603082B57D8DFE803F054565656E4
:103A80005652560550000123DEB2013B84F828351A
:103A9000FDF702FDFDF75CFB304604F055FD20E725
:103AA00094F8A73B4BB1002384F8A73B012384F88B
:103AB000A83B94F8A93B53B91FE094F8A93B83F0C5
:103AC000010384F8A93BABB10C2004F017FD94F876
:103AD000EC35580711D5B4F846314B450DDAD4F81A
:103AE0002C3613F0010302BF3222A4F8AA2B84F86B
:103AF000A93B02E00D2004F001FDD4F82C36D903D7
:103B000066D594F8AC3B2BB994F8A73B13B9322394
:103B1000A4F8AA3B012384F8AC3BE6E60323B3E711
:103B20000223B1E7FFF7C6FB334B93F83E3043B1B6
:103B30006F2E02D1FDF7C4F8D3E6019B0BB17E2EA8
:103B4000F8D0972E04D14FF4C873A4F85235C8E6C4
:103B5000A72E06D194F80B3943F0040384F80B39EF
:103B6000BFE60023B73E0993072E3FF6BAAE01A386
:103B700053F826F0CB3B0008E3380008E338000890
:103B8000E3380008953B0008E3380008C33B000811
:103B90009B3B00080223002201E000230222D5F80B
:103BA000E016B1F85C000244A1F85C20B1F85E2098
:103BB0001344A1F85E30FFF77DFB002385F8A63B98
:103BC0008FE600236FF00102E9E76FF00103E2E7FF
:103BD00094F8A73B002B3FF488AE94F8EC3513F033
:103BE000040302BF84F8A73B012384F8A83B7CE6CA
:103BF000B8160108540B002000000020C83A90427B
:103C000003DA8A78C2F1000901E70123B34028EA08
:103C1000030384F8AD3B019B03F5FA73BB600136E7
:103C2000042E07F10C077FF4BEAED4F82C56AB0778
:103C300006D4D4F8FC37DF0507D594F8273723B12D
:103C4000D4F824399E0700F19682012008F004FD83
:103C50000123690740F19A82002B00F0978201202E
:103C600008F0FAFCB4F8F8379A0704D40220FCF7FD
:103C70002DFD08F0FFFC94F8EC355B0708D4B4F890
:103C8000F83703F044031BB1B4F84236A4F8A63663
:103C9000D4F8243913F00A0F2AD0EF0640F17A82C3
:103CA000B4F8F8375E0706D4042008F0E3FCB4F853
:103CB0004236A4F8A636A80640F17082B4F8F83768
:103CC000590602D4402008F0D5FC6A0642BFC54A16
:103CD000B4F84236D38315F0080307D094F8F835CA
:103CE00033B9C04AB4F84236D383012384F8F83597
:103CF0002B054FF4807040F1558208F0BBFC6379CE
:103D0000082B02D00E2B40F0618240200BB0BDE8A2
:103D1000F04F08F0A1BC9BF800304B44FA2BA8BF31
:103D2000FA2323EAE3738BF80030584604F052FC80
:103D30000123B34048EA030884F8AD8B6FE79BF892
:103D400001304B44642BA8BF642323EAE3738BF850
:103D50000130EAE79BF803304B44642BA8BF64238F
:103D600023EAE3738BF80330D4F8B01B584604F011
:103D70004DFCDDE79BF8051049446429A8BF642188
:103D800021EAE171BAF10D0F8BF80510D0D09BF844
:103D900004304B44642BA8BF642323EAE3738BF8FD
:103DA0000430C5E79BF806304B4483F308038BF8D7
:103DB0000630BDE7D4F8B40B0178022943D107EEF1
:103DC000909AF8EEE76AF2EE047A86EEA77AD0EDE2
:103DD0000A7A37EE277AB5EEC07AF1EE10FA2FD4D0
:103DE000DFED827AB4EEE77AF1EE10FAD8BFF0EEAA
:103DF000477AC0ED0A7ABAF10F0F99D0D4F8B41B04
:103E00000B78022B2BD107EE909AF8EEE76AF2EED0
:103E1000047A86EEA77AD1ED097A37EE277AB5EEE5
:103E2000C07AF1EE10FA17D4DFED707AB4EEE77ACB
:103E3000F1EE10FAD8BFF0EE477AC1ED097A77E7D4
:103E4000DFED6B7AD5E781784944C829A8BFC8213E
:103E500021EAE1718170CEE7DFED657AEDE74B781D
:103E60004B44C82BA8BFC82323EAE3734B705FE71A
:103E7000D4F8B40B0178022940D107EE909AF8EEFD
:103E8000E76ADFED5A7A86EEA77AD0ED0D6A37EE53
:103E9000267AB5EEC07AF1EE10FA2CD4B4EEE77AB9
:103EA000F1EE10FAD8BFF0EE477AC0ED0D7ABAF114
:103EB000100F3FF43DAFD4F8B41B0B78022B29D17F
:103EC00007EE909AF8EEE76ADFED487A86EEA77A79
:103ED000D1ED0C6A37EE267AB5EEC07AF1EE10FA23
:103EE00015D4B4EEE77AF1EE10FAD8BFF0EE477AC7
:103EF000C1ED0C7A1CE7DFED3E7AD6E7417B494401
:103F0000C829A8BFC82121EAE1714173CFE7DFEDDD
:103F1000387AEDE70B7B4B44C82BA8BFC82323EAB4
:103F2000E3730B7304E7D4F8B40B0178022944D18E
:103F300007EE909AF8EEE76ADFED2B7A86EEA77A25
:103F4000D0ED107A37EE277AB5EEC07AF1EE10FA9E
:103F500030D4DFED267AB4EEE77AF1EE10FAD8BF6E
:103F6000F0EE477AC0ED107ABAF1110F3FF4E0AEEF
:103F7000D4F8B41B0B78022B2BD107EE909AF8EEF5
:103F8000E76ADFED197A86EEA77AD1ED0F7A37EE80
:103F9000277AB5EEC07AF1EE10FA17D4DFED137A76
:103FA000B4EEE77AF1EE10FAD8BFF0EE477AC1ED41
:103FB0000F7ABDE6DFED0E7AD4E7017E4944C829C9
:103FC000A8BFC82121EAE1710176CDE7DFED087ACB
:103FD000EDE7CB7D4B44C82BA8BFC82323EAE3738E
:103FE000CB75A5E60000002000007A440000C8421E
:103FF00000000000D4F8B41B0B78022B1FD107EE91
:10400000909AF8EEE76AF2EE047A86EEA77AD1ED9E
:104010000B7A37EE277AB5EEC07AF1EE10FA0BD4B0
:104020005FED0E7AB4EEE77AF1EE10FAD8BFF0EE5B
:10403000477AC1ED0B7A7BE65FED137AF9E7CB782F
:104040004B44C82BA8BFC82323EAE373CB706FE6A9
:10405000D4F8B41B0B78022B1DD107EE909AF8EE22
:10406000E76A5FED1E7A86EEA77AD1ED0E6A37EE2B
:10407000267AB5EEC07AF1EE10FA09D4B4EEE77AFA
:10408000F1EE10FAD8BFF0EE477AC1ED0E7A4FE6A6
:104090005FED297AF9E78B7B4B44C82BA8BFC82377
:1040A00023EAE3738B7343E6D4F8B41B0B78022B3B
:1040B0001FD107EE909AF8EEE76A5FED357A86EE4B
:1040C000A77AD1ED117A37EE277AB5EEC07AF1EE04
:1040D00010FA0BD45FED3B7AB4EEE77AF1EE10FA0A
:1040E000D8BFF0EE477AC1ED117A21E65FED407A54
:1040F000F9E74B7E4B44C82BA8BFC82323EAE373E0
:104100004B7615E601287FF413AEBAF10C0F7FF45D
:104110000FAE04EB42028978B2F9680540F633022B
:104120009042A8BF1046B0F5617FB8BF4FF46170F0
:10413000A0F561704FF49662B2FBF1F2B0FBF2F0C1
:1041400094F8E426C0B282423FF4F2AD032894BF53
:104150000246022285F8E4260AFB025202F22A52A3
:104160000490C5F8CC26FCF7F7FD04980130C0B2E6
:1041700004F0EAF9DCE5B4F8F837D80704D40120F4
:10418000FCF7A4FA08F076FA002362E5022008F0B2
:1041900063FA70E5042008F05FFA8CE5402008F02F
:1041A0005BFA92E508F058FAA9E5142F7FF499AB71
:1041B00094F8EC755F2E07F004077FF47BAB002FBB
:1041C0003FF44CACFCF7A2FAFFF779BB0BB0BDE8AB
:1041D000F08F1649D1F8883043F47003C1F8883065
:1041E000134B1A6842F001021A605868114A0240E3
:1041F0005A601A6822F0847222F480321A601A68B7
:1042000022F480221A605A6822F4FE025A60DA6AA6
:1042100022F00F02DA62186B074A02401A6300228A
:104220009A604FF000638B60704700BF00ED00E0C4
:10423000001002400CC07FF8CCFC00FF80EAE07365
:10424000A3EBE0738B4206DB002801DD401A7047C8
:1042500002D008447047002070472DE9F041824C9D
:10426000D4F8B83BA0EB030842F20F7398452DED4C
:10427000048B40F2EB8044F6206398457B4DC4F8F4
:10428000B80B81BF0023C4F8C43BC4F8C83BC4F8D2
:10429000CC3B95F83F3043B394F8EC2512F0040280
:1042A00023D1734BC4F8C42B0021196040F2DC50B9
:1042B000C4F8C82BC4F8CC2B85F83F20C4F8D42B05
:1042C000C4F89C25A3F58962A3F23443694EA4F88F
:1042D0008C054FF07E50106056609160D060116187
:1042E00018605E609960D8601961D4F8D86BD4F812
:1042F000DC3BB3426ED0F31A08EE903ADFED5E7A03
:104300005E4BF8EE688A68EEA78AD3ED007AF5EE88
:10431000C07AF1EE10FA40F29D8013ED017AB5EE0D
:10432000C07AF1EE10FA40F2958087EE270AB5EEDA
:10433000C00AF1EE10FA40F28D80DFED517A93ED74
:10434000018A38EE278A0AF0D1FBDFED4E7A28EE9B
:10435000000A20EE270ADFED4C7A20EE270AF6EE5F
:10436000007AF4EEE78AF1EE10FA31DCB4F9E03BC2
:104370000F2B72D1B4F9E23B444A02EB83020133C2
:104380001BB20F2B08BF0023A4F8E23BD2ED007A4A
:104390000E23A4F8E03B3E4B93ED017A77EE877A4B
:1043A00030EE670A83ED000AB4F95A39002BB8BF22
:1043B0005B429BB21E2B07D8B4F95C39002BB8BF07
:1043C0005B429BB21E2B4CD9324BEB60FCF748F999
:1043D000C4F8DC6BD4F8C83B002BC9BFD4F8C42B9D
:1043E0009FED2D9A07EE902AB8EEE77AC4BF07EE4C
:1043F000903AF8EEE77A294BC8BF87EE279A9FEDEF
:10440000287AA3EC019AD3ED007A69EE277AF4EECC
:10441000C77AF1EE10FA08D49FED227AF4EEC77A4B
:10442000F1EE10FAD8BFB0EE677AB4F9383C1E4E00
:104430000027052B86ED007AC4F8C47BC4F8C87B3E
:10444000C4F8CC7B36DC0133A4F8383CBDEC048BDB
:10445000BDE8F0819FED100A81E7144BD3ED007A9F
:1044600099E74FF08043B0E7680400200000002087
:1044700038100020CDCCCC3D6F12833A240B0020A5
:10448000339388438E2BEA410000C8424C10002031
:104490008C1000200000A0400000000094100020BC
:1044A000000048C4000048449C10002088100020F0
:1044B0000024744907EE908A1FED036A16ED190A6D
:1044C00056ED039A56ED058AF8EE677AA6F5D063A5
:1044D000C7EE866AA6F5CF6216ED046AD3ED005AE0
:1044E000D6ED027A66EE255AA6F27C63E5EEA67A50
:1044F000D3ED005AC6ED027A66EE255A77EE877A3A
:10450000A5EEA60AD2ED005A26EE256A67EEA67A37
:10451000E6EE269AB0EE407AB6EE006AA7EE867A0C
:1045200030EE270AE7EE268A06ED190A46ED039AD1
:1045300046ED058A0AF0ACFB39EEA80A08EE100A2F
:104540000AF0A6FBB4F9E01BB5F840200E2902F1F1
:10455000010207EE900A12B2A6F1500300F3F280B6
:104560000E2ACCBF3A46174603EB82030131A5F869
:104570004070C3ED008AA4F8E01B834F97ED036AF7
:1045800097ED007AD7ED016A97ED020A57ED045ACC
:1045900036EE076AB8EEC88A76EE266A38EE408AAA
:1045A00086EE267AF7EE006AA7EE080A87ED047A0F
:1045B00036EEC77A17ED038A87ED020A27EE067AF0
:1045C00017ED056A87ED037A17ED027A37EE067A62
:1045D000F8EEE77A77EE255A77EEC87A87EE256A05
:1045E000A6EE278A76EEC66A07ED016A66EE876A4E
:1045F00007ED038A47ED026A0AF04AFBB0EE480A6B
:104600000646C4F8400C0AF043FBB4F93C36C4F843
:104610009805002BB8BF5B429BB2B3F5487F07F506
:10462000956780F0AE80B4F93E36002BB8BF5B4290
:104630009BB2B3F5487F80F0A48094F8EC25AB7A68
:1046400097ED007AD4F8848712F0040208BFC4F80A
:104650009405002B40F08E80D4F89435181AB0F5EC
:10466000FA7F4A4BA8BF4FF4FA709842B8BF184679
:104670000521FFF7E3FD98F80430454943438B4299
:104680007BDB002BB8BF7F33DB11B3F5967FA8BF70
:104690004FF49673991B98F80A303E484B43834277
:1046A0006DDB002BB8BF1F335B11B3F5967FA8BF3E
:1046B0004FF496732AB198F81500D4F8D42B01FB67
:1046C0000022B2F5161F3449A8BF4FF416128A42D1
:1046D000B8BF0A46C4F8D42B002ABCBF02F5FF526B
:1046E0001F3203EB623398F8202007EE902A37EE52
:1046F000097AF8EEE77A6FF0950167EE877A9FED19
:10470000277A67EE877AFDEEE77A17EE902A962AE7
:10471000A8BF96228A42ACBF9B1A5B1A304605217D
:10472000C4F89C3587ED009AFFF788FD002EB8BFCE
:104730007642C82EC8BF0123C4F86009C8BF85F8F7
:104740003F3083E6B4F8E21BA5F8402001310F2A80
:1047500009B206D1A5F84070C3ED008AA4F8E21BA7
:104760000BE703EB82030F29C3ED008AF6D1A4F80F
:10477000E27B02E7D4F8AC358CE7094B8AE7084BBB
:1047800098E70023CAE700BF040C00200CFEFFFFDF
:104790008169FFFF61DAFFFF0080DAFF0000003B64
:1047A000D4FEFFFFD0ED005A9FED2B4A08B535EE41
:1047B000840AFBF755FEF0EE403AB0EE650AFBF7CF
:1047C0004FFE90ED015AF0EE404A35EE040AFBF739
:1047D00047FEF0EE405AB0EE450AFBF741FE90ED81
:1047E000023AB0EE405A33EE040AFBF739FEB0EE5F
:1047F000404AB0EE430AFBF733FE65EEC07A20EE86
:10480000236A24EE847AC1ED017AF0EE467AE5EE71
:10481000077A24EE233A64EE806AC1ED037AF0EE63
:10482000437AE5EE667AA5EE067AE5EE436A24EE73
:10483000254A64EEE54A65EEA35A81ED004A81ED12
:10484000025AC1ED047AC1ED054AC1ED066A81ED57
:10485000077AC1ED085A08BDDB0FC93F2DE9F04FBB
:104860002DED028BB1B04FF00009FBF7A9FC18B990
:10487000FCF798FAFCF710FEBA4DBB4CFCF768FC4D
:1048800095F8488C48F0010385F8483CB74B4FF445
:104890007002C3F8882000230493059306932368CD
:1048A00043F480332360236803F400330593049BAF
:1048B00001330493059B1BB9049BB3F5A04FF2D1C0
:1048C000236813F4003318BF01230593059B012BC4
:1048D00040F0018302230693A54B12221A606368FD
:1048E000636063686360636843F480636360636804
:1048F00023F47C136360636843F4E8136360236804
:1049000043F08073236023689901FCD5636823F02A
:1049100003036360636843F002036360636803F04A
:104920000C03082BFAD1069B904EC5F84C3C914BDA
:10493000F360636A636A43F080736362636943F49C
:10494000FC031CAF636103238DF87230394641F6D6
:10495000FF734FF09040ADF8703006F011FD4FF648
:10496000FF738548ADF87030394606F009FD83487D
:10497000394606F005FD8248394606F001FD8148BA
:10498000394606F0FDFC39467F4806F0F9FC38460A
:1049900004F002F81C9B7D4AB3FBF2F3C5F8503CCF
:1049A0007B4B7C4ADFF8FCC14FF0000EC5F854EC9D
:1049B000C3F804E04FF0E0230DF1740A5A61F022CD
:1049C00086F823200722C3F818E01A61BCE80F001C
:1049D0003E460FC6BCE80F000FC69CE80F00D5F896
:1049E00008B0C5F8FCB786E80F00636943F40023FC
:1049F0006361636943F400236361636943F40023E3
:104A00006361636943F4003363614FF090431022A4
:104A10001A8520221A8540221A85584A4FF480436D
:104A200093614FF4005393614FF4004393617646D2
:104A30005AF8040C5146013606F0A2FC062E0AF183
:104A4000080AF5D1544B1C936369DFF85CA14A480E
:104A500043F480236361394606F092FC9AF82020E3
:104A60000823002A40F03A82434A93614B48C5F834
:104A7000180904233022002100F2D27085F866392B
:104A800001260BF0E9FB1422002117A885F87469B0
:104A900048F005080BF0E0FB1BF4802F08BF85F8F9
:104AA0005C6C85F8488CE369334E43F48043E361E2
:104AB000236943F480432361636943F48023636182
:104AC000736A23F470037362736A43F4A00373621E
:104AD000736A23F070637362736A43F0A063736256
:104AE000736A23F070437362736A43F0A043736286
:104AF000336A23F470033362336A43F4A0033362EE
:104B0000736A23F470237362736A43F4A02373629D
:104B100040F2023B4FF4604339463046CDE91C3B3E
:104B200006F0ECFB20220123394630464FF4805832
:104B30001C928DF8743006F0E1FB39463046CDF812
:104B4000708006F0DBFB236943F480432361236913
:104B500023F480432361124B998821F48051090486
:104B6000090C23E0680400200010024000ED00E082
:104B7000002002400005FA05000400480008004833
:104B8000000C0048001000480014004840420F008C
:104B9000BC1000203F19010008000102FE050020A2
:104BA00000380040F4160108000000209980998820
:104BB00089B241EA08019980198801F4415141F410
:104BC000437141F003011980998821F4706109044F
:104BD000090C41F4E0619980998B21F4006109048A
:104BE000090C998307211982198889B2202241F082
:104BF00040011980B261C6F818806369DFF8B88394
:104C0000C5F81C8943F480236361E36943F400130E
:104C1000E361236B23F010032363236B43F0100342
:104C20002363736A23F00F037362736A43F0040310
:104C30007362736A23F0F0037362736A43F0400394
:104C4000736239464FF480733046CDE91C3B06F061
:104C500055FB4FF40073394630461C9306F04EFB6B
:104C6000D8F80030B5F9E81023F00103C8F8003097
:104C7000D8F80020C24B1340C8F80030C14BC8F828
:104C80001030D8F80030B5F9EA20002043F00103D5
:104C9000C8F80030C8F80800C8F80C00C8F80800C8
:104CA000D8F8083043F40043C8F80830D8F800308A
:104CB000C8F80030D8F8043023F0784323F40043D8
:104CC000C8F80430D8F8003043F00103C8F80030C9
:104CD000B5F9EC3041EA02041C431FD007EE901AEC
:104CE0009FEDA97A8AF84200F8EEE77AA74967EEC5
:104CF000877A3846CDED1C7A07EE902AF8EEE77AEF
:104D000067EE877ACDED1D7A07EE903AF8EEE77AF6
:104D100067EE877ACDED1E7AFFF744FD9C4EB5F81D
:104D2000F03003934FF0000B10225946A6F5EE70B9
:104D3000C5F888BC95F8EF4095F8F78085F884BCF5
:104D4000C6E901BB0BF088FA2320C5F898BCA5F88A
:104D500094BCC6E905BBC5F8A4BC03F051FB0BAA83
:104D60000121752004F0FCF9002840D0894AC5F8DB
:104D70009C2C894AC5F8A02C43F64332A5F8982C00
:104D800001210FAA584604F0EBF99DF83C200028B9
:104D900000F0A780EA2A40F0A48042F63352594638
:104DA00006267F20A5F8982C85F8946C04F027F946
:104DB0000A2003F025FB7821032004F020F90A20C3
:104DC00003F01EFB0121304604F019F90A2003F01C
:104DD00017FB3F21072004F012F9142003F010FB09
:104DE0005946072004F00BF90A2003F009FB95F857
:104DF000943C0022062B85F8A82C40F0DF80674BFE
:104E0000C5F8AC3A664BC5F8B03A664B6649D9600E
:104E1000D5F824390A2C43F00101C5F8241928BF1C
:104E2000144640F2FD2121FA04F212F0010240F092
:104E30005681012C40F0518185F8A92C9A0700F188
:104E40005B81D5F8AC3A03989847002385F8AA3CD3
:104E5000B8F1000F40F054814FF0000800242246C2
:104E60007F2168208DF8704004F0A5F832220F21D0
:104E7000682004F0A0F822460321682004F09BF883
:104E800001223B4611460C2004F0E7F89DF87030F3
:104E9000092B40F03E81454BC5F8AC3C444BC5F86E
:104EA000B03C072385F8AA3CD5F8243943F0080321
:104EB000C5F8243995F8E4300BB185F8A83C95F88D
:104EC000E5300BB185F8A93C95F8E630002B78D099
:104ED00085F8AA3C75E00123069324E5354A13853D
:104EE000C4E502F07E028DF83C2040B1682A06D16C
:104EF000012385F8943C1D2385F8983C77E79DF8BD
:104F00002C3003F07E03682B8DF82C3032D1062133
:104F100002233A46084685F8943C04F021F99DF8AE
:104F200075309DF873209B00520002F0020203F0DE
:104F3000040313439DF8712002F0010213430CD0C7
:104F4000012B03D1002385F8953C50E7022B01D1BA
:104F50000123F8E7022003F062FA13AA01210C20D2
:104F600004F0FEF89DF84C3013F00F03F2D0042B40
:104F7000EED1E7E7702B04BF042385F8943C36E7B5
:104F8000FFE0CF007A25E00035FA8E3CC810002003
:104F9000F010002061910008FF8F000885B4000820
:104FA00039630008140F00202D23FA3B07900008F6
:104FB000779100080004004800540040022385F85F
:104FC000843C95F8F830052B7DD8012404FA03F3CE
:104FD00013F0160F40F0A58013F0290F73D00A20AC
:104FE00003F00EFA4CF6EF030FA90220ADF83C30A7
:104FF00006F05AFE002800F09480204603F000FAE4
:1050000013A902208DF84C908DF84D9006F032FDDA
:10501000002800F08680BDF84C305BBA03F03F03F7
:10502000082B7ED1424B9DF84C90D3F8040293F8A4
:1050300008321C9039463B7105209DF84DB006F0B2
:1050400033FE00286DD03B4C4FF2C77804F11006B8
:105050000FA90220ADF83C8006F026FE002860D0A3
:10506000012003F0CDF913A902208DF84C908DF8A2
:105070004DB006F0FFFCBDF84C309DF84C909DF80B
:105080004DB05BBA9BB200284BD007EE903AF8EED9
:10509000E77AE4EC017AA642DAD1274BC5F8D83C8E
:1050A000264BC5F8E03C264B00221A606223C5F867
:1050B000E83CD5F85C35C5F8EC3C0320002385F8C6
:1050C000F03C06F045FED5F8243943F00403C5F85A
:1050D00024391C4C49F6117647E01446A3E6002219
:1050E00085F8A92C184AC5F8882C43F00303174A01
:1050F000C5F88C2CC5F82439D5F8883C9847A0E62B
:10510000A8F10203032B7FF6A9AEB8F1010F04D179
:10511000D0E6B8F1000F3FF4CDAE002385F8AA3CED
:105120009AE695F8843C43F0200385F8843CD0E768
:10513000201501081C11002051BD00080DBB0008FE
:105140004C1100200008004871B4000805630008F5
:10515000A38A9BB283F40053A382A38A9BB283F4F5
:105160008043A382642003F04BF93B4602220021D6
:105170004020ADF8706003F02BFE0028E8D0D5F891
:105180004C3C012B02BF95F8843C43F0400385F86A
:10519000843C95F8840C00287FF4DDAE95F8483CFB
:1051A000C24C43F0020385F8483C4FF4005323857A
:1051B0004FF48043A3610F26A38A9BB283F400536C
:1051C000A382A38A9BB283F48043A382A38A9BB267
:1051D00083F40043A382192003F012F9013E192041
:1051E00003F00EF916F0FF06E6D14FF48043A361F9
:1051F0004FF40053A3614FF40043A361D5F8243961
:105200001B0705D5D5F8AC3C9847012385F8F13C40
:10521000D5F87837DFEDA66A1B7BA5F8F23CBAF823
:105220002630A44807EE103AB8EEC77A1A22C6EE26
:10523000877AFF219FEDA07A67EE877AC0ED007A2A
:10524000A0F206300BF008F8D5F82419012300224B
:105250008F0785F8283985F8292907D585F82A394F
:10526000032385F82839022385F82B394C0708D504
:1052700095F828395A1C2B4485F82829032283F8ED
:10528000292995F8283911F00A0F03F10102D2B249
:1052900010D0E9182A44042081F82909052182F850
:1052A0002919DA1C023355FA83F385F828290622D6
:1052B00083F82929D5F8FC77B80608D595F8283958
:1052C0005A1C2B4485F82829072283F829296B7951
:1052D000082B01D00E2B08D195F828395A1C2B44E5
:1052E00085F828290B2283F8292995F82829A91857
:1052F0000C20531C81F829097907DBB205D52B4412
:105300000232102183F82919D3B25A1CE918D2B2FB
:1053100012207C0585F8282981F8290909D595F8F6
:10532000B81131B102332A4485F82839132382F8A1
:105330002939B80508D595F828395A1C2B4485F821
:105340002829152283F82929F90508D595F828393F
:105350005A1C2B4485F828291A2283F829299822D7
:1053600000215648564C0AF077FF012003F0B4F9AB
:105370004FF04C0B00286AD1D5F8143AB5F944C166
:10538000C5F814394F4BC5F8A03B0022A5F82427D7
:1053900085F82627C5F84827C5F84C27C5F8E8360C
:1053A00085F8F12AD5F8E016B5F8440103F2324643
:1053B000624603F60623F82526F8022B0135D4F8B9
:1053C0005C25EDB202F516720A2D43F8042B65D167
:1053D000FA0454BFB4F84A310346A4F86E3501F11B
:1053E000500591F87D30ABB991F87F2091F880306D
:1053F0009A420FD2002A6BD0013A02EB820202EBF2
:10540000820202F5617293B291F87E2004EB4202AF
:10541000A2F8703504318D42E3D13B076DD594F885
:105420003E21062A63D8DFE812F05B0055045804D9
:105430008104A204BC04BC040BFB06FA04EB0A09B9
:1054400099F85E8AB8F1000F04D00136F6B2022E48
:10545000F2D191E702791C4B90F90000CDF804805D
:1054600003EB820303220092D3F80C32424601215F
:1054700006F016FF039068B1144848224146504494
:105480000AF0EAFE039BC9F8143A01231E4489F886
:105490005E3AF6B2012003F0F9F86BE7022D9DBFEA
:1054A000B4F84621643212B2624685E7000800482B
:1054B0000AE81C41981000200000C8427C0E002021
:1054C000680400209E05002020150108800E0020A1
:1054D000013303EB830303EB830303F5617393E76A
:1054E00045F2F053A4F8F43C06F012FF28B9082066
:1054F000FAF792FED34BD44A9A6317F4804F18BF41
:105500001223D04D1EBF84F85839D04BAB6342F202
:1055100001031F4211D044F62063BA04A4F8F43CFE
:1055200041BF082384F85839C94BAB63FB0741BF1F
:105530000C2384F85839C74BAB6394F85839C64FDD
:10554000043B84F8593932209F234FF480590DF1E0
:105550004C081CAE139302F053FF0023A7F82890C9
:105560000422414630468DF8713006F01BFF9DF84D
:105570007130C7F818909DF872201B0443EA02238B
:105580009DF873201343B54A934200F04B8400F317
:105590004284A2F51A42033A934200F04A8402F58B
:1055A0001A420232934200F070840023C5E90C33A2
:1055B000AB6202F0D3FD6379C4F8480D052B04BF3C
:1055C0004FF4C873A4F85235FBF74AF84FF47A73D6
:1055D000DFF8BC92A4F854350320D4F8D83C98479F
:1055E000DFED9F7A4F460837C9ED007A4FF0650A24
:1055F000B0EE677AB0EE678AB5EE407AF1EE10FA57
:10560000C7ED007A40F06884BAF1010A40F04F8497
:1056100094F80B3943F0080384F80B3994F8EC350F
:1056200023F0020384F8EC35D4F8FC3740F602028C
:105630001A4222D00027032384F8D938394601239F
:10564000884885F82430C822A4F8DC78A4F8E078EB
:10565000A4F8DE78A4F8E2780AF0FEFDD4F85C3510
:10566000C4F8E838804BC4F80C7800200021C3E966
:10567000000184F8087884F8D87894F8483C7B4A8C
:10568000A768DFF81092C4F8FC7763F07F0384F812
:10569000483C13464FF0804143F8041B744919609D
:1056A000744B93604FF49663A4F87235724BAB6100
:1056B00094F85D364FF0010A84F85CAC2BBBD9F846
:1056C0001430DFF8D4E143F40033C9F81430D9F8CA
:1056D000183043F40063C9F81830684B4FF090401D
:1056E000CDE91C30664B06220821CDE91EE305F00A
:1056F00087FC40F2DC5344F620625146304605F008
:10570000F1FE84F85DA6C4F868065E4D95E80F00CA
:105710000DF11C0A8AE80F0005F110030FCB0DF103
:105720002C0E8EE80F0005F120030FCB0DF13C0C81
:105730008CE80F0005F130030FCB88E80F0005F16E
:1057400040030FCB86E80F009AE80F004E4D85E826
:105750000F009EE80F0005F1100A8AE80F009CE890
:105760000F0005F1200E8EE80F0098E80F0005F1FC
:10577000300C8CE80F0096E80F0005F1400C8CE827
:105780000F004FF4967002F03BFE4FF48C72002134
:1057900005F150000AF060FDD9F81C3043F0070312
:1057A000C9F81C30D9F8183043F4A523C9F81830CB
:1057B000D9F8143043F4C023C9F814304FF000086E
:1057C000EA7BA97B686808F1040805F019FCB8F1C8
:1057D000140F05F11005F3D16279D4F81819182ABD
:1057E0009DBF2A4BD34003F0010300238DF86630A0
:1057F0000022881C10F93250022D00F09F830132E4
:10580000042AF7D100228DF86120C7F340028DF8F9
:105810006220C7F380128DF86420C7F340328DF800
:105820005C20C7F3C0328DF85F2017F4006235D0DA
:1058300094F83221A2F1030CDCF1000242EB0C02DD
:105840002CE000BF00000020416100085D610008FD
:1058500045610008516100080004004818BA2000A2
:1058600000000000780C0020580D0020B41100202A
:10587000ABAAAA3F26B4973EA0860100002C0140A7
:10588000010208064C170108C01100200041000168
:10589000200B0020001002400001001B8DF860204A
:1058A000C7F300428DF8652007F001028DF85D20F6
:1058B000C7F3C0028DF85E20C7F38042FD04B4F840
:1058C000D4108DF86320B4F8E020ADF86A1044BF1E
:1058D000B4F8DC10ADF86A10B2F5FA7FADF86820C4
:1058E00094BFBDF86A200022ADF86A2094F88221A6
:1058F00084F8C02E00225B0017F0090FA4F8C12E17
:10590000CB4ACC4F18BF013302EB83034FF6FF792C
:10591000D3F87C32A3F102080833039338F8020F5E
:10592000484500F0C780030A022B00F0BF80C24A3E
:10593000C0B2012B4FEA001B02EB001040F087833E
:105940009DF85D30002B00F0B18004EB0B0A0023C2
:105950009AF8652DBAF8601DC4F8180FADF87010EC
:10596000DAF85C0D8DF87220314602228DF8732032
:1059700084F8C43EC4F8C83EC4F8CC3EC4F8D03E57
:10598000C4F8043FC4F8089F84F80C3F05F0F8FC05
:1059900094F8C02EDAF8585D9AF862AD012A18BF63
:1059A00000212A6A08BF0321BAF1000F40F0CD821E
:1059B00022F001022A62AA69286A22F0F30242EA6E
:1059C000011220F00A0042F0010240F00100AA6139
:1059D0002862AA6922F00C02AA61AA69AA610122BE
:1059E0000021284605F0D2FB2A8892B242F001023B
:1059F000BB442A809BF863BD584606F003FBBBF10D
:105A00001B0F02D1192006F0FDFA8C4AC7F81C2F93
:105A10004FF0000B8A4AC7F8202F2846C7F824BF4A
:105A200005F02CFB062841D80A214143854A01EBA9
:105A30009A0107EB810C131DCCF8A82DCCF8B83DCA
:105A40004FEA9A0C0223E96803FA0CF39BB20B436A
:105A5000EB6028234343A2F5BA7203F120011144FD
:105A6000EFF3128C4FF0500E8EF312880C33134468
:105A700053F8042F0AB10A60111D0BF1010BBBF1A1
:105A8000040FF5D100230B605FFA8CFC8CF31188B6
:105A9000282303FB0070D0F8C83D002B40F0D382D0
:105AA000EB6823F001031B041B0CEB60039B4345D5
:105AB0007FF434AF644E654D042384F8E0390FCE93
:105AC0000FC50FCE0FC50FCE0FC596E80F0085E8A6
:105AD0000F00D4F8FC37D4F85C67D4F8580703F407
:105AE0008052A5F256650023002A00F0E3828188E7
:105AF00025F8021B01330C2BF6D1554B0F934FF0B9
:105B00009043CDE913334FF44173ADF82C30514B32
