:020000040800F2
:1000000000A000209DE9000805EA000805EA0008B4
:1000100005EA000805EA000805EA000800000000FB
:1000200000000000000000000000000005EA0008D9
:1000300005EA00080000000005EA00085D810008EC
:1000400005EA000805EA000805EA000805EA0008D4
:1000500005EA000805EA000805EA000805EA0008C4
:1000600005EA00085781000805EA000805EA0008CB
:1000700005EA000805EA0008DDAF000805EA000807
:1000800005EA000805EA000805EA000805EA000894
:1000900005EA000805EA000805EA000805EA000884
:1000A0003DB20008F5B100084DB20008E5B1000806
:1000B000F9B1000809B2000819B2000805EA000801
:1000C00005EA000805EA000805EA000805EA000854
:1000D00005EA00081DB0000829B0000805EA00087C
:1000E0005181000805EA000805EA000805EA000851
:1000F00039B2000805EA000829B2000805EA00083C
:1001000000000000000000000000000005EA0008F8
:1001100005EA000805EA000805EA000805EA000803
:1001200005EA000805EA000805EA000805EA0008F3
:1001300005EA000805EA00080000000000000000D1
:1001400005EA000805EA000805EA000800000000CA
:10015000000000000000000000000000000000009F
:10016000000000000000000005EA000805EA0008A1
:1001700005EA000800000000000000000000000088
:080180000000000005EA000880
:1001C00010B50F4B1A786A2A17D15A88B2F5AA6F60
:1001D00013D11A79BE2A10D193F84E25EF2A0CD1EB
:1001E000084C002213F8011BA342104682EA0102C8
:1001F000F8D1431A5842584110BD0020FCE700BF17
:1002000000F0030850F50308024A93680343936023
:10021000704700BF60040020024A936823EA00038D
:100220009360704760040020044A0123B2F850151F
:1002300083400B43A2F85035704700BF6004002094
:10024000044A01238340B2F8500520EA0300A2F8D3
:10025000500570476004002010B50C4CB4F85205EE
:10026000B4F85435184380B260B9FFF7E9FFB4F829
:10027000500510F0010004D1D4F85805003818BF1B
:10028000012010BD0020FFF7CFFFF0E76004002041
:10029000704B71481A68596870B5D0F85C45A21A5D
:1002A0008A4215DB1A7A9AB190F86025B0F8506549
:1002B0000132D2B280F86025002101252E4208D1FA
:1002C00001316D000929ADB2F8D15A6822441A6093
:1002D00070BD89B20139072905D8DFE801F01BACF0
:1002E00090819D452E7064225A605D7A5B4A4FF47E
:1002F00080404FF4005190612DB111854FF40041C1
:100300001185002204E091614FF4004191610122C6
:100310005A72DAE75D7A64225A604FF480404F4A9D
:100320004FF4004125B1108591614FF40051E7E78A
:10033000906191614FF40051E8E790F861154748EA
:1003400021B364225A604FF4804282614FF400521C
:1003500082614FF400420285B7E74FF48042018585
:1003600002854FF40052F6E790F861153B4869B1F9
:1003700064225A60828A92B282F4005282824FF4DE
:10038000804282614FF4004282619EE702F00302E4
:100390007821022A59604FF40041DED0032A0AD0A6
:1003A000012A01854FF4804201D0826100E002857C
:1003B0004FF40052E8E781614FF48042F5E790F88E
:1003C0006125002A81D064225A60244A4FF480417A
:1003D00011854FF4004191614FF40051916174E730
:1003E0001E4964225A604FF480428A614FF40042F1
:1003F0008A618A8A92B282F400528A8265E7642214
:100400005A60164A4FF4804191614FF40041916166
:100410004FF40051118558E7104964225A604FF497
:1004200000528A618A8A92B282F480428A824FF4B0
:1004300000428A6149E7642112F0010F5960074ABE
:100440004FF480414FF4004001D11085C3E7906123
:10045000DDE700BF00000020600400200008004825
:10046000FDEEC07A17EE903A2033402B43D8DFEDF3
:10047000237A9FED237AB4EEE70AF1EE10FA28DC36
:10048000DFED207A9FED1E7AB4EEE70AF1EE10FA66
:1004900022D4DFED1D7AB4EEE70AF1EE10FA1EDD8C
:1004A00030EE670A37EEC00A60EE007ADFED176AB9
:1004B0009FED177AA7EEA67ADFED166AE7EE876A58
:1004C0009FED157AA7EEA67A20EE276AA6EE070A18
:1004D000704730EE470ACEE730EE070AD4E79FEDCB
:1004E0000F7AB4EEC70AF1EE10FA44BF30EE270AD5
:1004F00037EE400AD8E79FED0A0A7047DB0F494004
:10050000DB0FC940DB0F49C0DB0FC93F9A7C2E3699
:10051000FAAF4FB93587083CA4AA2ABEDB0FC9BF82
:100520000000000003685A1C026019707047002325
:100530001B68FFDE30B5484BD3F86425B3F96E1560
:100540009578D278B3F98C05002A41D00A1A82EA4C
:10055000E274A4EBE274AC4223DD012012F5997F32
:1005600083F88E051ADD062092FBF0F2502AA8BF10
:100570005022B3F89005024412B2A3F8AA25A3F8BA
:10058000902593F8B025002A61D040F2DC529142C8
:100590005DDC4FF47A72A3F8AA2530BD6FF031020A
:1005A000E7E793F88E2532B1D3F89825C3F8942560
:1005B000002283F88E25D3F89C25D3F8A04510445B
:1005C00022889042D8DB62888242A8BF0246D3E7E5
:1005D00040F2DC529142214C23DDA1F2DC529542E3
:1005E00028DAA1F2DC52002ABCBF6FF4BB628A1881
:1005F0009210782AA8BF7822C3F8AC250122A272F3
:1006000083F88E25D3F89C25D3F8A0451044228882
:10061000904203DB62888242A8BF0246A3F8AA2563
:10062000AFE7521A954205DAB1F5896FD9DC6FF060
:100630006302E1E70022A27293F88E45C3F8AC256D
:10064000002CDFD0D3F89845C3F89445D8E70022B2
:1006500083F8B025A1E700BF60040020000000205F
:10066000134BD3ED037A134BF5EE407AF1EE10FA0B
:100670004FF0000203F1040103F1080003D11A60F6
:100680000A6002607047F0EE086A86EEA77A80ED95
:10069000007A27EEA77A67EE877A86EE876AF7EE0A
:1006A000006A86EEA77A81ED006A83ED007A7047D2
:1006B00000000020140A0020034BB3F8C0351D2BA6
:1006C00001D80420B0E5704760040020054B0022EB
:1006D000C3F8C425C3F8C82503F2CC5300221A601E
:1006E0005A60704760040020074B0022C3F8D425ED
:1006F000C3F8D825C3F8DC2503F5BC6300221A60D3
:100700005A609A60704700BF6004002010B5164C14
:1007100094F8EC355A0706D523F00503042084F835
:10072000EC3507F0F3FE94F8ED25104B0AB10022EA
:100730001A7401225A74782200215A82042040F24D
:1007400014529A8284F8EE1584F8EF1584F8F015A7
:10075000C4F8F415FFF774FD0520FFF771FD84F868
:10076000F81584F8B01510BD6004002000000020CA
:10077000224B93F8EC2512F0010F02F0040103D193
:10078000D3F8FC05012833DC93F8000680B393F816
:10079000010668BB39B11A4A1346516843F8081B71
:1007A000D2681A607047D3F81416480124D4910710
:1007B0001FD442F0040283F8EC2593F8EE2522B909
:1007C000012283F8EE25D3F85C250E4AB3F81816FB
:1007D000D182D3F85C25D3F85C1593F88E214FF4C1
:1007E0007A7012FB00120520C3F81C2607F08EBE9B
:1007F00011B9012007F0B0BE704700BF60040020AF
:10080000640A00200000002070B5104CD4F8205677
:10081000284607F0E7FE287A04F2246400226FF0ED
:100820001806192112FB0263434303F6C413534312
:100830000132072A93FBF1F324F8023BF2D1284658
:100840000349BDE8704007F0E9BE00BF6004002026
:10085000300500202DE9F047C14C94F83236B4F849
:10086000342604EB4303B3F968359342C0F259814F
:10087000B4F83626934200F3548194F838560DB9F3
:1008800094F8395694F83C3684F83A5684F83B5636
:10089000002B00F00D81D4F84076D4F84436FB1AD2
:1008A000C72B40F2058194F84886B8F1000F40F05C
:1008B000F5804146404608F07BFBAA4BAA48002D34
:1008C00008BF18460BF094FED4F84C6694F838969E
:1008D000022E40F07C81B4F85035DA0740F12381D4
:1008E000A24BC4F85036D4F85086B8F1000F06D0A9
:1008F0000620002108F05CFB40460BF079FE002149
:1009000010200136C4F84C6608F052FBB4F8C0352C
:1009100097480A21B3FBF1F201FB12339BB29549D0
:100920000AF068FF92480BF063FE0721002008F0F0
:100930003FFBB9F1000F40F0538194F839268E48FF
:10094000884B002A08BF18460BF052FED4F81466F4
:10095000D4F85C3594F8682616F0010600F0428160
:10096000002A40F04481C4F86C26B4F85025D20522
:1009700004D5012284F86826C4F870360721084699
:10098000D4F86C364FF47A724FF03C0AB3FBF2F8AD
:1009900008F00EFBB8FBFAF9784975484A460AF0A8
:1009A00029FF73480BF024FE07210C2008F000FB00
:1009B00073496F480AFB19820AF01CFF6C480BF060
:1009C00017FE1020072108F0F3FA6E486E4B002E38
:1009D00008BF18460BF00CFE002D5FD1022101204C
:1009E00008F0E6FA0A266949B4F97626604892FBCF
:1009F000F6F20AF0FFFE5E480BF0FAFD032101203B
:100A000008F0D6FA6249B4F97426594892FBF6F216
:100A10000AF0F0FE56480BF0EBFD0421012008F02F
:100A2000C7FAB4F918265B4951480AF0E3FE50486A
:100A30000BF0DEFD02210B2008F0BAFAB4F96A25AA
:100A400055494B480AF0D6FE49480BF0D1FD032129
:100A50000B2008F0ADFAB4F968254D4944480AF076
:100A6000C9FE43480BF0C4FD04210B2008F0A0FA96
:100A7000B4F96C2547493E480AF0BCFE3C480BF0EF
:100A8000B7FD05210B2008F093FAB4F96E25434910
:100A900037480AF0AFFE36480BF0AAFD94F87A36D4
:100AA000AB4201D00BF08DFD84F87A56C4F8447641
:100AB000002D00F0588107F059FBD4F87C36C31A9A
:100AC000002BC0F2DA80364DAB690344C4F87C36A3
:100AD0002B7F9BB1334B00264FF400522E729A614C
:100AE0004FF400429A6101214FF480429A61084616
:100AF0000AF0FCF901232E7784F880360BF05EFAB9
:100B000050287AD90BF05AFAB0F5487F75D20021F7
:100B100002200AF0EBF9012100200AF0E7F9002198
:100B20009EE00025AEE6980701D51F4BD9E6D90611
:100B300001D41A0701D51D4BD3E6980605D4B9F1A7
:100B4000000F04D194F839260AB9194BC9E65907A0
:100B500001D5184BC5E65A0630D5174BC1E600BF84
:100B6000600400206C1D0108661D0108841D010839
:100B7000B40A0020DE1D0108721D0108E61D0108EF
:100B8000EE1D0108781D01087E1D0108F41D0108F5
:100B9000FE1D0108081E0108121E01081C1E010886
:100BA00000000020000800488E1D0108981D010863
:100BB000A21D0108AC1D0108B61D0108180601D5CB
:100BC000794B8EE6D9057FF58EAE784B89E6052EFA
:100BD00001BF774BC4F85036C4F84C86464682E6CF
:100BE0007448B1E6002A3FF4C9AE84F86866D4F8C8
:100BF00070269B1AC4F86C36C0E60BF0DFF9B0F52E
:100C0000487F17D80BF0DAF9B0F5FA6F19D80BF066
:100C1000D5F940F67463984225D90BF0CFF941F22B
:100C2000931398421FD8012102200AF05FF9002196
:100C3000084672E70BF0C2F9B0F5FA6FE2D2012173
:100C400066E70BF0BBF940F673639842DFD80121E9
:100C500002200AF04BF9002108460AF047F9012169
:100C600001200AF043F9012102200AF03FF9BDE812
:100C7000F047012100200AF039B94F4A0023A2F1C0
:100C8000DD01D01D157815B3032B06D050F8235085
:100C900021F8135001330132F4E7D4F89436A4F864
:100CA0006E3594F8983613B10023A4F89A36434E63
:100CB0000023012516F8012B002A50D0DBB2013B9E
:100CC000042B08D8DFE803F0111B2937410001335A
:100CD000042BE0D1E5E701200BF0B4FC002384F8FD
:100CE0009D3684F89C560123E4E701200BF09CFC20
:100CF000002384F89C3684F89D560223DAE704200A
:100D00000BF0A0FC40200BF08FFC012384F89E36F2
:100D1000002384F89F360323CCE740200BF092FC9D
:100D200004200BF081FC012384F89F36002384F813
:100D30009E360423BEE708200BF084FC002384F8D1
:100D4000A13684F8A0560523B4E708200BF06CFC0C
:100D5000002384F8A15684F8A036BDE8F08701335B
:100D6000062BA7D1F9E794F88036002BF5D00121A6
:100D70002846C4F8885684F88156C4F88C5684F8FE
:100D80008256C4F8905684F88356C4F8945684F872
:100D9000845684F898560AF0A9F8094B84F88056CE
:100DA00001221A721A77D8E7C01D0108CA1D01086E
:100DB000D41D0108721D0108E10A0020FC0A002070
:100DC000000000202DE9F84F4FF4AA622DED028BB0
:100DD0000021C8489FEDC88A0FF026FAC54A02F5DF
:100DE000E4730021C2F8A43602F22A566A230324CF
:100DF0004FF4006015461370547182F8A816C2F8BB
:100E00002066FFF701FA8020FFF7FEF90220FFF7C6
:100E1000FBF94FF40060FFF7F7F94FF48070FFF72C
:100E2000F3F9C823A5F8FA30B44BDFF83CC3DFF878
:100E30003CE385F832414FF48037C5E93B73B04B52
:100E4000C5F8F4304FF47A73A5F8343142F2201328
:100E5000C5E94AC34FF0A063C5F8C431A94B85F872
:100E600028154FF07E58C5E951E340F64303A5F835
:100E70004C312A46A5F8E41085F8E610C5F8FC10B8
:100E8000A5F80011C5F8E81085F8F810C5F810812C
:100E9000C5F81481C5F8188185ED478A85ED488A23
:100EA00085ED498AA5F83011A5F8B81185ED6F8A4E
:100EB00085ED708AA5F83E112B462C460329CCBF40
:100EC0000122002201F1010183F84E2114BF1E22EC
:100ED0000522122983F84F2103F10203EED18A4B38
:100EE000C4F84031834B00224FF47A704FF4FA611A
:100EF0000132042AA3F87201A3F8741103F1040368
:100F0000F6D1824A824B8349C4E96323824BC4F8F9
:100F1000D030A3F1FA73643BC4F8D43003F56023F6
:100F200003F5CB73C4F8D8307C4B00274FF0010990
:100F3000C4E9371384F8827184F894910AF028FD8B
:100F400040F6AC53A381764BC4F8C83103F1034398
:100F5000A3F51D23A3F29D73C4F8CC317148724BE5
:100F6000724AC4F8F821C4E97403714BC4F8D8314B
:100F70002D2384F8DD3141F61E63A4F8DE316D4B7C
:100F8000C4F8E031C4F8FC2145F205336A4AA4F8FC
:100F9000E431C4F8142264234B2284F8E63184F847
:100FA000182240F201534FF4FA72A4F8E831A4F881
:100FB0001A22624BC4F8043240F2DC52C4F8083200
:100FC000A4F834255E4BC4F8F43144F25A125D4B58
:100FD000A4F82A254FF07F513222A773C4F81032AB
:100FE000C4F81C72C4F82C25A4F8307584F8327546
:100FF000C4F8EC11C4F8F011C4F8008284ED838ABF
:10100000A4F82272C4F82C3242F62803A4F8303235
:10101000152384F834324C4BC4F82472C4F83832A7
:101020004A4F4B4B84F84492DFF83891C4F83C3275
:1010300040F60822474BA4F82822C4F84032BA46AA
:1010400009F1080BB84617F8011B002943D14FF4EA
:101050002053A4F8DE324FF44873A4F8E2323E4B3A
:10106000C4F88431C823A4F88A3184F8DD1284F8E6
:10107000E01284F8E41284F888110C23013B05F196
:10108000100585ED008AF9D134494FF49072881823
:101090000BF0E4FA31494FF4907201F510700BF047
:1010A000DDFAD4F82A35C4F836352D4A7368536012
:1010B000B368D4F82A159360C4F84215536101232C
:1010C00084F8403371681161022384F86034BDEC08
:1010D000028BBDE8F88F23480FF0F4F80028B1D058
:1010E00058453FBFA0EB09000019A8EB0A0880F89B
:1010F0003681A7E760040020000000002A005802A3
:10110000FA0020006C077503001E0001000105961F
:101110000101C800B40532004C04D007504632002B
:10112000012828962828783C0A0A4600CDCCCC3ED7
:101130000002210A1E321E00000040408FC2F53C12
:10114000000020400000A0409A99193F261E010887
:10115000F6287C3F1F856B3F0AC81405280600202F
:1011600096090020F0140108190A0A2ADC054C042B
:101170002DE9F843FFF724F810B9032007F057F9D9
:10118000C14C07F01BFB4FF4AA62C04920460BF08C
:1011900065FA94F82865022E88BF00264FF49075F2
:1011A00006FB05F504EB050288BF84F8286592F874
:1011B0002032022B84BF002382F820320C2284F8D4
:1011C000A83605F5E47702FB034303F22A5308200F
:1011D0002744C4F82036C4F8A476FFF71DF84FF46E
:1011E0000050FFF719F80120FFF716F84FF4804080
:1011F000FFF712F8FFF708F84FF4907303FB06436C
:10120000002283F8452241F20302A3F84622A04AB5
:10121000C3F8482202F18052A2F57E42C3F84C2264
:101220009C4A4FF4866CC3E994C2202283F858226A
:10123000052384F8323640F2AA53A4F8343640F23B
:101240000E63A4F83636944B01225A77A36846F20F
:1012500009021A4203D14FF40050FEF7D5FFA368EC
:10126000D80703D54FF40050FEF7D6FFA368590402
:1012700009D50820FEF7D0FF4FF40050FEF7CCFF51
:101280000120FEF7C9FFA3681A0706D54FF40050E6
:10129000FEF7C2FF0120FEF7BFFFA3689B0402D543
:1012A0004020FEF7B9FF012384F8B93194F88C315E
:1012B0002BB194F8903113B1002384F89031DFF80A
:1012C000F081C4F8AC86002002464FF0FF0E04EB1C
:1012D000C003B3F89A114B0803F077334FEA910932
:1012E00009F03339CB1AA3EB09034FEAD10909F00E
:1012F0001139A3EB090303EB231303F00F33B3FB03
:10130000FEF9C9EB092901F0010CA3EB09036244C2
:10131000012BD2B207DD022B0BD1BCF1000F08D09C
:1013200011F0BC0F05D001300428D0D1013A012AB8
:1013300001D90AF02DFBFFF767FA30220021574848
:10134000DFF870910EF070FF05F245203946204419
:101350000AF04CFB4FF4907303FB0646C4F8E0968A
:1013600096F8C80105F0CAFA09F18E03C4F8E4360C
:1013700094F88431DFED4A6AC4F828876421C822D2
:1013800013FB0123B4F8F210C4F8EC360023C4F8C0
:10139000F036C4F8F436C4F8F836C4F8FC36C4F8AD
:1013A0000037C4F80437A4F80837C4F80C37C4F879
:1013B000103707EE901A09F10603C4F81837A9F19F
:1013C0001E03B4F8F410C4F81C37F8EE677A09F17C
:1013D0009A03C4F8243709F23663C3ED017A07EEA5
:1013E000901AB6F82812A4F82C1796F8441284F82C
:1013F0002E1794F88F1184F83817B6F8E212C4F853
:101400003C3707EE101AF8EE677AB8EEC77AC3EDEC
:10141000027AC6EE877A05F50C732344C4F8403788
:1014200005F2DD2509F24E63A9F126022544C4F830
:101430002027C4F848774FF07E519FED1A7A67EE67
:10144000877AC3ED007A09F25663C4F86455C4F88C
:10145000A025154A1A604FF07C5209F26A695A6059
:1014600000229A60D9601A61104BC9F80030C9F89F
:101470000410C9F80820C9F80C10C9F81020BDE8FC
:10148000F84307F0B3B900BF6004002000F0030880
:10149000300103001005001000000020100B002098
:1014A000000061444C3D0F440AD7233CCDCCCC3DD9
:1014B00096050020560500202DE9F74F07F07EF92C
:1014C000434B6A221A704FF4AA625A80BE221A71E4
:1014D000EF22A3F84E2540F251510022184601395F
:1014E00055D13C4B80F84F251A69120604D53A4A6B
:1014F0005A6002F188325A60364C384E03254FF05C
:101500003409C4F80C900AF031FA0428DFF8C080DE
:1015100038D1236943F002032361314B63612369AE
:1015200043F0400323610AF021FA2369042823F0E1
:101530000203236126D14FF0000BDA4658F8047BF2
:10154000CDF804A00AF012FA04281BD1236943F055
:10155000010323610BF1006303F57C33BAB21A80F7
:101560000AF004FA042816D10BEB06030193019B41
:101570003F0C1F800AF0FAF92369042823F00103C5
:1015800023610DD0013D15F0FF05BAD10DE013F830
:10159000014B6240A3E7236923F001032361F1E7D4
:1015A0000BF1040BBBF5AA6FC8D10A4A13690428D2
:1015B00043F08003136102D1FEF702FE10B904204C
:1015C00006F035FF03B0BDE8F04F07F00FB900BFDC
:1015D00060040020002002402301674502F0030858
:1015E00000F003082DE9F04FD54ED6F82086B6F965
:1015F0006EE5B8F80A202DED048B9645A9B0C0F22F
:10160000B581BEF5FA6F98F80740BDBFAEEB020397
:1016100013FB04F3C2F5FA62C4F16403BCBF93FB8D
:10162000F2F3C3F164030193B6F844310393C54B5D
:10163000D6F8A4B6069303F5097203F13C070592A8
:10164000A3F5AD6503F2272208F10403DA460492FC
:10165000002064210793069B33F9022B0292069324
:101660001346039A9B1A03F2F31240F2E634A242A5
:1016700000F27E81002BB8BF5B42022800F07B8124
:101680009BF815211AB19A42B4BF9B1A0023B3FBF1
:10169000F1FC05EB4C024FF69C74B2F99297B2F94B
:1016A00094271CFB043CA2EB09020CFB02F292FB08
:1016B000F1F24A443A80079A125C12FB03F3A24A01
:1016C00093FBF2F3019A64339BB2534393FBF1F320
:1016D0001AF8012F059C5A4392FBF1F204F8012BF2
:1016E0009AF8162005945A43049B92FBF1F203F8F2
:1016F000012B022804931EBF944B019AC254DDE9CA
:10170000023208BF85F8A2179342B8BF3B8800F1A8
:101710000100BCBF5B423B80032807F102079AD15E
:10172000DFF83492D5F81486B9F91E30581C0DD064
:1017300018F0080F0AD0D5F89825323B934205DC03
:1017400040F2DC539E45C8BFA5F86E3595F8EF35DD
:101750001BB1B9F81430A5F86E35B5F96E35B5F88A
:1017600046219342C0F23281B3F5FA6FA8BF4FF41D
:10177000FA639B1A4FF47A714B43C2F5FA62642400
:10178000B3FBF2F393FBF4F105EB41026FF0630757
:10179000B2F9A407B2F9A62707FB0133121A534383
:1017A00093FBF4F30344A5F8AA35B5F8BC37590602
:1017B00039D5B5F81836B9F81620DFED657A9FED02
:1017C000650A9B1A1BB205EE903AF8EEE55A65EEF3
:1017D000A75A35EE800AFEF743FEB0EE405AB0EE4F
:1017E000650AFEF73DFEB5F9A63506EE903AB5F965
:1017F000A43507EE103AF8EEE66AB8EEC77A67EE5F
:10180000007A20EE660AE6EE857AA7EE050AFDEE7E
:10181000E77ABDEEC00A10EE103AA5F8A43517EE2F
:10182000903AA5F8A635D5F8C0A71AF0020F00F037
:10183000E280D5F8C427D5F8C83745F20721D31A76
:101840008B4240F3D8800220C5F8C82709F0B4FBCA
:10185000C2075EBFC0F3CF041923B4FBF3F495F8BD
:10186000CC37D5F8D02705EB430148BF4FF6FF74BE
:10187000B1F8D407A1F8D447121A144401336422F2
:10188000B3FBF2F102FB113385F8CC3795F89C38A5
:10189000C5F8D047632B9EBF0133DBB285F89C3877
:1018A000B4FBF3F495F89D38A7B2032BA5F8C075E7
:1018B00040F08E800A2F40F29E8099F8201001EBB4
:1018C000810101EB810100234FEAC11B01EB0111F2
:1018D0004FF416721FFA8BFBC90085F89D3828203B
:1018E00041F26803A5F89E28A5F8A038A5F8A41829
:1018F000A5F8A2B806F08CFD2A21B7FBF1F107EBA1
:101900008707013107EB870789B2BF000829BFB2FB
:1019100028BF0821A7EB0B074FF4167241F26803AA
:101920007A43A3EB0B0389F8201092FBF3F3A5F89D
:10193000A638034AB2F8A438A4B2633BA3420DE030
:1019400060040020C80900200CFEFFFF000C0020EE
:1019500035FA8E3CDB0FC93F000000204BDD012330
:10196000082082F89D3806F0D1FD44E064235AE651
:101970004FF4FA7381E69BF816211AB19A42B4BF6C
:101980009B1A0023B3FBF1FC05EB4C024FF69C7451
:10199000B2F92496B2F926261CFB043CA2EB0902FC
:1019A0000CFB02F295F9EEC092FBF1F2CCF1000CC7
:1019B0004A4412FB0CF2A5F8A82598F8062012FB61
:1019C00003F3B54A93FBF2F3643381E61346D0E6A2
:1019D0000A2F00F2A980032385F89D38002389F897
:1019E0002030A5F8A438A5F8A238A5F8A038A5F8A5
:1019F0009E38A5F8A6381AF4006FA84C55D0D4F834
:101A0000C427D4F8A83845F20721D31A8B424CDDFD
:101A1000D4F85C35C4F8A828D4F8AC28C4F8AC389D
:101A20000120A3EB020B09F0C7FA00B2632840F3D0
:101A3000AC80642390FBF3F007EE900AF8EEE77AAF
:101A4000B2EE047AC7EE876A9FED957AC6EE877A82
:101A5000FCEEE77A17EE903AB3F5803FAABF00227A
:101A60001A461346C4F8B0289BB2DFF8409259E9F1
:101A70000272E3FB0B72924600238A4A38465146B3
:101A80000AF00AFFC317B0F5803F73F100032ABFC5
:101A9000002303461846C4F8C038B4F8A63849E90C
:101AA000027A1B1A9BB2C4F8C43818F4805F02D0C3
:101AB0000A2006F02BFDD4F8C898B9F1000F22D007
:101AC000D4F85C35D4F8CC289A421CD894F8D23893
:101AD000B4F8D078002B5AD1D9F80430012284F818
:101AE000D228DB5D3BB137B999F80030053B934212
:101AF00001D806F03BFBD9F80430DB5DFE2B4AD160
:101B00000023A4F8D03894F8EC154B074FF00800E8
:101B100051D5FEF789FB0720FEF792FB0620FEF762
:101B20008FFB614F0023C4E0012B05D0022B1FD097
:101B3000002B3FF4FEAE5EE795F8EC3523F0020390
:101B400085F8EC35B5F8A238A4B2633BA34204DDB6
:101B5000022385F89D38072014E0B5F8A4386433D3
:101B60009C420EDD002385F89D38FEF7A5FD42E777
:101B7000B5F8A238A4B264339C42ECDD012385F8A9
:101B80009D38082006F0C2FCEFE700236DE7002334
:101B900084F8D238AFE7FF2B02D106F0A5FCB2E7FC
:101BA000D4F85C250A2113FB01230137C4F8CC3893
:101BB000A4F8D078A7E7FEF743FB18F0010F10D187
:101BC00094F8D3381F0702D594F80036CBBB072012
:101BD00021F0010184F8EC15FEF732FB0620FEF738
:101BE00023FBB4F8502594F8D438500734D5EBB91A
:101BF00084F81437D4F80C374BB94FF49673C4F803
:101C00000C37D4F85C3503F59673C4F81037D4F864
:101C10005C35D4F810279B1A002B1FDB012384F8B6
:101C2000D4380023C4F80C37C4F8103794F8D338EC
:101C30001B0713D50220FEF703FB002384F8D438DA
:101C40000CE041F00101072084F8EC15FEF7ECFAF6
:101C50000620FEF7F5FAC4E7002BE7D1B4F8C0354B
:101C6000222B11D90023032084F80136FEF7E8FA6D
:101C7000FEF7F2FA00283FF454AF94F8EC3523F065
:101C8000010384F8EC354CE70123032084F8013686
:101C9000FEF7CAFAECE700BF0CFEFFFF600400206D
:101CA0006F12033B80EE36003C0E0020200D00201A
:101CB000132397F84A800193B8F1010F40F0BE81D9
:101CC0003B68C4F8D878C4F8DC384FF005094FF009
:101CD000000BD4F8DC0803685B689847002800F024
:101CE0006D81D4F8DC080368DB689847D4F8D8A87D
:101CF0009AF84830052B12D8DFE803F0030A9FA4B6
:101D0000B3BD242840F0CD8001238AF8483006E096
:101D1000A0F14D014842484140008AF848009AF835
:101D20004830062BD5D19AF849307C2B00F2CC8074
:101D3000002B00F016875A1E7B2A00F20D87DFE881
:101D400012F0160123018F019A01AF010B070B0757
:101D50000B070B070B070B070B070B070B070B07F3
:101D60000B070B070B070B070B070B070B070B07E3
:101D70000B070B070B070B070B070B070B070B07D3
:101D80000B070B0755040B0799050B079E050B075F
:101D9000BF050B07D1050B07D7050B070B070B0773
:101DA0000B070B0726060B077C040B076D060B07BA
:101DB000AC050B071F034E040B0750030B070B0763
:101DC0002D060B073F060B070B07DB069206B20634
:101DD0000B075A030B07F5050B0703060B070B0749
:101DE0000B070B070B070B070B070B070B070B0763
:101DF0000B070B070B070B070B070B070B070B0753
:101E00000B070B070B070B070B07F301A7020B07C9
:101E1000DD02F0020B070B070703150324035F0322
:101E2000A1030B0716055B05A50441040B07ED0490
:101E30000B070B070B07F90600073C2814BF00230C
:101E4000032362E7402802D98AF848B067E78AF896
:101E500005008AF804B08AF807B08AF8060004235F
:101E600053E79AF806308AF8490043408AF806306A
:101E70008AF8489053E79AF804309AF805109AF8CF
:101E80000620994208D942408AF806205A1C534439
:101E90008AF80420187242E790420CBF0623002300
:101EA00033E794F8EC355A073FF539AFD4F8E0380A
:101EB0001B7883427FF433AF8F4B904AC3F8FC2FDB
:101EC0008F4B904ADA602AE7F02B00F0B2843CD8BE
:101ED000DD2B00F02586DE2B00F02686A02B00F0FF
:101EE000B684C72B40F23D86C83B2A2B00F23986C8
:101EF000DFE813F0B506370603073706DD07880865
:101F000092081B08800837069C06AC06B006370608
:101F10006008370637066E087B083706370637062F
:101F200037063706370637063706370637063706C9
:101F300037063706370637063706370637063706B9
:101F40003706E20637063706B006FE2B00F064843B
:101F5000FF2B00F06981F22BC3D9FA2B40F00186E8
:101F600094F8EC355B0740F16C8600F0FABD032075
:101F700006F021FC002006F0BFFB002006F0BCFBB1
:101F8000182006F0B9FB0FE0082006F014FCDFF87B
:101F900084914FF0000819F8010B08F1010806F0D0
:101FA000ABFBB8F1080FF6D1D4F8D838987906F021
:101FB000A3FBD4F8D838002283F8482094F8A73936
:101FC000002B3BD0D7F80080D8F8003040465B6942
:101FD0009847002801F05681D4F8C0374A49D80400
:101FE0004CBFD4F81C37D4F8203794F8A8099B8844
:101FF00000221BB25FFA82FC8445C1F0488109F0DF
:102000004DF8322006F004FA002394F8A8193F4A4C
:102010009C46D8B28842C1F03F81322006F0F8F9E0
:10202000D4F8C037590306D5A3685A0303D440F245
:10203000DC5006F0EDF9324B324ADA60019B132B8B
:1020400007F14C077FF434AED4F87C3A002B01F052
:1020500044812F4829B0BDEC048BBDE8F04F1847F0
:10206000032006F0A8FB022006F046FB022006F043
:1020700043FB002085E70D2006F09DFB092006F0BC
:102080006BFBDFF894904FF0000819F8010B08F192
:10209000010806F031FBB8F1090FF6D10020D5E0B8
:1020A0001A2006F088FBDFF874904FF0000819F84A
:1020B000010B08F1010806F01FFBB8F10B0FF6D178
:1020C000DFF85C904FF0000819F8010B08F10108E7
:1020D00006F012FBB8F1080FF6D1DFF848904FF088
:1020E000000819F8010B08F1010806F005FBB8F12A
:1020F000070FF6D158E700BF00900020EFBEADDE1D
:1021000000ED00E00400FA05D40B00200C0E0020C6
:10211000E40E00202F1E0108381E0108421E01088F
:102120004D1E0108561E01080B2006F044FBB4F8B2
:10213000500506F011FBD4F8E428CB4B9A420CBFB3
:10214000B4F8E808B4F8EA0880B206F005FBD6F85F
:10215000EC38C3F3C000C3F38002800040EA4200C1
:10216000C3F340021043C3F3401240EAC200C3F37A
:10217000001340EA031000F01F0006F0EDFAB6F875
:10218000BC2796F8EC35D6F8141696F8F088DFF8E8
:10219000E0C2500000F00200C3F380030343C2F327
:1021A000400043EA800302F008000343C2F38000CA
:1021B00043EA0013C2F3801043EA401301F4E070D5
:1021C0001843C2F3001340EA4320C2F3401340EA2D
:1021D0008320C2F3002340EAC32001F47F2303439A
:1021E00001F480100343C2F3402043EA405301F05E
:1021F0000071C2F380220B43002043EA82634FF058
:10220000010E0246424504D306F0AFFA94F82805C1
:10221000B7E61CF8011B0EFA01F119421CBF0EFAB9
:1022200002F108430132EDE70023B4F85015A4F899
:102230000C3901220A420CD101335200092B92B20F
:10224000F8D1022006F0B7FAB4F80C0906F084FAC7
:10225000AAE69BB2013B072B05D8DFE803F0080A8A
:102260000C0F111315170123A4F80C39E9E7022309
:10227000FAE74023F8E74FF48073F5E78023F3E7AC
:102280002023F1E71023EFE70823EDE70423EBE732
:10229000122006F090FA754BB5F90E095B8CB3F578
:1022A000806F88BF4FF0080890FBF8F080B206F00E
:1022B00053FAB5F9100990FBF8F080B206F04CFA29
:1022C000B5F9120990FBF8F080B206F045FAB5F8BE
:1022D000140906F041FAB5F8160906F03DFAB5F80A
:1022E000180906F039FAB5F81A0906F035FAB5F802
:1022F0001C0906F031FAB5F81E09A7E7102006F010
:102300005AFADFF870914FF00F0808F1FF3819F80A
:10231000010B5FFA88F806F0EFF9B8F1FF0FF4D17E
:1023200042E694F82009DFF85091400000F0FE00EA
:1023300006F041FA4FF0000894F820399845BFF4B0
:1023400033AE39F8020B06F007FA08F10108F3E79B
:10235000062006F030FAB4F8220906F0FDF9B4F8C8
:10236000240906F0F9F9B4F818066FE7062006F01C
:1023700022FAD4F8980506F0F8F9B4F8280965E7C8
:10238000042006F018FA002070E2072006F013FA85
:10239000B4F8C005FF28A8BFFF20C0B206F0ACF912
:1023A000D4F8C4384FF6FF784345A8BF434623EA24
:1023B000E37080B206F0D0F9B4F82C0906F0CCF93D
:1023C00094F83331D4F8B00843B10A235843404558
:1023D000A8BF404620EAE07080B237E700F30F0064
:1023E000FAE7022006F0E7F994F88E0106F084F986
:1023F00094F88D01C5E5022006F0DDF9A08925E7F6
:102400000B2006F0D8F9D5F82036187806F074F9C4
:10241000D5F82036587806F06FF9D5F820361879B7
:1024200006F06AF9D5F82036587906F065F9D5F83E
:102430002036987906F060F9D5F82036D87906F07C
:102440005BF9D5F82036987806F056F9D5F820369D
:10245000D87806F051F9D5F82036588906F07CF97D
:10246000D5F82036187A8CE5005400400000002092
:10247000510D0020D40B0020C80900200000C842E4
:1024800000007A44212006F096F9D4F8A4361B788F
:10249000022B4FF000087DD11FED089A5FED088AEE
:1024A000B2EE048AD6F8A43603EB880393ED090A4A
:1024B00020EE080A0CF0D4FB80F30800C0B206F04E
:1024C0001BF9D6F8A43603EB880393ED0C0A20EE33
:1024D000090A0CF0C5FB80F30800C0B206F00CF945
:1024E000D6F8A43603EB880393ED0F0A20EE280AF2
:1024F0000CF0B6FB80F30800C0B208F1010806F04A
:10250000FBF8B8F1030FCDD1B8F1070FD4F8A4361A
:102510002AD193ED120A20EE080A0CF0A1FB80F3F9
:102520000800C0B206F0E8F8D4F8A43693ED130A18
:1025300020EE080A0CF094FB80F30800C0B206F00D
:10254000DBF8D4F8A43693F8503000EE103AB8EE29
:10255000400A0CF085FBFF28A8BFFF20C0B206F0A0
:10256000CBF84FF00808CFE74344587806F0C4F89A
:10257000D4F8A4364344187B06F0BEF8D4F8A43649
:10258000434408F10108D87D06F0B6F8B8F10B0F06
:10259000BAD109E5D4F8A4364344587806F0ACF82B
:1025A000D4F8A4364344187B06F0A6F8D4F8A43631
:1025B000434408F10108D87D06F09EF8B8F10B0FEE
:1025C000E8D1F1E42F2006F0F6F8DFF83C8418F8A3
:1025D000010B00283FF4E8AC06F08EF8F7E7012085
:1025E00006F0E9F8D4F8A4361878CAE4502006F0CA
:1025F000E2F8DFF818A44FF000094FF00C0BD4F804
:10260000A43603EB890809F1010998F87D300BFB2A
:1026100003A393F8500006F06FF898F87E0006F0D8
:102620006BF898F87F0006F067F898F8800006F0DD
:1026300063F8B9F1140FE2D1B6E4482006F0BBF814
:102640004FF000094FF0060AD5F8A4360AFB093806
:1026500009F1010998F8D20006F04EF898F8CD007B
:1026600006F04AF898F8CE0006F046F898F8CF0041
:1026700006F042F898F8D00006F03EF898F8D1003D
:1026800006F03AF8B9F10C0FDED18DE40223029383
:102690004FF0000A4FF0010BD949D94B94F8F008DC
:1026A000CB1A83420CDB029B012B3FF47DAC5FFA1B
:1026B0008AF006F080F8012302934FF0000BEBE75D
:1026C00011F8010B00230C2202FB03F8CD4A18F885
:1026D00002C0844503D001331C2BF4D1DDE7C94B84
:1026E00003919844D8F804000AF06AF80399034665
:1026F000BBF1000F10D08244CFE7D8F8040010F8E7
:102700000900CDE9031305F0F7FFDDE9031309F133
:1027100001094B45F1DCC0E7D946FAE7DFF8ECA246
:1027200094F8F008DFF8D89206F045F84FF000086A
:102730004FF00C0B0AF1480294F8F0389845BFF4BA
:1027400033AC19F8010B00210BFB01F313F802C0A5
:10275000844505D001311C29F6D108F10108EBE7C9
:10276000534493F8500005F0C7FFA64AF5E716203A
:1027700006F021F8B6F8440105F0EEFFB6F8D000F7
:1027800005F0EAFFB6F8D20005F0E6FFB6F8D4008F
:1027900005F0E2FFB6F8860105F0DEFF002005F047
:1027A000ABFF002005F0A8FF002005F0A5FF96F87C
:1027B000330105F0A1FF96F8400105F09DFF0020D0
:1027C00005F09AFFD6F8A436B3F95A000A2390FB15
:1027D000F3F080B205F0C0FF96F8280105F08CFFF9
:1027E00096F82C0105F088FF96F82B0105F084FF80
:1027F00096F82D01FFF7C5BB082005F0DCFF4FF070
:1028000001085FFA88F008F1010805F075FFB8F1DA
:10281000090FF6D1FFF7C8BB082005F0CCFF002058
:1028200005F09AFF002005F097FF002005F094FFC7
:1028300034E4042005F0BFFFD4F8A436B3F85E00FA
:1028400005F08AFFD4F8A436B3F85C00FEE4DFF8A4
:10285000C0810C2005F0AFFFD8F8AC0705F085FF6C
:10286000D8F8B00705F081FFD8F8B40705F07DFF70
:10287000FFF79ABB042005F09EFFA068F6E706204C
:1028800005F099FFB4F8E80005F066FFB4F8EA0037
:1028900005F062FFB4F8EC00D8E4042005F08BFFEB
:1028A00094F8280105F028FF94F82C0105F024FF86
:1028B00094F82B0105F020FF94F82D01FFF761BB80
:1028C000072005F078FFB4F82E0105F045FFB4F8B5
:1028D000300105F041FF94F8320105F00DFFB4F826
:1028E0003401B3E4012005F066FF6079FFF749BBCE
:1028F0000C2005F060FF94F83E0105F0FDFEB4F8F1
:10290000480105F029FFB4F8440105F025FFB4F8AB
:10291000460105F021FF94F83F0105F0EDFEB4F803
:102920004A0105F019FFB4F84C018FE4042005F0CA
:1029300042FF94F8840105F0DFFE94F8850105F06C
:10294000DBFEB4F8860181E494F82009DFF8C48046
:1029500000EB4000C0B205F02EFF4FF0000994F8E4
:102960002039994508F10208BFF41EAB98F84C01D4
:1029700005F0C2FE98F84D0100EB800000EB8000EE
:1029800000F2EE2005F0E8FE09F10109E7E7012079
:1029900005F011FF94F84001FFF7F3BA082005F0A5
:1029A0000AFFDFF874904FF0000819F8010F08F1E2
:1029B000010805F0A1FEB8F1080FF6D1FFF7F4BA4F
:1029C000102005F0F8FE607905F096FEA06805F08D
:1029D000CCFE94F83E0105F08FFEB4F8E80005F057
:1029E000BBFEB4F8EA0005F0B7FEB4F8EC0005F061
:1029F000B3FEB4F82E0105F0AFFEB4F8300125E4C3
:102A0000510D00203815010805150108F0140108C2
:102A100000F0FF1F600400209505002094F82E09A7
:102A2000DFF80084C0EBC000C0B205F0C4FE4FF078
:102A3000000908F5136A4FF00C0B98F99801002370
:102A40000BFB03F212F90A20824200F02D840133BD
:102A5000042BF5D109F10109B9F1040F08F10808B7
:102A6000EBD1FFF7A1BADFF8A8830D2005F0A3FE94
:102A700009F0B0FC05F040FEB8F8240005F075FE42
:102A8000D8F8300005F071FE94F8613994F86009C7
:102A9000984296BF181AC0F1800000231844D4F859
:102AA00064391844E2E605F07DFE8046842005F096
:102AB00082FE404605F059FED54B1A6B08F18003A3
:102AC00093428CBFA2EB08094FF0800909F0AEFCDD
:102AD0004A46404608A909F047FD0DF12008814605
:102AE0004FF0000ACA45BFF65FAA18F8010B05F0BF
:102AF00003FE0AF1010AF5E7132005F05CFEDFF89A
:102B000028934FF0000819F8010B08F1010805F0AF
:102B1000F3FDB8F10B0FF6D1002005F026FE32E4EC
:102B200005F036FEFFF740BA05F03CFE05F03AFE30
:102B3000FFF73ABA022005F03EFEB54BD88BFFF7FF
:102B400085BB032005F037FE94F8ED0505F004FE83
:102B5000AF4B187CFFF715BA4E2B3FF6C2A9222BBC
:102B600003D808F043FEFFF71FBA233B4FF00008DD
:102B70002B2BF6D801A252F823F000BFE52D000858
:102B8000632B00085B300008632B000869300008E5
:102B9000632B0008A5300008632B0008632B000896
:102BA000632B0008C7300008632B0008632B000864
:102BB000632B0008632B0008632B00087B3100089F
:102BC000632B0008652E0008632B0008F73100080E
:102BD000632B000883300008632B0008632B000878
:102BE000E92C0008632B0008CF2C0008632B000899
:102BF000632B000885310008632B0008B5310008FD
:102C000075320008632B0008632B0008632B000853
:102C100031300008632B0008E12C0008632B00080A
:102C20000B310008632B00082531000894F8EC35BF
:102C30005B070FD405F0A2FD032828BF002084F80D
:102C40002805FEF739FCFEF793FA03E005F0A0FD36
:102C5000A4F89A06002005F0AEFDFFF7A5B99AF892
:102C60000580B8F1250F00F2D0800DF120094FEA60
:102C70005808CB464FF0000AC2450CD3654943467D
:102C80000022084690450DDC0022122B10D10123B2
:102C900084F88C39DEE705F07BFD0AF1010A2BF898
:102CA000020BE9E739F802CB21F802CB0132E9E760
:102CB00020F813200133E8E705F06AFDD4F8A48674
:102CC000A8F85E0005F064FDA8F85C00C2E705F016
:102CD00055FD84F88E0105F051FD84F88D01B9E7AA
:102CE00005F056FDA081B5E7D4F8A48605F046FDB1
:102CF00088F8000003F002FEACE7D4F8A48698F848
:102D00000030022B5DD19FED449ADFED448A08F13B
:102D1000240908F1300AB2EE048A05F02FFD07EE0F
:102D2000900AF8EE677A87EE887AA9EC017A05F0C6
:102D300025FD07EE900AF8EE677A87EE897A89ED2D
:102D4000027A05F01BFD07EE900AF8EE677ACA4595
:102D500087EEA87A89ED057ADFD108F104094FF0F2
:102D6000030ABAF1070F1FD105F008FD07EE900A1C
:102D7000F8EE677A87EE887A88ED127A05F0FEFC25
:102D800007EE900AF8EE677A87EE887A88ED137A74
:102D900005F0F4FC88F850000AF1010ABAF10B0FB3
:102DA00009F10109DDD155E705F0E8FC89F80000DB
:102DB00005F0E4FC89F80B0005F0E0FC89F816004A
:102DC000EAE708F10B0905F0D9FC08F8010F05F056
:102DD000D5FC88F80B0005F0D1FCC14588F8160039
:102DE000F1D137E705F0CAFC132880460DD8D4F896
:102DF000A49605F0C3FC0A4A0023117A814215D03B
:102E000001331C2B02F10C02F7D108F0EFFC21E793
:102E100000000020C80D00200000C84200007A44D5
:102E20003815010860040020421E0108DC4A0C210C
:102E300001FB032309EB880893F8483088F87D30BC
:102E400005F09CFC88F87E0005F098FC88F87F006F
:102E500005F094FC494688F8800009F17D0008F0EF
:102E6000C5FDF7E605F08AFC0B288146CDD8D4F8DD
:102E7000A48605F083FC0328C7D8062303FB098832
:102E800088F8D20005F07AFC88F8CD0005F076FCD1
:102E900088F8CE0005F072FC88F8CF0005F06EFCD3
:102EA00088F8D00005F06AFC88F8D100D2E69AF8DC
:102EB0000530092BA9D9D5F8208605F05FFC88F8E4
:102EC000000005F05BFC88F8010005F057FC642861
:102ED000A8BF642088F8040005F050FC6428A8BF4F
:102EE000642088F8050005F049FC88F8060005F024
:102EF00045FC642828BF642088F8070005F03EFCE4
:102F000088F8020005F03AFC88F8030005F040FC60
:102F1000D5F8D838A8F80A005B790A2B7FF69AAE64
:102F200005F02CFC88F8080094E605F031FC6FF4FD
:102F3000AF6C00EB0C039BB2C62B98BFA4F8440106
:102F400005F026FCA5F8D00005F022FCA5F8D2007B
:102F500005F01EFCA5F8D40005F01AFCA5F88601C2
:102F600005F00CFC05F00AFC05F008FC05F006FC79
:102F700085F8330105F002FC85F8400105F0FEFB01
:102F800005F006FCD5F8A43600EB80004000A3F85D
:102F90005A0005F0F3FB85F8280105F0EFFB85F8F2
:102FA0002C0105F0EBFB85F82B0105F0E7FB85F81C
:102FB0002D014FE6DFF8F0914FF0000805F0E8FB37
:102FC00008F10108B8F1080F29F8020BF6D141E623
:102FD00094F8EF35002B7FF43DAE05F0D9FB714B33
:102FE00084F8ED0501221A7434E605F0D1FB6D4B2F
:102FF000D8832FE694F8EC3558073FF52BAEFDF754
:10300000E1FE1EE694F8EC3559073FF523AE4FF488
:10301000C873A4F852351DE694F8EC355A073FF50D
:1030200019AE94F8D33843F0040384F8D33811E68A
:1030300045F2082009F0ECF9062007F08FFF012384
:10304000C72084F8A63907F089FF002384F8613986
:1030500084F86039C4F86439FCE5C4F8088005F0E8
:10306000A1FBFDF7D1F8F5E505F092FBA4F8E80027
:1030700005F08EFBA4F8EA0005F08AFBA4F8EC004A
:10308000E8E505F07BFB84F8280105F077FB84F880
:103090002C0105F073FB84F82B0105F06FFB84F81D
:1030A0002D01D7E505F074FBA4F82E0105F070FBA7
:1030B000A4F8300105F062FB84F8320105F068FBEA
:1030C000A4F83401C6E505F059FB84F83E0105F08B
:1030D0005FFBA4F8480105F05BFBA4F8440105F090
:1030E00057FBA4F8460105F049FB84F83F019AF824
:1030F0000530082B7FF6AEAD05F04AFBA4F84A0177
:1031000005F046FBA4F84C01A4E505F037FB84F874
:10311000840105F033FB84F8850105F039FBA4F840
:10312000860197E59AF80580B8F1380F3FF66DAE45
:10313000DFF878904FF0000A40F6CA0B0323B8FB83
:10314000F3F8C24509F10209BFF484AD05F016FB9E
:1031500089F84C0105F01CFB5845A8BF584640F2C1
:10316000EE239842B8BF18461922B0FBF2F01E3881
:1031700089F84D010AF1010AE3E705F0FFFA84F846
:10318000400167E5DFF828904FF0000805F0F6FAF7
:1031900008F10108B8F1080F09F8010FF6D159E557
:1031A000F014010800000020EE0D00206004002053
:1031B0009505002005F0E2FAC4F8088005F0F2FA5F
:1031C000FDF722F805F0DAFA84F83E0105F0E0FA9E
:1031D000A4F8E80005F0DCFAA4F8EA0005F0D8FA53
:1031E000A4F8EC0005F0D4FAA4F82E0105F0D0FA0A
:1031F000A4F830012EE59AF805304FF00708B3FB2C
:10320000F8F8C8EBC8029B1ADBB2002B7FF4FDADC7
:103210005FFA88F808F1FF385FFA88F8B8F1FF0F15
:103220003FF418AD05F0AAFAD4F8E02840B2002324
:10323000911C11F933C0844503D00133042BF8D11C
:10324000E3E502EBC30989F8020005F0A1FAA9F849
:10325000040005F093FA89F8060005F08FFA89F862
:10326000070005F08BFA89F8090005F087FA89F85C
:103270000800CFE71B4B4FF480421A85012384F8E6
:10328000A739E7E40A2005F0C3F8FEF79DBE21F850
:10329000023B0132FEF7AEBE52F8040B0068013368
:1032A000C0F800C0FEF7B5BEC0B205F025FAB8F808
:1032B0009A0105F051FA98F89C0105F01DFA98F86A
:1032C0009D0105F019FA98F89F0105F015FA98F894
:1032D0009E0105F011FAFFF7BDBB29B0BDEC048BD0
:1032E000BDE8F08F0008004808B5FEF7E5F8FDF7E7
:1032F0003FFFBDE80840012005F02EB92DE9F04F51
:10330000B44DD5F8C42795F88C6A02F59C43203358
:103310008BB0C5F8883A002E00F0DF80D5F8903ADF
:103320009A4202D9013E85F88C6AAA4CD4F8C0872B
:1033300018F48053019305D0D4F81436D80701D47B
:10334000FDF7E4F9D4F8AC26937A23B304EB4303F6
:10335000127BB3F966351AB1C3F53B6308331BB270
:10336000A3F57A73B3F57A7FA8BF4FF47A7323EA93
:10337000E37307EE903ADFED986AF8EEE77A87EEAE
:10338000A67ADFED967A67EE277AFCEEE77A17EEFB
:10339000903AA5F82C3918F4807F00F03081D4F8E9
:1033A000C4178F4A94F8EA36914240F2258113B946
:1033B000012384F8EA3694F8096794F8EC25D4F8E8
:1033C00014A6012E02F0040B14BF032700274FF0B0
:1033D0000009A2E1072C98BF195D82487B6B88BF6A
:1033E00021469847032C19D8C0B1D5F8AC3603EB69
:1033F00084039A8FDB8F801A9B1A08FB00F090FBE6
:10340000F3F040F2EE2300F57A709842B8BF184608
:1034100040F6CA039842A8BF184680B205EB4404A0
:103420000136A4F8940A95F820B9D5F8AC36F4B270
:10343000A345CFD8D5F8C027D5F85C05019042F256
:1034400001010A40039208D095F8392685F83826FC
:10345000654A92F8391082F8381095F83886B8F134
:10346000000F04D0604A92F8388088F0010895F87F
:10347000B97A01995D4C0F2285F8B82A0322B7FB6F
:10348000F2F202EB420201F51671BA1AD2B20591BC
:10349000A4F5AD61049204F2525904F29C5A2246FA
:1034A000002602915E451CDB4A4E96F8B83A0F2B77
:1034B0006DD1D6F814365B0169D4D6F85C35D6F8F0
:1034C000F426C6F8F0369B1AC82B02D9012386F8D9
:1034D0000937013786F8B97A27E7434F4FF47A78EE
:1034E000A1E7B8F1000F33D0414931F91600998AAC
:1034F00080B281422ED8D98A81422BD30599CAF84D
:103500000010039900B2D9B1049929F81100029969
:1035100091F84C1B29B9022F12D90298012180F889
:103520004C1BB9F80010B9F802000844B9F80410AF
:103530000844304900B221F81600032190FBF1F055
:1035400022F8020B013609F106090AF1040AA9E77B
:103550004046CCE7DAF800100198814201D9108882
:10356000CFE7F0B2CDE9063205F058F9032EDDE9D8
:103570000632C6DCDFF85CE04FF0010C9EF8B81AAA
:103580000CFA06FC21EA0C018EF8B81AB9E7164BC2
:10359000012283F8392083F83820D6F85C35D6F834
:1035A000F026C6F8F4369B1AD6F8EC26934202D9D8
:1035B000002386F809374FF0000807E05FFA88F02B
:1035C00005F02CF924F8020B08F10108C345F5DCDD
:1035D0007FE700BF6004002000007A4400C07F4401
:1035E000404B4C00800D002000000020C809002046
:1035F000F40E0020AE0F0020002B7FF4DCAE019B08
:10360000B4F96E95002B00F0E580B4F84431B4F8BD
:10361000DE20991A494580F2E08013444B4540F37F
:10362000DC80FDF753F8FDF75FF84FF0000AAC4B74
:1036300093F83AB094F8EC35590740F1D58018F07A
:10364000100F00F0D18094F8D338DA0600F1CC8066
:10365000BBF1000F00F01D8194F88E31BAF1000F1C
:1036600040F006813BB1D4F85C15D4F81C365B1AE7
:10367000002BC0F2B580102004F048FF012384F82D
:103680006C3BB1E0BBF1000F0DD0012E05D0052041
:10369000FCF7CAFD022384F8ED35002FAFD0384681
:1036A00004F034FFABE71AF0806F4FF4806005D070
:1036B00008F0C8FF0023C4F8F836EEE708F0B4FFBE
:1036C000F8E7012E29D1052125E0012E04BF0521AF
:1036D00084F80817BBF1000F0FD0D5F8681BB1F9BB
:1036E0000E10A5F86A15A5F86C15A5F86815D5F89B
:1036F000E4164988A5F86E156746D4F85C05D4F839
:10370000FC16814202D3BBF1000F60D142F210716E
:10371000C4F80417032184F8081794F808C794F82C
:10372000EC05BCF1050FB8D801A151F82CF000BF91
:1037300085360008C3360008CB3600084937000834
:1037400079370008B137000840F0020085F8EC0531
:10375000FCF7DCFFD5F85C05D5F804170144C5F883
:103760000017042185F808174FF4806008F05CFF0B
:103770000520FCF765FDD0E7012E11D1D4F85C35AA
:10378000D4F80017994288D2554991F83A1011B9E6
:103790001AF0010F81D120F0020084F8EC0592E7C5
:1037A000D4F85C25D4F804371344C4F8003774E720
:1037B000D5F8E406D5F85C15C08885F8EB96642347
:1037C00003FB0011C5F8F81685F80897CCE7012E21
:1037D000A3D062E7B4F8463120E74FF0010A26E7AC
:1037E000FCF794FF84F86CAB94F88C31019394F857
:1037F0008D01B4F846C1B4F848E13A4900231E46A9
:1038000031F9027BB6086745C4BF66F07F06F6B2A1
:1038100001337745B8BF46F04006042BF0D194F849
:103820006D3BB34239D194F86E7BF92F03D8013741
:10383000FFB284F86E7B84F86D6B08F00408BBF16E
:10384000000F40F0CC84D4F81436DB0738D5BAF139
:10385000000F24D194F8EC35D80706D5590702D4C7
:10386000012384F8B035FCF783FF142F53D140E0D7
:103870003BB1D4F85C154FF47A7013FB0013C4F815
:103880001C3694F86C3B002BAED004F02DFE0023C8
:10389000F5E6BAF1000FF4D1EDE60027C9E7D4F858
:1038A000FC350A2BE1DCB4F850355A07DDD494F826
:1038B000EF35002BD9D1FCF709FFFCF715FFD2E754
:1038C00094F8EC355B07D0D594F83836002BCCD083
:1038D00010B1FCF71BFFC8E7BAF1000FC5D1F8E73C
:1038E00000000020C8090020019B13B17D2E00F0CC
:1038F000808494F8EC355F070DD4572E40F0CD80CE
:10390000D4F8EC384FF47A7213F00803A4F8542575
:1039100001D1A4F81836B8F1000F40F0E480D4F8D3
:10392000A4660023C4F8143606F17F0706F1CF0819
:103930004FF0010917F8010C394604F02DFE40B193
:1039400017F8023CD4F8142609FA03F31343C4F819
:10395000143604374745EDD1B24F06F1CE0B4FF088
:103960000C0806F58B764FF000094FF0010A1BF8A2
:10397000010C594604F010FEE8B19BF804109BF8C6
:10398000023008FB0140013BD0F8B42603EB4303AF
:103990003B4493420FD09BF80320C0F8B43694F810
:1039A000753B80F8B0260AFA01F123EA0103C0F85A
:1039B000B89684F8753B0BF1060B5E45D7D1D4F869
:1039C0005C35019394F838360293019BD4F820B605
:1039D000954F03F5FA73002603937968002900F0E8
:1039E000388191F800A0BAF1000F00F03281BA6876
:1039F000019B9A1A002A0ADB039B94F8752BBB6083
:103A0000012303FA06F022EA000284F8752B029BD8
:103A1000002B00F01E813A78487894F8758B0432B8
:103A2000D2B2002840F0888304EB4202B2F9680564
:103A3000B4F8442102F1C80C604540F3F98091F8D4
:103A4000029048FA06F1CA0700F10381B9F1000FAC
:103A5000CCBF0220012004F07FFD0AF1FF311329C1
:103A600000F28081DFE811F0710185019001A00171
:103A7000B801C0011E027902E0020E033A037E0182
:103A8000A001AD01C0011E027902E40141029E02C3
:103A90000B2004F03BFD84F86E7BB8F1000F01D0E1
:103AA0005A2E17D0A6F15603082B57D8DFE803F09B
:103AB000545656565652560550000123DEB2013B6D
:103AC00084F82835FDF7F8FCFDF752FB304604F08A
:103AD00043FD20E794F86F3B4BB1002384F86F3B24
:103AE000012384F8703B94F8713B53B91FE094F8BC
:103AF000713B83F0010384F8713BABB10C2004F0FF
:103B000005FD94F8EC35580711D5B4F846314B450E
:103B10000DDAD4F8143613F0010302BF3222A4F8F0
:103B2000722B84F8713B02E00D2004F0EFFCD4F816
:103B30001436D90366D594F8743B2BB994F86F3BCF
:103B400013B93223A4F8723B012384F8743BE6E6F0
:103B50000323B3E70223B1E7FFF7C6FB334B93F828
:103B60003A3043B16F2E02D1FCF702FED3E6019B3F
:103B70000BB17E2EF8D0972E04D14FF4C873A4F861
:103B80005235C8E6A72E06D194F8D33843F0040383
:103B900084F8D338BFE60023B73E0993072E3FF6DB
:103BA000BAAE01A353F826F0FF3B0008173900080E
:103BB0001739000817390008C93B000817390008F1
:103BC000F73B0008CF3B00080223002201E000235E
:103BD0000222D5F8A416B1F85C000244A1F85C20DA
:103BE000B1F85E201344A1F85E30FFF77DFB00239F
:103BF00085F86E3B8FE600236FF00102E9E76FF076
:103C00000103E2E794F86F3B002B3FF488AE94F891
:103C1000EC3513F0040302BF84F86F3B012384F8F2
:103C2000703B7CE688160108100B00200000002085
:103C3000C83A904203DA8A78C2F1000901E7012309
:103C4000B34028EA030384F8753B019B03F5FA733C
:103C5000BB600136042E07F10C077FF4BEAED4F82A
:103C60001456AB0706D4D4F8C037DF0507D594F84F
:103C7000EB3623B1D4F8EC389E0700F19682012090
:103C800008F0D2FC0123690740F19A82002B00F072
:103C90009782012008F0C8FCB4F8BC379A0704D416
:103CA0000220FCF713FD08F0CDFC94F8EC355B071F
:103CB00008D4B4F8BC3703F044031BB1B4F8183689
:103CC000A4F89A36D4F8EC3813F00A0F2AD0EF068D
:103CD00040F17A82B4F8BC375E0706D4042008F0BD
:103CE000B1FCB4F81836A4F89A36A80640F17082F0
:103CF000B4F8BC37590602D4402008F0A3FC6A0689
:103D000042BFC54AB4F81836D38215F0080307D06D
:103D100094F8F83533B9C04AB4F81836D382012381
:103D200084F8F8352B054FF4807040F1558208F087
:103D300089FC6379082B02D00E2B40F06182402071
:103D40000BB0BDE8F04F08F06FBC9BF800304B445F
:103D5000FA2BA8BFFA2323EAE3738BF80030584606
:103D600004F040FC0123B34048EA030884F8758B53
:103D70006FE79BF801304B44642BA8BF642323EA10
:103D8000E3738BF80130EAE79BF803304B44642B74
:103D9000A8BF642323EAE3738BF80330D4F8781BBD
:103DA000584604F03BFCDDE79BF8051049446429C4
:103DB000A8BF642121EAE171BAF10D0F8BF805105B
:103DC000D0D09BF804304B44642BA8BF642323EA73
:103DD000E3738BF80430C5E79BF806304B4483F35C
:103DE00008038BF80630BDE7D4F87C0B0178022974
:103DF00043D107EE909AF8EEE76AF2EE047A86EE87
:103E0000A77AD0ED0A7A37EE277AB5EEC07AF1EECE
:103E100010FA2FD4DFED827AB4EEE77AF1EE10FAE1
:103E2000D8BFF0EE477AC0ED0A7ABAF10F0F99D0F9
:103E3000D4F87C1B0B78022B2BD107EE909AF8EE6E
:103E4000E76AF2EE047A86EEA77AD1ED097A37EEC8
:103E5000277AB5EEC07AF1EE10FA17D4DFED707A5A
:103E6000B4EEE77AF1EE10FAD8BFF0EE477AC1ED82
:103E7000097A77E7DFED6B7AD5E781784944C8297D
:103E8000A8BFC82121EAE1718170CEE7DFED657A34
:103E9000EDE74B784B44C82BA8BFC82323EAE37354
:103EA0004B705FE7D4F87C0B0178022940D107EE14
:103EB000909AF8EEE76ADFED5A7A86EEA77AD0EDAF
:103EC0000D6A37EE267AB5EEC07AF1EE10FA2CD4F0
:103ED000B4EEE77AF1EE10FAD8BFF0EE477AC0ED13
:103EE0000D7ABAF1100F3FF43DAFD4F87C1B0B787C
:103EF000022B29D107EE909AF8EEE76ADFED487AB7
:103F000086EEA77AD1ED0C6A37EE267AB5EEC07A46
:103F1000F1EE10FA15D4B4EEE77AF1EE10FAD8BF4C
:103F2000F0EE477AC1ED0C7A1CE7DFED3E7AD6E77A
:103F3000417B4944C829A8BFC82121EAE1714173E6
:103F4000CFE7DFED387AEDE70B7B4B44C82BA8BFFA
:103F5000C82323EAE3730B7304E7D4F87C0B0178DE
:103F6000022944D107EE909AF8EEE76ADFED2B7A4A
:103F700086EEA77AD0ED107A37EE277AB5EEC07AC2
:103F8000F1EE10FA30D4DFED267AB4EEE77AF1EEF6
:103F900010FAD8BFF0EE477AC0ED107ABAF1110FDF
:103FA0003FF4E0AED4F87C1B0B78022B2BD107EE4C
:103FB000909AF8EEE76ADFED197A86EEA77AD1EDEE
:103FC0000F7A37EE277AB5EEC07AF1EE10FA17D4F1
:103FD000DFED137AB4EEE77AF1EE10FAD8BFF0EE27
:103FE000477AC1ED0F7ABDE6DFED0E7AD4E7017EA8
:103FF0004944C829A8BFC82121EAE1710176CDE76B
:10400000DFED087AEDE7CB7D4B44C82BA8BFC82372
:1040100023EAE373CB75A5E60000002000007A4494
:104020000000C84200000000D4F87C1B0B78022B73
:104030001FD107EE909AF8EEE76AF2EE047A86EE68
:10404000A77AD1ED0B7A37EE277AB5EEC07AF1EE8A
:1040500010FA0BD45FED0E7AB4EEE77AF1EE10FAB7
:10406000D8BFF0EE477AC1ED0B7A7BE65FED137AAD
:10407000F9E7CB784B44C82BA8BFC82323EAE373E6
:10408000CB706FE6D4F87C1B0B78022B1DD107EEAA
:10409000909AF8EEE76A5FED1E7A86EEA77AD1ED88
:1040A0000E6A37EE267AB5EEC07AF1EE10FA09D430
:1040B000B4EEE77AF1EE10FAD8BFF0EE477AC1ED30
:1040C0000E7A4FE65FED297AF9E78B7B4B44C82BDC
:1040D000A8BFC82323EAE3738B7343E6D4F87C1BA1
:1040E0000B78022B1FD107EE909AF8EEE76A5FED8E
:1040F000357A86EEA77AD1ED117A37EE277AB5EECA
:10410000C07AF1EE10FA0BD45FED3B7AB4EEE77AA9
:10411000F1EE10FAD8BFF0EE477AC1ED117A21E640
:104120005FED407AF9E74B7E4B44C82BA8BFC8230C
:1041300023EAE3734B7615E601287FF413AEBAF158
:104140000C0F7FF40FAE04EB42028978B2F96805D8
:1041500040F633029042A8BF1046B0F5617FB8BF69
:104160004FF46170A0F561704FF49662B2FBF1F20A
:10417000B0FBF2F094F8A826C0B282423FF4F2AD50
:10418000032894BF0246022285F8A8260AFB0252A1
:1041900002F22A520490C5F82026FCF735FB049859
:1041A0000130C0B204F0D8F9DCE5B4F8BC37D80768
:1041B00004D40120FCF78AFA08F044FA002362E5EF
:1041C000022008F031FA70E5042008F02DFA8CE5A1
:1041D000402008F029FA92E508F026FAA9E5142F04
:1041E0007FF499AB94F8EC755F2E07F004077FF429
:1041F0007BAB002F3FF44CACFCF788FAFFF779BBA0
:104200000BB0BDE8F08F1649D1F8883043F4700345
:10421000C1F88830134B1A6842F001021A605868DE
:10422000114A02405A601A6822F0847222F48032E5
:104230001A601A6822F480221A605A6822F4FE0278
:104240005A60DA6A22F00F02DA62186B074A0240FB
:104250001A6300229A604FF000638B60704700BFC2
:1042600000ED00E0001002400CC07FF8CCFC00FF25
:1042700080EAE073A3EBE0738B4206DB002801DDEC
:10428000401A704702D008447047002070472DE95B
:10429000F041824CD4F8803BA0EB030842F20F734C
:1042A00098452DED048B40F2EB8044F62063984551
:1042B0007B4DC4F8800B81BF0023C4F88C3BC4F84D
:1042C000903BC4F8943B95F83B3043B394F8EC250D
:1042D00012F0040223D1734BC4F88C2B0021196017
:1042E00040F2DC50C4F8902BC4F8942B85F83B20A6
:1042F000C4F89C2BC4F89C25A3F24C42A3F5876319
:10430000694EA4F88C054FF07E50106056609160A5
:10431000D060116118605E609960D8601961D4F84E
:10432000A06BD4F8A43BB3426ED0F31A08EE903AD7
:10433000DFED5E7A5E4BF8EE688A68EEA78AD3ED11
:10434000007AF5EEC07AF1EE10FA40F29D8013ED9E
:10435000017AB5EEC07AF1EE10FA40F2958087EE60
:10436000270AB5EEC00AF1EE10FA40F28D80DFEDBB
:10437000517A93ED018A38EE278A0AF09FFBDFED30
:104380004E7A28EE000A20EE270ADFED4C7A20EE66
:10439000270AF6EE007AF4EEE78AF1EE10FA31DC45
:1043A000B4F9A83B0F2B72D1B4F9AA3B444A02EBF3
:1043B000830201331BB20F2B08BF0023A4F8AA3BD2
:1043C000D2ED007A0E23A4F8A83B3E4B93ED017A80
:1043D00077EE877A30EE670A83ED000AB4F9223966
:1043E000002BB8BF5B429BB21E2B07D8B4F924390F
:1043F000002BB8BF5B429BB21E2B4CD9324BEB60FB
:10440000FCF72EF9C4F8A46BD4F8903B002BC9BF7D
:10441000D4F88C2B9FED2D9A07EE902AB8EEE77A10
:10442000C4BF07EE903AF8EEE77A294BC8BF87EE93
:10443000279A9FED287AA3EC019AD3ED007A69EED2
:10444000277AF4EEC77AF1EE10FA08D49FED227ABB
:10445000F4EEC77AF1EE10FAD8BFB0EE677AB4F98D
:10446000003C1E4E0027052B86ED007AC4F88C7B9D
:10447000C4F8907BC4F8947B36DC0133A4F8003C8C
:10448000BDEC048BBDE8F0819FED100A81E7144B71
:10449000D3ED007A99E74FF08043B0E76004002045
:1044A00000000020F80F0020CDCCCC3D6F12833AE5
:1044B000680A0020339388438E2BEA410000C842EB
:1044C0000C1000204C1000200000A0400000000054
:1044D00054100020000048C4000048445C10002034
:1044E000481000200024744907EE908A1FED036AEB
:1044F00016ED190A56ED039A56ED058AF8EE677A1D
:10450000A6F5C963C7EE866AA6F5C86216ED046A09
:10451000D3ED005AD6ED027A66EE255AA6F2446330
:10452000E5EEA67AD3ED005AC6ED027A66EE255A7C
:1045300077EE877AA5EEA60AD2ED005A26EE256A16
:1045400067EEA67AE6EE269AB0EE407AB6EE006AFC
:10455000A7EE867A30EE270AE7EE268A06ED190ADC
:1045600046ED039A46ED058A0AF07AFB39EEA80A71
:1045700008EE100A0AF074FBB4F9A81BAA8F0E29E2
:1045800002F1010207EE900A12B2A6F1500300F305
:10459000F1800E2ACCBF3A46174603EB8203013165
:1045A000AF87C3ED008AA4F8A81B824F97ED036A7A
:1045B00097ED007AD7ED016A97ED020A57ED045A9C
:1045C00036EE076AB8EEC88A76EE266A38EE408A7A
:1045D00086EE267AF7EE006AA7EE080A87ED047ADF
:1045E00036EEC77A17ED038A87ED020A27EE067AC0
:1045F00017ED056A87ED037A17ED027A37EE067A32
:10460000F8EEE77A77EE255A77EEC87A87EE256AD4
:10461000A6EE278A76EEC66A07ED016A66EE876A1D
:1046200007ED038A47ED026A0AF01AFBB0EE480A6A
:104630000646C4F8080C0AF013FBB4F97436C4F843
:104640009805002BB8BF5B429BB2B3F5487F07F2D9
:10465000AC4780F0AC80B4F97636002BB8BF5B4233
:104660009BB2B3F5487F80F0A28094F8EC25AB7A3A
:1046700097ED007AD4F8488712F0040208BFC4F816
:104680009405002B40F08C80D4F89435181AB0F5BE
:10469000FA7F494BA8BF4FF4FA709842B8BF18464A
:1046A0000521FFF7E5FD98F80430444943438B4268
:1046B00079DB002BB8BF7F33DB11B3F5967FA8BF42
:1046C0004FF49673991B98F80A303D484B43834248
:1046D0006BDB002BB8BF1F335B11B3F5967FA8BF10
:1046E0004FF496732AB198F81500D4F89C2B01FB6F
:1046F0000022B2F5161F3349A8BF4FF416128A42A2
:10470000B8BF0A46C4F89C2B002ABCBF02F5FF5272
:104710001F3203EB623398F8202007EE902A37EE21
:10472000097AF8EEE77A6FF0950167EE877A9FEDE8
:10473000267A67EE877AFDEEE77A17EE902A962AB8
:10474000A8BF96228A42ACBF9B1A5B1A304605214D
:10475000C4F89C3587ED009AFFF78AFD002EB8BF9C
:104760007642C82EC8BF0123C4F82809C8BF85F8FF
:104770003B3085E6B4F8AA1BAA8701310F2A09B29B
:1047800005D1AF87C3ED008AA4F8AA1B0DE703EBA0
:1047900082030F29C3ED008AF6D1A4F8AA7B04E7AF
:1047A000D4F8AC358EE7094B8CE7084B9AE7002329
:1047B000CCE700BFC00B00200CFEFFFF8169FFFFAC
:1047C00061DAFFFF0080DAFF0000003BD4FEFFFF4C
:1047D000D0ED005A9FED2B4A08B535EE840AFBF761
:1047E0003FFEF0EE403AB0EE650AFBF739FE90ED81
:1047F000015AF0EE404A35EE040AFBF731FEF0EEC6
:10480000405AB0EE450AFBF72BFE90ED023AB0EEAF
:10481000405A33EE040AFBF723FEB0EE404AB0EEF6
:10482000430AFBF71DFE65EEC07A20EE236A24EEF4
:10483000847AC1ED017AF0EE467AE5EE077A24EE4D
:10484000233A64EE806AC1ED037AF0EE437AE5EE36
:10485000667AA5EE067AE5EE436A24EE254A64EE12
:10486000E54A65EEA35A81ED004A81ED025AC1ED99
:10487000047AC1ED054AC1ED066A81ED077AC1ED02
:10488000085A08BDDB0FC93F2DE9F04F2DED028B13
:10489000B1B04FF00009FBF793FC18B9FCF792FA9E
:1048A000FCF70AFEBA4DBB4CFCF762FC95F8108C85
:1048B00048F0010385F8103CB74B4FF47002C3F881
:1048C00088200023049305930693236843F48033E0
:1048D0002360236803F400330593049B013304939E
:1048E000059B1BB9049BB3F5A04FF2D1236813F4C9
:1048F000003318BF01230593059B012B40F0018372
:1049000002230693A54B12221A60636863606368F2
:104910006360636843F480636360636823F47C13BB
:104920006360636843F4E8136360236843F0807353
:10493000236023689F01FCD5636823F00303636051
:10494000636843F002036360636803F00C03082BA1
:10495000FAD1069B904EC5F8143C914BF360636A04
:10496000636A43F080736362636943F4FC031CAFC2
:10497000636103238DF87230394641F6FF734FF0BF
:104980009040ADF8703006F0D7FC4FF6FF738548C5
:10499000ADF87030394606F0CFFC8348394606F052
:1049A000CBFC8248394606F0C7FC8148394606F000
:1049B000C3FC39467F4806F0BFFC384603F0F4FFDD
:1049C0001C9B7D4AB3FBF2F3C5F8183C7B4B7C4A39
:1049D000DFF8FCC14FF0000EC5F81CECC3F804E092
:1049E0004FF0E0230DF1740A5A61F02286F823207B
:1049F0000722C3F818E01A61BCE80F003E460FC654
:104A0000BCE80F000FC69CE80F00D5F808B0C5F849
:104A1000C0B786E80F00636943F4002363616369EC
:104A200043F400236361636943F4002363616369B2
:104A300043F4003363614FF0904310221A85202223
:104A40001A8540221A85584A4FF4804393614FF4E7
:104A5000005393614FF40043936176465AF8040C77
:104A60005146013606F068FC062E0AF1080AF5D117
:104A7000544B1C936369DFF85CA14A4843F48023DC
:104A80006361394606F058FC9AF81D200823002A75
:104A900040F03A82434A93614B48C5F8E00804234A
:104AA0003022002100F29A7085F82E3901260BF091
:104AB000BBFB1422002117A885F83C6948F00508C3
:104AC0000BF0B2FB1BF4802F08BF85F8246C85F82F
:104AD000108CE369334E43F48043E361236943F46C
:104AE00080432361636943F480236361736A23F421
:104AF00070037362736A43F4A0037362736A23F0F2
:104B000070637362736A43F0A0637362736A23F025
:104B100070437362736A43F0A0437362336A23F491
:104B200070033362336A43F4A0033362736A23F47D
:104B300070237362736A43F4A023736240F2023BF2
:104B40004FF4604339463046CDE91C3B06F0B2FBDA
:104B500020220123394630464FF480581C928DF8AC
:104B6000743006F0A7FB39463046CDF8708006F069
:104B7000A1FB236943F480432361236923F4804329
:104B80002361124B998821F480510904090C23E018
:104B9000600400200010024000ED00E00020024010
:104BA0000005FA050004004800080048000C004811
:104BB000001000480014004840420F007C10002004
:104BC0003F19010008000102F605002000380040EE
:104BD000C4160108000000209980998889B241EA32
:104BE00008019980198801F4415141F4437141F061
:104BF00003011980998821F470610904090C41F4BA
:104C0000E0619980998B21F400610904090C998372
:104C100007211982198889B2202241F040011980A8
:104C2000B261C6F818806369DFF8B883C5F8E48814
:104C300043F480236361E36943F40013E361236B6E
:104C400023F010032363236B43F010032363736A81
:104C500023F00F037362736A43F004037362736A91
:104C600023F0F0037362736A43F0400373623946C2
:104C70004FF480733046CDE91C3B06F01BFB4FF42C
:104C80000073394630461C9306F014FBD8F8003008
:104C9000B5F9E81023F00103C8F80030D8F8002077
:104CA000C24B1340C8F80030C14BC8F81030D8F8D8
:104CB0000030B5F9EA20002043F00103C8F80030C5
:104CC000C8F80800C8F80C00C8F80800D8F8083080
:104CD00043F40043C8F80830D8F80030C8F8003072
:104CE000D8F8043023F0784323F40043C8F80430A4
:104CF000D8F8003043F00103C8F80030B5F9EC30C3
:104D000041EA02041C431FD007EE901A9FEDA97AD6
:104D10008AF83E00F8EEE77AA74967EE877A3846C8
:104D2000CDED1C7A07EE902AF8EEE77A67EE877AE7
:104D3000CDED1D7A07EE903AF8EEE77A67EE877AC6
:104D4000CDED1E7AFFF744FD9C4EB5F8F03003938D
:104D50004FF0000B10225946A6F5EE70C5F850BC76
:104D600095F8EF4095F8F78085F84CBCC6E901BB93
:104D70000BF05AFA2320C5F860BCA5F85CBCC6E964
:104D800005BBC5F86CBC03F043FB0BAA01217520E1
:104D900004F0D4F9002840D0894AC5F8642C894A27
:104DA000C5F8682C43F64332A5F8602C01210FAA00
:104DB000584604F0C3F99DF83C20002800F0A78075
:104DC000EA2A40F0A48042F63352594606267F2054
:104DD000A5F8602C85F85C6C04F0FFF80A2003F05D
:104DE00017FB7821032004F0F8F80A2003F010FBE9
:104DF0000121304604F0F1F80A2003F009FB3F21BD
:104E0000072004F0EAF8142003F002FB59460720BB
:104E100004F0E3F80A2003F0FBFA95F85C3C00226A
:104E2000062B85F8702C40F0DF80674BC5F8743A8C
:104E3000664BC5F8783A664B6649D960D5F8EC38C8
:104E40000A2C43F00101C5F8EC1828BF144640F2C3
:104E5000FD2121FA04F212F0010240F05681012CEA
:104E600040F051819E0785F8712C00F15B81D5F8E7
:104E7000743A03989847002385F8723CB8F1000F04
:104E800040F054814FF00008002422467F21682022
:104E90008DF8704004F07DF832220F21682004F074
:104EA00078F822460321682004F073F801223B467B
:104EB00011460C2004F0BFF89DF87030092B40F02B
:104EC0003E81454BC5F8743C444BC5F8783C0723FC
:104ED00085F8723CD5F8EC3843F00803C5F8EC3897
:104EE00095F8E4300BB185F8703C95F8E5300BB1DE
:104EF00085F8713C95F8E630002B78D085F8723C47
:104F000075E00123069324E5354A1385C4E502F0D4
:104F10007E028DF83C2040B1682A06D1012385F835
:104F20005C3C1D2385F8603C77E79DF82C3003F04E
:104F30007E03682B8DF82C3032D1062102233A46AD
:104F4000084685F85C3C04F0F9F89DF875309DF84A
:104F500073209B00520002F0020203F0040313438B
:104F60009DF8712002F0010213430CD0012B03D1F4
:104F7000002385F85D3C50E7022B01D10123F8E7BF
:104F8000022003F054FA13AA01210C2004F0D6F8F1
:104F90009DF84C3013F00F03F2D0042BEED1E7E76D
:104FA000702B04BF042385F85C3C36E7FFE0CF009C
:104FB0007A25E00035FA8E3C88100020B0100020E1
:104FC0003D910008DB8F00083DB4000849630008EC
:104FD000D40E00202D23FA3BE38F000853910008E4
:104FE0000004004800540040022385F84C3C95F82A
:104FF000F830052B7DD8012404FA03F313F0160FC3
:1050000040F0A58013F0290F73D00A2003F000FAB6
:105010004CF6EF030FA90220ADF83C3006F020FE5D
:10502000002800F09480204603F0F2F913A9022032
:105030008DF84C908DF84D9006F0F8FC002800F0AB
:105040008680BDF84C305BBA03F03F03082B7ED15D
:10505000424B9DF84C90D3F8040293F808321C9010
:1050600039463B7105209DF84DB006F0F9FD00284A
:105070006DD03B4C4FF2C77804F110060FA9022007
:10508000ADF83C8006F0ECFD002860D0012003F074
:10509000BFF913A902208DF84C908DF84DB006F0A1
:1050A000C5FCBDF84C309DF84C909DF84DB05BBAF6
:1050B0009BB200284BD007EE903AF8EEE77AE4EC8A
:1050C000017AA642DAD1274BC5F8A03C264BC5F899
:1050D000A83C264B00221A606223C5F8B03CD5F8E4
:1050E0005C35C5F8B43C0320002385F8B83C06F0D5
:1050F0000BFED5F8EC3843F00403C5F8EC381C4C33
:1051000049F6117647E01446A3E6002285F8712C93
:10511000184AC5F8502C43F00303174AC5F8542C1D
:10512000C5F8EC38D5F8503C9847A0E6A8F1020342
:10513000032B7FF6A9AEB8F1010F04D1D0E6B8F188
:10514000000F3FF4CDAE002385F8723C9AE695F847
:105150004C3C43F0200385F84C3CD0E7F0140108A8
:10516000DC10002009BD0008C5BA00080C110020A1
:105170000008004829B4000815630008A38A9BB200
:1051800083F40053A382A38A9BB283F48043A38257
:10519000642003F03DF93B46022200214020ADF897
:1051A000706003F003FE0028E8D0D5F8143C012B12
:1051B00002BF95F84C3C43F0400385F84C3C95F811
:1051C0004C0C00287FF4DDAE95F8103CC24C43F047
:1051D000020385F8103C4FF4005323854FF48043BD
:1051E000A3610F26A38A9BB283F40053A382A38AF0
:1051F0009BB283F48043A382A38A9BB283F40043CF
:10520000A382192003F004F9013E192003F000F9EC
:1052100016F0FF06E6D14FF48043A3614FF400532C
:10522000A3614FF40043A361D5F8EC381C0705D502
:10523000D5F8743C9847012385F8B93CD5F83C373C
:10524000DFEDA66A1B7BA5F8BA3CBAF82230A44869
:1052500007EE103AB8EEC77A1A22C6EE877AFF2117
:105260009FEDA07A67EE877AC0ED007AA0F2063053
:105270000AF0DAFFD5F8EC1801230022880785F838
:10528000F03885F8F12807D585F8F238032385F83A
:10529000F038022385F8F3384A0708D595F8F03836
:1052A0005A1C2B4485F8F028032283F8F12895F83E
:1052B000F03811F00A0F03F10102D2B210D0E91850
:1052C0002A44042081F8F108052182F8F118DA1C3B
:1052D000023355FA83F385F8F028062283F8F12883
:1052E000D5F8C077BB0608D595F8F0385A1C2B4482
:1052F00085F8F028072283F8F1286B79082B01D074
:105300000E2B08D195F8F0385A1C2B4485F8F0285C
:105310000B2283F8F12895F8F028A918531C0C20CB
:105320007C07DBB281F8F10805D52B44023210214D
:1053300083F8F118D3B2E91812205A1CD2B281F8BE
:10534000F108780585F8F02809D595F8B81131B13C
:1053500002332A4485F8F038132382F8F138B9056E
:1053600008D595F8F0385A1C2B4485F8F0281522FA
:1053700083F8F128FA0508D595F8F0385A1C2B4423
:1053800085F8F0281A2283F8F1289822002156483F
:10539000564C0AF049FF012003F0A6F94FF04C0BE0
:1053A00000286AD1D5F8DC39B5F944C1C5F8DC3834
:1053B0004F4BC5F8683B0022A5F8E82685F8EA2699
:1053C000C5F80C27C5F81027C5F8AC3685F8B92AFA
:1053D000D5F8A416B5F8440103F23246624603F646
:1053E000CE13F82526F8022B0135D4F85C25EDB252
:1053F00002F516720A2D43F8042B65D1FB0454BF45
:10540000B4F84A310346A4F86E3501F1500591F81D
:105410007D30ABB991F87F2091F880309A420FD25D
:10542000002A6BD0013A02EB820202EB820202F503
:10543000617293B291F87E2004EB4202A2F87035BB
:1054400004318D42E3D13E076DD594F83E21062A02
:1054500063D8DFE812F05B003F0442046B048C0465
:10546000A604A6040BFB06FA04EB0A0999F8268A9F
:10547000B8F1000F04D00136F6B2022EF2D191E756
:1054800002791C4B90F90000CDF8048003EB8203F5
:1054900003220092D3F80C324246012106F0E8FEC6
:1054A000039068B114484822414650440AF0BCFEBB
:1054B000039BC9F8DC3901231E4489F8263AF6B269
:1054C000012003F0EBF86BE7022D9DBFB4F84621F5
:1054D000643212B2624685E7000800480AE81C41BF
:1054E000581000200000C8423C0E0020600400203C
:1054F00096050020F0140108400E0020013303EB54
:10550000830303EB830303F5617393E745F2F053E1
:10551000A4F8BC3C06F0E4FE28B90820FAF77CFEAB
:10552000C24BC34A5A6317F4804F18BF1223BF4DB2
:105530001EBF84F82039BF4B6B6342F201031F4248
:1055400011D044F62063A4F8BC3CBB0441BF08233F
:1055500084F82039B84B6B63FE0741BF0C2384F8F5
:105560002039B64B6B6394F82039B54F043B84F86F
:10557000213932209F234FF480580DF14C091CAE85
:10558000139302F045FF0023A7F828800422494620
:1055900030468DF8713006F0EDFE9DF87130C7F899
:1055A00018809DF872201B0443EA02239DF87320A3
:1055B0001343A44A934200F0358400F32C84A2F5EF
:1055C0001A42033A934200F0348402F51A4202323E
:1055D000934200F05A840023C5E90B336B6202F05A
:1055E000C5FD6379C4F8100D052B04BF4FF4C873D3
:1055F000A4F85235FBF734F84FF47A73DFF8708271
:10560000A4F854350320D4F8A03C9847DFED8E7AF7
:1056100047460837C8ED007A4FF0650AB0EE677A62
:10562000B0EE678AB5EE407AF1EE10FAC7ED007A77
:1056300040F05284BAF1010A40F0398494F8D3382A
:1056400043F0080384F8D33894F8EC3523F00203D0
:1056500084F8EC35D4F8C03740F602021A4222D062
:105660000027032384F89D3839460123774885F8BD
:105670002030C822A4F8A078A4F8A478A4F8A278CE
:10568000A4F8A6780AF0D0FDD4F85C35C4F8AC389C
:105690006F4BC4F8D0770020002143E9020184F861
:1056A000CC7784F89C7894F8103C6A4FD4F8088042
:1056B000C4F8C08763F07F0384F8103C3B464FF08A
:1056C000804143F8041B64491960644BBB604FF48C
:1056D0009663A4F87235624BAB61624D012284F887
:1056E000242C84F8202D95E80F000DF11C0A8AE87F
:1056F0000F0005F110030FCB0DF12C0E8EE80F00FB
:1057000005F120030FCB0DF13C0C8CE80F0005F1E7
:1057100030030FCB89E80F0005F140030FCB86E87B
:105720000F009AE80F0007F1180585E80F009EE8C2
:105730000F0007F1280A8AE80F009CE80F0007F124
:10574000380E8EE80F0099E80F0007F1480C8CE83E
:105750000F0096E80F0007F1580C8CE80F004FF48B
:10576000967002F055FE4FF48C7207F1680000212C
:105770000AF05AFD3C4BDA6942F00702DA619A6995
:1057800042F4A5229A615A6942F4C0225A6100206B
:105790000F27AA7B696895F80FC002F00703D208AB
:1057A00001EB82029B00116A0CFA03FC07FA03F377
:1057B00021EA03031362136A04304CEA030314283A
:1057C000136205F11005E4D16279D4F8E018182AC3
:1057D0009DBF264BD34003F0010300238DF86630B4
:1057E0000022881C10F93250022D00F0A7830132EC
:1057F000042AF7D100228DF86120C8F340028DF809
:105800006220C8F380128DF86420C8F340328DF80E
:105810005C20C8F3C0328DF85F2018F4006229D0F4
:1058200094F83221D51E6A426A4123E0000000202C
:10583000516100086D610008556100086161000850
:105840000004004818BA200000000000340C0020BA
:10585000200D002074110020ABAAAA3F26B4973E69
:10586000A08601001C170108001002400041000141
:10587000640A00208DF86020C8F300428DF865208E
:1058800008F001028DF85D20C8F3C0028DF85E209B
:10589000C8F3804218F4805FB4F8D4108DF8632008
:1058A000B4F8E020ADF86A101CBFB4F8DC10ADF815
:1058B0006A10B2F5FA7FADF8682094BFBDF86A208F
:1058C0000022ADF86A2094F8822184F8942E0022F8
:1058D0005B0018F0090FA4F8952ECF4A18BF0133CA
:1058E00002EB83034FF6FF79D3F87C32A3F1020871
:1058F0000833039338F8020F484500F0C880030AC4
:10590000022B00F0C080C54AC0B2012B4FEA001B39
:1059100002EB001040F0A3839DF85D30002B00F0F7
:10592000B28004EB0B07002384F8983EC4F89C3E39
:10593000C4F8A03EC4F8A43EC4F8D83E84F8E03EC3
:1059400097F8393DB7F8342DC4F8EC0E31468DF890
:105950007230D7F8300DADF870200223C4F8DC9E09
:105960008DF8733005F0E8FC94F8942ED7F82C5D90
:1059700097F836AD012A18BF00212A6A08BF032113
:10598000BAF1000F40F0E18222F001022A62AA6916
:10599000286A22F0F30242EA011220F00A0042F0E3
:1059A000010240F00100AA612862AA6922F00C02FB
:1059B000AA61AA69AA6101220021284605F0C2FB5A
:1059C0002A88974F92B242F00102BB442A809BF88A
:1059D00037BD584606F0FEFABBF11B0F02D1192065
:1059E00006F0F8FA8F4AC7F8F02E4FF0000B8E4AF7
:1059F000C7F8F42E2846C7F8F8BE05F01BFB0628AA
:105A000041D80A214143894A01EB9A0107EB810CF5
:105A1000131DCCF87C2DCCF88C3D4FEA9A0C022358
:105A2000E96803FA0CF39BB20B43EB602823434372
:105A3000A2F5BA7203F120011144EFF3128C4FF07A
:105A4000500E8EF312880C33134453F8042F0AB10E
:105A50000A60111D0BF1010BBBF1040FF5D10023FE
:105A60000B605FFA8CFC8CF31188282303FB007712
:105A7000D7F89C3D002B40F0EE82EB6823F0010349
:105A80001B041B0CEB60039B43457FF433AF684E54
:105A9000684D042384F8A8390FCE0FC50FCE0FC56B
:105AA0000FCE0FC596E80F0085E80F00D4F8C03779
:105AB000D4F82067D4F81C0703F48052A5F262657D
:105AC0000023002A00F0FE82818825F8021B0133A2
:105AD0000C2BF6D194F8273D8DF81C3094F8283D16
:105AE0008DF81D30544B0F934FF09043CDE9133395
:105AF0004FF44173ADF82C30504B514E21964FF07E
:105B0000A041CDE91C1301204FF0805313AD0BAF22
