:020000040800F2
:1000000000A000208DEA0008F5EA0008F5EA0008E3
:10001000F5EA0008F5EA0008F5EA0008000000002B
:10002000000000000000000000000000F5EA0008E9
:10003000F5EA000800000000F5EA0008D381000896
:10004000F5EA0008F5EA0008F5EA0008F5EA000814
:10005000F5EA0008F5EA0008F5EA0008F5EA000804
:10006000F5EA0008CD810008F5EA0008F5EA000885
:10007000F5EA0008F5EA000801B10008F5EA000811
:10008000F5EA0008F5EA0008F5EA0008F5EA0008D4
:10009000F5EA0008F5EA0008F5EA0008F5EA0008C4
:1000A00061B3000819B3000871B3000809B3000870
:1000B0001DB300082DB300083DB30008F5EA0008A1
:1000C000F5EA0008F5EA0008F5EA0008F5EA000894
:1000D000F5EA000841B100084DB10008F5EA000852
:1000E000C7810008F5EA0008F5EA0008F5EA00080B
:1000F0005DB30008F5EA00084DB30008F5EA000812
:10010000000000000000000000000000F5EA000808
:10011000F5EA0008F5EA0008F5EA0008F5EA000843
:10012000F5EA0008F5EA0008F5EA0008F5EA000833
:10013000F5EA0008F5EA00080000000000000000F1
:10014000F5EA0008F5EA0008F5EA000800000000FA
:10015000000000000000000000000000000000009F
:100160000000000000000000F5EA0008F5EA0008C1
:10017000F5EA000800000000000000000000000098
:0801800000000000F5EA000890
:1001C00010B50F4B1A786A2A17D15A88B2F5AA6F60
:1001D00013D11A79BE2A10D193F84E25EF2A0CD1EB
:1001E000084C002213F8011BA342104682EA0102C8
:1001F000F8D1431A5842584110BD0020FCE700BF17
:1002000000F0030850F50308024A93680343936023
:10021000704700BF60040020024A936823EA00038D
:100220009360704760040020044A0123B2F850151F
:1002300083400B43A2F85035704700BF6004002094
:10024000044A01238340B2F8500520EA0300A2F8D3
:10025000500570476004002010B50C4CB4F85205EE
:10026000B4F85435184380B260B9FFF7E9FFB4F829
:10027000500510F0010004D1D4F85805003818BF1B
:10028000012010BD0020FFF7CFFFF0E76004002041
:10029000704B71481A68596870B5D0F85C45A21A5D
:1002A0008A4215DB1A7A9AB190F86025B0F8506549
:1002B0000132D2B280F86025002101252E4208D1FA
:1002C00001316D000929ADB2F8D15A6822441A6093
:1002D00070BD89B20139072905D8DFE801F01BACF0
:1002E00090819D452E7064225A605D7A5B4A4FF47E
:1002F00080404FF4005190612DB111854FF40041C1
:100300001185002204E091614FF4004191610122C6
:100310005A72DAE75D7A64225A604FF480404F4A9D
:100320004FF4004125B1108591614FF40051E7E78A
:10033000906191614FF40051E8E790F861154748EA
:1003400021B364225A604FF4804282614FF400521C
:1003500082614FF400420285B7E74FF48042018585
:1003600002854FF40052F6E790F861153B4869B1F9
:1003700064225A60828A92B282F4005282824FF4DE
:10038000804282614FF4004282619EE702F00302E4
:100390007821022A59604FF40041DED0032A0AD0A6
:1003A000012A01854FF4804201D0826100E002857C
:1003B0004FF40052E8E781614FF48042F5E790F88E
:1003C0006125002A81D064225A60244A4FF480417A
:1003D00011854FF4004191614FF40051916174E730
:1003E0001E4964225A604FF480428A614FF40042F1
:1003F0008A618A8A92B282F400528A8265E7642214
:100400005A60164A4FF4804191614FF40041916166
:100410004FF40051118558E7104964225A604FF497
:1004200000528A618A8A92B282F480428A824FF4B0
:1004300000428A6149E7642112F0010F5960074ABE
:100440004FF480414FF4004001D11085C3E7906123
:10045000DDE700BF00000020600400200008004825
:10046000FDEEC07A17EE903A2033402B43D8DFEDF3
:10047000237A9FED237AB4EEE70AF1EE10FA28DC36
:10048000DFED207A9FED1E7AB4EEE70AF1EE10FA66
:1004900022D4DFED1D7AB4EEE70AF1EE10FA1EDD8C
:1004A00030EE670A37EEC00A60EE007ADFED176AB9
:1004B0009FED177AA7EEA67ADFED166AE7EE876A58
:1004C0009FED157AA7EEA67A20EE276AA6EE070A18
:1004D000704730EE470ACEE730EE070AD4E79FEDCB
:1004E0000F7AB4EEC70AF1EE10FA44BF30EE270AD5
:1004F00037EE400AD8E79FED0A0A7047DB0F494004
:10050000DB0FC940DB0F49C0DB0FC93F9A7C2E3699
:10051000FAAF4FB93587083CA4AA2ABEDB0FC9BF82
:100520000000000003685A1C02601970704730B563
:10053000474BD3F86425B3F96E159578D278B3F9A3
:100540008C05002A41D00A1A82EAE274A4EBE27414
:10055000AC4223DD012012F5997F83F88E051ADD68
:10056000062092FBF0F2502AA8BF5022B3F8900563
:10057000024412B2A3F8AA25A3F8902593F8B02557
:10058000002A61D040F2DC5291425DDC4FF47A7275
:10059000A3F8AA2530BD6FF03102E7E793F88E2566
:1005A00032B1D3F89825C3F89425002283F88E251C
:1005B000D3F89C25D3F8A045104422889042D8DB7C
:1005C00062888242A8BF0246D3E740F2DC529142E1
:1005D000204C23DDA1F2DC52954228DAA1F2DC5254
:1005E000002ABCBF6FF4BB628A189210782AA8BF99
:1005F0007822C3F8AC250122A27283F88E25D3F8A5
:100600009C25D3F8A04510442288904203DB6288E1
:100610008242A8BF0246A3F8AA25AFE7521A954224
:1006200005DAB1F5896FD9DC6FF06302E1E70022EA
:10063000A27293F88E45C3F8AC25002CDFD0D3F816
:100640009845C3F89445D8E7002283F8B025A1E780
:100650006004002000000020134BD3ED037A134BFD
:10066000F5EE407AF1EE10FA4FF0000203F10401CA
:1006700003F1080003D11A600A6002607047F0EECF
:10068000086A86EEA77A80ED007A27EEA77A67EEF1
:10069000877A86EE876AF7EE006A86EEA77A81EDA2
:1006A000006A83ED007A704700000020140A0020E1
:1006B000034BB3F8C0351D2B01D80420B4E57047B7
:1006C00060040020054B0022C3F8C425C3F8C825E8
:1006D00003F2CC5300221A605A6070476004002075
:1006E000074B0022C3F8D425C3F8D825C3F8DC256E
:1006F00003F5BC6300221A605A609A60704700BF1D
:1007000060040020002007F05BBD10B5164C94F883
:10071000EC355A0706D523F00503042084F8EC35A0
:1007200007F02EFF94F8ED25104B0AB100221A7441
:1007300001225A74782200215A82042040F2145275
:100740009A8284F8EE1584F8EF1584F8F015C4F851
:10075000F415FFF775FD0520FFF772FD84F8F81515
:1007600084F8B01510BD00BF600400200000002018
:10077000224B93F8EC2512F0010F02F0040103D193
:10078000D3F8FC05012833DC93F8000680B393F816
:10079000010668BB39B11A4A1346516843F8081B71
:1007A000D2681A607047D3F81416480124D4910710
:1007B0001FD442F0040283F8EC2593F8EE2522B909
:1007C000012283F8EE25D3F85C250E4AB3F81816FB
:1007D000D182D3F85C25D3F85C1593F88E214FF4C1
:1007E0007A7012FB00120520C3F81C2607F0C8BE61
:1007F00011B9012007F0EABE704700BF6004002075
:10080000640A00200000002070B5104CD4F8205677
:10081000284607F021FF287A04F2246400226FF0B2
:100820001806192112FB0263434303F6C413534312
:100830000132072A93FBF1F324F8023BF2D1284658
:100840000349BDE8704007F023BF00BF60040020EB
:10085000300500202DE9F047D04C94F83236B4F83A
:10086000342604EB43038AB0B3F968359342C0F2EF
:10087000FC81B4F83626934200F3F78194F8385699
:100880000DB994F8395694F83C3684F83A5684F801
:100890003B56002B00F00D81D4F84076D4F8443656
:1008A000FB1AC72B40F2058194F84886B8F1000F77
:1008B00040F0F5804146404608F00CFCB84BB94882
:1008C000002D08BF18460BF019FFD4F84C6694F8B9
:1008D0003896022E40F0F081B4F85035DA0740F136
:1008E000C681B14BC4F85036D4F85086B8F1000F29
:1008F00006D00620002108F0EDFB40460BF0FEFE7E
:10090000002110200136C4F84C6608F0E3FBB4F86F
:10091000C035A6480A21B3FBF1F201FB12339BB2AA
:10092000A3490AF0F9FFA1480BF0E8FE07210020D7
:1009300008F0D0FBB9F1000F40F0C78194F83926D8
:100940009C48974B002A08BF18460BF0D7FED4F8F6
:100950001466D4F85C3594F8682616F0010600F0A9
:10096000B681002A40F0B881C4F86C26B4F850254E
:10097000D20504D5012284F86826C4F87036072110
:100980000846D4F86C364FF47A724FF03C0AB3FB49
:10099000F2F808F09FFBB8FBFAF9874983484A460A
:1009A0000AF0BAFF81480BF0A9FE07210C2008F0DD
:1009B00091FB82497D480AFB19820AF0ADFF7B4812
:1009C0000BF09CFE1020072108F084FB7C487D4B37
:1009D000002E08BF18460BF091FE002D5FD10221BA
:1009E000012008F077FB0A267749B4F976266F488C
:1009F00092FBF6F20AF090FF6C480BF07FFE0321A9
:100A0000012008F067FB7149B4F97426674892FB2E
:100A1000F6F20AF081FF65480BF070FE0421012018
:100A200008F058FBB4F91826694960480AF074FFC9
:100A30005E480BF063FE02210B2008F04BFBB4F97B
:100A40006A25644959480AF067FF58480BF056FE7A
:100A500003210B2008F03EFBB4F968255B4953489D
:100A60000AF05AFF51480BF049FE04210B2008F010
:100A700031FBB4F96C2556494C480AF04DFF4B4800
:100A80000BF03CFE05210B2008F024FBB4F96E2589
:100A9000514946480AF040FF44480BF02FFE94F8B5
:100AA0007A36AB4201D00BF012FE84F87A56C4F8C5
:100AB0004476002D00F08D8107F092FBD4F87C364F
:100AC000C31A002BC0F20E81444FBB690344C4F823
:100AD0007C363B7FCBB1424B424800254FF400525D
:100AE000C4F88056C4F884563D729A614FF40042AF
:100AF0009A614FF480429A6141F28831012208F0F4
:100B000095F901233D7784F88C3694F89436364E67
:100B10004FF0000836F8135084F89D86242007F023
:100B200025FE442007F022FEADB28DF824800A2174
:100B30000DF1240895FBF1F201FB1253DBB2092BF6
:100B400094BF30333733DBB208F8013D1546002A35
:100B5000F0D140460BF0B4FE00F10A05EDB2284694
:100B600007F004FE94F89D3620485D4084F89D56B9
:100B700008F076F9092007F0F9FD94F89D36404613
:100B800083F0090384F89D3608F06AF994F89D060D
:100B900007F0ECFD164808F07BF92BE0600400201C
:100BA000141E01080E1E01082C1E0108B40A0020A4
:100BB000861E01081A1E01088E1E0108961E0108D5
:100BC000201E0108261E01089C1E0108A61E010801
:100BD000B01E0108BA1E0108C41E01080000002052
:100BE00000080048E00A0020EE0A0020CE1E01089E
:100BF000D81E010894F8943636F8133040F6C31224
:100C00009BB2934226D9D4F85C35D4F884269B1A3B
:100C1000002B1FDB94F8883633B1D4F85C25D4F868
:100C200080361344C4F884363B7C13F0FD0F0BD19F
:100C300094F8EC355B0707D5022384F8ED350123E2
:100C40003B744FF49663BB82724808F021F97248F6
:100C500008F01EF9012102200AF0DAF90121002032
:100C60000AB0BDE8F0470AF0D3B900250BE69807B3
:100C700001D56A4B36E6D90601D41A0701D5684B6F
:100C800030E6980605D4B9F1000F04D194F839265E
:100C90000AB9644B26E6590701D5634B22E65A068A
:100CA00001D5624B1EE6180601D5614B1AE6D9053F
:100CB0007FF51AAE5F4B15E6052E01BF5E4BC4F8FB
:100CC0005036C4F84C8646460EE65C483DE6002A9F
:100CD0003FF455AE84F86866D4F870269B1AC4F8C1
:100CE0006C364CE6564A0023A2F1FA01901D1578A5
:100CF00015B3032B06D050F8235021F813500133BD
:100D00000132F4E7D4F8B036A4F86E3594F8B4366E
:100D100013B10023A4F8B6364A4E0023012516F875
:100D2000012B002A51D0DBB2013B042B08D8DFE8AD
:100D300003F0111B293741000133042BE0D1E5E713
:100D400001200BF005FD002384F8B93684F8B8566D
:100D50000123E4E701200BF0EDFC002384F8B83612
:100D600084F8B9560223DAE704200BF0F1FC4020A6
:100D70000BF0E0FC012384F8BA36002384F8BB367C
:100D80000323CCE740200BF0E3FC04200BF0D2FC63
:100D9000012384F8BB36002384F8BA360423BEE767
:100DA00008200BF0D5FC002384F8BD3684F8BC562F
:100DB0000523B4E708200BF0BDFC002384F8BD56E2
:100DC00084F8BC360AB0BDE8F0870133062BA6D103
:100DD000F8E794F88C36002BF4D01B4BC4F8A456DB
:100DE000012284F89E56C4F8A85684F89F56C4F889
:100DF000AC5684F8A056C4F8B05684F8A15684F8CE
:100E0000B456C4F88056C4F884561A721A7784F817
:100E10008C56D7E7DA1E0108D81E0108361E0108D5
:100E2000401E01084A1E0108541E01085E1E0108EA
:100E3000681E0108721E01087C1E01081A1E0108A6
:100E4000FE0A0020180B0020000000202DE9F84FBA
:100E50004FF4AA622DED028B0021C8489FEDC88A8D
:100E60000FF05AFAC54A02F5E4730021C2F8C03601
:100E700002F22A566A2303244FF4006015461370C9
:100E8000547182F8C416C2F82066FFF7BDF98020BD
:100E9000FFF7BAF90220FFF7B7F94FF40060FFF748
:100EA000B3F94FF48070FFF7AFF9C823A5F8FA3013
:100EB000B44BDFF83CC3DFF83CE385F832414FF434
:100EC0008037C5E93B73B04BC5F8F4304FF47A7303
:100ED000A5F8343142F22013C5E94AC34FF0A063AC
:100EE000C5F8C431A94B85F828154FF07E58C5E9DF
:100EF00051E340F64303A5F84C312A46A5F8E41027
:100F000085F8E610C5F8FC10A5F80011C5F8E81042
:100F100085F8F810C5F81081C5F81481C5F8188156
:100F200085ED478A85ED488A85ED498AA5F8301117
:100F3000A5F8B81185ED6F8A85ED708AA5F83E1188
:100F40002B462C460329CCBF0122002201F10101CE
:100F500083F84E2114BF1E220522122983F84F2147
:100F600003F10203EED18A4BC4F84031834B0022D7
:100F70004FF47A704FF4FA610132042AA3F8720137
:100F8000A3F8741103F10403F6D1824A824B83491A
:100F9000C4E96323824BC4F8D030A3F1FA73643BF5
:100FA000C4F8D43003F5602303F5CB73C4F8D8300C
:100FB0007C4B00274FF00109C4E9371384F8827194
:100FC00084F894910AF076FD40F6AC53A381764BF9
:100FD000C4F8C83103F10343A3F51D23A3F29D73A5
:100FE000C4F8CC317148724B724AC4F8F821C4E994
:100FF0007403714BC4F8D8312D2384F8DD3141F6E8
:101000001E63A4F8DE316D4BC4F8E031C4F8FC2156
:1010100045F205336A4AA4F8E431C4F81422642383
:101020004B2284F8E63184F8182240F201534FF441
:10103000FA72A4F8E831A4F81A22624BC4F8043218
:1010400040F2DC52C4F80832A4F834255E4BC4F8F0
:10105000F43144F25A125D4BA4F82A254FF07F5127
:101060003222A773C4F81032C4F81C72C4F82C25BD
:10107000A4F8307584F83275C4F8EC11C4F8F01196
:10108000C4F8008284ED838AA4F82272C4F82C325A
:1010900042F62803A4F83032152384F834324C4B3E
:1010A000C4F82472C4F838324A4F4B4B84F8449247
:1010B000DFF83891C4F83C3240F60822474BA4F8D8
:1010C0002822C4F84032BA4609F1080BB84617F88E
:1010D000011B002943D14FF42053A4F8DE324FF412
:1010E0004873A4F8E2323E4BC4F88431C823A4F814
:1010F0008A3184F8DD1284F8E01284F8E41284F86E
:1011000088110C23013B05F1100585ED008AF9D10A
:1011100034494FF4907288180BF026FB31494FF494
:10112000907201F510700BF01FFBD4F82A35C4F84B
:1011300036352D4A73685360B368D4F82A15936026
:10114000C4F842155361012384F84033716811617A
:10115000022384F86034BDEC028BBDE8F88F23488D
:101160000FF028F90028B1D058453FBFA0EB090087
:101170000019A8EB0A0880F83681A7E76004002070
:10118000000000002A005802FA0020006C077503D6
:10119000001E0001000105960101C800B4053200DF
:1011A0004C04D00750463200012828962828783C65
:1011B0000A0A4600CDCCCC3E0002210A1E321E0097
:1011C000000040408FC2F53C000020400000A040DD
:1011D0009A99193FE11E0108F6287C3F1F856B3F55
:1011E0000AC814052806002096090020E015010809
:1011F000190A0A2ADC054C042DE9F843FEF7E0FF42
:1012000010B9032007F04DF9C14C07F017FB4FF45C
:10121000AA62C04920460BF0A7FA94F82865022E6E
:1012200088BF00264FF4907506FB05F504EB050218
:1012300088BF84F8286592F82032022B84BF0023EF
:1012400082F820320C2284F8C43605F5E47702FBDC
:10125000034303F22A5308202744C4F82036C4F875
:10126000C076FEF7D9FF4FF40050FEF7D5FF0120FE
:10127000FEF7D2FF4FF48040FEF7CEFFFEF7C4FF2B
:101280004FF4907303FB0643002283F8452241F29A
:101290000302A3F84622A04AC3F8482202F1805272
:1012A000A2F57E42C3F84C229C4A4FF4866CC3E9F7
:1012B00094C2202283F85822052384F8323640F263
:1012C000AA53A4F8343640F20E63A4F83636944B91
:1012D00001225A77A36846F209021A4203D14FF459
:1012E0000050FEF791FFA368D80703D54FF40050D4
:1012F000FEF792FFA368590409D50820FEF78CFF7A
:101300004FF40050FEF788FF0120FEF785FFA36829
:101310001A0706D54FF40050FEF77EFF0120FEF7B6
:101320007BFFA3689B0402D54020FEF775FF0123D5
:1013300084F8B93194F88C312BB194F8903113B111
:10134000002384F89031DFF8F081C4F8C8860020CB
:1013500002464FF0FF0E04EBC003B3F89A114B089E
:1013600003F077334FEA910909F03339CB1AA3EB35
:1013700009034FEAD10909F01139A3EB090303EB83
:10138000231303F00F33B3FBFEF9C9EB092901F076
:10139000010CA3EB09036244012BD2B207DD022B3F
:1013A0000BD1BCF1000F08D011F0BC0F05D00130FB
:1013B0000428D0D1013A012A01D90AF07BFBFFF7BA
:1013C00023FA302200215748DFF870910EF0A4FF75
:1013D00005F24520394620440AF09AFB4FF49073F9
:1013E00003FB0646C4F8FC9696F8C80105F0BEFA61
:1013F00009F18E03C4F8003794F88431DFED4A6AAE
:10140000C4F844876421C82213FB0123B4F8F21006
:10141000C4F808370023C4F80C37C4F81037C4F8F0
:101420001437C4F81837C4F81C37C4F82037A4F8A8
:101430002437C4F82837C4F82C3707EE901A09F17E
:101440000603C4F83437A9F11E03B4F8F410C4F845
:101450003837F8EE677A09F19A03C4F8403709F291
:101460005263C3ED017A07EE901AB6F82812A4F879
:10147000481796F8441284F84A1794F88F1184F8A4
:101480005417B6F8E212C4F8583707EE101AF8EEFF
:10149000677AB8EEC77AC3ED027AC6EE877A05F5A9
:1014A0000C732344C4F85C3705F2DD2509F26A6346
:1014B000A9F126022544C4F83C27C4F864774FF00C
:1014C0007E519FED1A7A67EE877AC3ED007A09F2B2
:1014D0007263C4F86455C4F8A025154A1A604FF029
:1014E0007C5209F286695A6000229A60D9601A61BA
:1014F000104BC9F80030C9F80410C9F80820C9F821
:101500000C10C9F81020BDE8F84307F0AFB900BFD0
:101510006004002000F003083001030010050010F3
:10152000000000202C0B0020000061444C3D0F44C3
:101530000AD7233CCDCCCC3D960500205605002093
:101540002DE9F74F07F07AF9434B6A221A704FF4EE
:10155000AA625A80BE221A71EF22A3F84E2540F2E9
:10156000515100221846013955D13C4B80F84F2586
:101570001A69120604D53A4A5A6002F188325A6052
:10158000364C384E03254FF03409C4F80C900AF05D
:101590007FFA0428DFF8C08038D1236943F00203C2
:1015A0002361314B6361236943F0400323610AF0F7
:1015B0006FFA2369042823F00203236126D14FF038
:1015C000000BDA4658F8047BCDF804A00AF060FA64
:1015D00004281BD1236943F0010323610BF100634D
:1015E00003F57C33BAB21A800AF052FA042816D1F5
:1015F0000BEB06030193019B3F0C1F800AF048FA96
:101600002369042823F0010323610DD0013D15F067
:10161000FF05BAD10DE013F8014B6240A3E723693F
:1016200023F001032361F1E70BF1040BBBF5AA6F73
:10163000C8D10A4A1369042843F08003136102D118
:10164000FEF7BEFD10B9042006F02BFF03B0BDE885
:10165000F04F07F00BB900BF6004002000200240EB
:101660002301674502F0030800F003082DE9F04F5D
:10167000D54ED6F82086B6F96EE5B8F80A202DEDDD
:10168000048B9645A9B0C0F2B581BEF5FA6F98F803
:101690000740BDBFAEEB020313FB04F3C2F5FA62D1
:1016A000C4F16403BCBF93FBF2F3C3F16403019381
:1016B000B6F844310393C54BD6F8C0B6069303F58C
:1016C000107203F13C070592A3F5AD6503F24322C6
:1016D00008F10403DA460492002064210793069B74
:1016E00033F9022B029206931346039A9B1A03F2D4
:1016F000F31240F2E634A24200F27E81002BB8BF22
:101700005B42022800F07B819BF815211AB19A42B6
:10171000B4BF9B1A0023B3FBF1FC05EB4C024FF660
:101720009C74B2F9AE97B2F9B0271CFB043CA2EB53
:1017300009020CFB02F292FBF1F24A443A80079A4A
:10174000125C12FB03F3A24A93FBF2F3019A643397
:101750009BB2534393FBF1F31AF8012F059C5A43B4
:1017600092FBF1F204F8012B9AF8162005945A43E3
:10177000049B92FBF1F203F8012B022804931EBF95
:10178000944B019AC254DDE9023208BF85F8BE17B6
:101790009342B8BF3B8800F10100BCBF5B423B8075
:1017A000032807F102079AD1DFF83492D5F814869E
:1017B000B9F91E30581C0DD018F0080F0AD0D5F812
:1017C0009825323B934205DC40F2DC539E45C8BF6E
:1017D000A5F86E3595F8EF351BB1B9F81430A5F8BA
:1017E0006E35B5F96E35B5F846219342C0F23281B7
:1017F000B3F5FA6FA8BF4FF4FA639B1A4FF47A71EE
:101800004B43C2F5FA626424B3FBF2F393FBF4F1A9
:1018100005EB41026FF06307B2F9C007B2F9C227C6
:1018200007FB0133121A534393FBF4F30344A5F867
:10183000AA35B5F8D837590639D5B5F81836B9F8F4
:101840001620DFED657A9FED650A9B1A1BB205EE47
:10185000903AF8EEE55A65EEA75A35EE800AFEF7A3
:10186000FFFDB0EE405AB0EE650AFEF7F9FDB5F99E
:10187000A63506EE903AB5F9A43507EE103AF8EE23
:10188000E66AB8EEC77A67EE007A20EE660AE6EE00
:10189000857AA7EE050AFDEEE77ABDEEC00A10EEE6
:1018A000103AA5F8A43517EE903AA5F8A635D5F864
:1018B000DCA71AF0020F00F0E280D5F8E027D5F897
:1018C000E43745F20721D31A8B4240F3D880022037
:1018D000C5F8E42709F002FCC2075EBFC0F3CF04DD
:1018E0001923B4FBF3F495F8E837D5F8EC2705EBAA
:1018F000430148BF4FF6FF74B1F8F007A1F8F04775
:10190000121A144401336422B3FBF2F102FB1133C7
:1019100085F8E83795F8B838C5F8EC47632B9EBFD3
:101920000133DBB285F8B838B4FBF3F495F8B93875
:10193000A7B2032BA5F8C07540F08E800A2F40F2A5
:101940009E8099F8201001EB810101EB81010023B9
:101950004FEAC11B01EB01114FF416721FFA8BFB0A
:10196000C90085F8B938282041F26803A5F8BA28DB
:10197000A5F8BC38A5F8C018A5F8BEB806F082FDD9
:101980002A21B7FBF1F107EB8707013107EB870746
:1019900089B2BF000829BFB228BF0821A7EB0B07F7
:1019A0004FF4167241F268037A43A3EB0B0389F8F4
:1019B000201092FBF3F3A5F8C238034AB2F8C038FE
:1019C000A4B2633BA3420DE060040020C8090020DC
:1019D0000CFEFFFF1C0C002035FA8E3CDB0FC93FCC
:1019E000000000204BDD0123082082F8B93806F002
:1019F000C7FD44E064235AE64FF4FA7381E69BF88E
:101A000016211AB19A42B4BF9B1A0023B3FBF1FC12
:101A100005EB4C024FF69C74B2F92496B2F92626D7
:101A20001CFB043CA2EB09020CFB02F295F9EEC090
:101A300092FBF1F2CCF1000C4A4412FB0CF2A5F837
:101A4000A82598F8062012FB03F3AF4A93FBF2F3A4
:101A5000643381E61346D0E60A2F00F2AD800323FB
:101A600085F8B938002389F82030A5F8C038A5F8E2
:101A7000BE38A5F8BC38A5F8BA38A5F8C2381AF4AB
:101A8000006FA24C59D0D4F8E027D4F8C43845F2FE
:101A90000721D31A8B4250DDD4F85C35C4F8C42832
:101AA000D4F8C828C4F8C8380120A3EB020B09F009
:101AB00015FB00B2632840F3B080642390FBF3F081
:101AC00007EE900AF8EEE77AB2EE047AC7EE876A7C
:101AD0009FED8F7AC6EE877AFCEEE77A17EE903AA2
:101AE000B3F5803FAABF00221A461346C4F8CC289B
:101AF0009BB2DFF82CA2D4F8D078DAF80420E3FB0C
:101B00000B7291460023834A384649460AF044FF47
:101B1000C317B0F5803F73F100032ABF00230346CB
:101B20001846C4F8D838B4F8C238C4F8D0781B1AAC
:101B30009BB2CAF80490C4F8DC3818F4805F02D075
:101B40000A2006F01DFDD4F8E098B9F1000F22D06C
:101B5000D4F85C35D4F8E4289A421CD894F8EA38D2
:101B6000B4F8E878002B5AD1D9F80430012284F86F
:101B7000EA28DB5D3BB137B999F80030053B934269
:101B800001D806F02DFBD9F80430DB5DFE2B4AD1DD
:101B90000023A4F8E83894F8EC154B074FF0080040
:101BA00051D5FEF741FB0720FEF74AFB0620FEF762
:101BB00047FB594F0023B6E0012B05D0022B1FD065
:101BC000002B3FF4FAAE5AE795F8EC3523F0020308
:101BD00085F8EC35B5F8BE38A4B2633BA34204DD0A
:101BE000022385F8B938072014E0B5F8C03864330B
:101BF0009C420EDD002385F8B938FEF759FD3EE71B
:101C0000B5F8BE38A4B264339C42ECDD012385F8FC
:101C1000B938082006F0B4FCEFE7002369E7002399
:101C200084F8EA38AFE7FF2B02D106F097FCB2E761
:101C3000D4F85C250A2113FB01230137C4F8E438EA
:101C4000A4F8E878A7E7FEF7FBFA18F0010F10D127
:101C500094F8EB381F0702D594F800364BBB0720E9
:101C600021F0010184F8EC15FEF7EAFA0620FEF7F0
:101C7000DBFAB4F8503594F8EC78580724D56FB9EE
:101C800026483A464FF4967107F0D0F8F0B1012398
:101C900084F8EC38C4F82877C4F82C7794F8EB383B
:101CA0001B0713D50220FEF7CBFA002384F8EC388B
:101CB0000CE041F00101072084F8EC15FEF7B4FABE
:101CC0000620FEF7BDFAD4E7002FE7D1B4F8C035FF
:101CD000222B11D90023032084F80136FEF7B0FA35
:101CE000FEF7BAFA00283FF464AF94F8EC3523F01D
:101CF000010384F8EC355CE70123032084F8013606
:101D0000FEF792FAECE700BF0CFEFFFF6004002034
:101D10006F12033B80EE3600540E0020880B00202B
:101D2000300D0020132397F84A800193B8F1010F7A
:101D300040F0BE813B68C4F8F078C4F8F4384FF046
:101D400005094FF0000BD4F8F40803685B68984766
:101D5000002800F06D81D4F8F4080368DB68984728
:101D6000D4F8F0A89AF84830052B12D8DFE803F031
:101D7000030A9FA4B3BD242840F0CD8001238AF834
:101D8000483006E0A0F14D014842484140008AF841
:101D900048009AF84830062BD5D19AF849307C2B68
:101DA00000F2CC80002B00F016875A1E7B2A00F22E
:101DB0000D87DFE812F0160123018F019A01AF01B0
:101DC0000B070B070B070B070B070B070B070B0783
:101DD0000B070B070B070B070B070B070B070B0773
:101DE0000B070B070B070B070B070B070B070B0763
:101DF0000B070B070B070B0755040B0799050B0780
:101E00009E050B07BF050B07D1050B07D7050B0771
:101E10000B070B070B070B0726060B077C040B07AA
:101E20006D060B07AC050B071F034E040B07500391
:101E30000B070B072D060B073F060B070B07DB06EF
:101E40009206B2060B075A030B07F5050B070306AC
:101E50000B070B070B070B070B070B070B070B07F2
:101E60000B070B070B070B070B070B070B070B07E2
:101E70000B070B070B070B070B070B070B07F301F0
:101E8000A7020B07DD02F0020B070B070703150380
:101E900024035F03A1030B0716055B05A50441049A
:101EA0000B07ED040B070B070B07F90600073C288F
:101EB00014BF0023032362E7402802D98AF848B000
:101EC00067E78AF805008AF804B08AF807B08AF84C
:101ED0000600042353E79AF806308AF84900434085
:101EE0008AF806308AF8489053E79AF804309AF84E
:101EF00005109AF80620994208D942408AF806202F
:101F00005A1C53448AF80420187242E790420CBFCE
:101F10000623002333E794F8EC355A073FF539AF31
:101F2000D4F8F8381B7883427FF433AF8F4B904A54
:101F3000C3F8FC2F8F4B904ADA602AE7F02B00F0B1
:101F4000B2843CD8DD2B00F02586DE2B00F02686FF
:101F5000A02B00F0B684C72B40F23D86C83B2A2B4D
:101F600000F23986DFE813F0B506370603073706B7
:101F7000DD07880892081B08800837069C06AC0617
:101F8000B00637066008370637066E087B08370646
:101F90003706370637063706370637063706370659
:101FA0003706370637063706370637063706370649
:101FB000370637063706E20637063706B006FE2B29
:101FC00000F06484FF2B00F06981F22BC3D9FA2B57
:101FD00040F0018694F8EC355B0740F16C8600F028
:101FE000FABD032006F027FC002006F0C5FB002008
:101FF00006F0C2FB182006F0BFFB0FE0082006F039
:102000001AFCDFF884914FF0000819F8010B08F171
:10201000010806F0B1FBB8F1080FF6D1D4F8F0389A
:10202000987906F0A9FBD4F8F038002283F848200C
:1020300094F8BF39002B3BD0D7F80080D8F8003097
:1020400040465B699847002801F05681D4F8DC3798
:102050004A49D8044CBFD4F83837D4F83C3794F800
:10206000C0099B8800221BB25FFA82FC8445C1F044
:10207000488109F0A5F8322006F004FA002394F80C
:10208000C0193F4A9C46D8B28842C1F03F813220F5
:1020900006F0F8F9D4F8DC37590306D5A3685A03DB
:1020A00003D440F2DC5006F0EDF9324B324ADA60EC
:1020B000019B132B07F14C077FF434AED4F8943A0C
:1020C000002B01F044812F4829B0BDEC048BBDE802
:1020D000F04F1847032006F0AEFB022006F04CFB41
:1020E000022006F049FB002085E7102006F0A3FB44
:1020F0000C2006F071FBDFF894904FF0000819F8FF
:10210000010B08F1010806F037FBB8F10C0FF6D10E
:102110000020D5E01A2006F08EFBDFF874904FF017
:10212000000819F8010B08F1010806F025FBB8F1C9
:102130000B0FF6D1DFF85C904FF0000819F8010B97
:1021400008F1010806F018FBB8F1080FF6D1DFF826
:1021500048904FF0000819F8010B08F1010806F04B
:102160000BFBB8F1070FF6D158E700BF0090002035
:10217000EFBEADDE00ED00E00400FA05F00B00203C
:10218000240E0020FC0E0020EA1E0108F31E0108A8
:10219000001F01080B1F0108141F01080B2006F087
:1021A0004AFBB4F8500506F017FBD4F8FC28CB4BDB
:1021B0009A420CBFB4F80009B4F8020980B206F0E4
:1021C0000BFBD6F80439C3F3C000C3F380028000D0
:1021D00040EA4200C3F340021043C3F3401240EA16
:1021E000C200C3F3001340EA031000F01F0006F022
:1021F000F3FAB6F8D82796F8EC35D6F8141696F810
:102200000889DFF8E0C2500000F00200C3F3800349
:102210000343C2F3400043EA800302F00800034393
:10222000C2F3800043EA0013C2F3801043EA401374
:1022300001F4E0701843C2F3001340EA4320C2F3F4
:10224000401340EA8320C2F3002340EAC32001F494
:102250007F23034301F480100343C2F3402043EA89
:10226000405301F00071C2F380220B43002043EA87
:1022700082634FF0010E0246424504D306F0B5FAE0
:1022800094F82805B7E61CF8011B0EFA01F1194273
:102290001CBF0EFA02F108430132EDE70023B4F847
:1022A0005015A4F8243901220A420CD101335200FE
:1022B000092B92B2F8D1022006F0BDFAB4F8240935
:1022C00006F08AFAAAE69BB2013B072B05D8DFE8A5
:1022D00003F0080A0C0F111315170123A4F8243971
:1022E000E9E70223FAE74023F8E74FF48073F5E7C4
:1022F0008023F3E72023F1E71023EFE70823EDE73E
:102300000423EBE7122006F096FA754BB5F926097F
:102310005B8CB3F5806F88BF4FF0080890FBF8F036
:1023200080B206F059FAB5F9280990FBF8F080B2AE
:1023300006F052FAB5F92A0990FBF8F080B206F0DF
:102340004BFAB5F82C0906F047FAB5F82E0906F055
:1023500043FAB5F8300906F03FFAB5F8320906F04D
:102360003BFAB5F8340906F037FAB5F83609A7E7AD
:10237000102006F060FADFF870914FF00F0808F1B6
:10238000FF3819F8010B5FFA88F806F0F5F9B8F193
:10239000FF0FF4D142E694F83809DFF8509140007D
:1023A00000F0FE0006F047FA4FF0000894F83839C4
:1023B0009845BFF433AE39F8020B06F00DFA08F178
:1023C0000108F3E7062006F036FAB4F83A0906F0F9
:1023D00003FAB4F83C0906F0FFF9B4F818066FE701
:1023E000062006F028FAD4F8980506F0FEF9B4F8AD
:1023F000400965E7042006F01EFA002070E207207D
:1024000006F019FAB4F8C005FF28A8BFFF20C0B233
:1024100006F0B2F9D4F8DC384FF6FF784345A8BF90
:10242000434623EAE37080B206F0D6F9B4F84409D3
:1024300006F0D2F994F83331D4F8CC0843B10A232A
:1024400058434045A8BF404620EAE07080B237E7D5
:1024500000F30F00FAE7022006F0EDF994F88E0180
:1024600006F08AF994F88D01C5E5022006F0E3F93B
:10247000A08925E70B2006F0DEF9D5F8203618787C
:1024800006F07AF9D5F82036587806F075F9D5F8BF
:102490002036187906F070F9D5F82036587906F00C
:1024A0006BF9D5F82036987906F066F9D5F820361C
:1024B000D87906F061F9D5F82036987806F05CF9FD
:1024C000D5F82036D87806F057F9D5F8203658894F
:1024D00006F082F9D5F82036187A8CE500540040D1
:1024E00000000020690D0020F00B0020C80900202A
:1024F0000000C84200007A44212006F09CF9D4F87C
:10250000C0361B78022B4FF000087DD11FED089AD2
:102510005FED088AB2EE048AD6F8C03603EB880372
:1025200093ED090A20EE080A0CF012FC80F3080073
:10253000C0B206F021F9D6F8C03603EB880393ED5C
:102540000C0A20EE090A0CF003FC80F30800C0B26C
:1025500006F012F9D6F8C03603EB880393ED0F0AA4
:1025600020EE280A0CF0F4FB80F30800C0B208F15A
:10257000010806F001F9B8F1030FCDD1B8F1070F4A
:10258000D4F8C0362AD193ED120A20EE080A0CF0D6
:10259000DFFB80F30800C0B206F0EEF8D4F8C036D6
:1025A00093ED130A20EE080A0CF0D2FB80F308002A
:1025B000C0B206F0E1F8D4F8C03693F8503000EE1F
:1025C000103AB8EE400A0CF0C3FBFF28A8BFFF206A
:1025D000C0B206F0D1F84FF00808CFE7434458786E
:1025E00006F0CAF8D4F8C0364344187B06F0C4F8A5
:1025F000D4F8C036434408F10108D87D06F0BCF891
:10260000B8F10B0FBAD109E5D4F8C0364344587875
:1026100006F0B2F8D4F8C0364344187B06F0ACF8A4
:10262000D4F8C036434408F10108D87D06F0A4F878
:10263000B8F10B0FE8D1F1E42F2006F0FCF8DFF839
:102640003C8418F8010B00283FF4E8AC06F094F83D
:10265000F7E7012006F0EFF8D4F8C0361878CAE49E
:10266000502006F0E8F8DFF818A44FF000094FF00A
:102670000C0BD4F8C03603EB890809F1010998F86E
:102680007D300BFB03A393F8500006F075F898F823
:102690007E0006F071F898F87F0006F06DF898F863
:1026A000800006F069F8B9F1140FE2D1B6E44820D1
:1026B00006F0C1F84FF000094FF0060AD5F8C03611
:1026C0000AFB093809F1010998F8D20006F054F81C
:1026D00098F8CD0006F050F898F8CE0006F04CF8C7
:1026E00098F8CF0006F048F898F8D00006F044F8C3
:1026F00098F8D10006F040F8B9F10C0FDED18DE466
:10270000022302934FF0000A4FF0010BD949D94B35
:1027100094F80809CB1A83420CDB029B012B3FF48F
:102720007DAC5FFA8AF006F086F8012302934FF041
:10273000000BEBE711F8010B00230C2202FB03F85E
:10274000CD4A18F802C0844503D001331C2BF4D1C4
:10275000DDE7C94B03919844D8F804000AF0B0F8BB
:1027600003990346BBF1000F10D08244CFE7D8F89D
:10277000040010F80900CDE9031305F0FDFFDDE9C1
:10278000031309F101094B45F1DCC0E7D946FAE72B
:10279000DFF8ECA294F80809DFF8D89206F04BF8BD
:1027A0004FF000084FF00C0B0AF1480294F808397A
:1027B0009845BFF433AC19F8010B00210BFB01F372
:1027C00013F802C0844505D001311C29F6D108F167
:1027D0000108EBE7534493F8500005F0CDFFA64AFB
:1027E000F5E7162006F027F8B6F8440105F0F4FFE7
:1027F000B6F8D00005F0F0FFB6F8D20005F0ECFF17
:10280000B6F8D40005F0E8FFB6F8860105F0E4FF5D
:10281000002005F0B1FF002005F0AEFF002005F01C
:10282000ABFF96F8330105F0A7FF96F8400105F0DD
:10283000A3FF002005F0A0FFD6F8C036B3F95A0078
:102840000A2390FBF3F080B205F0C6FF96F828014A
:1028500005F092FF96F82C0105F08EFF96F82B01FB
:1028600005F08AFF96F82D01FFF7C5BB082005F09B
:10287000E2FF4FF001085FFA88F008F1010805F067
:102880007BFFB8F1090FF6D1FFF7C8BB082005F0B0
:10289000D2FF002005F0A0FF002005F09DFF0020E2
:1028A00005F09AFF34E4042005F0C5FFD4F8C036E3
:1028B000B3F85E0005F090FFD4F8C036B3F85C00C2
:1028C000FEE4DFF8C0810C2005F0B5FFD8F8AC07B6
:1028D00005F08BFFD8F8B00705F087FFD8F8B407EC
:1028E00005F083FFFFF79ABB042005F0A4FFA06862
:1028F000F6E7062005F09FFFB4F8E80005F06CFF4E
:10290000B4F8EA0005F068FFB4F8EC00D8E404205D
:1029100005F091FF94F8280105F02EFF94F82C01A2
:1029200005F02AFF94F82B0105F026FF94F82D01FD
:10293000FFF761BB072005F07EFFB4F82E0105F01C
:102940004BFFB4F8300105F047FF94F8320105F071
:1029500013FFB4F83401B3E4012005F06CFF607993
:10296000FFF749BB0C2005F066FF94F83E0105F027
:1029700003FFB4F8480105F02FFFB4F8440105F057
:102980002BFFB4F8460105F027FF94F83F0105F04E
:10299000F3FEB4F84A0105F01FFFB4F84C018FE4D0
:1029A000042005F048FF94F8840105F0E5FE94F852
:1029B000850105F0E1FEB4F8860181E494F8380958
:1029C000DFF8C48000EB4000C0B205F034FF4FF0E8
:1029D000000994F83839994508F10208BFF41EAB94
:1029E00098F84C0105F0C8FE98F84D0100EB800006
:1029F00000EB800000F2EE2005F0EEFE09F1010987
:102A0000E7E7012005F017FF94F84001FFF7F3BA5C
:102A1000082005F010FFDFF874904FF0000819F857
:102A2000010F08F1010805F0A7FEB8F1080FF6D173
:102A3000FFF7F4BA102005F0FEFE607905F09CFE69
:102A4000A06805F0D2FE94F83E0105F095FEB4F8BA
:102A5000E80005F0C1FEB4F8EA0005F0BDFEB4F8E8
:102A6000EC0005F0B9FEB4F82E0105F0B5FEB4F89F
:102A7000300125E4690D002028160108F51501082C
:102A8000E015010800F0FF1F6004002095050020FC
:102A900094F84609DFF80084C0EBC000C0B205F02E
:102AA000CAFE4FF0000908F6481A4FF00C0B98F9CF
:102AB000980100230BFB03F212F90A20824200F076
:102AC0002D840133042BF5D109F10109B9F1040F6B
:102AD00008F10808EBD1FFF7A1BADFF8A8830D20B1
:102AE00005F0A9FE09F0FCFC05F046FEB8F824004C
:102AF00005F07BFED8F8300005F077FE94F87839C1
:102B000094F87909834296BFC31AC3F18003002069
:102B10001844D4F87C391844E2E605F083FE804678
:102B2000842005F088FE404605F05FFED54B1A6B09
:102B300008F1800393428CBFA2EB08094FF0800993
:102B400009F0FAFC4A46404608A909F093FD0DF148
:102B5000200881464FF0000ACA45BFF65FAA18F860
:102B6000010B05F009FE0AF1010AF5E7132005F053
:102B700062FEDFF828934FF0000819F8010B08F106
:102B8000010805F0F9FDB8F10B0FF6D1002005F0B2
:102B90002CFE32E405F03CFEFFF740BA05F042FEA1
:102BA00005F040FEFFF73ABA022005F044FEB54BAF
:102BB000D88BFFF785BB032005F03DFE94F8ED05AB
:102BC00005F00AFEAF4B187CFFF715BA4E2B3FF607
:102BD000C2A9222B03D808F09BFEFFF71FBA233BA4
:102BE0004FF000082B2BF6D801A252F823F000BFBB
:102BF000592E0008D72B0008CF300008D72B00082B
:102C0000DD300008D72B000819310008D72B000849
:102C1000D72B0008D72B00083B310008D72B000822
:102C2000D72B0008D72B0008D72B0008D72B00087C
:102C3000EF310008D72B0008D92E0008D72B000849
:102C40006B320008D72B0008F7300008D72B00089C
:102C5000D72B00085D2D0008D72B0008432D000856
:102C6000D72B0008D72B0008F9310008D72B000814
:102C700029320008E9320008D72B0008D72B0008BA
:102C8000D72B0008A5300008D72B0008552D0008C9
:102C9000D72B00087F310008D72B00089931000896
:102CA00094F8EC355B070FD405F0A8FD032828BF86
:102CB000002084F82805FEF743FCFEF79DFA03E0A8
:102CC00005F0A6FDA4F8B606002005F0B4FDFFF758
:102CD000A5B99AF80580B8F1250F00F2D0800DF162
:102CE00020094FEA5808CB464FF0000AC2450CD3E2
:102CF000654943460022084690450DDC0022122B10
:102D000010D1012384F8A439DEE705F081FD0AF132
:102D1000010A2BF8020BE9E739F802CB21F802CBC4
:102D20000132E9E720F813200133E8E705F070FDF0
:102D3000D4F8C086A8F85E0005F06AFDA8F85C002B
:102D4000C2E705F05BFD84F88E0105F057FD84F8BD
:102D50008D01B9E705F05CFDA081B5E7D4F8C08628
:102D600005F04CFD88F8000003F000FEACE7D4F855
:102D7000C08698F80030022B5DD19FED449ADFEDBC
:102D8000448A08F1240908F1300AB2EE048A05F0F9
:102D900035FD07EE900AF8EE677A87EE887AA9EC9F
:102DA000017A05F02BFD07EE900AF8EE677A87EEC0
:102DB000897A89ED027A05F021FD07EE900AF8EE96
:102DC000677ACA4587EEA87A89ED057ADFD108F1DE
:102DD00004094FF0030ABAF1070F1FD105F00EFDE9
:102DE00007EE900AF8EE677A87EE887A88ED127A15
:102DF00005F004FD07EE900AF8EE677A87EE887A10
:102E000088ED137A05F0FAFC88F850000AF1010AFF
:102E1000BAF10B0F09F10109DDD155E705F0EEFC20
:102E200089F8000005F0EAFC89F80B0005F0E6FCE3
:102E300089F81600EAE708F10B0905F0DFFC08F84D
:102E4000010F05F0DBFC88F80B0005F0D7FCC1454D
:102E500088F81600F1D137E705F0D0FC132880463A
:102E60000DD8D4F8C09605F0C9FC0A4A0023117A9F
:102E7000814215D001331C2B02F10C02F7D108F06E
:102E800047FD21E700000020E00D00200000C842BF
:102E900000007A442816010860040020001F010881
:102EA000DC4A0C2101FB032309EB880893F8483026
:102EB00088F87D3005F0A2FC88F87E0005F09EFCC5
:102EC00088F87F0005F09AFC494688F8800009F1EF
:102ED0007D0008F01DFEF7E605F090FC0B2881460A
:102EE000CDD8D4F8C08605F089FC0328C7D80623BE
:102EF00003FB098888F8D20005F080FC88F8CD0033
:102F000005F07CFC88F8CE0005F078FC88F8CF004E
:102F100005F074FC88F8D00005F070FC88F8D1004A
:102F2000D2E69AF80530092BA9D9D5F8208605F004
:102F300065FC88F8000005F061FC88F8010005F0E8
:102F40005DFC6428A8BF642088F8040005F056FCE6
:102F50006428A8BF642088F8050005F04FFC88F8B5
:102F6000060005F04BFC642828BF642088F80700A1
:102F700005F044FC88F8020005F040FC88F80300E6
:102F800005F046FCD5F8F038A8F80A005B790A2B62
:102F90007FF69AAE05F032FC88F8080094E605F05A
:102FA00037FC6FF4AF6C00EB0C039BB2C62B98BFE1
:102FB000A4F8440105F02CFCA5F8D00005F028FC8D
:102FC000A5F8D20005F024FCA5F8D40005F020FCFB
:102FD000A5F8860105F012FC05F010FC05F00EFCCA
:102FE00005F00CFC85F8330105F008FC85F840017C
:102FF00005F004FC05F00CFCD5F8C03600EB8000B1
:103000004000A3F85A0005F0F9FB85F8280105F007
:10301000F5FB85F82C0105F0F1FB85F82B0105F097
:10302000EDFB85F82D014FE6DFF8F0914FF0000839
:1030300005F0EEFB08F10108B8F1080F29F8020BC2
:10304000F6D141E694F8EF35002B7FF43DAE05F064
:10305000DFFB714B84F8ED0501221A7434E605F0AC
:10306000D7FB6D4BD8832FE694F8EC3558073FF526
:103070002BAEFDF7EBFE1EE694F8EC3559073FF555
:1030800023AE4FF4C873A4F852351DE694F8EC351E
:103090005A073FF519AE94F8EB3843F0040384F86F
:1030A000EB3811E645F2082009F038FA062007F05F
:1030B000E7FF0123C72084F8BE3907F0E1FF0023B2
:1030C00084F8793984F87839C4F87C39FCE5C4F897
:1030D000088005F0A7FBFDF797F8F5E505F098FBEC
:1030E000A4F8E80005F094FBA4F8EA0005F090FBD2
:1030F000A4F8EC00E8E505F081FB84F8280105F070
:103100007DFB84F82C0105F079FB84F82B0105F098
:1031100075FB84F82D01D7E505F07AFBA4F82E01A4
:1031200005F076FBA4F8300105F068FB84F8320165
:1031300005F06EFBA4F83401C6E505F05FFB84F8EA
:103140003E0105F065FBA4F8480105F061FBA4F819
:10315000440105F05DFBA4F8460105F04FFB84F83F
:103160003F019AF80530082B7FF6AEAD05F050FB15
:10317000A4F84A0105F04CFBA4F84C01A4E505F0C5
:103180003DFB84F8840105F039FB84F8850105F0E6
:103190003FFBA4F8860197E59AF80580B8F1380F4F
:1031A0003FF66DAEDFF878904FF0000A40F6CA0B9C
:1031B0000323B8FBF3F8C24509F10209BFF484AD5B
:1031C00005F01CFB89F84C0105F022FB5845A8BF0F
:1031D000584640F2EE239842B8BF18461922B0FB79
:1031E000F2F01E3889F84D010AF1010AE3E705F013
:1031F00005FB84F8400167E5DFF828904FF00008F0
:1032000005F0FCFA08F10108B8F1080F09F8010F00
:10321000F6D159E5E015010800000020060E002057
:10322000600400209505002005F0E8FAC4F8088045
:1032300005F0F8FAFCF7E8FF05F0E0FA84F83E0143
:1032400005F0E6FAA4F8E80005F0E2FAA4F8EA00CE
:1032500005F0DEFAA4F8EC0005F0DAFAA4F82E0185
:1032600005F0D6FAA4F830012EE59AF805304FF0B3
:103270000708B3FBF8F8C8EBC8029B1ADBB2002BB7
:103280007FF4FDAD5FFA88F808F1FF385FFA88F83F
:10329000B8F1FF0F3FF418AD05F0B0FAD4F8F828F4
:1032A00040B20023911C11F933C0844503D001338F
:1032B000042BF8D1E3E502EBC30989F8020005F01D
:1032C000A7FAA9F8040005F099FA89F8060005F0B4
:1032D00095FA89F8070005F091FA89F8090005F0D8
:1032E0008DFA89F80800CFE71B4B4FF480421A850E
:1032F000012384F8BF39E7E40A2005F0C3F8FEF79C
:103300009DBE21F8023B0132FEF7AEBE52F8040B1F
:1033100000680133C0F800C0FEF7B5BEC0B205F0CA
:103320002BFAB8F89A0105F057FA98F89C0105F0C5
:1033300023FA98F89D0105F01FFA98F89F0105F00F
:103340001BFA98F89E0105F017FAFFF7BDBB29B0EC
:10335000BDEC048BBDE8F08F0008004808B5FEF70F
:10336000EFF8FDF749FFBDE80840012005F02EB950
:103370002DE9F04FB44DD5F8E02795F8A46A02F591
:103380009C4320338BB0C5F8A03A002E00F0DF80BC
:10339000D5F8A83A9A4202D9013E85F8A46AAA4C07
:1033A000D4F8DC8718F48053019305D0D4F8143690
:1033B000D80701D4FDF7A9F9D4F8C826937A23B326
:1033C00004EB4303127BB3F966351AB1C3F53B63D3
:1033D00008331BB2A3F57A73B3F57A7FA8BF4FF415
:1033E0007A7323EAE37307EE903ADFED986AF8EE1A
:1033F000E77A87EEA67ADFED967A67EE277AFCEE1B
:10340000E77A17EE903AA5F8443918F4807F00F077
:103410003081D4F8E0178F4A94F80637914240F291
:10342000258113B9012384F8063794F8256794F8A9
:10343000EC25D4F814A6012E02F0040B14BF0327C8
:1034400000274FF00009A2E1072C98BF195D8248C0
:103450007B6B88BF21469847032C19D8C0B1D5F89B
:10346000C83603EB84039A8FDB8F801A9B1A08FB04
:1034700000F090FBF3F040F2EE2300F57A709842F2
:10348000B8BF184640F6CA039842A8BF184680B293
:1034900005EB44040136A4F8AC0A95F838B9D5F820
:1034A000C836F4B2A345CFD8D5F8DC27D5F85C05EB
:1034B000019042F201010A40039208D095F83926A2
:1034C00085F83826654A92F8391082F8381095F850
:1034D0003886B8F1000F04D0604A92F8388088F03E
:1034E000010895F8D17A01995D4C0F2285F8D02A10
:1034F0000322B7FBF2F202EB420201F51671BA1A8F
:10350000D2B20591A4F5AD61049204F26A5904F2B5
:10351000B45A2246002602915E451CDB4A4E96F8BC
:10352000D03A0F2B6DD1D6F814365B0169D4D6F89A
:103530005C35D6F81027C6F80C379B1AC82B02D971
:10354000012386F82537013786F8D17A27E7434FDC
:103550004FF47A78A1E7B8F1000F33D0414931F93F
:103560001600998A80B281422ED8D98A81422BD303
:103570000599CAF80010039900B2D9B1049929F845
:103580001100029991F8641B29B9022F12D90298EF
:10359000012180F8641BB9F80010B9F80200084452
:1035A000B9F804100844304900B221F8160003218C
:1035B00090FBF1F022F8020B013609F106090AF13D
:1035C000040AA9E74046CCE7DAF8001001988142E6
:1035D00001D91088CFE7F0B2CDE9063205F05EF9E7
:1035E000032EDDE90632C6DCDFF85CE04FF0010CAB
:1035F0009EF8D01A0CFA06FC21EA0C018EF8D01ABB
:10360000B9E7164B012283F8392083F83820D6F821
:103610005C35D6F80C27C6F810379B1AD6F8082761
:10362000934202D9002386F825374FF0000807E0BF
:103630005FFA88F005F032F924F8020B08F101086E
:10364000C345F5DC7FE700BF6004002000007A443A
:1036500000C07F44404B4C00980D0020000000202B
:10366000C80900200C0F0020C60F0020002B7FF49B
:10367000DCAE019BB4F96E95002B00F0E580B4F848
:103680004431B4F8DE20991A494580F2E0801344B1
:103690004B4540F3DC80FDF715F8FDF721F84FF0BE
:1036A000000AAC4B93F83AB094F8EC35590740F166
:1036B000D58018F0100F00F0D18094F8EB38DA06BE
:1036C00000F1CC80BBF1000F00F01D8194F88E3129
:1036D000BAF1000F40F006813BB1D4F85C15D4F884
:1036E0001C365B1A002BC0F2B580102004F048FF96
:1036F000012384F8843BB1E0BBF1000F0DD0012E13
:1037000005D00520FCF790FD022384F8ED35002F4D
:10371000AFD0384604F034FFABE71AF0806F4FF4B7
:10372000806005D009F014F80023C4F81437EEE7E0
:1037300009F000F8F8E7012E29D1052125E0012E36
:1037400004BF052184F82417BBF1000F0FD0D5F872
:10375000801BB1F90E10A5F86A15A5F86C15A5F82F
:103760006815D5F800174988A5F86E156746D4F88E
:103770005C05D4F81817814202D3BBF1000F60D169
:1037800042F21071C4F82017032184F8241794F82A
:1037900024C794F8EC05BCF1050FB8D801A151F885
:1037A0002CF000BFF9360008373700083F37000813
:1037B000BD370008ED3700082538000840F002004A
:1037C00085F8EC05FCF7A1FFD5F85C05D5F82017C6
:1037D0000144C5F81C17042185F824174FF48060B4
:1037E00008F0A8FF0520FCF72BFDD0E7012E11D132
:1037F000D4F85C35D4F81C17994288D2554991F811
:103800003A1011B91AF0010F81D120F0020084F8AA
:10381000EC0592E7D4F85C25D4F820371344C4F8BB
:103820001C3774E7D5F80007D5F85C15C08885F813
:103830000797642303FB0011C5F8141785F8249734
:10384000CCE7012EA3D062E7B4F8463120E74FF071
:10385000010A26E7FCF759FF84F884AB94F88C3111
:10386000019394F88D01B4F846C1B4F848E13A499F
:1038700000231E4631F9027BB6086745C4BF66F0D7
:103880007F06F6B201337745B8BF46F04006042BF9
:10389000F0D194F8853BB34239D194F8867BF92F67
:1038A00003D80137FFB284F8867B84F8856B08F073
:1038B0000408BBF1000F40F0CC84D4F81436DB07C9
:1038C00038D5BAF1000F24D194F8EC35D80706D5D5
:1038D000590702D4012384F8B035FCF749FF142FAF
:1038E00053D140E03BB1D4F85C154FF47A7013FB30
:1038F0000013C4F81C3694F8843B002BAED004F0BF
:103900002DFE0023F5E6BAF1000FF4D1EDE6002715
:10391000C9E7D4F8FC350A2BE1DCB4F850355A0776
:10392000DDD494F8EF35002BD9D1FCF7CBFEFCF7B2
:10393000D7FED2E794F8EC355B07D0D594F838364B
:10394000002BCCD010B1FCF7E0FEC8E7BAF1000FB5
:10395000C5D1F8E700000020C8090020019B13B181
:103960007D2E00F0808494F8EC355F070DD4572E3F
:1039700040F0CD80D4F804394FF47A7213F0080384
:10398000A4F8542501D1A4F81836B8F1000F40F07E
:10399000E480D4F8C0660023C4F8143606F17F072B
:1039A00006F1CF084FF0010917F8010C394604F071
:1039B0002DFE40B117F8023CD4F8142609FA03F39F
:1039C0001343C4F8143604374745EDD1B24F06F11E
:1039D000CE0B4FF00C0806F58B764FF000094FF038
:1039E000010A1BF8010C594604F010FEE8B19BF8DF
:1039F00004109BF8023008FB0140013BD0F8D026B0
:103A000003EB43033B4493420FD09BF80320C0F8E1
:103A1000D03694F88D3B80F8CC260AFA01F123EADF
:103A20000103C0F8D49684F88D3B0BF1060B5E457C
:103A3000D7D1D4F85C35019394F838360293019BC2
:103A4000D4F820B6954F03F5FA73002603937968EE
:103A5000002900F0388191F800A0BAF1000F00F0C1
:103A60003281BA68019B9A1A002A0ADB039B94F8F8
:103A70008D2BBB60012303FA06F022EA000284F8D2
:103A80008D2B029B002B00F01E813A78487894F829
:103A90008D8B0432D2B2002840F0888304EB4202BE
:103AA000B2F96805B4F8442102F1C80C604540F34E
:103AB000F98091F8029048FA06F1CA0700F10381F3
:103AC000B9F1000FCCBF0220012004F07FFD0AF104
:103AD000FF31132900F28081DFE811F071018501C7
:103AE0009001A001B801C0011E027902E0020E039C
:103AF0003A037E01A001AD01C0011E027902E4017A
:103B000041029E020B2004F03BFD84F8867BB8F155
:103B1000000F01D05A2E17D0A6F15603082B57D804
:103B2000DFE803F05456565656525605500001230E
:103B3000DEB2013B84F82835FDF702FDFDF75CFBA2
:103B4000304604F043FD20E794F8873B4BB1002357
:103B500084F8873B012384F8883B94F8893B53B968
:103B60001FE094F8893B83F0010384F8893BABB1F3
:103B70000C2004F005FD94F8EC35580711D5B4F885
:103B800046314B450DDAD4F8143613F0010302BF69
:103B90003222A4F88A2B84F8893B02E00D2004F03D
:103BA000EFFCD4F81436D90366D594F88C3B2BB9C6
:103BB00094F8873B13B93223A4F88A3B012384F895
:103BC0008C3BE6E60323B3E70223B1E7FFF7C6FB2E
:103BD000334B93F83A3043B16F2E02D1FCF7C8FD56
:103BE000D3E6019B0BB17E2EF8D0972E04D14FF473
:103BF000C873A4F85235C8E6A72E06D194F8EB385E
:103C000043F0040384F8EB38BFE60023B73E099382
:103C1000072E3FF6BAAE01A353F826F0733C000816
:103C20008B3900088B3900088B3900083D3C0008AF
:103C30008B3900086B3C0008433C0008022300223B
:103C400001E000230222D5F8C016B1F85C0002445E
:103C5000A1F85C20B1F85E201344A1F85E30FFF7B4
:103C60007DFB002385F8863B8FE600236FF0010281
:103C7000E9E76FF00103E2E794F8873B002B3FF49C
:103C800088AE94F8EC3513F0040302BF84F8873B48
:103C9000012384F8883B7CE6781701082C0B002070
:103CA00000000020C83A904203DA8A78C2F1000985
:103CB00001E70123B34028EA030384F88D3B019B0D
:103CC00003F5FA73BB600136042E07F10C077FF48D
:103CD000BEAED4F81456AB0706D4D4F8DC37DF05F3
:103CE00007D594F8073723B1D4F804399E0700F1BB
:103CF0009682012008F01EFD0123690740F19A8297
:103D0000002B00F09782012008F014FDB4F8D8379A
:103D10009A0704D40220FCF7D5FC08F019FD94F8AA
:103D2000EC355B0708D4B4F8D83703F044031BB173
:103D3000B4F81836A4F8B636D4F8043913F00A0FDC
:103D40002AD0EF0640F17A82B4F8D8375E0706D45D
:103D5000042008F0FDFCB4F81836A4F8B636A8061E
:103D600040F17082B4F8D837590602D4402008F0E8
:103D7000EFFC6A0642BFC54AB4F81836D38215F084
:103D8000080307D094F8F83533B9C04AB4F81836A8
:103D9000D382012384F8F8352B054FF4807040F16D
:103DA000558208F0D5FC6379082B02D00E2B40F029
:103DB000618240200BB0BDE8F04F08F0BBBC9BF81F
:103DC00000304B44FA2BA8BFFA2323EAE3738BF8A5
:103DD0000030584604F040FC0123B34048EA030891
:103DE00084F88D8B6FE79BF801304B44642BA8BFA0
:103DF000642323EAE3738BF80130EAE79BF803308E
:103E00004B44642BA8BF642323EAE3738BF803308D
:103E1000D4F8901B584604F03BFCDDE79BF80510F6
:103E200049446429A8BF642121EAE171BAF10D0F68
:103E30008BF80510D0D09BF804304B44642BA8BFFE
:103E4000642323EAE3738BF80430C5E79BF806305C
:103E50004B4483F308038BF80630BDE7D4F8940B8A
:103E60000178022943D107EE909AF8EEE76AF2EE64
:103E7000047A86EEA77AD0ED0A7A37EE277AB5EE85
:103E8000C07AF1EE10FA2FD4DFED827AB4EEE77A41
:103E9000F1EE10FAD8BFF0EE477AC0ED0A7ABAF127
:103EA0000F0F99D0D4F8941B0B78022B2BD107EE6F
:103EB000909AF8EEE76AF2EE047A86EEA77AD1EDF0
:103EC000097A37EE277AB5EEC07AF1EE10FA17D4F8
:103ED000DFED707AB4EEE77AF1EE10FAD8BFF0EECB
:103EE000477AC1ED097A77E7DFED6B7AD5E781781C
:103EF0004944C829A8BFC82121EAE1718170CEE7F1
:103F0000DFED657AEDE74B784B44C82BA8BFC8239B
:103F100023EAE3734B705FE7D4F8940B017802292E
:103F200040D107EE909AF8EEE76ADFED5A7A86EE16
:103F3000A77AD0ED0D6A37EE267AB5EEC07AF1EEAB
:103F400010FA2CD4B4EEE77AF1EE10FAD8BFF0EE06
:103F5000477AC0ED0D7ABAF1100F3FF43DAFD4F8B7
:103F6000941B0B78022B29D107EE909AF8EEE76AA2
:103F7000DFED487A86EEA77AD1ED0C6A37EE267A25
:103F8000B5EEC07AF1EE10FA15D4B4EEE77AF1EEA0
:103F900010FAD8BFF0EE477AC1ED0C7A1CE7DFEDDE
:103FA0003E7AD6E7417B4944C829A8BFC82121EA07
:103FB000E1714173CFE7DFED387AEDE70B7B4B44DE
:103FC000C82BA8BFC82323EAE3730B7304E7D4F814
:103FD000940B0178022944D107EE909AF8EEE76A33
:103FE000DFED2B7A86EEA77AD0ED107A37EE277ABE
:103FF000B5EEC07AF1EE10FA30D4DFED267AB4EEE9
:10400000E77AF1EE10FAD8BFF0EE477AC0ED107AF9
:10401000BAF1110F3FF4E0AED4F8941B0B78022BE9
:104020002BD107EE909AF8EEE76ADFED197A86EE6B
:10403000A77AD1ED0F7A37EE277AB5EEC07AF1EE96
:1040400010FA17D4DFED137AB4EEE77AF1EE10FA36
:10405000D8BFF0EE477AC1ED0F7ABDE6DFED0E7AFC
:10406000D4E7017E4944C829A8BFC82121EAE171EB
:104070000176CDE7DFED087AEDE7CB7D4B44C82B29
:10408000A8BFC82323EAE373CB75A5E60000002090
:1040900000007A440000C84200000000D4F8941BDD
:1040A0000B78022B1FD107EE909AF8EEE76AF2EE3A
:1040B000047A86EEA77AD1ED0B7A37EE277AB5EE41
:1040C000C07AF1EE10FA0BD45FED0E7AB4EEE77A17
:1040D000F1EE10FAD8BFF0EE477AC1ED0B7A7BE62D
:1040E0005FED137AF9E7CB784B44C82BA8BFC82300
:1040F00023EAE373CB706FE6D4F8941B0B78022BA2
:104100001DD107EE909AF8EEE76A5FED1E7A86EE13
:10411000A77AD1ED0E6A37EE267AB5EEC07AF1EEC7
:1041200010FA09D4B4EEE77AF1EE10FAD8BFF0EE47
:10413000477AC1ED0E7A4FE65FED297AF9E78B7B7E
:104140004B44C82BA8BFC82323EAE3738B7343E611
:10415000D4F8941B0B78022B1FD107EE909AF8EE3F
:10416000E76A5FED357A86EEA77AD1ED117A37EE00
:10417000277AB5EEC07AF1EE10FA0BD45FED3B7AF8
:10418000B4EEE77AF1EE10FAD8BFF0EE477AC1ED5F
:10419000117A21E65FED407AF9E74B7E4B44C82B5C
:1041A000A8BFC82323EAE3734B7615E601287FF402
:1041B00013AEBAF10C0F7FF40FAE04EB4202897814
:1041C000B2F9680540F633029042A8BF1046B0F538
:1041D000617FB8BF4FF46170A0F561704FF49662D3
:1041E000B2FBF1F2B0FBF2F094F8C426C0B2824206
:1041F0003FF4F2AD032894BF0246022285F8C4269C
:104200000AFB025202F22A520490C5F82026FCF75B
:10421000FBFA04980130C0B204F0D8F9DCE5B4F838
:10422000D837D80704D40120FCF74CFA08F090FAEC
:10423000002362E5022008F07DFA70E5042008F012
:1042400079FA8CE5402008F075FA92E508F072FAE8
:10425000A9E5142F7FF499AB94F8EC755F2E07F065
:1042600004077FF47BAB002F3FF44CACFCF74DFA16
:10427000FFF779BB0BB0BDE8F08F1649D1F8883055
:1042800043F47003C1F88830134B1A6842F00102FE
:104290001A605868114A02405A601A6822F0847203
:1042A00022F480321A601A6822F480221A605A6856
:1042B00022F4FE025A60DA6A22F00F02DA62186B08
:1042C000074A02401A6300229A604FF000638B6035
:1042D000704700BF00ED00E0001002400CC07FF806
:1042E000CCFC00FF80EAE073A3EBE0738B4206DBBB
:1042F000002801DD401A704702D0084470470020B2
:1043000070472DE9F041824CD4F8983BA0EB0308AC
:1043100042F20F7398452DED048B40F2EB8044F68A
:10432000206398457B4DC4F8980B81BF0023C4F8E7
:10433000A43BC4F8A83BC4F8AC3B95F83B3043B36E
:1043400094F8EC2512F0040223D1734BC4F8A42B8B
:104350000021196040F2DC50C4F8A82BC4F8AC2B43
:1043600085F83B20C4F8B42BC4F89C25A3F58962DA
:10437000A3F23443694EA4F88C054FF07E501060D0
:1043800056609160D060116118605E609960D8607D
:104390001961D4F8B86BD4F8BC3BB3426ED0F31AB1
:1043A00008EE903ADFED5E7A5E4BF8EE688A68EED2
:1043B000A78AD3ED007AF5EEC07AF1EE10FA40F25A
:1043C0009D8013ED017AB5EEC07AF1EE10FA40F25D
:1043D000958087EE270AB5EEC00AF1EE10FA40F29A
:1043E0008D80DFED517A93ED018A38EE278A0AF04D
:1043F000DDFBDFED4E7A28EE000A20EE270ADFED26
:104400004C7A20EE270AF6EE007AF4EEE78AF1EE17
:1044100010FA31DCB4F9C03B0F2B72D1B4F9C23BB6
:10442000444A02EB830201331BB20F2B08BF002367
:10443000A4F8C23BD2ED007A0E23A4F8C03B3E4B59
:1044400093ED017A77EE877A30EE670A83ED000A02
:10445000B4F93A39002BB8BF5B429BB21E2B07D888
:10446000B4F93C39002BB8BF5B429BB21E2B4CD930
:10447000324BEB60FCF7F0F8C4F8BC6BD4F8A83B07
:10448000002BC9BFD4F8A42B9FED2D9A07EE902ADC
:10449000B8EEE77AC4BF07EE903AF8EEE77A294B18
:1044A000C8BF87EE279A9FED287AA3EC019AD3ED37
:1044B000007A69EE277AF4EEC77AF1EE10FA08D4A2
:1044C0009FED227AF4EEC77AF1EE10FAD8BFB0EE83
:1044D000677AB4F9183C1E4E0027052B86ED007A4A
:1044E000C4F8A47BC4F8A87BC4F8AC7B36DC0133E9
:1044F000A4F8183CBDEC048BBDE8F0819FED100AD8
:1045000081E7144BD3ED007A99E74FF08043B0E791
:10451000600400200000002010100020CDCCCC3D15
:104520006F12833A680A0020339388438E2BEA4146
:104530000000C84224100020641000200000A040A9
:10454000000000006C100020000048C40000484437
:1045500074100020601000200024744907EE908A37
:104560001FED036A16ED190A56ED039A56ED058AFA
:10457000F8EE677AA6F5CC63C7EE866AA6F5CB623D
:1045800016ED046AD3ED005AD6ED027A66EE255A8E
:10459000A6F25C63E5EEA67AD3ED005AC6ED027A88
:1045A00066EE255A77EE877AA5EEA60AD2ED005A76
:1045B00026EE256A67EEA67AE6EE269AB0EE407AF7
:1045C000B6EE006AA7EE867A30EE270AE7EE268A74
:1045D00006ED190A46ED039A46ED058A0AF0B8FB86
:1045E00039EEA80A08EE100A0AF0B2FBB4F9C01BB3
:1045F000AA8F0E2902F1010207EE900A12B2A6F16B
:10460000500300F3F1800E2ACCBF3A46174603EB65
:1046100082030131AF87C3ED008AA4F8C01B824F2B
:1046200097ED036A97ED007AD7ED016A97ED020ADC
:1046300057ED045A36EE076AB8EEC88A76EE266A57
:1046400038EE408A86EE267AF7EE006AA7EE080A70
:1046500087ED047A36EEC77A17ED038A87ED020AF2
:1046600027EE067A17ED056A87ED037A17ED027AD1
:1046700037EE067AF8EEE77A77EE255A77EEC87AC3
:1046800087EE256AA6EE278A76EEC66A07ED016AEE
:1046900066EE876A07ED038A47ED026A0AF058FB67
:1046A000B0EE480A0646C4F8200C0AF051FBB4F9F3
:1046B0007436C4F89805002BB8BF5B429BB2B3F5C3
:1046C000487F07F5956780F0AC80B4F97636002B0B
:1046D000B8BF5B429BB2B3F5487F80F0A28094F8EC
:1046E000EC25AB7A97ED007AD4F8648712F00402D7
:1046F00008BFC4F89405002B40F08C80D4F89435A2
:10470000181AB0F5FA7F494BA8BF4FF4FA709842D7
:10471000B8BF18460521FFF7E5FD98F80430444975
:1047200043438B4279DB002BB8BF7F33DB11B3F5FA
:10473000967FA8BF4FF49673991B98F80A303D48AE
:104740004B4383426BDB002BB8BF1F335B11B3F5C8
:10475000967FA8BF4FF496732AB198F81500D4F845
:10476000B42B01FB0022B2F5161F3349A8BF4FF44A
:1047700016128A42B8BF0A46C4F8B42B002ABCBF3E
:1047800002F5FF521F3203EB623398F8202007EE48
:10479000902A37EE097AF8EEE77A6FF0950167EE26
:1047A000877A9FED267A67EE877AFDEEE77A17EE35
:1047B000902A962AA8BF96228A42ACBF9B1A5B1AFF
:1047C00030460521C4F89C3587ED009AFFF78AFD35
:1047D000002EB8BF7642C82EC8BF0123C4F84009D6
:1047E000C8BF85F83B3085E6B4F8C21BAA87013103
:1047F0000F2A09B205D1AF87C3ED008AA4F8C21B06
:104800000DE703EB82030F29C3ED008AF6D1A4F86C
:10481000C27B04E7D4F8AC358EE7094B8CE7084B34
:104820009AE70023CCE700BFDC0B00200CFEFFFF63
:104830008169FFFF61DAFFFF0080DAFF0000003BC3
:10484000D4FEFFFFD0ED005A9FED2B4A08B535EEA0
:10485000840AFBF705FEF0EE403AB0EE650AFBF77E
:10486000FFFD90ED015AF0EE404A35EE040AFBF7E9
:10487000F7FDF0EE405AB0EE450AFBF7F1FD90ED82
:10488000023AB0EE405A33EE040AFBF7E9FDB0EE0F
:10489000404AB0EE430AFBF7E3FD65EEC07A20EE36
:1048A000236A24EE847AC1ED017AF0EE467AE5EED1
:1048B000077A24EE233A64EE806AC1ED037AF0EEC3
:1048C000437AE5EE667AA5EE067AE5EE436A24EED3
:1048D000254A64EEE54A65EEA35A81ED004A81ED72
:1048E000025AC1ED047AC1ED054AC1ED066A81EDB7
:1048F000077AC1ED085A08BDDB0FC93F2DE9F04F1B
:104900002DED028BB1B04FF00009FBF759FC18B93F
:10491000FCF79CFAFCF714FEBA4DBB4CFCF76CFCA0
:1049200095F8288C48F0010385F8283CB74B4FF4E4
:104930007002C3F88820002304930593069323682C
:1049400043F480332360236803F400330593049B0E
:1049500001330493059B1BB9049BB3F5A04FF2D11F
:10496000236813F4003318BF01230593059B012B23
:1049700040F0018302230693A54B12221A6063685C
:10498000636063686360636843F480636360636863
:1049900023F47C136360636843F4E8136360236863
:1049A00043F08073236023689901FCD5636823F08A
:1049B00003036360636843F002036360636803F0AA
:1049C0000C03082BFAD1069B904EC5F82C3C914B5A
:1049D000F360636A636A43F080736362636943F4FC
:1049E000FC031CAF636103238DF87230394641F636
:1049F000FF734FF09040ADF8703006F02FFD4FF68A
:104A0000FF738548ADF87030394606F027FD8348BE
:104A1000394606F023FD8248394606F01FFD8148DD
:104A2000394606F01BFD39467F4806F017FD38462B
:104A300003F0FAFF1C9B7D4AB3FBF2F3C5F8303C50
:104A40007B4B7C4ADFF8FCC14FF0000EC5F834EC1C
:104A5000C3F804E04FF0E0230DF1740A5A61F0222C
:104A600086F823200722C3F818E01A61BCE80F007B
:104A70003E460FC6BCE80F000FC69CE80F00D5F8F5
:104A800008B0C5F8DCB786E80F00636943F400237B
:104A90006361636943F400236361636943F4002342
:104AA0006361636943F4003363614FF09043102204
:104AB0001A8520221A8540221A85584A4FF48043CD
:104AC00093614FF4005393614FF400439361764632
:104AD0005AF8040C5146013606F0C0FC062E0AF1C5
:104AE000080AF5D1544B1C936369DFF85CA14A486E
:104AF00043F480236361394606F0B0FC9AF81D2028
:104B00000823002A40F03A82434A93614B48C5F893
:104B1000F80804233022002100F2B27085F84639EB
:104B200001260BF0F9FB1422002117A885F854691F
:104B300048F005080BF0F0FB1BF4802F08BF85F848
:104B40003C6C85F8288CE369334E43F48043E36181
:104B5000236943F480432361636943F480236361E1
:104B6000736A23F470037362736A43F4A00373627D
:104B7000736A23F070637362736A43F0A0637362B5
:104B8000736A23F070437362736A43F0A0437362E5
:104B9000336A23F470033362336A43F4A00333624D
:104BA000736A23F470237362736A43F4A0237362FD
:104BB00040F2023B4FF4604339463046CDE91C3B9E
:104BC00006F00AFC20220123394630464FF4805873
:104BD0001C928DF8743006F0FFFB39463046CDF854
:104BE000708006F0F9FB236943F480432361236955
:104BF00023F480432361124B998821F480510904E6
:104C0000090C23E0600400200010024000ED00E0E9
:104C1000002002400005FA05000400480008004892
:104C2000000C0048001000480014004840420F00EB
:104C3000941000203F19010008000102F605002031
:104C400000380040B41701080000002099809988BE
:104C500089B241EA08019980198801F4415141F46F
:104C6000437141F003011980998821F470610904AE
:104C7000090C41F4E0619980998B21F400610904E9
:104C8000090C998307211982198889B2202241F0E1
:104C900040011980B261C6F818806369DFF8B883F3
:104CA000C5F8FC8843F480236361E36943F400138F
:104CB000E361236B23F010032363236B43F01003A2
:104CC0002363736A23F00F037362736A43F0040370
:104CD0007362736A23F0F0037362736A43F04003F4
:104CE000736239464FF480733046CDE91C3B06F0C1
:104CF00073FB4FF40073394630461C9306F06CFB8F
:104D0000D8F80030B5F9E81023F00103C8F80030F6
:104D1000D8F80020C24B1340C8F80030C14BC8F887
:104D20001030D8F80030B5F9EA20002043F0010334
:104D3000C8F80030C8F80800C8F80C00C8F8080027
:104D4000D8F8083043F40043C8F80830D8F80030E9
:104D5000C8F80030D8F8043023F0784323F4004337
:104D6000C8F80430D8F8003043F00103C8F8003028
:104D7000B5F9EC3041EA02041C431FD007EE901A4B
:104D80009FEDA97A8AF83E00F8EEE77AA74967EE28
:104D9000877A3846CDED1C7A07EE902AF8EEE77A4E
:104DA00067EE877ACDED1D7A07EE903AF8EEE77A56
:104DB00067EE877ACDED1E7AFFF744FD9C4EB5F87D
:104DC000F03003934FF0000B10225946A6F5EE7019
:104DD000C5F868BC95F8EF4095F8F78085F864BC95
:104DE000C6E901BB0BF098FA2320C5F878BCA5F8FA
:104DF00074BCC6E905BBC5F884BC03F043FB0BAA31
:104E00000121752004F02CFA002840D0894AC5F809
:104E10007C2C894AC5F8802C43F64332A5F8782CBF
:104E200001210FAA584604F01BFA9DF83C200028E7
:104E300000F0A780EA2A40F0A48042F63352594697
:104E400006267F20A5F8782C85F8746C04F057F9B5
:104E50000A2003F017FB7821032004F050F90A2000
:104E600003F010FB0121304604F049F90A2003F059
:104E700009FB3F21072004F042F9142003F002FB54
:104E80005946072004F03BF90A2003F0FBFA95F895
:104E9000743C0022062B85F8882C40F0DF80674B9D
:104EA000C5F88C3A664BC5F8903A664B6649D960AE
:104EB000D5F804390A2C43F00101C5F8041928BFBC
:104EC000144640F2FD2121FA04F212F0010240F0F2
:104ED0005681012C40F0518185F8892C9A0700F108
:104EE0005B81D5F88C3A03989847002385F88A3C73
:104EF000B8F1000F40F054814FF000080024224622
:104F00007F2168208DF8704004F0D5F832220F21FF
:104F1000682004F0D0F822460321682004F0CBF882
:104F200001223B4611460C2004F017F99DF8703021
:104F3000092B40F03E81454BC5F88C3C444BC5F8ED
:104F4000903C072385F88A3CD5F8043943F00803E0
:104F5000C5F8043995F8E4300BB185F8883C95F82C
:104F6000E5300BB185F8893C95F8E630002B78D018
:104F700085F88A3C75E00123069324E5354A1385BC
:104F8000C4E502F07E028DF83C2040B1682A06D1CB
:104F9000012385F8743C1D2385F8783C77E79DF85C
:104FA0002C3003F07E03682B8DF82C3032D1062193
:104FB00002233A46084685F8743C04F051F99DF8FE
:104FC00075309DF873209B00520002F0020203F03E
:104FD000040313439DF8712002F0010213430CD027
:104FE000012B03D1002385F8753C50E7022B01D13A
:104FF0000123F8E7022003F054FA13AA01210C2040
:1050000004F02EF99DF84C3013F00F03F2D0042B6E
:10501000EED1E7E7702B04BF042385F8743C36E734
:10502000FFE0CF007A25E00035FA8E3CA01000208A
:10503000C810002061920008FF90000861B50008C8
:10504000B9630008EC0E00202D23FA3B07910008FD
:10505000779200080004004800540040022385F8BD
:10506000643C95F8F830052B7DD8012404FA03F34D
:1050700013F0160F40F0A58013F0290F73D00A200B
:1050800003F000FA4CF6EF030FA90220ADF83C3014
:1050900006F078FE002800F09480204603F0F2F934
:1050A00013A902208DF84C908DF84D9006F050FD1C
:1050B000002800F08680BDF84C305BBA03F03F0357
:1050C000082B7ED1424B9DF84C90D3F8040293F804
:1050D00008321C9039463B7105209DF84DB006F012
:1050E00051FE00286DD03B4C4FF2C77804F11006FA
:1050F0000FA90220ADF83C8006F044FE002860D0E5
:10510000012003F0BFF913A902208DF84C908DF80F
:105110004DB006F01DFDBDF84C309DF84C909DF84B
:105120004DB05BBA9BB200284BD007EE903AF8EE38
:10513000E77AE4EC017AA642DAD1274BC5F8B83C0D
:10514000264BC5F8C03C264B00221A606223C5F8E6
:10515000C83CD5F85C35C5F8CC3C0320002385F865
:10516000D03C06F063FED5F8043943F00403C5F8DB
:1051700004391C4C49F6117647E01446A3E6002298
:1051800085F8892C184AC5F8682C43F00303174AA0
:10519000C5F86C2CC5F80439D5F8683C9847A0E6EA
:1051A000A8F10203032B7FF6A9AEB8F1010F04D1D9
:1051B000D0E6B8F1000F3FF4CDAE002385F88A3C6D
:1051C0009AE695F8643C43F0200385F8643CD0E708
:1051D000E0150108F41000202DBE0008E9BB00080E
:1051E00024110020000800484DB500088563000820
:1051F000A38A9BB283F40053A382A38A9BB283F455
:105200008043A382642003F03DF93B460222002143
:105210004020ADF8706003F05BFE0028E8D0D5F8C0
:105220002C3C012B02BF95F8643C43F0400385F809
:10523000643C95F8640C00287FF4DDAE95F8283CBA
:10524000C24C43F0020385F8283C4FF400532385F9
:105250004FF48043A3610F26A38A9BB283F40053CB
:10526000A382A38A9BB283F48043A382A38A9BB2C6
:1052700083F40043A382192003F004F9013E1920AE
:1052800003F000F916F0FF06E6D14FF48043A36166
:105290004FF40053A3614FF40043A361D5F80439E0
:1052A0001B0705D5D5F88C3C9847012385F8D13CE0
:1052B000D5F85837DFEDA66A1B7BA5F8D23CBAF8C3
:1052C0002230A44807EE103AB8EEC77A1A22C6EE8A
:1052D000877AFF219FEDA07A67EE877AC0ED007A8A
:1052E000A0F206300BF018F8D5F8041901230022BB
:1052F0008F0785F8083985F8092907D585F80A390F
:10530000032385F80839022385F80B394C0708D5A3
:1053100095F808395A1C2B4485F80829032283F88C
:10532000092995F8083911F00A0F03F10102D2B2E8
:1053300010D0E9182A44042081F80909052182F8CF
:105340000919DA1C023355FA83F385F80829062275
:1053500083F80929D5F8DC77B80608D595F8083917
:105360005A1C2B4485F80829072283F809296B79F0
:10537000082B01D00E2B08D195F808395A1C2B4464
:1053800085F808290B2283F8092995F80829A91816
:105390000C20531C81F809097907DBB205D52B4491
:1053A0000232102183F80919D3B25A1CE918D2B27B
:1053B00012207C0585F8082981F8090909D595F896
:1053C000B81131B102332A4485F80839132382F821
:1053D0000939B80508D595F808395A1C2B4485F8C1
:1053E0000829152283F80929F90508D595F80839FF
:1053F0005A1C2B4485F808291A2283F80929982277
:1054000000215648564C0AF087FF012003F0A6F908
:105410004FF04C0B00286AD1D5F8F439B5F944C1E6
:10542000C5F8F4384F4BC5F8803B0022A5F8042797
:1054300085F80627C5F82827C5F82C27C5F8C836EB
:1054400085F8D12AD5F8C016B5F8440103F23246E2
:10545000624603F6E613F82526F8022B0135D4F848
:105460005C25EDB202F516720A2D43F8042B65D1C6
:10547000FA0454BFB4F84A310346A4F86E3501F17A
:10548000500591F87D30ABB991F87F2091F88030CC
:105490009A420FD2002A6BD0013A02EB820202EB51
:1054A000820202F5617293B291F87E2004EB42020F
:1054B000A2F8703504318D42E3D13B076DD594F8E5
:1054C0003E21062A63D8DFE812F05B003A043D046F
:1054D00067048904A404A4040BFB06FA04EB0A097C
:1054E00099F83E8AB8F1000F04D00136F6B2022EC8
:1054F000F2D191E702791C4B90F90000CDF80480BD
:1055000003EB820303220092D3F80C3242460121BE
:1055100006F034FF039068B11448482241465044D5
:105520000AF0FAFE039BC9F8F43901231E4489F8F6
:105530003E3AF6B2012003F0EBF86BE7022D9DBF77
:10554000B4F84621643212B2624685E7000800488A
:105550000AE81C41701000200000C842540E0020D0
:105560006004002096050020E0150108580E002078
:10557000013303EB830303EB830303F5617393E7C9
:1055800045F2F053A4F8D43C06F030FF28B90820C7
:10559000FAF742FEC24BC34A5A6317F4804F18BF52
:1055A0001223BF4D1EBF84F83839BF4B6B6342F2E4
:1055B00001031F4211D044F62063BE04A4F8D43C7A
:1055C00041BF082384F83839B84B6B63F80741BFF3
:1055D0000C2384F83839B64B6B6394F83839B54FDF
:1055E000043B84F8393932209F234FF480580DF161
:1055F0004C091CAE139302F045FF0023A7F8288046
:105600000422494630468DF8713006F039FF9DF886
:105610007130C7F818809DF872201B0443EA0223FA
:105620009DF873201343A44A934200F0338400F39F
:105630002A84A2F51A42033A934200F0328402F51A
:105640001A420232934200F058840023C5E90B331A
:105650006B6202F0C5FD6379C4F8280D052B04BF09
:105660004FF4C873A4F85235FAF7F6FF4FF47A7383
:10567000DFF87082A4F854350320D4F8B83C98477A
:10568000DFED8E7A47460837C8ED007A4FF0650A9D
:10569000B0EE677AB0EE678AB5EE407AF1EE10FAB6
:1056A000C7ED007A40F05084BAF1010A40F0378427
:1056B00094F8EB3843F0080384F8EB3894F8EC35B1
:1056C00023F0020384F8EC35D4F8DC3740F602020C
:1056D0001A4222D00027032384F8B938394601231F
:1056E000774885F82030C822A4F8BC78A4F8C078A0
:1056F000A4F8BE78A4F8C2780AF00EFED4F85C359F
:10570000C4F8C8386F4BC4F8EC7700200021C3E917
:10571000000184F8E87784F8B87894F8283C6A4F58
:10572000D4F80880C4F8DC8763F07F0384F8283C51
:105730003B464FF0804143F8041B64491960644BB9
:10574000BB604FF49663A4F87235624BAB61624D57
:10575000012284F83C2C84F8382D95E80F000DF1D7
:105760001C0A8AE80F0005F110030FCB0DF12C0E77
:105770008EE80F0005F120030FCB0DF13C0C8CE8F7
:105780000F0005F130030FCB89E80F0005F140034E
:105790000FCB86E80F009AE80F0007F1180585E89F
:1057A0000F009EE80F0007F1280A8AE80F009CE826
:1057B0000F0007F1380E8EE80F0099E80F0007F18F
:1057C000480C8CE80F0096E80F0007F1580C8CE8A5
:1057D0000F004FF4967002F055FE4FF48C7207F1F3
:1057E000680000210AF098FD3C4BDA6942F007029C
:1057F000DA619A6942F4A5229A615A6942F4C02298
:105800005A6100200F27AA7B696895F80FC002F043
:105810000703D20801EB82029B00116A0CFA03FC19
:1058200007FA03F321EA03031362136A04304CEA14
:1058300003031428136205F11005E4D16279D4F84A
:10584000F818182A9DBF264BD34003F0010300230C
:105850008DF866300022881C10F93250022D00F0BD
:10586000A5830132042AF7D100228DF86120C8F304
:1058700040028DF86220C8F380128DF86420C8F3CE
:1058800040328DF85C20C8F3C0328DF85F2018F4E8
:10589000006229D094F83221D11E4A424A4123E0C5
:1058A00000000020C1610008DD610008C56100083A
:1058B000D16100080004004818BA20000000000070
:1058C000500C0020300D00208C110020ABAAAA3F04
:1058D00026B4973EA08601000C1801080010024073
:1058E00000410001640A00208DF86020C8F30042E6
:1058F0008DF8652008F001028DF85D20C8F3C00224
:105900008DF85E20C8F3804218F4805FB4F8D4109C
:105910008DF86320B4F8E020ADF86A101CBFB4F82D
:10592000DC10ADF86A10B2F5FA7FADF8682094BFCC
:10593000BDF86A200022ADF86A2094F8822184F82C
:10594000AC2E00225B0018F0090FA4F8AD2ECE4A51
:1059500018BF013302EB83034FF6FF79D3F87C3293
:10596000A3F102080833039338F8020F484500F00A
:10597000C880030A022B00F0C080C44AC0B2012BC9
:105980004FEA001B02EB001040F0A1839DF85D3050
:10599000002B00F0B28004EB0B07002384F8B03E2C
:1059A000C4F8B43EC4F8B83EC4F8BC3EC4F8F03EF7
:1059B00084F8F83E97F8513DB7F84C2DC4F8040F21
:1059C00031468DF87230D7F8480DADF870200223BB
:1059D000C4F8F49E8DF8733005F040FD94F8AC2EB9
:1059E000D7F8445D97F84EAD012A18BF00212A6A06
:1059F00008BF0321BAF1000F40F0DF8222F001025C
:105A00002A62AA69286A22F0F30242EA011220F00F
:105A10000A0042F0010240F00100AA612862AA696E
:105A200022F00C02AA61AA69AA610122002128467B
:105A300005F01AFC2A88964F92B242F00102BB444C
:105A40002A809BF84FBD584606F04AFBBBF11B0F5E
:105A500002D1192006F044FB8E4AC7F8082F4FF0F8
:105A6000000B8D4AC7F80C2F2846C7F810BF05F069
:105A700073FB062841D80A214143884A01EB9A0169
:105A800007EB810C131DCCF8942DCCF8A43D4FEA04
:105A90009A0C0223E96803FA0CF39BB20B43EB6008
:105AA00028234343A2F5BA7203F120011144EFF316
:105AB000128C4FF0500E8EF312880C33134453F8AF
:105AC000042F0AB10A60111D0BF1010BBBF1040F89
:105AD000F5D100230B605FFA8CFC8CF3118828232E
:105AE00003FB0077D7F8B43D002B40F0EC82EB6865
:105AF00023F001031B041B0CEB60039B43457FF465
:105B000033AF674E674D042384F8C0390FCE0FC5FD
