:020000040800F2
:1000000000A0002055E90008BDE90008BDE900088E
:10001000BDE90008BDE90008BDE9000800000000D6
:10002000000000000000000000000000BDE9000822
:10003000BDE9000800000000BDE9000805810008D6
:10004000BDE90008BDE90008BDE90008BDE90008F8
:10005000BDE90008BDE90008BDE90008BDE90008E8
:10006000BDE90008FF800008BDE90008BDE90008FF
:10007000BDE90008BDE90008B5AF0008BDE900080A
:10008000BDE90008BDE90008BDE90008BDE90008B8
:10009000BDE90008BDE90008BDE90008BDE90008A8
:1000A00015B20008CDB1000825B20008BDB10008A6
:1000B000D1B10008E1B10008F1B10008BDE90008C4
:1000C000BDE90008BDE90008BDE90008BDE9000878
:1000D000BDE90008F5AF000801B00008BDE900085F
:1000E000F9800008BDE90008BDE90008BDE9000885
:1000F00011B20008BDE9000801B20008BDE900081E
:10010000000000000000000000000000BDE9000841
:10011000BDE90008BDE90008BDE90008BDE9000827
:10012000BDE90008BDE90008BDE90008BDE9000817
:10013000BDE90008BDE90008000000000000000063
:10014000BDE90008BDE90008BDE9000800000000A5
:10015000000000000000000000000000000000009F
:100160000000000000000000BDE90008BDE9000833
:10017000BDE90008000000000000000000000000D1
:0801800000000000BDE90008C9
:1001C00010B50F4B1A786A2A17D15A88B2F5AA6F60
:1001D00013D11A79BE2A10D193F84E25EF2A0CD1EB
:1001E000084C002213F8011BA342104682EA0102C8
:1001F000F8D1431A5842584110BD0020FCE700BF17
:1002000000F0030850F50308024A93680343936023
:10021000704700BF68040020024A936823EA000385
:100220009360704768040020044A0123B2F8501517
:1002300083400B43A2F85035704700BF680400208C
:10024000044A01238340B2F8500520EA0300A2F8D3
:10025000500570476804002010B50C4CB4F85205E6
:10026000B4F85435184380B260B9FFF7E9FFB4F829
:10027000500510F0010004D1D4F85805003818BF1B
:10028000012010BD0020FFF7CFFFF0E76804002039
:10029000704B71481A68596870B5D0F85C45A21A5D
:1002A0008A4215DB1A7A9AB190F86025B0F8506549
:1002B0000132D2B280F86025002101252E4208D1FA
:1002C00001316D000929ADB2F8D15A6822441A6093
:1002D00070BD89B20139072905D8DFE801F01BACF0
:1002E00090819D452E7064225A605D7A5B4A4FF47E
:1002F00080404FF4005190612DB111854FF40041C1
:100300001185002204E091614FF4004191610122C6
:100310005A72DAE75D7A64225A604FF480404F4A9D
:100320004FF4004125B1108591614FF40051E7E78A
:10033000906191614FF40051E8E790F861154748EA
:1003400021B364225A604FF4804282614FF400521C
:1003500082614FF400420285B7E74FF48042018585
:1003600002854FF40052F6E790F861153B4869B1F9
:1003700064225A60828A92B282F4005282824FF4DE
:10038000804282614FF4004282619EE702F00302E4
:100390007821022A59604FF40041DED0032A0AD0A6
:1003A000012A01854FF4804201D0826100E002857C
:1003B0004FF40052E8E781614FF48042F5E790F88E
:1003C0006125002A81D064225A60244A4FF480417A
:1003D00011854FF4004191614FF40051916174E730
:1003E0001E4964225A604FF480428A614FF40042F1
:1003F0008A618A8A92B282F400528A8265E7642214
:100400005A60164A4FF4804191614FF40041916166
:100410004FF40051118558E7104964225A604FF497
:1004200000528A618A8A92B282F480428A824FF4B0
:1004300000428A6149E7642112F0010F5960074ABE
:100440004FF480414FF4004001D11085C3E7906123
:10045000DDE700BF0000002068040020000800481D
:10046000FDEEC07A17EE903A2033402B43D8DFEDF3
:10047000237A9FED237AB4EEE70AF1EE10FA28DC36
:10048000DFED207A9FED1E7AB4EEE70AF1EE10FA66
:1004900022D4DFED1D7AB4EEE70AF1EE10FA1EDD8C
:1004A00030EE670A37EEC00A60EE007ADFED176AB9
:1004B0009FED177AA7EEA67ADFED166AE7EE876A58
:1004C0009FED157AA7EEA67A20EE276AA6EE070A18
:1004D000704730EE470ACEE730EE070AD4E79FEDCB
:1004E0000F7AB4EEC70AF1EE10FA44BF30EE270AD5
:1004F00037EE400AD8E79FED0A0A7047DB0F494004
:10050000DB0FC940DB0F49C0DB0FC93F9A7C2E3699
:10051000FAAF4FB93587083CA4AA2ABEDB0FC9BF82
:100520000000000003685A1C026019707047002325
:100530001B68FFDE30B5484BD3F86425B3F96E1560
:100540009578D278B3F98C05002A41D00A1A82EA4C
:10055000E274A4EBE274AC4223DD012012F5997F32
:1005600083F88E051ADD062092FBF0F2502AA8BF10
:100570005022B3F89005024412B2A3F8AA25A3F8BA
:10058000902593F8B025002A61D040F2DC529142C8
:100590005DDC4FF47A72A3F8AA2530BD6FF031020A
:1005A000E7E793F88E2532B1D3F89825C3F8942560
:1005B000002283F88E25D3F89C25D3F8A04510445B
:1005C00022889042D8DB62888242A8BF0246D3E7E5
:1005D00040F2DC529142214C23DDA1F2DC529542E3
:1005E00028DAA1F2DC52002ABCBF6FF4BB628A1881
:1005F0009210782AA8BF7822C3F8AC250122A272F3
:1006000083F88E25D3F89C25D3F8A0451044228882
:10061000904203DB62888242A8BF0246A3F8AA2563
:10062000AFE7521A954205DAB1F5896FD9DC6FF060
:100630006302E1E70022A27293F88E45C3F8AC256D
:10064000002CDFD0D3F89845C3F89445D8E70022B2
:1006500083F8B025A1E700BF680400200000002057
:10066000134BD3ED037A134BF5EE407AF1EE10FA0B
:100670004FF0000203F1040103F1080003D11A60F6
:100680000A6002607047F0EE086A86EEA77A80ED95
:10069000007A27EEA77A67EE877A86EE876AF7EE0A
:1006A000006A86EEA77A81ED006A83ED007A7047D2
:1006B000000000201C0A0020034BB3F8C0351D2B9E
:1006C00001D80420B0E5704768040020054B0022E3
:1006D000C3F8C425C3F8C82503F2CC5300221A601E
:1006E0005A60704768040020074B0022C3F8D425E5
:1006F000C3F8D825C3F8DC2503F5BC6300221A60D3
:100700005A609A60704700BF6804002010B5164C0C
:1007100094F8EC355A0706D523F00503042084F835
:10072000EC3507F0C7FE94F8ED25104B0AB1002216
:100730001A7401225A74782200215A82042040F24D
:1007400014529A8284F8EE1584F8EF1584F8F015A7
:10075000C4F8F415FFF774FD0520FFF771FD84F868
:10076000F81584F8B01510BD6804002000000020C2
:100770002DE9F047CC4C94F8F935B4F8FA2504EBA0
:100780004303B3F968359342C0F28181B4F8FC2584
:10079000934200F37C8194F8FE550DB994F8FF550F
:1007A00094F8023684F8005684F80156002B00F0C5
:1007B0000D81D4F80476D4F80836FB1AC72B40F222
:1007C000058194F80C86B8F1000F40F0F5804146A1
:1007D000404608F0D9FBB54BB548002D08BF184678
:1007E0000BF0E2FED4F8106694F8FE95022E40F06D
:1007F000A081B4F85035DA0740F14B81AD4BC4F815
:100800001436D4F81486B8F1000F06D00620002163
:1008100008F0BAFB40460BF0C7FE0021102001365D
:10082000C4F8106608F0B0FBB4F8C035A2480A213D
:10083000B3FBF1F201FB12339BB2A0490AF0C2FFF5
:100840009D480BF0B1FE0721002008F09DFBB9F197
:10085000000F40F0778194F8FF259948934B002AC8
:1008600008BF18460BF0A0FED4F82C66D4F85C350F
:1008700094F8302616F0010600F06681002A40F058
:100880006881C4F83426B4F85025D20504D5012275
:1008900084F83026C4F8383607210846D4F83436B0
:1008A0004FF47A724FF03C0AB3FBF2F808F06CFB9D
:1008B000B8FBFAF9834980484A460AF083FF7E482C
:1008C0000BF072FE07210C2008F05EFB7E497A488F
:1008D0000AFB19820AF076FF77480BF065FE1020BC
:1008E000072108F051FB7948794B002E08BF1846C4
:1008F0000BF05AFE002D5FD10221012008F044FBCD
:100900000A267449B4F93E266B4892FBF6F20AF0C7
:1009100059FF69480BF048FE0321012008F034FB21
:100920006D49B4F93C26644892FBF6F20AF04AFF9E
:1009300061480BF039FE0421012008F025FBB4F9D1
:10094000422666495C480AF03DFF5B480BF02CFEEE
:1009500002210B2008F018FBB4F96A2560495648BB
:100960000AF030FF54480BF01FFE03210B2008F063
:100970000BFBB4F9682558494F480AF023FF4E484D
:100980000BF012FE04210B2008F0FEFAB4F96C25DE
:10099000524949480AF016FF47480BF005FE052169
:1009A0000B2008F0F1FAB4F96E254E4942480AF0DE
:1009B00009FF41480BF0F8FD94F84436AB4201D0F2
:1009C0000BF0DBFD84F84456C4F80876002D00F0E7
:1009D0004D8107F09FFBD4F84836C31A002BC0F2B4
:1009E000CE80414DAB690344C4F848362B7FCBB170
:1009F0003E4B3F4800264FF40052C4F84C66C4F802
:100A000050662E729A614FF400429A614FF4804210
:100A10009A614FF47A71012208F09AF901232E7736
:100A200084F858364FF090434FF48072A4F8602653
:100A3000C4F85C361B8A4FF40032DB05C4F8642628
:100A400000F18D80D4F85C35D4F850269B1A002B29
:100A5000C0F2858094F8543633B1D4F85C25D4F8CC
:100A60004C361344C4F850366FF0950301252946DF
:100A70000220A4F8A635C4F86C3684F879560AF03A
:100A800021FA29460020BDE8F0470AF01BBA0025EC
:100A900086E6980701D5174BB1E6D90601D41A07A7
:100AA0002CD5154BABE600BF68040020E01C010804
:100AB000DA1C0108F81C0108800A0020521D0108F8
:100AC000E61C01085A1D0108621D0108EC1C010802
:100AD000F21C0108681D0108721D01087C1D010837
:100AE000861D0108901D0108000000200008004834
:100AF000B40A0020021D01080C1D0108980605D447
:100B0000B9F1000F04D194F8FF250AB9684B76E6D5
:100B1000590701D5674B72E65A0601D5664B6EE65A
:100B2000180601D5654B6AE6D9057FF56AAE644BB8
:100B300065E6052E01BF634BC4F81436C4F8108671
:100B400046465EE660488DE6002A3FF4A5AE84F88E
:100B50003066D4F838269B1AC4F834369CE6B4F9CB
:100B60006A35B3F5FA6FA8BF4FF4FA63B3F57A7F2D
:100B7000B8BF4FF47A73A3F2DC531BB276E7534A43
:100B80000023A2F1D401A2F110001578B5B1032B16
:100B900006D050F8235021F8135001330132F4E706
:100BA000D4F87436A4F86E3594F87C3613B100236B
:100BB000A4F87E36464E002301250CE00133042BB9
:100BC000ECD1F1E701200BF019FD002384F8813608
:100BD00084F88056012316F8012B002A42D0DBB29C
:100BE000013B042BEED8DFE803F0030D1B29330093
:100BF00001200BF0F5FC002384F8803684F8815640
:100C00000223E8E704200BF0F9FC40200BF0E8FC9D
:100C1000012384F88236002384F883360323DAE73D
:100C200040200BF0EBFC04200BF0DAFC012384F8ED
:100C30008336002384F882360423CCE708200BF0A7
:100C4000DDFC002384F8853684F884560523C2E74A
:100C500008200BF0C5FC002384F8855684F8843600
:100C6000BDE8F0870133062BB5D1F9E794F8583683
:100C7000002BF5D0174BC4F86856012284F878563B
:100C8000C4F86C5684F87956C4F8705684F87A56CD
:100C9000C4F8745684F87B5684F87C56C4F84C56D5
:100CA000C4F850561A721A7784F85856D8E700BF1D
:100CB000161D0108201D01082A1D0108341D010808
:100CC0003E1D0108481D0108E61C0108E00A00203D
:100CD000E80A002000000020224B93F8EC2512F0D7
:100CE000010F02F0040103D1D3F88806012833DC98
:100CF00093F88C0680B393F88D0668BB39B11A4A15
:100D00001346516843F8081BD2681A607047D3F83D
:100D10002C16480124D491071FD442F0040283F812
:100D2000EC2593F8EE2522B9012283F8EE25D3F8BD
:100D30005C250E4AB3F84216D183D3F85C25D3F86C
:100D40005C1593F88E214FF47A7012FB0012052087
:100D5000C3F8A02607F0AEBB11B9012007F0D0BB45
:100D6000704700BF68040020F80A0020000000203F
:100D700070B5104CD4F8A456284607F007FC287A22
:100D800004F5D56400226FF01806192112FB0263E6
:100D9000434303F6C41353430132072A93FBF1F391
:100DA00024F8023BF2D128460349BDE8704007F021
:100DB00009BC00BF68040020380500202DE9F84F69
:100DC0004FF4AA622DED028B0021C8489FEDC88A1E
:100DD0000FF006FAC54A02F5E4730021C2F8B836EE
:100DE00002F22A566A2303244FF40060154613705A
:100DF000547182F8BC16C2F8A466FFF705FA802089
:100E0000FFF702FA0220FFF7FFF94FF40060FFF747
:100E1000FBF94FF48070FFF7F7F9C823A5F8FA3013
:100E2000B44BDFF83CC3DFF83CE385F832414FF4C4
:100E30008037C5E93B73B04BC5F8F4304FF47A7393
:100E4000A5F8343142F22013C5E94AC34FF0A0633C
:100E5000C5F8C431A94B85F828154FF07E58C5E96F
:100E600051E340F64303A5F84C312A46A5F8E410B7
:100E700085F8E610C5F8FC10A5F80011C5F8E810D3
:100E800085F8F810C5F81081C5F81481C5F81881E7
:100E900085ED478A85ED488A85ED498AA5F83011A8
:100EA000A5F8B81185ED6F8A85ED708AA5F83E1119
:100EB0002B462C460329CCBF0122002201F101015F
:100EC00083F84E2114BF1E220522122983F84F21D8
:100ED00003F10203EED18A4BC4F84031834B002268
:100EE0004FF47A704FF4FA610132042AA3F87201C8
:100EF000A3F8741103F10403F6D1824A824B8349AB
:100F0000C4E96323824BC4F8D030A3F1FA73643B85
:100F1000C4F8D43003F5602303F5CB73C4F8D8309C
:100F20007C4B00274FF00109C4E9371384F8827124
:100F300084F894910AF014FD40F6AC53A381764BEB
:100F4000C4F8C83103F10343A3F51D23A3F29D7335
:100F5000C4F8CC317148724B724AC4F8F821C4E924
:100F60007403714BC4F8D8312D2384F8DD3141F678
:100F70001E63A4F8DE316D4BC4F8E031C4F8FC21E7
:100F800045F205336A4AA4F8E431C4F81422642314
:100F90004B2284F8E63184F8182240F201534FF4D2
:100FA000FA72A4F8E831A4F81A22624BC4F80432A9
:100FB00040F2DC52C4F80832A4F834255E4BC4F881
:100FC000F43144F25A125D4BA4F82A254FF07F51B8
:100FD0003222A773C4F81032C4F81C72C4F82C254E
:100FE000A4F8307584F83275C4F8EC11C4F8F01127
:100FF000C4F8008284ED838AA4F82272C4F82C32EB
:1010000042F62803A4F83032152384F834324C4BCE
:10101000C4F82472C4F838324A4F4B4B84F84492D7
:10102000DFF83891C4F83C3240F60822474BA4F868
:101030002822C4F84032BA4609F1080BB84617F81E
:10104000011B002943D14FF42053A4F8DE324FF4A2
:101050004873A4F8E2323E4BC4F88431C823A4F8A4
:101060008A3184F8DD1284F8E01284F8E41284F8FE
:1010700088110C23013B05F1100585ED008AF9D19B
:1010800034494FF4907288180BF0C4FA31494FF488
:10109000907201F510700BF0BDFAD4F82A35C4F83F
:1010A00036352D4A73685360B368D4F82A159360B7
:1010B000C4F842155361012384F84033716811610B
:1010C000022384F86034BDEC028BBDE8F88F23481E
:1010D0000FF0D4F80028B1D058453FBFA0EB09006D
:1010E0000019A8EB0A0880F83681A7E768040020F9
:1010F000000000002A005802FA0020006C07750367
:10110000001E0001000105960101C800B40532006F
:101110004C04D00750463200012828962828783CF5
:101120000A0A4600CDCCCC3E0002210A1E321E0027
:10113000000040408FC2F53C000020400000A0406D
:101140009A99193F9A1D0108F6287C3F1F856B3F2D
:101150000AC81405300600209E090020A8140108C2
:10116000190A0A2ADC054C042DE9F843FFF728F890
:1011700010B9032007F02FF9C14C07F0F3FA4FF430
:10118000AA62C04920460BF045FA94F82865022E61
:1011900088BF00264FF4907506FB05F504EB0502A9
:1011A00088BF84F8286592F82032022B84BF002380
:1011B00082F820320C2284F8BC3605F5E47702FB75
:1011C000034303F22A5308202744C4F8A436C4F882
:1011D000B876FFF721F84FF40050FFF71DF8012013
:1011E000FFF71AF84FF48040FFF716F8FFF70CF8F6
:1011F0004FF4907303FB0643002283F8452241F22B
:101200000302A3F84622A04AC3F8482202F1805202
:10121000A2F57E42C3F84C229C4A4FF4866CC3E987
:1012200094C2202283F85822052384F8F93540F22D
:10123000AA53A4F8FA3540F20E63A4F8FC35944B97
:10124000012283F82020A36846F209021A4203D142
:101250004FF40050FEF7D8FFA368D80703D54FF42A
:101260000050FEF7D9FFA368590409D50820FEF7FE
:10127000D3FF4FF40050FEF7CFFF0120FEF7CCFF65
:10128000A3681A0706D54FF40050FEF7C5FF0120EA
:10129000FEF7C2FFA3689B0402D54020FEF7BCFF07
:1012A000012384F8B93194F88C312BB194F8903142
:1012B00013B1002384F89031DFF8EC81C4F8C086C4
:1012C000002002464FF0FF0E04EBC003B3F89A1162
:1012D0004B0803F077334FEA910909F03339CB1A01
:1012E000A3EB09034FEAD10909F01139A3EB090374
:1012F00003EB231303F00F33B3FBFEF9C9EB09290A
:1013000001F0010CA3EB09036244012BD2B207DD0B
:10131000022B0BD1BCF1000F08D011F0BC0F05D08F
:1013200001300428D0D1013A012A01D90AF018FB72
:10133000FFF71EFD302200215648DFF870910EF0B5
:101340004FFF05F24520394620440AF037FB4FF4A1
:10135000907303FB0646C4F8F49696F8C80105F0AE
:10136000A1FA09F18E03C4F8F83694F88431DFED60
:101370004A6AC4F83C876421C82213FB0123B4F8ED
:10138000F210C4F800370023C4F80437C4F8083753
:10139000C4F80C37C4F81037C4F81437C4F8183739
:1013A000A4F81C37C4F82037C4F8243707EE901A85
:1013B00009F10603C4F82C37A9F11E03B4F8F410A0
:1013C000C4F83037F8EE677A09F19A03C4F8383771
:1013D00009F24A63C3ED017A07EE901AB6F82812B3
:1013E000A4F8401796F8441284F8421794F88F1125
:1013F00084F84C17B6F8E212C4F8503707EE101A0A
:10140000F8EE677AB8EEC77AC3ED027AC6EE877A4D
:1014100005F50C732344C4F8543705F2DD2509F2B1
:101420006263A9F126022544C4F83427C4F85C7726
:101430004FF07E519FED197A67EE877AC3ED007AFF
:1014400009F26A63C4F86455C4F8A025144A1A6006
:101450004FF07C5209F27E695A6000229A60D9608E
:101460001A61104BC9F80030C9F80410C9F80820F7
:10147000C9F80C10C9F81020BDE8F84307F08AB984
:101480006804002000F0030830010300100500107C
:10149000000000202C0B0020000061444C3D0F4454
:1014A0000AD7233CCDCCCC3D9E0500205E05002014
:1014B0002DE9F74F07F056F9434B6A221A704FF4A3
:1014C000AA625A80BE221A71EF22A3F84E2540F27A
:1014D000515100221846013955D13C4B80F84F2517
:1014E0001A69120604D53A4A5A6002F188325A60E3
:1014F000364C384E03254FF03409C4F80C900AF0EE
:101500001DFA0428DFF8C08038D1236943F00203B4
:101510002361314B6361236943F0400323610AF087
:101520000DFA2369042823F00203236126D14FF02A
:10153000000BDA4658F8047BCDF804A00AF0FEF957
:1015400004281BD1236943F0010323610BF10063DD
:1015500003F57C33BAB21A800AF0F0F9042816D1E8
:101560000BEB06030193019B3F0C1F800AF0E6F989
:101570002369042823F0010323610DD0013D15F0F8
:10158000FF05BAD10DE013F8014B6240A3E72369D0
:1015900023F001032361F1E70BF1040BBBF5AA6F04
:1015A000C8D10A4A1369042843F08003136102D1A9
:1015B000FEF706FE10B9042006F00DFF03B0BDE8EB
:1015C000F04F07F0E7B800BF680400200020024099
:1015D0002301674502F0030800F003082DE9F04FEE
:1015E000D54ED6F8A486B6F96EE5B8F80A202DEDEA
:1015F000048B9645A9B0C0F2B581BEF5FA6F98F894
:101600000740BDBFAEEB020313FB04F3C2F5FA6261
:10161000C4F16403BCBF93FBF2F3C3F16403019311
:10162000B6F844310393C54BD6F8B8B6069303F524
:101630000E7203F13C070592A3F5AD6503F23B2260
:1016400008F10403DA460492002064210793069B04
:1016500033F9022B029206931346039A9B1A03F264
:10166000F31240F2E634A24200F27E81002BB8BFB2
:101670005B42022800F07B819BF815211AB19A4247
:10168000B4BF9B1A0023B3FBF1FC05EB4C024FF6F1
:101690009C74B2F9A697B2F9A8271CFB043CA2EBF4
:1016A00009020CFB02F292FBF1F24A443A80079ADB
:1016B000125C12FB03F3A24A93FBF2F3019A643328
:1016C0009BB2534393FBF1F31AF8012F059C5A4345
:1016D00092FBF1F204F8012B9AF8162005945A4374
:1016E000049B92FBF1F203F8012B022804931EBF26
:1016F000944B019AC254DDE9023208BF85F8B6174F
:101700009342B8BF3B8800F10100BCBF5B423B8005
:10171000032807F102079AD1DFF83492D5F82C8616
:10172000B9F92230581C0DD018F0080F0AD0D5F89E
:101730009825323B934205DC40F2DC539E45C8BFFE
:10174000A5F86E3595F8EF351BB1B9F81430A5F84A
:101750006E35B5F96E35B5F846219342C0F2328147
:10176000B3F5FA6FA8BF4FF4FA639B1A4FF47A717E
:101770004B43C2F5FA626424B3FBF2F393FBF4F13A
:1017800005EB41026FF06307B2F9B807B2F9BA2767
:1017900007FB0133121A534393FBF4F30344A5F8F8
:1017A000AA35B5F8D037590639D5B5F84236B9F863
:1017B0001E20DFED657A9FED650A9B1A1BB205EED0
:1017C000903AF8EEE55A65EEA75A35EE800AFEF734
:1017D00047FEB0EE405AB0EE650AFEF741FEB5F99D
:1017E000A63506EE903AB5F9A43507EE103AF8EEB4
:1017F000E66AB8EEC77A67EE007A20EE660AE6EE91
:10180000857AA7EE050AFDEEE77ABDEEC00A10EE76
:10181000103AA5F8A43517EE903AA5F8A635D5F8F4
:10182000D4A71AF0020F00F0E280D5F8D827D5F837
:10183000DC3745F20721D31A8B4240F3D8800220CF
:10184000C5F8DC2709F0A4FBC2075EBFC0F3CF04D4
:101850001923B4FBF3F495F8E037D5F8E42705EB4A
:10186000430148BF4FF6FF74B1F8E807A1F8E84715
:10187000121A144401336422B3FBF2F102FB113358
:1018800085F8E03795F8B038C5F8E447632B9EBF7C
:101890000133DBB285F8B038B4FBF3F495F8B13816
:1018A000A7B2032BA5F8C07540F08E800A2F40F236
:1018B0009E8099F8241001EB810101EB8101002346
:1018C0004FEAC11B01EB01114FF416721FFA8BFB9B
:1018D000C90085F8B138282041F26803A5F8B2287C
:1018E000A5F8B438A5F8B818A5F8B6B806F064FDA0
:1018F0002A21B7FBF1F107EB8707013107EB8707D7
:1019000089B2BF000829BFB228BF0821A7EB0B0787
:101910004FF4167241F268037A43A3EB0B0389F884
:10192000241092FBF3F3A5F8BA38034AB2F8B8389A
:10193000A4B2633BA3420DE068040020D00900205C
:101940000CFEFFFF1C0C002035FA8E3CDB0FC93F5C
:10195000000000204BDD0123082082F8B13806F09A
:10196000A9FD44E064235AE64FF4FA7381E69BF83C
:1019700016211AB19A42B4BF9B1A0023B3FBF1FCA3
:1019800005EB4C024FF69C74B2F9A896B2F9AA2660
:101990001CFB043CA2EB09020CFB02F295F9EEC021
:1019A00092FBF1F2CCF1000C4A4412FB0CF2A5F8C8
:1019B000A82598F8062012FB03F3C14A93FBF2F323
:1019C000643381E61346D0E60A2F00F2A980032390
:1019D00085F8B138002389F82430A5F8B838A5F87F
:1019E000B638A5F8B438A5F8B238A5F8BA381AF45C
:1019F000006FB44C55D0D4F8D827D4F8BC3845F291
:101A00000721D31A8B424CDDD4F85C35C4F8BC28CE
:101A1000D4F8C028C4F8C0380120A3EB020B09F0A9
:101A2000B7FA00B2632840F3AC80642390FBF3F074
:101A300007EE900AF8EEE77AB2EE047AC7EE876A0C
:101A40009FEDA17AC6EE877AFCEEE77A17EE903A20
:101A5000B3F5803FAABF00221A461346C4F8C42833
:101A60009BB2DFF8749259E90272E3FB0B72924663
:101A70000023964A384651460AF0EEFEC317B0F5E9
:101A8000803F73F100032ABF002303461846C4F8C1
:101A9000D038B4F8BA3849E9027A1B1A9BB2C4F8B4
:101AA000D43818F4805F02D00A2006F003FDD4F881
:101AB000D898B9F1000F22D0D4F85C35D4F8DC28DE
:101AC0009A421CD894F8E238B4F8E078002B5AD146
:101AD000D9F80430012284F8E228DB5D3BB137B944
:101AE00099F80030053B934201D806F013FBD9F872
:101AF0000430DB5DFE2B4AD10023A4F8E03894F8D3
:101B0000EC154B074FF0080051D5FEF78DFB072071
:101B1000FEF796FB0620FEF793FB6D4F0023A7E030
:101B2000012B05D0022B1FD0002B3FF4FEAE5EE749
:101B300095F8EC3523F0020385F8EC35B5F8B638A6
:101B4000A4B2633BA34204DD022385F8B138072029
:101B500014E0B5F8B83864339C420EDD002385F8F4
:101B6000B138FEF7A9FD42E7B5F8B638A4B2643340
:101B70009C42ECDD012385F8B138082006F09AFC80
:101B8000EFE700236DE7002384F8E238AFE7FF2B8F
:101B900002D106F07DFCB2E7D4F85C250A2113FBE4
:101BA00001230137C4F8DC38A4F8E078A7E7FEF792
:101BB00047FB18F0010F10D194F8E3381F0702D546
:101BC00094F88C364BBB072021F0010184F8EC150A
:101BD000FEF736FB0620FEF727FBB4F8503594F8E5
:101BE000E478580724D56FB93A483A464FF49671CD
:101BF00007F0AEF8F0B1012384F8E438C4F8207798
:101C0000C4F8247794F8E3381B0713D50220FEF7B5
:101C100017FB002384F8E4380CE041F001010720B1
:101C200084F8EC15FEF700FB0620FEF709FBD4E76D
:101C3000002FE7D1B4F8C035222B11D9002303209F
:101C400084F88D36FEF7FCFAFEF706FB00283FF419
:101C500064AF94F8EC3523F0010384F8EC355CE7CD
:101C60000123032084F88D36FEF7DEFAECE7132318
:101C700097F84A800193B8F1010F40F0CC813B689E
:101C8000C4F8E878C4F8EC384FF005094FF0000BC1
:101C9000D4F8EC0803685B689847002800F07B8163
:101CA000D4F8EC080368DB689847D4F8E8A89AF8F9
:101CB0004830052B20D8DFE803F01118ADB2C1CBB6
:101CC0000CFEFFFF680400206F12033B80EE36001D
:101CD000540E0020880B0020380D0020242840F0EE
:101CE000CD8001238AF8483006E0A0F14D0148423A
:101CF000484140008AF848009AF84830062BC7D17E
:101D00009AF849307C2B00F2CC80002B00F015872C
:101D10005A1E7B2A00F20C87DFE812F0160123011D
:101D20008F019A01AF010A070A070A070A070A0783
:101D30000A070A070A070A070A070A070A070A071B
:101D40000A070A070A070A070A070A070A070A070B
:101D50000A070A070A070A070A070A070A075404B4
:101D60000A0798050A079D050A07BE050A07D00558
:101D70000A07D6050A070A070A070A070A072506F7
:101D80000A077B040A076C060A07AB050A071E034D
:101D90004D040A074F030A070A072C060A073E06E6
:101DA0000A070A07DA069106B1060A0759030A0765
:101DB000F4050A0702060A070A070A070A070A07BC
:101DC0000A070A070A070A070A070A070A070A078B
:101DD0000A070A070A070A070A070A070A070A077B
:101DE0000A070A07F201A6020A07DC02EF020A0745
:101DF0000A070603140323035E03A0030A0715055D
:101E00005A05A40440040A07EC040A070A070A0753
:101E1000F806FF063C2814BF0023032362E740288E
:101E200002D98AF848B067E78AF805008AF804B052
:101E30008AF807B08AF80600042353E79AF80630B8
:101E40008AF8490043408AF806308AF8489053E7F8
:101E50009AF804309AF805109AF80620994208D9A1
:101E600042408AF806205A1C53448AF8042018720B
:101E700042E790420CBF0623002333E794F8EC3589
:101E80005A073FF539AFD4F8F0381B7883427FF416
:101E900033AF8F4B8F4AC3F8FC2F8F4B8F4ADA60DA
:101EA0002AE7F02B00F0B1843CD8DD2B00F024862B
:101EB000DE2B00F02586A02B00F0B584C72B40F266
:101EC0003C86C83B2A2B00F23886DFE813F0B406C4
:101ED000360602073606DC07870891081A087F08CD
:101EE00036069B06AB06AF0636065F083606360694
:101EF0006D087A0836063606360636063606360683
:101F000036063606360636063606360636063606F1
:101F1000360636063606360636063606E106360636
:101F20003606AF06FE2B00F06384FF2B00F06881BD
:101F3000F22BC3D9FA2B40F0008694F8EC355B07FE
:101F400040F16B8600F0F9BD032006F008FC00208C
:101F500006F0A6FB002006F0A3FB182006F0A0FB6D
:101F60000FE0082006F0FBFBDFF880914FF000083F
:101F700019F8010B08F1010806F092FBB8F1080FFF
:101F8000F6D1D4F8E838987906F08AFBD4F8E83826
:101F9000002283F8482094F8B739002B3BD0D7F8BB
:101FA0000080D8F8003040465B699847002801F06F
:101FB0005581D4F8D4374A49D8044CBFD4F83037C7
:101FC000D4F8343794F8B8099B8800221BB25FFA22
:101FD00082FC8445C1F0478109F04CF8322006F0BC
:101FE000EBF9002394F8B8193E4A9C46D8B28842CF
:101FF000C1F03E81322006F0DFF9D4F8D43759031E
:1020000006D5A3685A0303D440F2DC5006F0D4F995
:10201000314B324ADA60019B132B07F14C077FF4F6
:1020200026AED4F88C3A002B01F043812E4829B01B
:10203000BDEC048BBDE8F04F1847032006F08FFB82
:10204000022006F02DFB022006F02AFB002085E787
:10205000102006F084FB0C2006F052FBDFF8909075
:102060004FF0000819F8010B08F1010806F018FB01
:10207000B8F10C0FF6D10020D4E01A2006F06FFB67
:10208000DFF870904FF0000819F8010B08F1010813
:1020900006F006FBB8F10B0FF6D1DFF85C904FF0BD
:1020A000000819F8010B08F1010806F0F9FAB8F177
:1020B000080FF6D1DFF844904FF0000819F8010B33
:1020C00008F1010806F0ECFAB8F1070FF6D158E76D
:1020D00000900020EFBEADDE00ED00E00400FA0548
:1020E000F00B0020240E0020FC0E0020A31D010890
:1020F000AC1D0108B91D0108C41D0108CD1D010852
:102100000B2006F02CFBB4F8500506F0F9FAD4F8D1
:10211000F428CB4B9A420CBFB4F8F808B4F8FA088C
:1021200080B206F0EDFAD6F8FC38C3F3C000C3F372
:102130008002800040EA4200C3F340021043C3F330
:10214000401240EAC200C3F3001340EA031000F05B
:102150001F0006F0D5FAB6F8D02796F8EC35D6F879
:102160002C1696F80089DFF8E0C2500000F002005B
:10217000C3F380030343C2F3400043EA800302F049
:1021800008000343C2F3800043EA0013C2F3801047
:1021900043EA401301F4E0701843C2F3001340EA2D
:1021A0004320C2F3401340EA8320C2F3002340EAF5
:1021B000C32001F47F23034301F480100343C2F3DF
:1021C000402043EA405301F00071C2F380220B43E8
:1021D000002043EA82634FF0010E0246424504D3D9
:1021E00006F097FA94F82805B8E61CF8011B0EFAD9
:1021F00001F119421CBF0EFA02F108430132EDE76A
:102200000023B4F85015A4F81C3901220A420CD15D
:1022100001335200092B92B2F8D1022006F09FFA46
:10222000B4F81C0906F06CFAABE69BB2013B072B35
:1022300005D8DFE803F0080A0C0F11131517012366
:10224000A4F81C39E9E70223FAE74023F8E74FF442
:102250008073F5E78023F3E72023F1E71023EFE70E
:102260000823EDE70423EBE7122006F078FA754B1C
:10227000B5F91E09DB8CB3F5806F88BF4FF00808F5
:1022800090FBF8F080B206F03BFAB5F9200990FB1C
:10229000F8F080B206F034FAB5F9220990FBF8F0B4
:1022A00080B206F02DFAB5F8240906F029FAB5F83F
:1022B000260906F025FAB5F8280906F021FAB5F83E
:1022C0002A0906F01DFAB5F82C0906F019FAB5F836
:1022D0002E09A7E7102006F042FADFF870914FF0C0
:1022E0000F0808F1FF3819F8010B5FFA88F806F0BB
:1022F000D7F9B8F1FF0FF4D143E694F83009DFF8CD
:102300005091400000F0FE0006F029FA4FF000085E
:1023100094F830399845BFF434AE39F8020B06F022
:10232000EFF908F10108F3E7062006F018FAB4F80F
:10233000320906F0E5F9B4F8340906F0E1F9B4F829
:1023400042066FE7062006F00AFAD4F8980506F070
:10235000E0F9B4F8380965E7042006F000FA002037
:1023600070E2072006F0FBF9B4F8C005FF28A8BF0B
:10237000FF20C0B206F094F9D4F8D4384FF6FF78B5
:102380004345A8BF434623EAE37080B206F0B8F99C
:10239000B4F83C0906F0B4F994F83331D4F8C40821
:1023A00043B10A2358434045A8BF404620EAE070A5
:1023B00080B237E700F30F00FAE7022006F0CFF90A
:1023C00094F88E0106F06CF994F88D01C6E50220B0
:1023D00006F0C5F9A08925E70B2006F0C0F9D5F86D
:1023E000A436187806F05CF9D5F8A436587806F0CB
:1023F00057F9D5F8A436187906F052F9D5F8A4366D
:10240000587906F04DF9D5F8A436987906F048F9D0
:10241000D5F8A436D87906F043F9D5F8A4369878DB
:1024200006F03EF9D5F8A436D87806F039F9D5F893
:10243000A436588906F064F9D5F8A436187A8DE5E3
:102440000054004000000020690D0020F00B002027
:10245000D00900200000C84200007A44212006F084
:102460007EF9D4F8B8361B78022B4FF000087DD1E6
:102470001FED089A5FED088AB2EE048AD6F8B836E6
:1024800003EB880393ED090A20EE080A0CF0C4FB65
:1024900080F30800C0B206F003F9D6F8B83603EBB3
:1024A000880393ED0C0A20EE090A0CF0B5FB80F3CB
:1024B0000800C0B206F0F4F8D6F8B83603EB88038B
:1024C00093ED0F0A20EE280A0CF0A6FB80F308001B
:1024D000C0B208F1010806F0E3F8B8F1030FCDD15E
:1024E000B8F1070FD4F8B8362AD193ED120A20EECE
:1024F000080A0CF091FB80F30800C0B206F0D0F897
:10250000D4F8B83693ED130A20EE080A0CF084FBD9
:1025100080F30800C0B206F0C3F8D4F8B83693F8D8
:10252000503000EE103AB8EE400A0CF075FBFF2870
:10253000A8BFFF20C0B206F0B3F84FF00808CFE7FD
:102540004344587806F0ACF8D4F8B8364344187BC6
:1025500006F0A6F8D4F8B836434408F10108D87D4F
:1025600006F09EF8B8F10B0FBAD10AE5D4F8B836E8
:102570004344587806F094F8D4F8B8364344187BAE
:1025800006F08EF8D4F8B836434408F10108D87D37
:1025900006F086F8B8F10B0FE8D1F2E42F2006F030
:1025A000DEF8DFF83C8418F8010B00283FF4E9ACB2
:1025B00006F076F8F7E7012006F0D1F8D4F8B8363F
:1025C0001878CBE4502006F0CAF8DFF818A44FF0D2
:1025D00000094FF00C0BD4F8B83603EB890809F169
:1025E000010998F87D300BFB03A393F8500006F027
:1025F00057F898F87E0006F053F898F87F0006F038
:102600004FF898F8800006F04BF8B9F1140FE2D1BA
:10261000B7E4482006F0A3F84FF000094FF0060A8F
:10262000D5F8B8360AFB093809F1010998F8D20043
:1026300006F036F898F8CD0006F032F898F8CE009B
:1026400006F02EF898F8CF0006F02AF898F8D00097
:1026500006F026F898F8D10006F022F8B9F10C0F30
:10266000DED18EE4022302934FF0000A4FF0010BFB
:10267000D949D94B94F80009CB1A83420CDB029B51
:10268000012B3FF47EAC5FFA8AF006F068F8012374
:1026900002934FF0000BEBE711F8010B00230C2223
:1026A00002FB03F8CD4A18F802C0844503D0013379
:1026B0001C2BF4D1DDE7C94B03919844D8F80400F2
:1026C0000AF05EF803990346BBF1000F10D0824474
:1026D000CFE7D8F8040010F80900CDE9031305F09E
:1026E000DFFFDDE9031309F101094B45F1DCC0E728
:1026F000D946FAE7DFF8ECA294F80009DFF8D8929F
:1027000006F02DF84FF000084FF00C0B0AF14802CC
:1027100094F800399845BFF434AC19F8010B002146
:102720000BFB01F313F802C0844505D001311C29CD
:10273000F6D108F10108EBE7534493F8500005F097
:10274000AFFFA64AF5E7162006F009F8B6F84401EF
:1027500005F0D6FFB6F8D00005F0D2FFB6F8D200EB
:1027600005F0CEFFB6F8D40005F0CAFFB6F8860132
:1027700005F0C6FF002005F093FF002005F090FF54
:10278000002005F08DFF96F8330105F089FF96F8DB
:10279000400105F085FF002005F082FFD6F8B8362D
:1027A000B3F95A000A2390FBF3F080B205F0A8FFBA
:1027B00096F8280105F074FF96F82C0105F070FFDB
:1027C00096F82B0105F06CFF96F82D01FFF7C6BBBC
:1027D000082005F0C4FF4FF001085FFA88F008F107
:1027E000010805F05DFFB8F1090FF6D1FFF7C9BB8D
:1027F000082005F0B4FF002005F082FF002005F05E
:102800007FFF002005F07CFF35E4042005F0A7FFE2
:10281000D4F8B836B3F85E0005F072FFD4F8B836D5
:10282000B3F85C00FEE4DFF8C0810C2005F097FFF0
:10283000D8F8AC0705F06DFFD8F8B00705F069FFD0
:10284000D8F8B40705F065FFFFF79BBB042005F03F
:1028500086FFA068F6E7062005F081FFB4F8E800DF
:1028600005F04EFFB4F8EA0005F04AFFB4F8EC00BA
:10287000D8E4042005F073FF94F8280105F010FF58
:1028800094F82C0105F00CFF94F82B0105F008FFDB
:1028900094F82D01FFF762BB072005F060FFB4F844
:1028A0002E0105F02DFFB4F8300105F029FF94F852
:1028B000320105F0F5FEB4F83401B3E4012005F06F
:1028C0004EFF6079FFF74ABB0C2005F048FF94F8F3
:1028D0003E0105F0E5FEB4F8480105F011FFB4F83B
:1028E000440105F00DFFB4F8460105F009FF94F826
:1028F0003F0105F0D5FEB4F84A0105F001FFB4F838
:102900004C018FE4042005F02AFF94F8840105F0BF
:10291000C7FE94F8850105F0C3FEB4F8860181E492
:1029200094F83009DFF8C48000EB4000C0B205F035
:1029300016FF4FF0000994F83039994508F1020864
:10294000BFF41FAB98F84C0105F0AAFE98F84D01B2
:1029500000EB800000EB800000F2EE2005F0D0FEDE
:1029600009F10109E7E7012005F0F9FE94F84001BB
:10297000FFF7F4BA082005F0F2FEDFF874904FF08C
:10298000000819F8010F08F1010805F089FEB8F1F7
:10299000080FF6D1FFF7F5BA102005F0E0FE6079D8
:1029A00005F07EFEA06805F0B4FE94F83E0105F047
:1029B00077FEB4F8E80005F0A3FEB4F8EA0005F0ED
:1029C0009FFEB4F8EC0005F09BFEB4F82E0105F074
:1029D00097FEB4F8300125E4690D0020F0140108D9
:1029E000BD140108A814010800F0FF1F68040020AE
:1029F0009D05002094F83E09DFF80084C0EBC0007C
:102A0000C0B205F0ACFE4FF0000908F5146A4FF0B3
:102A10000C0B98F9980100230BFB03F212F90A2022
:102A2000824200F02D840133042BF5D109F1010914
:102A3000B9F1040F08F10808EBD1FFF7A2BADFF8EB
:102A4000A8830D2005F08BFE09F0A0FC05F028FE00
:102A5000B8F8280005F05DFED8F8340005F059FEFE
:102A600094F8703994F87109834296BFC31AC3F180
:102A7000800300201844D4F874391844E2E605F0C5
:102A800065FE8046842005F06AFE404605F041FE62
:102A9000D54B5A6B08F1800393428CBFA2EB080917
:102AA0004FF0800909F09EFC4A46404608A909F00B
:102AB00037FD0DF1200881464FF0000ACA45BFF6E8
:102AC00060AA18F8010B05F0EBFD0AF1010AF5E721
:102AD000132005F044FEDFF828934FF0000819F8A2
:102AE000010B08F1010805F0DBFDB8F10B0FF6D181
:102AF000002005F00EFE32E405F01EFEFFF741BA9D
:102B000005F024FE05F022FEFFF73BBA022005F097
:102B100026FEB54B588CFFF785BB032005F01FFE42
:102B200094F8ED0505F0ECFDAF4B187CFFF716BAF5
:102B30004E2B3FF6C3A9222B03D808F03FFEFFF728
:102B400020BA233B4FF000082B2BF6D801A252F8F5
:102B500023F000BFBD2D00083B2B000833300008D8
:102B60003B2B0008413000083B2B00087D3000085B
:102B70003B2B00083B2B00083B2B00089F30000834
:102B80003B2B00083B2B00083B2B00083B2B00088D
:102B90003B2B0008533100083B2B00083D2E00085A
:102BA0003B2B0008CF3100083B2B00085B300008AE
:102BB0003B2B00083B2B0008C12C00083B2B0008D6
:102BC000A72C00083B2B00083B2B00085D310008B8
:102BD0003B2B00088D3100084D3200083B2B0008CC
:102BE0003B2B00083B2B0008093000083B2B00085A
:102BF000B92C00083B2B0008E33000083B2B0008F1
:102C0000FD30000894F8EC355B070FD405F08AFD21
:102C1000032828BF002084F82805FEF749FCFEF7AA
:102C2000A3FA03E005F088FDA4F87E06002005F075
:102C300096FDFFF7A6B99AF80580B8F1250F00F2C6
:102C4000D0800DF120094FEA5808CB464FF0000A1A
:102C5000C2450CD3654943460022084690450DDC29
:102C60000022122B10D1012384F89C39DEE705F0F5
:102C700063FD0AF1010A2BF8020BE9E739F802CBF0
:102C800021F802CB0132E9E720F813200133E8E70D
:102C900005F052FDD4F8B886A8F85E0005F04CFDAA
:102CA000A8F85C00C2E705F03DFD84F88E0105F050
:102CB00039FD84F88D01B9E705F03EFDA081B5E747
:102CC000D4F8B88605F02EFD88F8000003F0EAFD80
:102CD000ACE7D4F8B88698F80030022B5DD19FEDB0
:102CE000449ADFED448A08F1240908F1300AB2EE73
:102CF000048A05F017FD07EE900AF8EE677A87EE72
:102D0000887AA9EC017A05F00DFD07EE900AF8EE3D
:102D1000677A87EE897A89ED027A05F003FD07EE7E
:102D2000900AF8EE677ACA4587EEA87A89ED057AA7
:102D3000DFD108F104094FF0030ABAF1070F1FD1E0
:102D400005F0F0FC07EE900AF8EE677A87EE887AD5
:102D500088ED127A05F0E6FC07EE900AF8EE677A45
:102D600087EE887A88ED137A05F0DCFC88F850004D
:102D70000AF1010ABAF10B0F09F10109DDD155E79A
:102D800005F0D0FC89F8000005F0CCFC89F80B00B8
:102D900005F0C8FC89F81600EAE708F10B0905F010
:102DA000C1FC08F8010F05F0BDFC88F80B0005F028
:102DB000B9FCC14588F81600F1D137E705F0B2FC3F
:102DC000132880460DD8D4F8B89605F0ABFC0A4A13
:102DD0000023117A814215D001331C2B02F10C0221
:102DE000F7D108F0EBFC21E700000020E00D002007
:102DF0000000C84200007A44F01401086804002072
:102E0000B91D0108DC4A0C2101FB032309EB8808EA
:102E100093F8483088F87D3005F084FC88F87E000F
:102E200005F080FC88F87F0005F07CFC494688F8B6
:102E3000800009F17D0008F0C1FDF7E605F072FCA5
:102E40000B288146CDD8D4F8B88605F06BFC032852
:102E5000C7D8062303FB098888F8D20005F062FC76
:102E600088F8CD0005F05EFC88F8CE0005F05AFC2D
:102E700088F8CF0005F056FC88F8D00005F052FC29
:102E800088F8D100D2E69AF80530092BA9D9D5F8EF
:102E9000A48605F047FC88F8000005F043FC88F89C
:102EA000010005F03FFC6428A8BF642088F80400F6
:102EB00005F038FC6428A8BF642088F8050005F0F8
:102EC00031FC88F8060005F02DFC642828BF64203A
:102ED00088F8070005F026FC88F8020005F022FCBF
:102EE00088F8030005F028FCD5F8E838A8F80A00AF
:102EF0005B790A2B7FF69AAE05F014FC88F808007F
:102F000094E605F019FC6FF4AF6C00EB0C039BB278
:102F1000C62B98BFA4F8440105F00EFCA5F8D0001C
:102F200005F00AFCA5F8D20005F006FCA5F8D400CF
:102F300005F002FCA5F8860105F0F4FB05F0F2FBB4
:102F400005F0F0FB05F0EEFB85F8330105F0EAFB38
:102F500085F8400105F0E6FB05F0EEFBD5F8B83644
:102F600000EB80004000A3F85A0005F0DBFB85F879
:102F7000280105F0D7FB85F82C0105F0D3FB85F877
:102F80002B0105F0CFFB85F82D014FE6DFF8F0911E
:102F90004FF0000805F0D0FB08F10108B8F1080F68
:102FA00029F8020BF6D141E694F8EF35002B7FF4B7
:102FB0003DAE05F0C1FB714B84F8ED0501221A749A
:102FC00034E605F0B9FB6D4B58842FE694F8EC35E8
:102FD00058073FF52BAEFDF7F1FE1EE694F8EC35F1
:102FE00059073FF523AE4FF4C873A4F852351DE6D8
:102FF00094F8EC355A073FF519AE94F8E33843F0EE
:10300000040384F8E33811E645F2082009F0DCF9FE
:10301000062007F08FFF0123C72084F8B63907F098
:1030200089FF002384F8713984F87039C4F8743941
:10303000FCE5C4F8088005F089FBFDF7E5F8F5E547
:1030400005F07AFBA4F8E80005F076FBA4F8EA00A6
:1030500005F072FBA4F8EC00E8E505F063FB84F8EA
:10306000280105F05FFB84F82C0105F05BFB84F878
:103070002B0105F057FB84F82D01D7E505F05CFB2B
:10308000A4F82E0105F058FBA4F8300105F04AFB26
:1030900084F8320105F050FBA4F83401C6E505F0D0
:1030A00041FB84F83E0105F047FBA4F8480105F018
:1030B00043FBA4F8440105F03FFBA4F8460105F0EA
:1030C00031FB84F83F019AF80530082B7FF6AEAD4E
:1030D00005F032FBA4F84A0105F02EFBA4F84C01E0
:1030E000A4E505F01FFB84F8840105F01BFB84F8C0
:1030F000850105F021FBA4F8860197E59AF8058083
:10310000B8F1380F3FF66DAEDFF878904FF0000A57
:1031100040F6CA0B0323B8FBF3F8C24509F10209D4
:10312000BFF484AD05F0FEFA89F84C0105F004FB0C
:103130005845A8BF584640F2EE239842B8BF1846FB
:103140001922B0FBF2F01E3889F84D010AF1010A8C
:10315000E3E705F0E7FA84F8400167E5DFF8289037
:103160004FF0000805F0DEFA08F10108B8F1080F89
:1031700009F8010FF6D159E5A81401080000002054
:10318000060E0020680400209D05002005F0CAFA04
:10319000C4F8088005F0DAFAFDF736F805F0C2FA4F
:1031A00084F83E0105F0C8FAA4F8E80005F0C4FA76
:1031B000A4F8EA0005F0C0FAA4F8EC0005F0BCFAA7
:1031C000A4F82E0105F0B8FAA4F830012EE59AF81B
:1031D00005304FF00708B3FBF8F8C8EBC8029B1A9C
:1031E000DBB2002B7FF4FDAD5FFA88F808F1FF3801
:1031F0005FFA88F8B8F1FF0F3FF418AD05F092FAC6
:10320000D4F8F02840B20023911C11F933C0844552
:1032100003D00133042BF8D1E3E502EBC30989F8AD
:10322000020005F089FAA9F8040005F07BFA89F894
:10323000060005F077FA89F8070005F073FA89F8B7
:10324000090005F06FFA89F80800CFE71B4B4FF42F
:1032500080421A85012384F8B739E7E40A2005F093
:10326000ABF8FEF79EBE21F8023B0132FEF7AFBE7F
:1032700052F8040B00680133C0F800C0FEF7B6BE78
:10328000C0B205F00DFAB8F89A0105F039FA98F8CD
:103290009C0105F005FA98F89D0105F001FA98F8EF
:1032A0009F0105F0FDF998F89E0105F0F9F9FFF787
:1032B000BDBB29B0BDEC048BBDE8F08F0008004811
:1032C00008B5FEF7F5F8FDF74FFFBDE8084001200F
:1032D00005F016B92DE9F04FB44DD5F8D82795F87B
:1032E0009C6A02F59C4320338BB0C5F8983A002EB7
:1032F00000F0DF80D5F8A03A9A4202D9013E85F865
:103300009C6AAA4CD4F8D48718F48053019305D052
:10331000D4F82C36D80701D4FDF7F8F9D4F8C02634
:10332000937A23B304EB4303127BB3F966351AB1E6
:10333000C3F53B6308331BB2A3F57A73B3F57A7F09
:10334000A8BF4FF47A7323EAE37307EE903ADFEDF8
:10335000986AF8EEE77A87EEA67ADFED967A67EE5E
:10336000277AFCEEE77A17EE903AA5F83C3918F484
:10337000807F00F03081D4F8D8178F4A94F8FE3659
:10338000914240F2258113B9012384F8FE3694F866
:103390001D6794F8EC25D4F82CA6012E02F0040B3E
:1033A00014BF032700274FF00009A2E1072C98BFA4
:1033B000195D8248BB6B88BF21469847032C19D8FA
:1033C000C0B1D5F8C03603EB84039A8FDB8F801A27
:1033D0009B1A08FB00F090FBF3F040F2EE2300F59F
:1033E0007A709842B8BF184640F6CA039842A8BF00
:1033F000184680B205EB44040136A4F8A40A95F8F7
:1034000030B9D5F8C036F4B2A345CFD8D5F8D42713
:10341000D5F85C05019042F201010A40039208D000
:1034200095F8FF2585F8FE25654A92F83D1082F84B
:103430003C1095F8FE85B8F1000F04D0604A92F870
:103440003C8088F0010895F8C97A01995D4C0F22FB
:1034500085F8C82A0322B7FBF2F202EB420201F51B
:103460001671BA1AD2B20591A4F5AD61049204F2B4
:10347000625904F2AC5A2246002602915E451CDBDA
:103480004A4E96F8C83A0F2B6DD1D6F82C365B0110
:1034900069D4D6F85C35D6F80827C6F804379B1AE5
:1034A000C82B02D9012386F81D37013786F8C97A5F
:1034B00027E7434F4FF47A78A1E7B8F1000F33D0F4
:1034C000414931F91600998A80B281422ED8D98AB1
:1034D00081422BD30599CAF80010039900B2D9B1E3
:1034E000049929F81100029991F85C1B29B9022F5F
:1034F00012D90298012180F85C1BB9F80010B9F8C4
:1035000002000844B9F804100844304900B221F818
:103510001600032190FBF1F022F8020B013609F1AD
:1035200006090AF1040AA9E74046CCE7DAF80010D8
:103530000198814201D91088CFE7F0B2CDE9063277
:1035400005F040F9032EDDE90632C6DCDFF85CE069
:103550004FF0010C9EF8C81A0CFA06FC21EA0C0187
:103560008EF8C81AB9E7164B012283F83D2083F87C
:103570003C20D6F85C35D6F80427C6F808379B1AE5
:10358000D6F80027934202D9002386F81D374FF062
:10359000000807E05FFA88F005F014F924F8020B40
:1035A00008F10108C345F5DC7FE700BF680400208F
:1035B00000007A4400C07F44404B4C00980D00202E
:1035C00000000020D00900200C0F0020C60F0020B2
:1035D000002B7FF4DCAE019BB4F96E95002B00F05C
:1035E000E580B4F84431B4F8DE20991A494580F2F8
:1035F000E08013444B4540F3DC80FDF767F8FDF7AE
:1036000073F84FF0000AAC4B93F83EB094F8EC35E9
:10361000590740F1D58018F0100F00F0D18094F8D0
:10362000E338DA0600F1CC80BBF1000F00F01D8119
:1036300094F88E31BAF1000F40F006813BB1D4F816
:103640005C15D4F8A0365B1A002BC0F2B5801020B0
:1036500004F030FF012384F87C3BB1E0BBF1000FA4
:103660000DD0012E05D00520FCF7DEFD022384F8E5
:10367000ED35002FAFD0384604F01CFFABE71AF051
:10368000806F4FF4806005D008F0B8FF0023C4F8C5
:103690000C37EEE708F0A4FFF8E7012E29D1052149
:1036A00025E0012E04BF052184F81C17BBF1000F93
:1036B0000FD0D5F8781BB1F90E10A5F86A15A5F84A
:1036C0006C15A5F86815D5F8F8164988A5F86E1593
:1036D0006746D4F85C05D4F81017814202D3BBF1D9
:1036E000000F60D142F21071C4F81817032184F85A
:1036F0001C1794F81CC794F8EC05BCF1050FB8D85A
:1037000001A151F82CF000BF5D3600089B3600087F
:10371000A336000821370008513700088937000810
:1037200040F0020085F8EC05FCF7F0FFD5F85C05E9
:10373000D5F818170144C5F81417042185F81C178B
:103740004FF4806008F04CFF0520FCF779FDD0E7CE
:10375000012E11D1D4F85C35D4F81417994288D2CF
:10376000554991F83E1011B91AF0010F81D120F09E
:10377000020084F8EC0592E7D4F85C25D4F81837F9
:103780001344C4F8143774E7D5F8F806D5F85C1577
:10379000C08885F8FF96642303FB0011C5F80C1759
:1037A00085F81C97CCE7012EA3D062E7B4F8463128
:1037B00020E74FF0010A26E7FCF7A8FF84F87CAB6E
:1037C00094F88C31019394F88D01B4F846C1B4F8A3
:1037D00048E13A4900231E4631F9027BB6086745A5
:1037E000C4BF66F07F06F6B201337745B8BF46F036
:1037F0004006042BF0D194F87D3BB34239D194F8C4
:103800007E7BF92F03D80137FFB284F87E7B84F8E2
:103810007D6B08F00408BBF1000F40F0CC84D4F8B5
:103820002C36DB0738D5BAF1000F24D194F8EC35EB
:10383000D80706D5590702D4012384F8B035FDF71F
:103840004BFA142F53D140E03BB1D4F85C154FF440
:103850007A7013FB0013C4F8A03694F87C3B002B5D
:10386000AED004F015FE0023F5E6BAF1000FF4D156
:10387000EDE60027C9E7D4F888360A2BE1DCB4F876
:1038800050355A07DDD494F8EF35002BD9D1FCF729
:103890001DFFFCF729FFD2E794F8EC355B07D0D584
:1038A00094F8FE35002BCCD010B1FCF72FFFC8E701
:1038B000BAF1000FC5D1F8E700000020D0090020C0
:1038C000019B13B17D2E00F0808494F8EC355F07E6
:1038D0000DD4572E40F0CD80D4F8FC384FF47A72D6
:1038E00013F00803A4F8542501D1A4F84236B8F126
:1038F000000F40F0E480D4F8B8660023C4F82C36FA
:1039000006F17F0706F1CF084FF0010917F8010C07
:10391000394604F015FE40B117F8023CD4F82C26C5
:1039200009FA03F31343C4F82C3604374745EDD1A5
:10393000B24F06F1CE0B4FF00C0806F58B764FF028
:1039400000094FF0010A1BF8010C594604F0F8FD7C
:10395000E8B19BF804109BF8023008FB0140013BE2
:10396000D0F8C82603EB43033B4493420FD09BF8A7
:103970000320C0F8C83694F8853B80F8C4260AFABC
:1039800001F123EA0103C0F8CC9684F8853B0BF1E2
:10399000060B5E45D7D1D4F85C35019394F8FE351B
:1039A0000293019BD4F8A4B6954F03F5FA73002651
:1039B00003937968002900F0388191F800A0BAF1EA
:1039C000000F00F03281BA68019B9A1A002A0ADBC4
:1039D000039B94F8852BBB60012303FA06F022EACF
:1039E000000284F8852B029B002B00F01E813A78A0
:1039F000487894F8858B0432D2B2002840F088834E
:103A000004EB4202B2F96805B4F8442102F1C80C93
:103A1000604540F3F98091F8029048FA06F1CA0730
:103A200000F10381B9F1000FCCBF0220012004F0A6
:103A300067FD0AF1FF31132900F28081DFE811F000
:103A4000710185019001A001B801C0011E02790237
:103A5000E0020E033A037E01A001AD01C0011E0287
:103A60007902E40141029E020B2004F023FD84F858
:103A70007E7BB8F1000F01D05A2E17D0A6F1560365
:103A8000082B57D8DFE803F05456565656525605C1
:103A900050000123DEB2013B84F82835FDF708FD14
:103AA000FDF762FB304604F02BFD20E794F87F3BE6
:103AB0004BB1002384F87F3B012384F8803B94F8CA
:103AC000813B53B91FE094F8813B83F0010384F8F4
:103AD000813BABB10C2004F0EDFC94F8EC355807B9
:103AE00011D5B4F846314B450DDAD4F82C3613F025
:103AF000010302BF3222A4F8822B84F8813B02E04A
:103B00000D2004F0D7FCD4F82C36D90366D594F8F0
:103B1000843B2BB994F87F3B13B93223A4F8823B42
:103B2000012384F8843BE6E60323B3E70223B1E7ED
:103B3000FFF7C6FB334B93F83E3043B16F2E02D1F3
:103B4000FDF7CAF8D3E6019B0BB17E2EF8D0972E75
:103B500004D14FF4C873A4F85235C8E6A72E06D195
:103B600094F8E33843F0040384F8E338BFE6002315
:103B7000B73E0993072E3FF6BAAE01A353F826F0DD
:103B8000D73B0008EF380008EF380008EF3800088E
:103B9000A13B0008EF380008CF3B0008A73B000816
:103BA0000223002201E000230222D5F8B816B1F862
:103BB0005C000244A1F85C20B1F85E201344A1F837
:103BC0005E30FFF77DFB002385F87E3B8FE6002308
:103BD0006FF00102E9E76FF00103E2E794F87F3B41
:103BE000002B3FF488AE94F8EC3513F0040302BFC9
:103BF00084F87F3B012384F8803B7CE64016010873
:103C00002C0B002000000020C83A904203DA8A788A
:103C1000C2F1000901E70123B34028EA030384F855
:103C2000853B019B03F5FA73BB600136042E07F157
:103C30000C077FF4BEAED4F82C56AB0706D4D4F8EC
:103C4000D437DF0507D594F8FF3623B1D4F8FC3814
:103C50009E0700F19682012008F0C2FC012369074B
:103C600040F19A82002B00F09782012008F0B8FC06
:103C7000B4F8D0379A0704D40220FCF727FD08F0E7
:103C8000BDFC94F8EC355B0708D4B4F8D03703F0EA
:103C900044031BB1B4F84236A4F87E36D4F8FC389D
:103CA00013F00A0F2AD0EF0640F17A82B4F8D03729
:103CB0005E0706D4042008F0A1FCB4F84236A4F84C
:103CC0007E36A80640F17082B4F8D037590602D487
:103CD000402008F093FC6A0642BFC54AB4F8423659
:103CE000D38315F0080307D094F8F83533B9C04AE8
:103CF000B4F84236D383012384F8F8352B054FF40A
:103D0000807040F1558208F079FC6379082B02D06D
:103D10000E2B40F0618240200BB0BDE8F04F08F060
:103D20005FBC9BF800304B44FA2BA8BFFA2323EA70
:103D3000E3738BF80030584604F028FC0123B340AD
:103D400048EA030884F8858B6FE79BF801304B4401
:103D5000642BA8BF642323EAE3738BF80130EAE7FE
:103D60009BF803304B44642BA8BF642323EAE3731E
:103D70008BF80330D4F8881B584604F023FCDDE7A9
:103D80009BF8051049446429A8BF642121EAE17128
:103D9000BAF10D0F8BF80510D0D09BF804304B44CE
:103DA000642BA8BF642323EAE3738BF80430C5E7D0
:103DB0009BF806304B4483F308038BF80630BDE7CD
:103DC000D4F88C0B0178022943D107EE909AF8EED3
:103DD000E76AF2EE047A86EEA77AD0ED0A7A37EE39
:103DE000277AB5EEC07AF1EE10FA2FD4DFED827AA1
:103DF000B4EEE77AF1EE10FAD8BFF0EE477AC0EDF4
:103E00000A7ABAF10F0F99D0D4F88C1B0B78022BD9
:103E10002BD107EE909AF8EEE76AF2EE047A86EE7E
:103E2000A77AD1ED097A37EE277AB5EEC07AF1EEAE
:103E300010FA17D4DFED707AB4EEE77AF1EE10FAEB
:103E4000D8BFF0EE477AC1ED097A77E7DFED6B7AFC
:103E5000D5E781784944C829A8BFC82121EAE17182
:103E60008170CEE7DFED657AEDE74B784B44C82BE8
:103E7000A8BFC82323EAE3734B705FE7D4F88C0B29
:103E80000178022940D107EE909AF8EEE76ADFED5B
:103E90005A7A86EEA77AD0ED0D6A37EE267AB5EE1D
:103EA000C07AF1EE10FA2CD4B4EEE77AF1EE10FA03
:103EB000D8BFF0EE477AC0ED0D7ABAF1100F3FF49B
:103EC0003DAFD4F88C1B0B78022B29D107EE909ACA
:103ED000F8EEE76ADFED487A86EEA77AD1ED0C6A54
:103EE00037EE267AB5EEC07AF1EE10FA15D4B4EEBC
:103EF000E77AF1EE10FAD8BFF0EE477AC1ED0C7A0E
:103F00001CE7DFED3E7AD6E7417B4944C829A8BFCC
:103F1000C82121EAE1714173CFE7DFED387AEDE79F
:103F20000B7B4B44C82BA8BFC82323EAE3730B7356
:103F300004E7D4F88C0B0178022944D107EE909A5B
:103F4000F8EEE76ADFED2B7A86EEA77AD0ED107AED
:103F500037EE277AB5EEC07AF1EE10FA30D4DFED05
:103F6000267AB4EEE77AF1EE10FAD8BFF0EE477A8F
:103F7000C0ED107ABAF1110F3FF4E0AED4F88C1B0B
:103F80000B78022B2BD107EE909AF8EEE76ADFED63
:103F9000197A86EEA77AD1ED0F7A37EE277AB5EE49
:103FA000C07AF1EE10FA17D4DFED137AB4EEE77AA7
:103FB000F1EE10FAD8BFF0EE477AC1ED0F7ABDE608
:103FC000DFED0E7AD4E7017E4944C829A8BFC82195
:103FD00021EAE1710176CDE7DFED087AEDE7CB7DEF
:103FE0004B44C82BA8BFC82323EAE373CB75A5E6CF
:103FF0000000002000007A440000C84200000000D9
:10400000D4F88C1B0B78022B1FD107EE909AF8EE98
:10401000E76AF2EE047A86EEA77AD1ED0B7A37EEF4
:10402000277AB5EEC07AF1EE10FA0BD45FED0E7A76
:10403000B4EEE77AF1EE10FAD8BFF0EE477AC1EDB0
:104040000B7A7BE65FED137AF9E7CB784B44C82B0C
:10405000A8BFC82323EAE373CB706FE6D4F88C1BA8
:104060000B78022B1DD107EE909AF8EEE76A5FED10
:104070001E7A86EEA77AD1ED0E6A37EE267AB5EE75
:10408000C07AF1EE10FA09D4B4EEE77AF1EE10FA44
:10409000D8BFF0EE477AC1ED0E7A4FE65FED297A90
:1040A000F9E78B7B4B44C82BA8BFC82323EAE373F3
:1040B0008B7343E6D4F88C1B0B78022B1FD107EED1
:1040C000909AF8EEE76A5FED357A86EEA77AD1ED41
:1040D000117A37EE277AB5EEC07AF1EE10FA0BD4EA
:1040E0005FED3B7AB4EEE77AF1EE10FAD8BFF0EE6E
:1040F000477AC1ED117A21E65FED407AF9E74B7E10
:104100004B44C82BA8BFC82323EAE3734B7615E6BC
:1041100001287FF413AEBAF10C0F7FF40FAE04EB5D
:1041200042028978B2F9680540F633029042A8BF8E
:104130001046B0F5617FB8BF4FF46170A0F56170B3
:104140004FF49662B2FBF1F2B0FBF2F094F8BC26A9
:10415000C0B282423FF4F2AD032894BF024602226D
:1041600085F8BC260AFB025202F22A520490C5F8D6
:10417000A426FCF7FDFD04980130C0B204F0C0F99C
:10418000DCE5B4F8D037D80704D40120FCF79EFA58
:1041900008F034FA002362E5022008F021FA70E505
:1041A000042008F01DFA8CE5402008F019FA92E589
:1041B00008F016FAA9E5142F7FF499AB94F8EC7582
:1041C0005F2E07F004077FF47BAB002F3FF44CAC6D
:1041D000FCF79CFAFFF779BB0BB0BDE8F08F1649EE
:1041E000D1F8883043F47003C1F88830134B1A6853
:1041F00042F001021A605868114A02405A601A6877
:1042000022F0847222F480321A601A6822F480222A
:104210001A605A6822F4FE025A60DA6A22F00F022B
:10422000DA62186B074A02401A6300229A604FF064
:1042300000638B60704700BF00ED00E0001002409B
:104240000CC07FF8CCFC00FF80EAE073A3EBE073C6
:104250008B4206DB002801DD401A704702D008447B
:104260007047002070472DE9F041824CD4F8903B14
:10427000A0EB030842F20F7398452DED048B40F23A
:10428000EB8044F6206398457B4DC4F8900B81BFCA
:104290000023C4F89C3BC4F8A03BC4F8A43B95F8A9
:1042A0003F3043B394F8EC2512F0040223D1734B52
:1042B000C4F89C2B0021196040F2DC50C4F8A02BFC
:1042C000C4F8A42B85F83F20C4F8AC2BC4F89C2577
:1042D000A3F58962A3F23443694EA4F88C054FF02C
:1042E0007E50106056609160D060116118605E6011
:1042F0009960D8601961D4F8B06BD4F8B43BB3427C
:104300006ED0F31A08EE903ADFED5E7A5E4BF8EE6F
:10431000688A68EEA78AD3ED007AF5EEC07AF1EEEE
:1043200010FA40F29D8013ED017AB5EEC07AF1EEFD
:1043300010FA40F2958087EE270AB5EEC00AF1EE3A
:1043400010FA40F28D80DFED517A93ED018A38EE5C
:10435000278A0AF08FFBDFED4E7A28EE000A20EE66
:10436000270ADFED4C7A20EE270AF6EE007AF4EE0B
:10437000E78AF1EE10FA31DCB4F9B83B0F2B72D1B9
:10438000B4F9BA3B444A02EB830201331BB20F2B50
:1043900008BF0023A4F8BA3BD2ED007A0E23A4F89C
:1043A000B83B3E4B93ED017A77EE877A30EE670AA1
:1043B00083ED000AB4F93239002BB8BF5B429BB2DF
:1043C0001E2B07D8B4F93439002BB8BF5B429BB21F
:1043D0001E2B4CD9324BEB60FCF742F9C4F8B46B9E
:1043E000D4F8A03B002BC9BFD4F89C2B9FED2D9A8D
:1043F00007EE902AB8EEE77AC4BF07EE903AF8EEDF
:10440000E77A294BC8BF87EE279A9FED287AA3EC5D
:10441000019AD3ED007A69EE277AF4EEC77AF1EECD
:1044200010FA08D49FED227AF4EEC77AF1EE10FA72
:10443000D8BFB0EE677AB4F9103C1E4E0027052BAA
:1044400086ED007AC4F89C7BC4F8A07BC4F8A47BFA
:1044500036DC0133A4F8103CBDEC048BBDE8F081E0
:104460009FED100A81E7144BD3ED007A99E74FF0E6
:104470008043B0E7680400200000002010100020F6
:10448000CDCCCC3D6F12833AFC0A00203393884395
:104490008E2BEA410000C842241000206410002046
:1044A0000000A040000000006C100020000048C484
:1044B000000048447410002060100020002474495B
:1044C00007EE908A1FED036A16ED190A56ED039A5E
:1044D00056ED058AF8EE677AA6F5CB63C7EE866AD5
:1044E000A6F5CA6216ED046AD3ED005AD6ED027A3B
:1044F00066EE255AA6F25463E5EEA67AD3ED005A8D
:10450000C6ED027A66EE255A77EE877AA5EEA60A00
:10451000D2ED005A26EE256A67EEA67AE6EE269AD6
:10452000B0EE407AB6EE006AA7EE867A30EE270A41
:10453000E7EE268A06ED190A46ED039A46ED058A4E
:104540000AF06AFB39EEA80A08EE100A0AF064FBCA
:10455000B4F9B81BB5F840200E2902F1010207EEAC
:10456000900A12B2A6F1500300F3F2800E2ACCBFDB
:104570003A46174603EB82030131A5F84070C3EDBC
:10458000008AA4F8B81B834F97ED036A97ED007A71
:10459000D7ED016A97ED020A57ED045A36EE076A25
:1045A000B8EEC88A76EE266A38EE408A86EE267A1B
:1045B000F7EE006AA7EE080A87ED047A36EEC77AAE
:1045C00017ED038A87ED020A27EE067A17ED056AD2
:1045D00087ED037A17ED027A37EE067AF8EEE77A7E
:1045E00077EE255A77EEC87A87EE256AA6EE278AF7
:1045F00076EEC66A07ED016A66EE876A07ED038A02
:1046000047ED026A0AF008FBB0EE480A0646C4F815
:10461000180C0AF001FBB4F93C36C4F89805002BDD
:10462000B8BF5B429BB2B3F5487F07F5956780F052
:10463000AE80B4F93E36002BB8BF5B429BB2B3F5F7
:10464000487F80F0A48094F8EC25AB7A97ED007A4F
:10465000D4F85C8712F0040208BFC4F89405002B5C
:1046600040F08E80D4F89435181AB0F5FA7F4A4B92
:10467000A8BF4FF4FA709842B8BF18460521FFF75B
:10468000E3FD98F80430454943438B427BDB002B24
:10469000B8BF7F33DB11B3F5967FA8BF4FF4967395
:1046A000991B98F80A303E484B4383426DDB002B40
:1046B000B8BF1F335B11B3F5967FA8BF4FF4967355
:1046C0002AB198F81500D4F8AC2B01FB0022B2F502
:1046D000161F3449A8BF4FF416128A42B8BF0A46C3
:1046E000C4F8AC2B002ABCBF02F5FF521F3203EB0B
:1046F000623398F8202007EE902A37EE097AF8EE18
:10470000E77A6FF0950167EE877A9FED277A67EE7B
:10471000877AFDEEE77A17EE902A962AA8BF9622AE
:104720008A42ACBF9B1A5B1A30460521C4F89C35FF
:1047300087ED009AFFF788FD002EB8BF7642C82E9D
:10474000C8BF0123C4F83809C8BF85F83F3083E6E5
:10475000B4F8BA1BA5F8402001310F2A09B206D1DE
:10476000A5F84070C3ED008AA4F8BA1B0BE703EB71
:1047700082030F29C3ED008AF6D1A4F8BA7B02E7C1
:10478000D4F8AC358CE7094B8AE7084B98E700234F
:10479000CAE700BFDC0B00200CFEFFFF8169FFFFB2
:1047A00061DAFFFF0080DAFF0000003BD4FEFFFF6C
:1047B000D0ED005A9FED2B4A08B535EE840AFBF781
:1047C0004FFEF0EE403AB0EE650AFBF749FE90ED81
:1047D000015AF0EE404A35EE040AFBF741FEF0EED6
:1047E000405AB0EE450AFBF73BFE90ED023AB0EEC0
:1047F000405A33EE040AFBF733FEB0EE404AB0EE07
:10480000430AFBF72DFE65EEC07A20EE236A24EE04
:10481000847AC1ED017AF0EE467AE5EE077A24EE6D
:10482000233A64EE806AC1ED037AF0EE437AE5EE56
:10483000667AA5EE067AE5EE436A24EE254A64EE32
:10484000E54A65EEA35A81ED004A81ED025AC1EDB9
:10485000047AC1ED054AC1ED066A81ED077AC1ED22
:10486000085A08BDDB0FC93F2DE9F04F2DED028B33
:10487000B1B04FF00009FBF7A3FC18B9FCF79EFAA2
:10488000FCF716FEBA4DBB4CFCF76EFC95F8208C7D
:1048900048F0010385F8203CB74B4FF47002C3F891
:1048A00088200023049305930693236843F4803300
:1048B0002360236803F400330593049B01330493BE
:1048C000059B1BB9049BB3F5A04FF2D1236813F4E9
:1048D000003318BF01230593059B012B40F0018392
:1048E00002230693A54B12221A6063686360636813
:1048F0006360636843F480636360636823F47C13DC
:104900006360636843F4E8136360236843F0807373
:10491000236023689F01FCD5636823F00303636071
:10492000636843F002036360636803F00C03082BC1
:10493000FAD1069B904EC5F8243C914BF360636A14
:10494000636A43F080736362636943F4FC031CAFE2
:10495000636103238DF87230394641F6FF734FF0DF
:104960009040ADF8703006F0D3FC4FF6FF738548E9
:10497000ADF87030394606F0CBFC8348394606F076
:10498000C7FC8248394606F0C3FC8148394606F028
:10499000BFFC39467F4806F0BBFC384603F0D8FF21
:1049A0001C9B7D4AB3FBF2F3C5F8283C7B4B7C4A49
:1049B000DFF8FCC14FF0000EC5F82CECC3F804E0A2
:1049C0004FF0E0230DF1740A5A61F02286F823209B
:1049D0000722C3F818E01A61BCE80F003E460FC674
:1049E000BCE80F000FC69CE80F00D5F808B0C5F86A
:1049F000D4B786E80F00636943F4002363616369F9
:104A000043F400236361636943F4002363616369D2
:104A100043F4003363614FF0904310221A85202243
:104A20001A8540221A85584A4FF4804393614FF407
:104A3000005393614FF40043936176465AF8040C97
:104A40005146013606F064FC062E0AF1080AF5D13B
:104A5000544B1C936369DFF85CA14A4843F48023FC
:104A60006361394606F054FC9AF820200823002A96
:104A700040F03A82434A93614B48C5F8F00804235A
:104A80003022002100F2AA7085F83E3901260BF091
:104A9000A7FB1422002117A885F84C6948F00508E7
:104AA0000BF09EFB1BF4802F08BF85F8346C85F853
:104AB000208CE369334E43F48043E361236943F47C
:104AC00080432361636943F480236361736A23F441
:104AD00070037362736A43F4A0037362736A23F012
:104AE00070637362736A43F0A0637362736A23F046
:104AF00070437362736A43F0A0437362336A23F4B2
:104B000070033362336A43F4A0033362736A23F49D
:104B100070237362736A43F4A023736240F2023B12
:104B20004FF4604339463046CDE91C3B06F0AEFBFE
:104B300020220123394630464FF480581C928DF8CC
:104B4000743006F0A3FB39463046CDF8708006F08D
:104B50009DFB236943F480432361236923F480434D
:104B60002361124B998821F480510904090C23E038
:104B7000680400200010024000ED00E00020024028
:104B80000005FA050004004800080048000C004831
:104B9000001000480014004840420F00941000200C
:104BA0003F19010008000102FE0500200038004006
:104BB0007C160108000000209980998889B241EA9A
:104BC00008019980198801F4415141F4437141F081
:104BD00003011980998821F470610904090C41F4DA
:104BE000E0619980998B21F400610904090C998393
:104BF00007211982198889B2202241F040011980C9
:104C0000B261C6F818806369DFF8B883C5F8F48824
:104C100043F480236361E36943F40013E361236B8E
:104C200023F010032363236B43F010032363736AA1
:104C300023F00F037362736A43F004037362736AB1
:104C400023F0F0037362736A43F0400373623946E2
:104C50004FF480733046CDE91C3B06F017FB4FF450
:104C60000073394630461C9306F010FBD8F800302C
:104C7000B5F9E81023F00103C8F80030D8F8002097
:104C8000C24B1340C8F80030C14BC8F81030D8F8F8
:104C90000030B5F9EA20002043F00103C8F80030E5
:104CA000C8F80800C8F80C00C8F80800D8F80830A0
:104CB00043F40043C8F80830D8F80030C8F8003092
:104CC000D8F8043023F0784323F40043C8F80430C4
:104CD000D8F8003043F00103C8F80030B5F9EC30E3
:104CE00041EA02041C431FD007EE901A9FEDA97AF7
:104CF0008AF84200F8EEE77AA74967EE877A3846E5
:104D0000CDED1C7A07EE902AF8EEE77A67EE877A07
:104D1000CDED1D7A07EE903AF8EEE77A67EE877AE6
:104D2000CDED1E7AFFF744FD9C4EB5F8F0300393AD
:104D30004FF0000B10225946A6F5EE70C5F860BC86
:104D400095F8EF4095F8F78085F85CBCC6E901BBA3
:104D50000BF046FA2320C5F870BCA5F86CBCC6E978
:104D600005BBC5F87CBC03F027FB0BAA012175200D
:104D700004F0D0F9002840D0894AC5F8742C894A3B
:104D8000C5F8782C43F64332A5F8702C01210FAA00
:104D9000584604F0BFF99DF83C20002800F0A78099
:104DA000EA2A40F0A48042F63352594606267F2074
:104DB000A5F8702C85F86C6C04F0FBF80A2003F061
:104DC000FBFA7821032004F0F4F80A2003F0F4FA47
:104DD0000121304604F0EDF80A2003F0EDFA3F21FE
:104DE000072004F0E6F8142003F0E6FA59460720FD
:104DF00004F0DFF80A2003F0DFFA95F86C3C00229B
:104E0000062B85F8802C40F0DF80674BC5F8843A8C
:104E1000664BC5F8883A664B6649D960D5F8FC38C8
:104E20000A2C43F00101C5F8FC1828BF144640F2D3
:104E3000FD2121FA04F212F0010240F05681012C0A
:104E400040F051819E0785F8812C00F15B81D5F8F7
:104E5000843A03989847002385F8823CB8F1000F04
:104E600040F054814FF00008002422467F21682042
:104E70008DF8704004F079F832220F21682004F098
:104E800074F822460321682004F06FF801223B46A3
:104E900011460C2004F0BBF89DF87030092B40F04F
:104EA0003E81454BC5F8843C444BC5F8883C0723FC
:104EB00085F8823CD5F8FC3843F00803C5F8FC3887
:104EC00095F8E4300BB185F8803C95F8E5300BB1EE
:104ED00085F8813C95F8E630002B78D085F8823C47
:104EE00075E00123069324E5354A1385C4E502F0F5
:104EF0007E028DF83C2040B1682A06D1012385F856
:104F00006C3C1D2385F8703C77E79DF82C3003F04E
:104F10007E03682B8DF82C3032D1062102233A46CD
:104F2000084685F86C3C04F0F5F89DF875309DF85E
:104F300073209B00520002F0020203F004031343AB
:104F40009DF8712002F0010213430CD0012B03D114
:104F5000002385F86D3C50E7022B01D10123F8E7CF
:104F6000022003F038FA13AA01210C2004F0D2F831
:104F70009DF84C3013F00F03F2D0042BEED1E7E78D
:104F8000702B04BF042385F86C3C36E7FFE0CF00AC
:104F90007A25E00035FA8E3CA0100020C8100020D1
:104FA00015910008B38F00080DB40008F1620008E5
:104FB000EC0E00202D23FA3BBB8F00082B9100083C
:104FC0000004004800540040022385F85C3C95F83A
:104FD000F830052B7DD8012404FA03F313F0160FE3
:104FE00040F0A58013F0290F73D00A2003F0E4F9F4
:104FF0004CF6EF030FA90220ADF83C3006F018FE86
:10500000002800F09480204603F0D6F913A902206E
:105010008DF84C908DF84D9006F0F0FC002800F0D3
:105020008680BDF84C305BBA03F03F03082B7ED17D
:10503000424B9DF84C90D3F8040293F808321C9030
:1050400039463B7105209DF84DB006F0F1FD002872
:105050006DD03B4C4FF2C77804F110060FA9022027
:10506000ADF83C8006F0E4FD002860D0012003F09C
:10507000A3F913A902208DF84C908DF84DB006F0DD
:10508000BDFCBDF84C309DF84C909DF84DB05BBA1E
:105090009BB200284BD007EE903AF8EEE77AE4ECAA
:1050A000017AA642DAD1274BC5F8B03C264BC5F8A9
:1050B000B83C264B00221A606223C5F8C03CD5F8E4
:1050C0005C35C5F8C43C0320002385F8C83C06F0D5
:1050D00003FED5F8FC3843F00403C5F8FC381C4C3B
:1050E00049F6117647E01446A3E6002285F8812CA4
:1050F000184AC5F8602C43F00303174AC5F8642C1E
:10510000C5F8FC38D5F8603C9847A0E6A8F1020342
:10511000032B7FF6A9AEB8F1010F04D1D0E6B8F1A8
:10512000000F3FF4CDAE002385F8823C9AE695F857
:105130005C3C43F0200385F85C3CD0E7A8140108F0
:10514000F4100020D9BC000895BA000824110020F2
:1051500000080048F9B30008BD620008A38A9BB2AA
:1051600083F40053A382A38A9BB283F48043A38277
:10517000642003F021F93B46022200214020ADF8D3
:10518000706003F0FFFD0028E8D0D5F8243C012B27
:1051900002BF95F85C3C43F0400385F85C3C95F811
:1051A0005C0C00287FF4DDAE95F8203CC24C43F047
:1051B000020385F8203C4FF4005323854FF48043CD
:1051C000A3610F26A38A9BB283F40053A382A38A10
:1051D0009BB283F48043A382A38A9BB283F40043EF
:1051E000A382192003F0E8F8013E192003F0E4F847
:1051F00016F0FF06E6D14FF48043A3614FF400534D
:10520000A3614FF40043A361D5F8FC381C0705D512
:10521000D5F8843C9847012385F8C93CD5F8503728
:10522000DFEDA66A1B7BA5F8CA3CBAF82630A44875
:1052300007EE103AB8EEC77A1A22C6EE877AFF2137
:105240009FEDA07A67EE877AC0ED007AA0F2063073
:105250000AF0C6FFD5F8FC1801230022880785F85C
:10526000003985F8012907D585F80239032385F827
:105270000039022385F803394A0708D595F8003923
:105280005A1C2B4485F80029032283F8012995F83C
:10529000003911F00A0F03F10102D2B210D0E9185F
:1052A0002A44042081F80109052182F80119DA1C39
:1052B000023355FA83F385F80029062283F8012981
:1052C000D5F8D477BB0608D595F800395A1C2B447D
:1052D00085F80029072283F801296B79082B01D072
:1052E0000E2B08D195F800395A1C2B4485F800295B
:1052F0000B2283F8012995F80029A918531C0C20CA
:105300007C07DBB281F8010905D52B44023210215C
:1053100083F80119D3B2E91812205A1CD2B281F8CD
:105320000109780585F8002909D595F8B81131B13A
:1053300002332A4485F80039132382F80139B9056C
:1053400008D595F800395A1C2B4485F800291522F8
:1053500083F80129FA0508D595F800395A1C2B4421
:1053600085F800291A2283F801299822002156483D
:10537000564C0AF035FF012003F08AF94FF04C0B30
:1053800000286AD1D5F8EC39B5F944C1C5F8EC3834
:105390004F4BC5F8783B0022A5F8FC2685F8FE2681
:1053A000C5F82027C5F82427C5F8C03685F8C92ACE
:1053B000D5F8B816B5F8440103F23246624603F652
:1053C000DE13F82526F8022B0135D4F85C25EDB262
:1053D00002F516720A2D43F8042B65D1FB0454BF65
:1053E000B4F84A310346A4F86E3501F1500591F83E
:1053F0007D30ABB991F87F2091F880309A420FD27E
:10540000002A6BD0013A02EB820202EB820202F523
:10541000617293B291F87E2004EB4202A2F87035DB
:1054200004318D42E3D13E076DD594F83E21062A22
:1054300063D8DFE812F05B002D04300458047904CF
:10544000930493040BFB06FA04EB0A0999F8368AD5
:10545000B8F1000F04D00136F6B2022EF2D191E776
:1054600002791C4B90F90000CDF8048003EB820315
:1054700003220092D3F80C324246012106F0D4FEFA
:10548000039068B114484822414650440AF0A8FEEF
:10549000039BC9F8EC3901231E4489F8363AF6B269
:1054A000012003F0CFF86BE7022D9DBFB4F8462131
:1054B000643212B2624685E7000800480AE81C41DF
:1054C000701000200000C842540E00206804002024
:1054D0009E050020A8140108580E0020013303EB9C
:1054E000830303EB830303F5617393E745F2F05302
:1054F000A4F8CC3C06F0D0FE28B90820FAF78CFEC0
:10550000C34BC44A9A6317F4804F18BF1223C04D8F
:105510001EBF84F83039C04BAB6342F201031F4217
:1055200011D044F62063A4F8CC3CBB0441BF08234F
:1055300084F83039B94BAB63FE0741BF0C2384F8C4
:105540003039B74BAB6394F83039B64F043B84F82D
:10555000313932209F234FF480580DF14C091CAE95
:10556000139302F029FF0023A7F82880042249465C
:1055700030468DF8713006F0D9FE9DF87130C7F8CD
:1055800018809DF872201B0443EA02239DF87320C3
:105590001343A54A934200F0228400F31984A2F534
:1055A0001A42033A934200F0218402F51A42023271
:1055B000934200F047840023C5E90C33AB6202F04C
:1055C000A9FD6379C4F8200D052B04BF4FF4C873FF
:1055D000A4F85235FBF744F84FF47A73DFF874827D
:1055E000A4F854350320D4F8B03C9847DFED8F7A07
:1055F00047460837C8ED007A4FF0650AB0EE677A83
:10560000B0EE678AB5EE407AF1EE10FAC7ED007A97
:1056100040F03F84BAF1010A40F0268494F8E33860
:1056200043F0080384F8E33894F8EC3523F00203E0
:1056300084F8EC35D4F8D43740F602021A4222D06E
:105640000027032384F8B13839460123784885F8C8
:105650002430C822A4F8B478A4F8B878A4F8B678AE
:10566000A4F8BA780AF0BCFDD4F85C35C4F8C038A8
:10567000704BC4F8E4770020002143E9020184F86C
:10568000E07784F8B078012384F8343C94F8203C27
:10569000694FD4F80880C4F8D48763F07F0384F896
:1056A000203C3B464FF0804243F8042B634A1A608B
:1056B000634BBB604FF49663A4F87235614BAB61EA
:1056C0000021614D084605F04AFE95E80F000DF1F6
:1056D0001C0A8AE80F0005F110030FCB0DF12C0E08
:1056E0008EE80F0005F120030FCB0DF13C0C8CE888
:1056F0000F0005F130030FCB89E80F0005F14003DF
:105700000FCB86E80F009AE80F0007F10C0585E83B
:105710000F009EE80F0007F11C0A8AE80F009CE8C2
:105720000F0007F12C0E8EE80F0099E80F0007F12B
:105730003C0C8CE80F0096E80F0007F14C0C8CE84D
:105740000F004FF4967002F037FE4FF48C7207F1A1
:105750005C0000210AF044FD3C4BDA6942F007028C
:10576000DA619A6942F4A5229A615A6942F4C02228
:105770005A6100200F27AA7B696895F80FC002F0D4
:105780000703D20801EB82029B00116A0CFA03FCAA
:1057900007FA03F321EA03031362136A04304CEAA5
:1057A00003031428136205F11005E4D16279D4F8DB
:1057B000F018182A9DBF264BD34003F001030023A5
:1057C0008DF866300022881C10F93250022D00F04E
:1057D00092830132042AF7D100228DF86120C8F3A8
:1057E00040028DF86220C8F380128DF86420C8F35F
:1057F00040328DF85C20C8F3C0328DF85F2018F479
:10580000006229D094F83221D51E6A426A4123E011
:1058100000000020F960000815610008FD60000824
:10582000096100080004004818BA200000000000C8
:10583000500C0020380D00208C110020ABAAAA3F8C
:1058400026B4973EA0860100D4160108001002403D
:1058500000410001F80A00208DF86020C8F30042E2
:105860008DF8652008F001028DF85D20C8F3C002B4
:105870008DF85E20C8F3804218F4805FB4F8D4102D
:105880008DF86320B4F8E020ADF86A101CBFB4F8BE
:10589000DC10ADF86A10B2F5FA7FADF8682094BF5D
:1058A000BDF86A200022ADF86A2094F8822184F8BD
:1058B000982E00225B0018F0090FA4F8992ECB4A0D
:1058C00018BF013302EB83034FF6FF79D3F87C3224
:1058D000A3F102080833039338F8020F484500F09B
:1058E000C880030A022B00F0C080C14AC0B2012B5D
:1058F0004FEA001B02EB001040F085839DF85D30FD
:10590000002B00F0B28004EB0B07002384F89C3ED0
:10591000C4F8A03EC4F8A43EC4F8A83EC4F8DC3ED7
:1059200084F8E43E97F83D3DB7F8382DC4F8F00E02
:1059300031468DF87230D7F8340DADF8702002235F
:10594000C4F8E09E8DF8733005F0E2FC94F8982ED0
:10595000D7F8305D97F83AAD012A18BF00212A6ABE
:1059600008BF0321BAF1000F40F0CC8222F00102FF
:105970002A62AA69286A22F0F30242EA011220F0A0
:105980000A0042F0010240F00100AA612862AA69FF
:1059900022F00C02AA61AA69AA610122002128460C
:1059A00005F0BCFB2A88934F92B242F00102BB443F
:1059B0002A809BF83BBD584606F0E8FABBF11B0F66
:1059C00002D1192006F0E2FA8B4AC7F8F42E4FF004
:1059D000000B8A4AC7F8F82E2846C7F8FCBE05F027
:1059E00015FB062841D80A214143854A01EB9A015B
:1059F00007EB810C131DCCF8802DCCF8903D4FEABD
:105A00009A0C0223E96803FA0CF39BB20B43EB6098
:105A100028234343A2F5BA7203F120011144EFF3A6
:105A2000128C4FF0500E8EF312880C33134453F83F
:105A3000042F0AB10A60111D0BF1010BBBF1040F19
:105A4000F5D100230B605FFA8CFC8CF311882823BE
:105A500003FB0077D7F8A03D002B40F0D082EB6825
:105A600023F001031B041B0CEB60039B43457FF4F5
:105A700033AF644E644D042384F8B8390FCE0FC59C
:105A80000FCE0FC50FCE0FC596E80F0085E80F00AB
:105A9000D4F8D437D4F83467D4F8300703F48052FC
:105AA000A5F256650023002A00F0E082818825F8DF
:105AB000021B01330C2BF6D1544B0F934FF0904344
:105AC000CDE913334FF44173ADF82C30504B514DA9
:105AD00021954FF0A041CDE91C1301204FF08053D8
:105AE000002713AC0BAE05F10D094FF0020B0DF1C1
:105AF0001C080DF13C0ACDE91E0303F558531CA800
:105B00002093ADF81C70CDF89490CDF89CB0CDF8F2
