:020000040800F2
:1000000000A00020B9CB000821CC000821CC0008BA
:1000100021CC000821CC000821CC00080000000001
:1000200000000000000000000000000021CC0008DB
:1000300021CC00080000000021CC00081D8200082F
:1000400021CC000821CC000821CC000821CC0008DC
:1000500021CC000821CC000821CC000821CC0008CC
:1000600021CC00081782000821CC000821CC000810
:1000700021CC000821CC0008A1B2000821CC000846
:1000800021CC000821CC000821CC000821CC00089C
:1000900021CC000821CC000821CC000821CC00088C
:1000A00019B70008D1B6000829B70008C1B6000882
:1000B000D5B60008E5B60008F5B6000821CC000862
:1000C00021CC000821CC000821CC000821CC00085C
:1000D00021CC0008E1B20008EDB2000821CC0008F4
:1000E0001182000821CC000821CC000821CC000896
:1000F00015B7000821CC000805B7000821CC00087E
:1001000000000000000000000000000021CC0008FA
:1001100021CC000821CC000821CC000821CC00080B
:1001200021CC000821CC000821CC000821CC0008FB
:1001300021CC000821CC00080000000000000000D5
:1001400021CC000821CC000821CC000800000000D0
:10015000000000000000000000000000000000009F
:10016000000000000000000021CC000821CC0008A5
:1001700021CC00080000000000000000000000008A
:080180000000000021CC000882
:1001C00010B50F4B1A786A2A17D15A88B2F5AA6F60
:1001D00013D11A79BE2A10D193F84E25EF2A0CD1EB
:1001E000084C002213F8011BA342104682EA0102C8
:1001F000F8D1431A5842584110BD0020FCE700BF17
:1002000000F0030850F50308024A93680343936023
:10021000704700BF60040020024A936823EA00038D
:100220009360704760040020044A0123B2F850151F
:1002300083400B43A2F85035704700BF6004002094
:10024000044A01238340B2F8500520EA0300A2F8D3
:10025000500570476004002010B50C4CB4F85205EE
:10026000B4F85435184380B260B9FFF7E9FFB4F829
:10027000500510F0010004D1D4F85805003818BF1B
:10028000012010BD0020FFF7CFFFF0E76004002041
:100290006F4B70481A68596870B5D0F85C45A21A5F
:1002A0008A4213DB90F86025B0F850650132D2B273
:1002B00080F86025002101252E4208D101316D0012
:1002C0000929ADB2F8D15A6822441A6070BD89B2CA
:1002D0000139072905D8DFE801F01BAC90819D4565
:1002E0002E7064225A601D7A5B4A4FF480404FF4AE
:1002F000005190612DB111854FF40041118500220C
:1003000004E091614FF40041916101221A72DAE731
:100310001D7A64225A604FF480404F4A4FF40041E6
:1003200025B1108591614FF40051E7E7906191612B
:100330004FF40051E8E790F86115474821B3642273
:100340005A604FF4804282614FF4005282614FF450
:1003500000420285B7E74FF48042018502854FF4E1
:100360000052F6E790F861153B4869B164225A6083
:10037000828A92B282F4005282824FF48042826179
:100380004FF4004282619EE702F003027821022AC4
:1003900059604FF40041DED0032A0AD0012A0185BA
:1003A0004FF4804201D0826100E002854FF4005298
:1003B000E8E781614FF48042F5E790F86125002A73
:1003C00081D064225A60244A4FF4804111854FF451
:1003D000004191614FF40051916174E71E4964221C
:1003E0005A604FF480428A614FF400428A618A8ADF
:1003F00092B282F400528A8265E764225A60164AF9
:100400004FF4804191614FF4004191614FF40051EC
:10041000118558E7104964225A604FF400528A61EE
:100420008A8A92B282F480428A824FF400428A61C0
:1004300049E7642112F0010F5960074A4FF48041E7
:100440004FF4004001D11085C3E79061DDE700BFA4
:10045000000000206004002000080048FDEEC07A83
:1004600017EE903A2033402B43D8DFED237A9FEDEF
:10047000237AB4EEE70AF1EE10FA28DCDFED207AF9
:100480009FED1E7AB4EEE70AF1EE10FA22D4DFED0A
:100490001D7AB4EEE70AF1EE10FA1EDD30EE670ABF
:1004A00037EEC00A60EE007ADFED176A9FED177A2B
:1004B000A7EEA67ADFED166AE7EE876A9FED157A5A
:1004C000A7EEA67A20EE276AA6EE070A704730EE5E
:1004D000470ACEE730EE070AD4E79FED0F7AB4EE75
:1004E000C70AF1EE10FA44BF30EE270A37EE400A91
:1004F000D8E79FED0A0A7047DB0F4940DB0FC94080
:10050000DB0F49C0DB0FC93F9A7C2E36FAAF4FB9DB
:100510003587083CA4AA2ABEDB0FC9BF0000000033
:1005200003685A1C02601970704700231B68FFDEC5
:1005300030B5484BD3F86425B3F96E159578D27869
:10054000B3F98C05002A41D00A1A82EAE274A4EBBE
:10055000E274AC4223DD012012F5997F83F88E0509
:100560001ADD062092FBF0F2502AA8BF5022B3F801
:100570009005024412B2A3F8AA25A3F8902593F897
:10058000B025002A61D040F2DC5291425DDC4FF48C
:100590007A72A3F8AA2530BD6FF03102E7E793F82D
:1005A0008E2532B1D3F89825C3F89425002283F81C
:1005B0008E25D3F89C25D3F8A0451044228890427C
:1005C000D8DB62888242A8BF0246D3E740F2DC5201
:1005D0009142214C23DDA1F2DC52954228DAA1F2AE
:1005E000DC52002ABCBF6FF4BB628A189210782AD2
:1005F000A8BF7822C3F8AC250122627283F88E2549
:10060000D3F89C25D3F8A04510442288904203DB00
:1006100062888242A8BF0246A3F8AA25AFE7521A11
:10062000954205DAB1F5896FD9DC6FF06302E1E735
:100630000022627293F88E45C3F8AC25002CDFD0FF
:10064000D3F89845C3F89445D8E7002283F8B0253D
:10065000A1E700BF6004002000000020134BD3ED91
:10066000037A134BF5EE407AF1EE10FA4FF00002E8
:1006700003F1040103F1080003D11A600A6002606B
:100680007047F0EE086A86EEA77A80ED007A27EED2
:10069000A77A67EE877A86EE876AF7EE006A86EEBB
:1006A000A77A81ED006A83ED007A70470000002090
:1006B000140A0020034BB3F8C0351D2B01D80420C9
:1006C000B2E5704760040020054B0022C3F8C42542
:1006D000C3F8C82503F2CC5300221A605A60704751
:1006E00060040020074B0022C3F8D425C3F8D825A6
:1006F000C3F8DC2503F5BC6300221A605A609A60D7
:10070000704700BF6004002010B5164C94F8EC351B
:100710005A0706D523F00503042084F8EC3507F0CA
:100720005DFF94F8ED25104B0AB100221A740122E6
:100730005A74782200215A82042040F214529A827C
:1007400084F8EE1584F8EF1584F8F015C4F8F41564
:10075000FFF776FD0520FFF773FD84F8F81584F8A0
:10076000B01510BD6004002000000020224B93F85B
:10077000EC2512F0010F02F0040103D1D3F8FC05BF
:10078000012833DC93F8000680B393F8010668BBB8
:1007900039B11A4A1346516843F8081BD2681A60E7
:1007A0007047D3F81416480124D491071FD442F09F
:1007B000040283F8EC2593F8EE2522B9012283F890
:1007C000EE25D3F85C250E4AB3F81816D182D3F87B
:1007D0005C25D3F85C1593F88E214FF47A7012FBE8
:1007E00000120520C3F81C2607F0F8BE11B901203D
:1007F00007F01ABF704700BF60040020640A0020A1
:100800000000002070B5104CD4F82056284607F0A0
:1008100051FF287A04F2246400226FF0180619218F
:1008200012FB0263434303F6C41353430132072A06
:1008300093FBF1F324F8023BF2D128460349BDE8CB
:10084000704007F053BF00BF600400203005002057
:100850002DE9F047C54C94F83236B4F8342604EB51
:100860004303B3F968359342C0F26A81B4F836267F
:10087000934200F3658194F838560DB994F83956CF
:1008800094F83C3684F83A5684F83B56002B00F036
:100890000D81D4F84076D4F84436FB1AC72B40F2C9
:1008A000058194F84886B8F1000F40F0F580414684
:1008B000404608F065FCAE4BAE48002D08BF184618
:1008C0000BF036FFD4F84C6694F83896022E40F0C0
:1008D0008681B4F85035DA0740F13481A64BC4F86C
:1008E0005036D4F85086B8F1000F06D0062000210B
:1008F00008F046FC40460BF01BFF0021102001369B
:10090000C4F84C6608F03CFCB4F8C0359B480A219A
:10091000B3FBF1F201FB12339BB299490BF016F8CD
:1009200096480BF005FF0721002008F029FCB9F1DB
:10093000000F40F05D8194F8392692488C4B002AD4
:1009400008BF18460BF0F4FED4F81466D4F85C35F2
:1009500094F8682616F0010600F04C81002A40F059
:100960004E81C4F86C26B4F85025D20504D5012276
:1009700084F86826C4F8703607210846D4F86C3627
:100980004FF47A724FF03C0AB3FBF2F808F0F8FB30
:10099000B8FBFAF97C4979484A460AF0D7FF77480C
:1009A0000BF0C6FE07210C2008F0EAFB77497348DC
:1009B0000AFB19820AF0CAFF70480BF0B9FE10203A
:1009C000072108F0DDFB7248724B002E08BF184665
:1009D0000BF0AEFE002D5FD10221012008F0D0FB0C
:1009E0000A266D49B4F97626644892FBF6F20AF0BD
:1009F000ADFF62480BF09CFE0321012008F0C0FB14
:100A00006649B4F974265D4892FBF6F20AF09EFF3F
:100A10005A480BF08DFE0421012008F0B1FBB4F917
:100A200018265F4955480AF091FF54480BF080FEA4
:100A300002210B2008F0A4FBB4F96A2559494F485C
:100A40000AF084FF4D480BF073FE03210B2008F0E1
:100A500097FBB4F96825514948480AF077FF4748A1
:100A60000BF066FE04210B2008F08AFBB4F96C251C
:100A70004B4942480AF06AFF40480BF059FE0521F5
:100A80000B2008F07DFBB4F96E2547493B480AF07E
:100A90005DFF3A480BF04CFE94F87A36AB4201D039
:100AA0000BF02FFE84F87A56C4F84476002D00F03F
:100AB0006A8107F0BBFBD4F87C36C31A002BC0F266
:100AC000EC803A4D00F5C3302B7EA030C4F87C0694
:100AD00033B10AF05DFE00232B76012384F88036C3
:100AE000B4F86E55B5F57A7F14D9B4F86A050AF0F2
:100AF0005CFE0646B4F868050AF057FEB5F5FA6FD5
:100B000028BF4FF4FA65A5F57A7189B2002E7CD121
:100B100000287AD1D4F88436B4F888269A614FF444
:100B20007A71002008F0FEF9D4F89036B4F89426D3
:100B30001A854FF47A71BDE8F047012008F0F2B948
:100B400000259DE6980701D5194BC8E6D90601D4C2
:100B50001A0701D5174BC2E6980605D4B9F1000F64
:100B60002CD194F839264ABB134BB8E66004002018
:100B7000B81E0108B21E0108D01E0108B40A0020E8
:100B80002A1F0108BE1E0108321F01083A1F010872
:100B9000C41E0108CA1E0108401F01084A1F01089F
:100BA000541F01085E1F0108681F01080000002093
:100BB000DA1E0108E41E0108EE1E0108590701D5DE
:100BC000804B8CE65A0601D57F4B88E6180601D586
:100BD0007E4B84E6D9057FF584AE7D4B7FE6052EFE
:100BE00001BF7C4BC4F85036C4F84C86464678E6C4
:100BF0007948A7E6002A3FF4BFAE84F86866D4F8C7
:100C000070269B1AC4F86C36B6E683B213FA86F2E5
:100C100012B27248724FB2F57A7FA6EB0305A8BFF5
:100C20004FF47A722DB28242B8BF0246B5F57A7F90
:100C3000A8BF4FF47A758542B8BF054612FB01F292
:100C400015FB01F5BA424FF47A7302F5FA7105F516
:100C5000FA7691FBF3F196FBF3F689B2D4F8843679
:100C6000B4F88806A7BF986101F57A71C1F57A7169
:100C7000188509B2002008F055F95949D4F8903682
:100C8000B4F894268D42B6B2ABBF06F57A76C6F5B7
:100C90007A761A859A6131B24DE7524A0023A2F55D
:100CA0009471101D1578B5B1032B06D050F8235060
:100CB00021F8135001330132F4E7D4F8DC36A4F8FC
:100CC0006E3594F8E03613B10023A4F8E236464EB0
:100CD000002301250CE00133042BECD1F1E70120C6
:100CE0000BF050FD002384F8E53684F8E456012328
:100CF00016F8012B002A42D0DBB2013B042BEED8C0
:100D0000DFE803F0030D1B29330001200BF02CFD5D
:100D1000002384F8E43684F8E5560223E8E704204B
:100D20000BF030FD40200BF01FFD012384F8E63668
:100D3000002384F8E7360323DAE740200BF022FD96
:100D400004200BF011FD012384F8E736002384F81A
:100D5000E6360423CCE708200BF014FD002384F8CA
:100D6000E93684F8E8560523C2E708200BF0FCFCBE
:100D7000002384F8E95684F8E836BDE8F0870133AB
:100D8000062BB5D1F9E794F88036002BF5D0C4F8DE
:100D9000D05684F8CC56C4F8D45684F8CD56C4F84E
:100DA000D85684F8CE56C4F8DC5684F8CF5684F86A
:100DB000E0560AF0EDFC0D4B84F8805601221A76BD
:100DC000DBE700BFF81E0108021F01080C1F010825
:100DD000161F0108201F0108BE1E010818FCFFFF96
:100DE00025FAFFFF2C0B0020440B00200000002000
:100DF0002DE9F84F4FF4AA622DED028B0021C8486F
:100E00009FEDC88A0FF0CAFAC54A02F5E4730021C3
:100E1000C2F8EC3602F22A566A2303244FF400602B
:100E200015461370547182F8F016C2F82066FFF769
:100E3000EBF98020FFF7E8F90220FFF7E5F94FF41E
:100E40000060FFF7E1F94FF48070FFF7DDF9C82388
:100E5000A5F8FA30B44BDFF83CC3DFF83CE385F883
:100E600032414FF48037C5E93B73B04BC5F8F430DD
:100E70004FF47A73A5F8343142F22013C5E94AC31E
:100E80004FF0A063C5F8C431A94B85F828154FF081
:100E90007E58C5E951E340F64303A5F84C312A4694
:100EA000A5F8E41085F8E610C5F8FC10A5F80011C7
:100EB000C5F8E81085F8F810C5F81081C5F8148158
:100EC000C5F8188185ED478A85ED488A85ED498A00
:100ED000A5F83011A5F8B81185ED6F8A85ED708AF7
:100EE000A5F83E112B462C460329CCBF0122002237
:100EF00001F1010183F84E2114BF1E22052212299F
:100F000083F84F2103F10203EED18A4BC4F840313C
:100F1000834B00224FF47A704FF4FA610132042AB5
:100F2000A3F87201A3F8741103F10403F6D1824A05
:100F3000824B8349C4E96323824BC4F8D030A3F1C8
:100F4000FA73643BC4F8D43003F5602303F5CB7324
:100F5000C4F8D8307C4B00274FF00109C4E937139F
:100F600084F8827184F894910AF0BEFD40F6AC5387
:100F7000A381764BC4F8C83103F10343A3F51D23C5
:100F8000A3F29D73C4F8CC317148724B724AC4F815
:100F9000F821C4E97403714BC4F8D8312D2384F8C7
:100FA000DD3141F61E63A4F8DE316D4BC4F8E0314B
:100FB000C4F8FC2145F205336A4AA4F8E431C4F8C8
:100FC000142264234B2284F8E63184F8182240F27C
:100FD00001534FF4FA72A4F8E831A4F81A22624BD4
:100FE000C4F8043240F2DC52C4F80832A4F83425C4
:100FF0005E4BC4F8F43144F25A125D4BA4F82A2532
:101000004FF07F513222A773C4F81032C4F81C721B
:10101000C4F82C25A4F8307584F83275C4F8EC11A6
:10102000C4F8F011C4F8008284ED838AA4F8227217
:10103000C4F82C3242F62803A4F83032152384F881
:1010400034324C4BC4F82472C4F838324A4F4B4BFC
:1010500084F84492DFF83891C4F83C3240F6082214
:10106000474BA4F82822C4F84032BA4609F1080BCD
:10107000B84617F8011B002943D14FF42053A4F8B8
:10108000DE324FF44873A4F8E2323E4BC4F88431A8
:10109000C823A4F88A3184F8DD1284F8E01284F8B9
:1010A000E41284F888110C23013B05F1100585ED4D
:1010B000008AF9D134494FF4907288180BF06EFB16
:1010C00031494FF4907201F510700BF067FBD4F8C2
:1010D0002A35C4F836352D4A73685360B368D4F89E
:1010E0002A159360C4F842155361012384F84033F4
:1010F00071681161022384F86034BDEC028BBDE895
:10110000F88F23480FF098F90028B1D058453FBF19
:10111000A0EB09000019A8EB0A0880F83681A7E7C0
:1011200060040020000000002A005802FA0020009D
:101130006C077503001E0001000105960101C8003F
:10114000B40532004C04D0075046320001282896DE
:101150002828783C0A0A4600CDCCCC3E0002210A61
:101160001E321E00000040408FC2F53C00002040AF
:101170000000A0409A99193F721F0108F6287C3F91
:101180001F856B3F0AC81405280600209609002019
:1011900064160108190A0A2ADC054C042DE9F843F3
:1011A000FFF70EF810B9032007F0A1F9C14C07F0C2
:1011B0006DFB4FF4AA62C04920460BF0EFFA94F899
:1011C0002865022E88BF00264FF4907506FB05F5B2
:1011D00004EB050288BF84F8286592F82032022BC0
:1011E00084BF002382F820320C2284F8F03605F503
:1011F000E47702FB034303F22A5308202744C4F890
:101200002036C4F8EC76FFF707F84FF40050FFF7EC
:1012100003F80120FFF700F84FF48040FEF7FCFFD1
:10122000FEF7F2FF4FF4907303FB0643002283F8AE
:10123000452241F20302A3F84622A04AC3F84822FD
:1012400002F18052A2F57E42C3F84C229C4A4FF430
:10125000866CC3E994C2202283F85822052384F8BF
:10126000323640F2AA53A4F8343640F20E63A4F8A2
:101270003636944B01225A76A36846F209021A4286
:1012800003D14FF40050FEF7BFFFA368D80703D582
:101290004FF40050FEF7C0FFA368590409D5082099
:1012A000FEF7BAFF4FF40050FEF7B6FF0120FEF73D
:1012B000B3FFA3681A0706D54FF40050FEF7ACFF42
:1012C0000120FEF7A9FFA3689B0402D54020FEF78A
:1012D000A3FF012384F8B93194F88C312BB194F831
:1012E000903113B1002384F89031DFF8F081C4F815
:1012F000F486002002464FF0FF0E04EBC003B3F863
:101300009A114B0803F077334FEA910909F033390A
:10131000CB1AA3EB09034FEAD10909F01139A3EB6A
:10132000090303EB231303F00F33B3FBFEF9C9EBFF
:10133000092901F0010CA3EB09036244012BD2B28D
:1013400007DD022B0BD1BCF1000F08D011F0BC0F50
:1013500005D001300428D0D1013A012A01D90AF080
:10136000C3FBFFF74FFA302200215748DFF8709196
:101370000FF014F805F24520394620440AF0E2FB4C
:101380004FF4907303FB0646C4F8289796F8C801FB
:1013900005F014FB09F18E03C4F82C3794F884315E
:1013A000DFED4A6AC4F870876421C82213FB012369
:1013B000B4F8F210C4F834370023C4F83837C4F84E
:1013C0003C37C4F84037C4F84437C4F84837C4F849
:1013D0004C37A4F85037C4F85437C4F8583707EEE0
:1013E000901A09F10603C4F86037A9F11E03B4F896
:1013F000F410C4F86437F8EE677A09F19A03C4F878
:101400006C3709F27E63C3ED017A07EE901AB6F8E5
:101410002812A4F8741796F8441284F8761794F8F2
:101420008F1184F88017B6F8E212C4F8843707EEFB
:10143000101AF8EE677AB8EEC77AC3ED027AC6EEF4
:10144000877A05F50C732344C4F8883705F2DD2547
:1014500009F29663A9F126022544C4F86827C4F866
:1014600090774FF07E519FED1A7A67EE877AC3ED41
:10147000007A09F29E63C4F86455C4F8A025154AA1
:101480001A604FF07C5209F2B2695A6000229A60E9
:10149000D9601A61104BC9F80030C9F80410C9F8B6
:1014A0000820C9F80C10C9F81020BDE8F84307F06F
:1014B00005BA00BF6004002000F0030830010300FB
:1014C0001005001000000020580B002000006144AF
:1014D0004C3D0F440AD7233CCDCCCC3D9605002093
:1014E000560500202DE9F74F07F0D0F9434B6A224B
:1014F0001A704FF4AA625A80BE221A71EF22A3F822
:101500004E2540F2515100221846013955D13C4B2D
:1015100080F84F251A69120604D53A4A5A6002F13A
:1015200088325A60364C384E03254FF03409C4F8DF
:101530000C900AF0C7FA0428DFF8C08038D123697C
:1015400043F002032361314B6361236943F040039D
:1015500023610AF0B7FA2369042823F00203236108
:1015600026D14FF0000BDA4658F8047BCDF804A0E2
:101570000AF0A8FA04281BD1236943F00103236170
:101580000BF1006303F57C33BAB21A800AF09AFAC1
:10159000042816D10BEB06030193019B3F0C1F801F
:1015A0000AF090FA2369042823F0010323610DD087
:1015B000013D15F0FF05BAD10DE013F8014B624073
:1015C000A3E7236923F001032361F1E70BF1040B87
:1015D000BBF5AA6FC8D10A4A1369042843F08003F7
:1015E000136102D1FEF7ECFD10B9042006F07FFF75
:1015F00003B0BDE8F04F07F061B900BF6004002000
:10160000002002402301674502F0030800F00308B0
:101610002DE9F04FD54ED6F82086B6F96EE5B8F82C
:101620000A202DED048B9645A9B0C0F2B581BEF518
:10163000FA6F98F80740BDBFAEEB020313FB04F34B
:10164000C2F5FA62C4F16403BCBF93FBF2F3C3F1C9
:1016500064030193B6F844310393C54BD6F8ECB656
:10166000069303F51B7203F13C070592A3F5AD65E4
:1016700003F26F2208F10403DA4604920020642189
:101680000793069B33F9022B029206931346039AA3
:101690009B1A03F2F31240F2E634A24200F27E817A
:1016A000002BB8BF5B42022800F07B819BF815211C
:1016B0001AB19A42B4BF9B1A0023B3FBF1FC05EBAD
:1016C0004C024FF69C74B2F9DA97B2F9DC271CFB96
:1016D000043CA2EB09020CFB02F292FBF1F24A4439
:1016E0003A80079A125C12FB03F3A24A93FBF2F3CF
:1016F000019A64339BB2534393FBF1F31AF8012F21
:10170000059C5A4392FBF1F204F8012B9AF816203B
:1017100005945A43049B92FBF1F203F8012B022833
:1017200004931EBF944B019AC254DDE9023208BFF4
:1017300085F8EA179342B8BF3B8800F10100BCBFAF
:101740005B423B80032807F102079AD1DFF834920D
:10175000D5F81486B9F91A30581C0DD018F0080FB6
:101760000AD0D5F89825323B934205DC40F2DC5391
:101770009E45C8BFA5F86E3595F8EF351BB1B9F891
:101780001430A5F86E35B5F96E35B5F8462193429B
:10179000C0F23281B3F5FA6FA8BF4FF4FA639B1A17
:1017A0004FF47A714B43C2F5FA626424B3FBF2F34F
:1017B00093FBF4F105EB41026FF06307B2F9EC071C
:1017C000B2F9EE2707FB0133121A534393FBF4F3EC
:1017D0000344A5F8AA35B5F80438590639D5B5F843
:1017E0001836B9F81620DFED657A9FED650A9B1A69
:1017F0001BB205EE903AF8EEE55A65EEA75A35EEC3
:10180000800AFEF72BFEB0EE405AB0EE650AFEF7F6
:1018100025FEB5F9A63506EE903AB5F9A43507EEE2
:10182000103AF8EEE66AB8EEC77A67EE007A20EE74
:10183000660AE6EE857AA7EE050AFDEEE77ABDEECA
:10184000C00A10EE103AA5F8A43517EE903AA5F8A4
:10185000A635D5F808A81AF0020F00F0E280D5F8F6
:101860000C28D5F8103845F20721D31A8B4240F3E3
:10187000D8800220C5F8102809F000FDC2075EBF1D
:10188000C0F3CF041923B4FBF3F495F81438D5F85A
:10189000182805EB430148BF4FF6FF74B1F81C0848
:1018A000A1F81C48121A144401336422B3FBF2F16C
:1018B00002FB113385F8143895F8E438C5F8184858
:1018C000632B9EBF0133DBB285F8E438B4FBF3F43D
:1018D00095F8E538A7B2032BA5F8C07540F08E80C7
:1018E0000A2F40F29E8099F81C1001EB810101EB58
:1018F000810100234FEAC11B01EB01114FF4167265
:101900001FFA8BFBC90085F8E538282041F26803EF
:10191000A5F8E628A5F8E838A5F8EC18A5F8EAB87F
:1019200006F0D6FD2A21B7FBF1F107EB870701315D
:1019300007EB870789B2BF000829BFB228BF08217B
:10194000A7EB0B074FF4167241F268037A43A3EB3F
:101950000B0389F81C1092FBF3F3A5F8EE38034A49
:10196000B2F8EC38A4B2633BA3420DE0600400205F
:10197000C80900200CFEFFFF480C002035FA8E3C01
:10198000DB0FC93F000000204BDD0123082082F857
:10199000E53806F023FE44E064235AE64FF4FA7378
:1019A00081E69BF816211AB19A42B4BF9B1A002314
:1019B000B3FBF1FC05EB4C024FF69C74B2F9249694
:1019C000B2F926261CFB043CA2EB09020CFB02F236
:1019D00095F9EEC092FBF1F2CCF1000C4A4412FBF7
:1019E0000CF2A5F8A82598F8062012FB03F3B74AD5
:1019F00093FBF2F3643381E61346D0E60A2F00F23C
:101A0000AD80032385F8E538002389F81C30A5F85C
:101A1000EC38A5F8EA38A5F8E838A5F8E638A5F8CE
:101A2000EE381AF4006FAA4C59D0D4F80C28D4F828
:101A3000F03845F20721D31A8B4250DDD4F85C35DB
:101A4000C4F8F028D4F8F428C4F8F4380120A3EB43
:101A5000020B09F013FC00B2632840F3B08064234A
:101A600090FBF3F007EE900AF8EEE77AB2EE047A14
:101A7000C7EE876A9FED977AC6EE877AFCEEE77A23
:101A800017EE903AB3F5803FAABF00221A461346DC
:101A9000C4F8F8289BB2DFF848A2D4F80079DAF845
:101AA0000420E3FB0B72914600238B4A38464946DB
:101AB0000AF092FFC317B0F5803F73F100032ABF0D
:101AC000002303461846C4F80839B4F8EE38C4F8C1
:101AD00000791B1A9BB2CAF80490C4F80C3918F4A8
:101AE000805F02D00A2006F079FDD4F81099B9F190
:101AF000000F22D0D4F85C35D4F814299A421CD8AF
:101B000094F81A39B4F81879002B5AD1D9F804305E
:101B1000012284F81A29DB5D3BB137B999F800300E
:101B2000053B934201D806F081FBD9F80430DB5D18
:101B3000FE2B4AD10023A4F8183994F8EC154B0772
:101B40004FF0080051D5FEF76FFB0720FEF778FB3A
:101B50000620FEF775FB614F0023C4E0012B05D082
:101B6000022B1FD0002B3FF4FAAE5AE795F8EC3564
:101B700023F0020385F8EC35B5F8EA38A4B2633BEC
:101B8000A34204DD022385F8E538072014E0B5F808
:101B9000EC3864339C420EDD002385F8E538FEF70F
:101BA00089FD3EE7B5F8EA38A4B264339C42ECDD27
:101BB000012385F8E538082006F010FDEFE7002343
:101BC00069E7002384F81A39AFE7FF2B02D106F04A
:101BD000F3FCB2E7D4F85C250A2113FB012301379B
:101BE000C4F81439A4F81879A7E7FEF729FB18F010
:101BF000010F10D194F81B391F0702D594F8003655
:101C0000CBBB072021F0010184F8EC15FEF718FB8F
:101C10000620FEF709FBB4F8502594F81C3950074C
:101C200034D5EBB984F85C37D4F854374BB94FF45A
:101C30009673C4F85437D4F85C3503F59673C4F83A
:101C40005837D4F85C35D4F858279B1A002B1FDB83
:101C5000012384F81C390023C4F85437C4F85837DA
:101C600094F81B391B0713D50220FEF7E9FA00236D
:101C700084F81C390CE041F00101072084F8EC15D0
:101C8000FEF7D2FA0620FEF7DBFAC4E7002BE7D115
:101C9000B4F8C035222B11D90023032084F8013673
:101CA000FEF7CEFAFEF7D8FA00283FF454AF94F8C6
:101CB000EC3523F0010384F8EC354CE701230320D5
:101CC00084F80136FEF7B0FAECE700BF0CFEFFFF28
:101CD000600400206F12033B80EE3600840E00206B
:101CE000600D0020132397F84A800193B8F1010F8B
:101CF00040F0BE813B68C4F82079C4F824394FF025
:101D000005094FF0000BD4F8240903685B68984775
:101D1000002800F06D81D4F824090368DB68984737
:101D2000D4F820A99AF84830052B12D8DFE803F040
:101D3000030A9FA4B3BD242840F0CD8001238AF874
:101D4000483006E0A0F14D014842484140008AF881
:101D500048009AF84830062BD5D19AF849307C2BA8
:101D600000F2CC80002B00F016875A1E7B2A00F26E
:101D70000D87DFE812F0160123018F019A01AF01F0
:101D80000B070B070B070B070B070B070B070B07C3
:101D90000B070B070B070B070B070B070B070B07B3
:101DA0000B070B070B070B070B070B070B070B07A3
:101DB0000B070B070B070B0755040B0799050B07C0
:101DC0009E050B07BF050B07D1050B07D7050B07B2
:101DD0000B070B070B070B0726060B077C040B07EB
:101DE0006D060B07AC050B071F034E040B075003D2
:101DF0000B070B072D060B073F060B070B07DB0630
:101E00009206B2060B075A030B07F5050B070306EC
:101E10000B070B070B070B070B070B070B070B0732
:101E20000B070B070B070B070B070B070B070B0722
:101E30000B070B070B070B070B070B070B07F30130
:101E4000A7020B07DD02F0020B070B0707031503C0
:101E500024035F03A1030B0716055B05A5044104DA
:101E60000B07ED040B070B070B07F90600073C28CF
:101E700014BF0023032362E7402802D98AF848B040
:101E800067E78AF805008AF804B08AF807B08AF88C
:101E90000600042353E79AF806308AF849004340C5
:101EA0008AF806308AF8489053E79AF804309AF88E
:101EB00005109AF80620994208D942408AF806206F
:101EC0005A1C53448AF80420187242E790420CBF0F
:101ED0000623002333E794F8EC355A073FF539AF72
:101EE000D4F828391B7883427FF433AF8F4B904A64
:101EF000C3F8FC2F8F4B904ADA602AE7F02B00F0F2
:101F0000B2843CD8DD2B00F02586DE2B00F026863F
:101F1000A02B00F0B684C72B40F23D86C83B2A2B8D
:101F200000F23986DFE813F0B506370603073706F7
:101F3000DD07880892081B08800837069C06AC0657
:101F4000B00637066008370637066E087B08370686
:101F50003706370637063706370637063706370699
:101F60003706370637063706370637063706370689
:101F7000370637063706E20637063706B006FE2B69
:101F800000F06484FF2B00F06981F22BC3D9FA2B97
:101F900040F0018694F8EC355B0740F16C8600F068
:101FA000FABD032006F06FFC002006F00DFC0020B7
:101FB00006F00AFC182006F007FC0FE0082006F0E7
:101FC00062FCDFF884914FF0000819F8010B08F16A
:101FD000010806F0F9FBB8F1080FF6D1D4F8203962
:101FE000987906F0F1FBD4F82039002283F84820D4
:101FF00094F8EF39002B3BD0D7F80080D8F80030A8
:1020000040465B699847002801F05681D4F80838AB
:102010004A49D8044CBFD4F86437D4F8683794F8E8
:10202000F0099B8800221BB25FFA82FC8445C1F054
:10203000488109F095F9322006F04AFA002394F815
:10204000F0193F4A9C46D8B28842C1F03F81322005
:1020500006F03EFAD4F80838590306D5A3685A03A7
:1020600003D440F2DC5006F033FA324B324ADA60E5
:10207000019B132B07F14C077FF434AED4F8C43A1C
:10208000002B01F044812F4829B0BDEC048BBDE842
:10209000F04F1847032006F0F6FB022006F094FBF1
:1020A000032006F091FB002085E7102006F0EBFBF3
:1020B0000C2006F0B9FBDFF894904FF0000819F8F7
:1020C000010B08F1010806F07FFBB8F10C0FF6D107
:1020D0000020D5E01A2006F0D6FBDFF874904FF010
:1020E000000819F8010B08F1010806F06DFBB8F1C2
:1020F0000B0FF6D1DFF85C904FF0000819F8010BD8
:1021000008F1010806F060FBB8F1080FF6D1DFF81E
:1021100048904FF0000819F8010B08F1010806F08B
:1021200053FBB8F1070FF6D158E700BF009000202D
:10213000EFBEADDE00ED00E00400FA051C0C00204F
:10214000540E00202C0F00207B1F0108841F010863
:10215000911F01089C1F0108A51F01080B2006F014
:1021600092FBB4F8500506F05FFBD4F82C29CB4B5A
:102170009A420CBFB4F83009B4F8320980B206F0C4
:1021800053FBD6F83439C3F3C000C3F38002800098
:1021900040EA4200C3F340021043C3F3401240EA56
:1021A000C200C3F3001340EA031000F01F0006F062
:1021B0003BFBB6F8042896F8EC35D6F8141696F8DA
:1021C0003889DFF8E0C2500000F00200C3F380035A
:1021D0000343C2F3400043EA800302F008000343D4
:1021E000C2F3800043EA0013C2F3801043EA4013B5
:1021F00001F4E0701843C2F3001340EA4320C2F335
:10220000401340EA8320C2F3002340EAC32001F4D4
:102210007F23034301F480100343C2F3402043EAC9
:10222000405301F00071C2F380220B43002043EAC7
:1022300082634FF0010E0246424504D306F0FDFAD8
:1022400094F82805B7E61CF8011B0EFA01F11942B3
:102250001CBF0EFA02F108430132EDE70023B4F887
:102260005015A4F8543901220A420CD1013352000E
:10227000092B92B2F8D1022006F005FBB4F85409FC
:1022800006F0D2FAAAE69BB2013B072B05D8DFE89D
:1022900003F0080A0C0F111315170123A4F8543981
:1022A000E9E70223FAE74023F8E74FF48073F5E704
:1022B0008023F3E72023F1E71023EFE70823EDE77E
:1022C0000423EBE7122006F0DEFA754BB5F9560948
:1022D000DB8BB3F5806F88BF4FF0080890FBF8F0F8
:1022E00080B206F0A1FAB5F9580990FBF8F080B277
:1022F00006F09AFAB5F95A0990FBF8F080B206F0A8
:1023000093FAB5F85C0906F08FFAB5F85E0906F0A5
:102310008BFAB5F8600906F087FAB5F8620906F09D
:1023200083FAB5F8640906F07FFAB5F86609A7E7FD
:10233000102006F0A8FADFF870914FF00F0808F1AE
:10234000FF3819F8010B5FFA88F806F03DFAB8F18A
:10235000FF0FF4D142E694F86809DFF8509140008D
:1023600000F0FE0006F08FFA4FF0000894F868398C
:102370009845BFF433AE39F8020B06F055FA08F170
:102380000108F3E7062006F07EFAB4F86A0906F0C1
:102390004BFAB4F86C0906F047FAB4F818066FE780
:1023A000062006F070FAD4F8980506F046FAB4F85C
:1023B000700965E7042006F066FA002070E2072045
:1023C00006F061FAB4F8C005FF28A8BFFF20C0B22C
:1023D00006F0FAF9D4F80C394FF6FF784345A8BF58
:1023E000434623EAE37080B206F01EFAB4F874099B
:1023F00006F01AFA94F83331D4F8F80843B10A23F6
:1024000058434045A8BF404620EAE07080B237E715
:1024100000F30F00FAE7022006F035FA94F88E0177
:1024200006F0D2F994F88D01C5E5022006F02BFAEA
:10243000A08925E70B2006F026FAD5F82036187873
:1024400006F0C2F9D5F82036587806F0BDF9D5F86F
:102450002036187906F0B8F9D5F82036587906F004
:10246000B3F9D5F82036987906F0AEF9D5F82036CC
:10247000D87906F0A9F9D5F82036987806F0A4F9AD
:10248000D5F82036D87806F09FF9D5F82036588947
:1024900006F0CAF9D5F82036187A8CE500540040C9
:1024A00000000020990D00201C0C0020C80900200D
:1024B0000000C84200007A44212006F0E4F9D4F874
:1024C000EC361B78022B4FF000087DD11FED089AE7
:1024D0005FED088AB2EE048AD6F8EC3603EB880387
:1024E00093ED090A20EE080A0CF074FC80F3080052
:1024F000C0B206F069F9D6F8EC3603EB880393ED29
:102500000C0A20EE090A0CF065FC80F30800C0B24A
:1025100006F05AF9D6F8EC3603EB880393ED0F0A70
:1025200020EE280A0CF056FC80F30800C0B208F137
:10253000010806F049F9B8F1030FCDD1B8F1070F42
:10254000D4F8EC362AD193ED120A20EE080A0CF0EA
:1025500041FC80F30800C0B206F036F9D4F8EC363E
:1025600093ED130A20EE080A0CF034FC80F3080007
:10257000C0B206F029F9D4F8EC3693F8503000EEEA
:10258000103AB8EE400A0CF025FCFF28A8BFFF2047
:10259000C0B206F019F94FF00808CFE74344587865
:1025A00006F012F9D4F8EC364344187B06F00CF927
:1025B000D4F8EC36434408F10108D87D06F004F95C
:1025C000B8F10B0FBAD109E5D4F8EC36434458788A
:1025D00006F0FAF8D4F8EC364344187B06F0F4F829
:1025E000D4F8EC36434408F10108D87D06F0ECF845
:1025F000B8F10B0FE8D1F1E42F2006F044F9DFF831
:102600003C8418F8010B00283FF4E8AC06F0DCF835
:10261000F7E7012006F037F9D4F8EC361878CAE469
:10262000502006F030F9DFF818A44FF000094FF001
:102630000C0BD4F8EC3603EB890809F1010998F882
:102640007D300BFB03A393F8500006F0BDF898F81B
:102650007E0006F0B9F898F87F0006F0B5F898F813
:10266000800006F0B1F8B9F1140FE2D1B6E44820C9
:1026700006F009F94FF000094FF0060AD5F8EC36DC
:102680000AFB093809F1010998F8D20006F09CF814
:1026900098F8CD0006F098F898F8CE0006F094F877
:1026A00098F8CF0006F090F898F8D00006F08CF873
:1026B00098F8D10006F088F8B9F10C0FDED18DE45E
:1026C000022302934FF0000A4FF0010BD949D94B76
:1026D00094F83809CB1A83420CDB029B012B3FF4A0
:1026E0007DAC5FFA8AF006F0CEF8012302934FF03A
:1026F000000BEBE711F8010B00230C2202FB03F89F
:10270000CD4A18F802C0844503D001331C2BF4D104
:10271000DDE7C94B03919844D8F804000AF0F0F8BB
:1027200003990346BBF1000F10D08244CFE7D8F8DD
:10273000040010F80900CDE9031306F045F8DDE9BF
:10274000031309F101094B45F1DCC0E7D946FAE76B
:10275000DFF8ECA294F83809DFF8D89206F093F885
:102760004FF000084FF00C0B0AF1480294F838398A
:102770009845BFF433AC19F8010B00210BFB01F3B2
:1027800013F802C0844505D001311C29F6D108F1A7
:102790000108EBE7534493F8500006F015F8A64AF9
:1027A000F5E7162006F06FF8B6F8440106F03CF89D
:1027B000B6F8D00006F038F8B6F8D20006F034F8D3
:1027C000B6F8D40006F030F8B6F8860106F02CF81A
:1027D000002005F0F9FF002005F0F6FF002005F0CD
:1027E000F3FF96F8330105F0EFFF96F8400105F08E
:1027F000EBFF002005F0E8FFD6F8EC36B3F95A00FD
:102800000A2390FBF3F080B206F00EF896F8280148
:1028100005F0DAFF96F82C0105F0D6FF96F82B01AB
:1028200005F0D2FF96F82D01FFF7C5BB082006F092
:102830002AF84FF001085FFA88F008F1010805F066
:10284000C3FFB8F1090FF6D1FFF7C8BB082006F0A7
:102850001AF8002005F0E8FF002005F0E5FF002051
:1028600005F0E2FF34E4042006F00DF8D4F8EC366D
:10287000B3F85E0005F0D8FFD4F8EC36B3F85C008E
:10288000FEE4DFF8C0810C2005F0FDFFD8F8AC07AE
:1028900005F0D3FFD8F8B00705F0CFFFD8F8B4079C
:1028A00005F0CBFFFFF79ABB042005F0ECFFA06812
:1028B000F6E7062005F0E7FFB4F8E80005F0B4FFFE
:1028C000B4F8EA0005F0B0FFB4F8EC00D8E4042056
:1028D00005F0D9FF94F8280105F076FF94F82C0153
:1028E00005F072FF94F82B0105F06EFF94F82D01AE
:1028F000FFF761BB072005F0C6FFB4F82E0105F015
:1029000093FFB4F8300105F08FFF94F8320105F021
:102910005BFFB4F83401B3E4012005F0B4FF607943
:10292000FFF749BB0C2005F0AEFF94F83E0105F01F
:102930004BFFB4F8480105F077FFB4F8440105F007
:1029400073FFB4F8460105F06FFF94F83F0105F0FE
:102950003BFFB4F84A0105F067FFB4F84C018FE47F
:10296000042005F090FF94F8840105F02DFF94F801
:10297000850105F029FFB4F8860181E494F868091F
:10298000DFF8C48000EB4000C0B205F07CFF4FF0E0
:10299000000994F86839994508F10208BFF41EABA4
:1029A00098F84C0105F010FF98F84D0100EB8000FD
:1029B00000EB800000F2EE2005F036FF09F101097E
:1029C000E7E7012005F05FFF94F84001FFF7F3BA55
:1029D000082005F058FFDFF874904FF0000819F850
:1029E000010F08F1010805F0EFFEB8F1080FF6D16C
:1029F000FFF7F4BA102005F046FF607905F0E4FE19
:102A0000A06805F01AFF94F83E0105F0DDFEB4F869
:102A1000E80005F009FFB4F8EA0005F005FFB4F896
:102A2000EC0005F001FFB4F82E0105F0FDFEB4F84E
:102A3000300125E4990D0020AC1601087916010833
:102A40006416010800F0FF1F6004002095050020B7
:102A500094F87609DFF80084C0EBC000C0B205F03E
:102A600012FF4FF0000908F6781A4FF00C0B98F996
:102A7000980100230BFB03F212F90A20824200F0B6
:102A80002D840133042BF5D109F10109B9F1040FAB
:102A900008F10808EBD1FFF7A1BADFF8A8830D20F1
:102AA00005F0F1FE09F036FD05F08EFEB8F82000C5
:102AB00005F0C3FED8F82C0005F0BFFE94F8A93944
:102AC00094F8A809984296BF181AC0F18000002314
:102AD0001844D4F8AC391844E2E605F0CBFE804641
:102AE000842005F0D0FE404605F0A7FED54BDA6AFB
:102AF00008F1800393428CBFA2EB08094FF08009D4
:102B000009F034FD4A46404608A909F0CDFD0DF113
:102B1000200881464FF0000ACA45BFF65FAA18F8A0
:102B2000010B05F051FE0AF1010AF5E7132005F04B
:102B3000AAFEDFF828934FF0000819F8010B08F1FE
:102B4000010805F041FEB8F10B0FF6D1002005F0A9
:102B500074FE32E405F084FEFFF740BA05F08AFE09
:102B600005F088FEFFF73ABA022005F08CFEB54B5F
:102B7000588BFFF785BB032005F085FE94F8ED0523
:102B800005F052FEAF4B187CFFF715BA4E2B3FF6FF
:102B9000C2A9222B03D808F0D5FEFFF71FBA233BAA
:102BA0004FF000082B2BF6D801A252F823F000BFFB
:102BB000192E0008972B00088F300008972B00086B
:102BC0009D300008972B0008D9300008972B00088B
:102BD000972B0008972B0008FB300008972B000864
:102BE000972B0008972B0008972B0008972B0008BD
:102BF000AF310008972B0008992E0008972B00088A
:102C00002B320008972B0008B7300008972B0008DC
:102C1000972B00081D2D0008972B0008032D000896
:102C2000972B0008972B0008B9310008972B000854
:102C3000E9310008A9320008972B0008972B0008FB
:102C4000972B000865300008972B0008152D000809
:102C5000972B00083F310008972B000859310008D6
:102C600094F8EC355B070FD405F0F0FD032828BF7E
:102C7000002084F82805FEF735FCFEF78FFA03E004
:102C800005F0EEFDA4F8E206002005F0FCFDFFF7DC
:102C9000A5B99AF80580B8F1250F00F2D0800DF1A2
:102CA00020094FEA5808CB464FF0000AC2450CD322
:102CB000654943460022084690450DDC0022122B50
:102CC00010D1012384F8D439DEE705F0C9FD0AF1FB
:102CD000010A2BF8020BE9E739F802CB21F802CB05
:102CE0000132E9E720F813200133E8E705F0B8FDE9
:102CF000D4F8EC86A8F85E0005F0B2FDA8F85C00F8
:102D0000C2E705F0A3FD84F88E0105F09FFD84F86D
:102D10008D01B9E705F0A4FDA081B5E7D4F8EC86F4
:102D200005F094FD88F8000003F048FEACE7D4F805
:102D3000EC8698F80030022B5DD19FED449ADFEDD0
:102D4000448A08F1240908F1300AB2EE048A05F039
:102D50007DFD07EE900AF8EE677A87EE887AA9EC97
:102D6000017A05F073FD07EE900AF8EE677A87EEB8
:102D7000897A89ED027A05F069FD07EE900AF8EE8E
:102D8000677ACA4587EEA87A89ED057ADFD108F11E
:102D900004094FF0030ABAF1070F1FD105F056FDE1
:102DA00007EE900AF8EE677A87EE887A88ED127A55
:102DB00005F04CFD07EE900AF8EE677A87EE887A08
:102DC00088ED137A05F042FD88F850000AF1010AF7
:102DD000BAF10B0F09F10109DDD155E705F036FD18
:102DE00089F8000005F032FD89F80B0005F02EFD92
:102DF00089F81600EAE708F10B0905F027FD08F845
:102E0000010F05F023FD88F80B0005F01FFDC145FB
:102E100088F81600F1D137E705F018FD1328804631
:102E20000DD8D4F8EC9605F011FD0A4A0023117A6A
:102E3000814215D001331C2B02F10C02F7D108F0AE
:102E400081FD21E700000020100E00200000C84294
:102E500000007A44AC16010860040020911F0108AC
:102E6000DC4A0C2101FB032309EB880893F8483066
:102E700088F87D3005F0EAFC88F87E0005F0E6FC75
:102E800088F87F0005F0E2FC494688F8800009F1E7
:102E90007D0008F057FEF7E605F0D8FC0B288146C8
:102EA000CDD8D4F8EC8605F0D1FC0328C7D806238A
:102EB00003FB098888F8D20005F0C8FC88F8CD002B
:102EC00005F0C4FC88F8CE0005F0C0FC88F8CF00FF
:102ED00005F0BCFC88F8D00005F0B8FC88F8D100FB
:102EE000D2E69AF80530092BA9D9D5F8208605F045
:102EF000ADFC88F8000005F0A9FC88F8010005F099
:102F0000A5FC6428A8BF642088F8040005F09EFC96
:102F10006428A8BF642088F8050005F097FC88F8AD
:102F2000060005F093FC642828BF642088F8070099
:102F300005F08CFC88F8020005F088FC88F8030096
:102F400005F08EFCD5F82039A8F80A005B790A2B29
:102F50007FF69AAE05F07AFC88F8080094E605F052
:102F60007FFC6FF4AF6C00EB0C039BB2C62B98BFD9
:102F7000A4F8440105F074FCA5F8D00005F070FC3D
:102F8000A5F8D20005F06CFCA5F8D40005F068FCAB
:102F9000A5F8860105F05AFC05F058FC05F056FC32
:102FA00005F054FC85F8330105F050FC85F840012C
:102FB00005F04CFC05F054FCD5F8EC3600EB800035
:102FC0004000A3F85A0005F041FC85F8280105F0FF
:102FD0003DFC85F82C0105F039FC85F82B0105F046
:102FE00035FC85F82D014FE6DFF8F0914FF0000831
:102FF00005F036FC08F10108B8F1080F29F8020BBA
:10300000F6D141E694F8EF35002B7FF43DAE05F0A4
:1030100027FC714B84F8ED0501221A7434E605F0A3
:103020001FFC6D4B58832FE694F8EC3558073FF59D
:103030002BAEFDF7DDFE1EE694F8EC3559073FF5A3
:1030400023AE4FF4C873A4F852351DE694F8EC355E
:103050005A073FF519AE94F81B3943F0040384F87E
:103060001B3911E645F2082009F072FA062008F033
:10307000D7F80123C72084F8EE3908F0D1F80023EF
:1030800084F8A93984F8A839C4F8AC39FCE5C4F847
:10309000088005F0EFFBFDF7B7F8F5E505F0E0FB7C
:1030A000A4F8E80005F0DCFBA4F8EA0005F0D8FB82
:1030B000A4F8EC00E8E505F0C9FB84F8280105F068
:1030C000C5FB84F82C0105F0C1FB84F82B0105F049
:1030D000BDFB84F82D01D7E505F0C2FBA4F82E0155
:1030E00005F0BEFBA4F8300105F0B0FB84F8320116
:1030F00005F0B6FBA4F83401C6E505F0A7FB84F89B
:103100003E0105F0ADFBA4F8480105F0A9FBA4F8C9
:10311000440105F0A5FBA4F8460105F097FB84F8EF
:103120003F019AF80530082B7FF6AEAD05F098FB0D
:10313000A4F84A0105F094FBA4F84C01A4E505F0BD
:1031400085FB84F8840105F081FB84F8850105F096
:1031500087FBA4F8860197E59AF80580B8F1380F47
:103160003FF66DAEDFF878904FF0000A40F6CA0BDC
:103170000323B8FBF3F8C24509F10209BFF484AD9B
:1031800005F064FB89F84C0105F06AFB5845A8BFBF
:10319000584640F2EE239842B8BF18461922B0FBB9
:1031A000F2F01E3889F84D010AF1010AE3E705F053
:1031B0004DFB84F8400167E5DFF828904FF00008E8
:1031C00005F044FB08F10108B8F1080F09F8010FF8
:1031D000F6D159E56416010800000020360E0020E3
:1031E000600400209505002005F030FBC4F808803D
:1031F00005F040FBFDF708F805F028FB84F83E01D8
:1032000005F02EFBA4F8E80005F02AFBA4F8EA007C
:1032100005F026FBA4F8EC0005F022FBA4F82E0133
:1032200005F01EFBA4F830012EE59AF805304FF0AA
:103230000708B3FBF8F8C8EBC8029B1ADBB2002BF7
:103240007FF4FDAD5FFA88F808F1FF385FFA88F87F
:10325000B8F1FF0F3FF418AD05F0F8FAD4F82829BB
:1032600040B20023911C11F933C0844503D00133CF
:10327000042BF8D1E3E502EBC30989F8020005F05D
:10328000EFFAA9F8040005F0E1FA89F8060005F064
:10329000DDFA89F8070005F0D9FA89F8090005F088
:1032A000D5FA89F80800CFE71B4B4FF480421A8506
:1032B000012384F8EF39E7E40A2005F009F9FEF765
:1032C0009DBE21F8023B0132FEF7AEBE52F8040B60
:1032D00000680133C0F800C0FEF7B5BEC0B205F00B
:1032E00073FAB8F89A0105F09FFA98F89C0105F076
:1032F0006BFA98F89D0105F067FA98F89F0105F0C0
:1033000063FA98F89E0105F05FFAFFF7BDBB29B09C
:10331000BDEC048BBDE8F08F0008004808B5FEF74F
:10332000E1F8FDF73BFFBDE80840012005F07CB95E
:103330002DE9F04FB44DD5F80C2895F8D46A02F574
:103340009C4320338BB0C5F8D03A002E00F0DF80CC
:10335000D5F8D83A9A4202D9013E85F8D46AAA4CE7
:10336000D4F8088818F48053019305D0D4F81436A3
:10337000D80701D4FDF7C8F9D4F8F426937A23B31B
:1033800004EB4303127BB3F966351AB1C3F53B6313
:1033900008331BB2A3F57A73B3F57A7FA8BF4FF455
:1033A0007A7323EAE37307EE903ADFED986AF8EE5A
:1033B000E77A87EEA67ADFED967A67EE277AFCEE5B
:1033C000E77A17EE903AA5F8743918F4807F00F088
:1033D0003081D4F80C188F4A94F83237914240F279
:1033E000258113B9012384F8323794F8516794F892
:1033F000EC25D4F814A6012E02F0040B14BF032709
:1034000000274FF00009A2E1072C98BF195D824800
:103410003B6B88BF21469847032C19D8C0B1D5F81B
:10342000F43603EB84039A8FDB8F801A9B1A08FB18
:1034300000F090FBF3F040F2EE2300F57A70984232
:10344000B8BF184640F6CA039842A8BF184680B2D3
:1034500005EB44040136A4F8DC0A95F868B9D5F800
:10346000F436F4B2A345CFD8D5F80828D5F85C05D2
:10347000019042F201010A40039208D095F83926E2
:1034800085F83826654A92F8351082F8341095F898
:103490003886B8F1000F04D0604A92F8348088F082
:1034A000010895F8017B01995D4C0F2285F8002BEE
:1034B0000322B7FBF2F202EB420201F51671BA1ACF
:1034C000D2B20591A4F5AD61049204F29A5904F2C6
:1034D000E45A2246002602915E451CDB4A4E96F8CD
:1034E000003B0F2B6DD1D6F814365B0169D4D6F8AA
:1034F0005C35D6F83C27C6F838379B1AC82B02D95A
:10350000012386F85137013786F8017B27E7434FBF
:103510004FF47A78A1E7B8F1000F33D0414931F97F
:103520001600998A80B281422ED8D98A81422BD343
:103530000599CAF80010039900B2D9B1049929F885
:103540001100029991F8941B29B9022F12D90298FF
:10355000012180F8941BB9F80010B9F80200084462
:10356000B9F804100844304900B221F816000321CC
:1035700090FBF1F022F8020B013609F106090AF17D
:10358000040AA9E74046CCE7DAF800100198814226
:1035900001D91088CFE7F0B2CDE9063205F0A6F9DF
:1035A000032EDDE90632C6DCDFF85CE04FF0010CEB
:1035B0009EF8001B0CFA06FC21EA0C018EF8001B99
:1035C000B9E7164B012283F8352083F83420D6F86A
:1035D0005C35D6F83827C6F83C379B1AD6F834271E
:1035E000934202D9002386F851374FF0000807E0D4
:1035F0005FFA88F005F07AF924F8020B08F1010867
:10360000C345F5DC7FE700BF6004002000007A447A
:1036100000C07F44404B4C00C80D0020000000203B
:10362000C80900203C0F0020F60F0020002B7FF47B
:10363000DCAE019BB4F96E95002B00F0E580B4F888
:103640004431B4F8DE20991A494580F2E0801344F1
:103650004B4540F3DC80FDF737F8FDF743F84FF0BA
:10366000000AAC4B93F836B094F8EC35590740F1AA
:10367000D58018F0100F00F0D18094F81B39DA06CD
:1036800000F1CC80BBF1000F00F01D8194F88E3169
:10369000BAF1000F40F006813BB1D4F85C15D4F8C4
:1036A0001C365B1A002BC0F2B580102004F096FF88
:1036B000012384F8B43BB1E0BBF1000F0DD0012E23
:1036C00005D00520FCF7B0FD022384F8ED35002F6E
:1036D000AFD0384604F082FFABE71AF0806F4FF4AA
:1036E000806005D009F04EF80023C4F84037EEE7BB
:1036F00009F03AF8F8E7012E29D1052125E0012E3D
:1037000004BF052184F85017BBF1000F0FD0D5F886
:10371000B01BB1F90E10A5F86A15A5F86C15A5F83F
:103720006815D5F82C174988A5F86E156746D4F8A2
:103730005C05D4F84417814202D3BBF1000F60D17D
:1037400042F21071C4F84C17032184F8501794F812
:1037500050C794F8EC05BCF1050FB8D801A151F899
:103760002CF000BFB9360008F7360008FF36000815
:103770007D370008AD370008E537000840F002004B
:1037800085F8EC05FCF7C0FFD5F85C05D5F84C17BB
:103790000144C5F84817042185F850174FF480609C
:1037A00008F0E2FF0520FCF74BFDD0E7012E11D118
:1037B000D4F85C35D4F84817994288D2554991F825
:1037C000361011B91AF0010F81D120F0020084F8EF
:1037D000EC0592E7D4F85C25D4F84C371344C4F8D0
:1037E000483774E7D5F82C07D5F85C15C08885F8FC
:1037F0003397642303FB0011C5F8401785F85097F1
:10380000CCE7012EA3D062E7B4F8463120E74FF0B1
:10381000010A26E7FCF778FF84F8B4AB94F88C3102
:10382000019394F88D01B4F846C1B4F848E13A49DF
:1038300000231E4631F9027BB6086745C4BF66F017
:103840007F06F6B201337745B8BF46F04006042B39
:10385000F0D194F8B53BB34239D194F8B67BF92F47
:1038600003D80137FFB284F8B67B84F8B56B08F053
:103870000408BBF1000F40F0CC84D4F81436DB0709
:1038800038D5BAF1000F24D194F8EC35D80706D515
:10389000590702D4012384F8B035FCF767FF142FD1
:1038A00053D140E03BB1D4F85C154FF47A7013FB70
:1038B0000013C4F81C3694F8B43B002BAED004F0CF
:1038C0007BFE0023F5E6BAF1000FF4D1EDE6002708
:1038D000C9E7D4F8FC350A2BE1DCB4F850355A07B7
:1038E000DDD494F8EF35002BD9D1FCF7EDFEFCF7D1
:1038F000F9FED2E794F8EC355B07D0D594F838366A
:10390000002BCCD010B1FCF7FFFEC8E7BAF1000FD6
:10391000C5D1F8E700000020C8090020019B13B1C1
:103920007D2E00F0808494F8EC355F070DD4572E7F
:1039300040F0CD80D4F834394FF47A7213F0080394
:10394000A4F8542501D1A4F81836B8F1000F40F0BE
:10395000E480D4F8EC660023C4F8143606F17F073F
:1039600006F1CF084FF0010917F8010C394604F0B1
:103970007BFE40B117F8023CD4F8142609FA03F391
:103980001343C4F8143604374745EDD1B24F06F15E
:10399000CE0B4FF00C0806F58B764FF000094FF078
:1039A000010A1BF8010C594604F05EFEE8B19BF8D1
:1039B00004109BF8023008FB0140013BD0F8FC26C4
:1039C00003EB43033B4493420FD09BF80320C0F822
:1039D000FC3694F8BD3B80F8F8260AFA01F123EA98
:1039E0000103C0F8009784F8BD3B0BF1060B5E4560
:1039F000D7D1D4F85C35019394F838360293019B03
:103A0000D4F820B6954F03F5FA730026039379682E
:103A1000002900F0388191F800A0BAF1000F00F001
:103A20003281BA68019B9A1A002A0ADB039B94F838
:103A3000BD2BBB60012303FA06F022EA000284F8E2
:103A4000BD2B029B002B00F01E813A78487894F839
:103A5000BD8B0432D2B2002840F0888304EB4202CE
:103A6000B2F96805B4F8442102F1C80C604540F38E
:103A7000F98091F8029048FA06F1CA0700F1038133
:103A8000B9F1000FCCBF0220012004F0CDFD0AF1F6
:103A9000FF31132900F28081DFE811F07101850107
:103AA0009001A001B801C0011E027902E0020E03DC
:103AB0003A037E01A001AD01C0011E027902E401BA
:103AC00041029E020B2004F089FD84F8B67BB8F118
:103AD000000F01D05A2E17D0A6F15603082B57D845
:103AE000DFE803F05456565656525605500001234F
:103AF000DEB2013B84F82835FDF7F4FCFDF74EFB00
:103B0000304604F091FD20E794F8B73B4BB1002319
:103B100084F8B73B012384F8B83B94F8B93B53B918
:103B20001FE094F8B93B83F0010384F8B93BABB1D3
:103B30000C2004F053FD94F8EC35580711D5B4F877
:103B400046314B450DDAD4F8143613F0010302BFA9
:103B50003222A4F8BA2B84F8B93B02E00D2004F01D
:103B60003DFDD4F81436D90366D594F8BC3B2BB987
:103B700094F8B73B13B93223A4F8BA3B012384F875
:103B8000BC3BE6E60323B3E70223B1E7FFF7C6FB3E
:103B9000334B93F8363043B16F2E02D1FCF7E6FD7C
:103BA000D3E6019B0BB17E2EF8D0972E04D14FF4B3
:103BB000C873A4F85235C8E6A72E06D194F81B396D
:103BC00043F0040384F81B39BFE60023B73E099392
:103BD000072E3FF6BAAE01A353F826F0333C000897
:103BE0004B3900084B3900084B390008FD3B0008F1
:103BF0004B3900082B3C0008033C0008022300223C
:103C000001E000230222D5F8EC16B1F85C00024472
:103C1000A1F85C20B1F85E201344A1F85E30FFF7F4
:103C20007DFB002385F8B63B8FE600236FF0010291
:103C3000E9E76FF00103E2E794F8B73B002B3FF4AC
:103C400088AE94F8EC3513F0040302BF84F8B73B58
:103C5000012384F8B83B7CE6FC170108580B0020D0
:103C600000000020C83A904203DA8A78C2F10009C5
:103C700001E70123B34028EA030384F8BD3B019B1D
:103C800003F5FA73BB600136042E07F10C077FF4CD
:103C9000BEAED4F81456AB0706D4D4F80838DF0506
:103CA00007D594F8333723B1D4F834399E0700F19F
:103CB0009682012008F058FD0123690740F19A829D
:103CC000002B00F09782012008F04EFDB4F8043874
:103CD0009A0704D40220FCF7F7FC08F053FD94F88F
:103CE000EC355B0708D4B4F8043803F044031BB187
:103CF000B4F81836A4F8E236D4F8343913F00A0FC1
:103D00002AD0EF0640F17A82B4F804385E0706D470
:103D1000042008F037FDB4F81836A4F8E236A806F7
:103D200040F17082B4F80438590602D4402008F0FB
:103D300029FD6A0642BFC54AB4F81836D38215F089
:103D4000080307D094F8F83533B9C04AB4F81836E8
:103D5000D382012384F8F8352B054FF4807040F1AD
:103D6000558208F00FFD6379082B02D00E2B40F02E
:103D7000618240200BB0BDE8F04F08F0F5BC9BF825
:103D800000304B44FA2BA8BFFA2323EAE3738BF8E5
:103D90000030584604F08EFC0123B34048EA030883
:103DA00084F8BD8B6FE79BF801304B44642BA8BFB0
:103DB000642323EAE3738BF80130EAE79BF80330CE
:103DC0004B44642BA8BF642323EAE3738BF80330CE
:103DD000D4F8C01B584604F089FCDDE79BF80510B9
:103DE00049446429A8BF642121EAE171BAF10D0FA9
:103DF0008BF80510D0D09BF804304B44642BA8BF3F
:103E0000642323EAE3738BF80430C5E79BF806309C
:103E10004B4483F308038BF80630BDE7D4F8C40B9A
:103E20000178022943D107EE909AF8EEE76AF2EEA4
:103E3000047A86EEA77AD0ED0A7A37EE277AB5EEC5
:103E4000C07AF1EE10FA2FD4DFED827AB4EEE77A81
:103E5000F1EE10FAD8BFF0EE477AC0ED0A7ABAF167
:103E60000F0F99D0D4F8C41B0B78022B2BD107EE7F
:103E7000909AF8EEE76AF2EE047A86EEA77AD1ED30
:103E8000097A37EE277AB5EEC07AF1EE10FA17D438
:103E9000DFED707AB4EEE77AF1EE10FAD8BFF0EE0B
:103EA000477AC1ED097A77E7DFED6B7AD5E781785C
:103EB0004944C829A8BFC82121EAE1718170CEE731
:103EC000DFED657AEDE74B784B44C82BA8BFC823DC
:103ED00023EAE3734B705FE7D4F8C40B017802293F
:103EE00040D107EE909AF8EEE76ADFED5A7A86EE57
:103EF000A77AD0ED0D6A37EE267AB5EEC07AF1EEEC
:103F000010FA2CD4B4EEE77AF1EE10FAD8BFF0EE46
:103F1000477AC0ED0D7ABAF1100F3FF43DAFD4F8F7
:103F2000C41B0B78022B29D107EE909AF8EEE76AB2
:103F3000DFED487A86EEA77AD1ED0C6A37EE267A65
:103F4000B5EEC07AF1EE10FA15D4B4EEE77AF1EEE0
:103F500010FAD8BFF0EE477AC1ED0C7A1CE7DFED1E
:103F60003E7AD6E7417B4944C829A8BFC82121EA47
:103F7000E1714173CFE7DFED387AEDE70B7B4B441E
:103F8000C82BA8BFC82323EAE3730B7304E7D4F854
:103F9000C40B0178022944D107EE909AF8EEE76A43
:103FA000DFED2B7A86EEA77AD0ED107A37EE277AFE
:103FB000B5EEC07AF1EE10FA30D4DFED267AB4EE29
:103FC000E77AF1EE10FAD8BFF0EE477AC0ED107A3A
:103FD000BAF1110F3FF4E0AED4F8C41B0B78022BFA
:103FE0002BD107EE909AF8EEE76ADFED197A86EEAC
:103FF000A77AD1ED0F7A37EE277AB5EEC07AF1EED7
:1040000010FA17D4DFED137AB4EEE77AF1EE10FA76
:10401000D8BFF0EE477AC1ED0F7ABDE6DFED0E7A3C
:10402000D4E7017E4944C829A8BFC82121EAE1712B
:104030000176CDE7DFED087AEDE7CB7D4B44C82B69
:10404000A8BFC82323EAE373CB75A5E600000020D0
:1040500000007A440000C84200000000D4F8C41BED
:104060000B78022B1FD107EE909AF8EEE76AF2EE7A
:10407000047A86EEA77AD1ED0B7A37EE277AB5EE81
:10408000C07AF1EE10FA0BD45FED0E7AB4EEE77A57
:10409000F1EE10FAD8BFF0EE477AC1ED0B7A7BE66D
:1040A0005FED137AF9E7CB784B44C82BA8BFC82340
:1040B00023EAE373CB706FE6D4F8C41B0B78022BB2
:1040C0001DD107EE909AF8EEE76A5FED1E7A86EE54
:1040D000A77AD1ED0E6A37EE267AB5EEC07AF1EE08
:1040E00010FA09D4B4EEE77AF1EE10FAD8BFF0EE88
:1040F000477AC1ED0E7A4FE65FED297AF9E78B7BBF
:104100004B44C82BA8BFC82323EAE3738B7343E651
:10411000D4F8C41B0B78022B1FD107EE909AF8EE4F
:10412000E76A5FED357A86EEA77AD1ED117A37EE40
:10413000277AB5EEC07AF1EE10FA0BD45FED3B7A38
:10414000B4EEE77AF1EE10FAD8BFF0EE477AC1ED9F
:10415000117A21E65FED407AF9E74B7E4B44C82B9C
:10416000A8BFC82323EAE3734B7615E601287FF442
:1041700013AEBAF10C0F7FF40FAE04EB4202897854
:10418000B2F9680540F633029042A8BF1046B0F578
:10419000617FB8BF4FF46170A0F561704FF4966213
:1041A000B2FBF1F2B0FBF2F094F8F026C0B282421A
:1041B0003FF4F2AD032894BF0246022285F8F026B0
:1041C0000AFB025202F22A520490C5F82026FCF79C
:1041D00019FB04980130C0B204F026FADCE5B4F80B
:1041E0000438D80704D40120FCF76EFA08F0CAFAA4
:1041F000002362E5022008F0B7FA70E5042008F019
:10420000B3FA8CE5402008F0AFFA92E508F0ACFA7A
:10421000A9E5142F7FF499AB94F8EC755F2E07F0A5
:1042200004077FF47BAB002F3FF44CACFCF76CFA37
:10423000FFF779BB0BB0BDE8F08F1649D1F8883095
:1042400043F47003C1F88830134B1A6842F001023E
:104250001A605868114A02405A601A6822F0847243
:1042600022F480321A601A6822F480221A605A6896
:1042700022F4FE025A60DA6A22F00F02DA62186B48
:10428000074A02401A6300229A604FF000638B6075
:10429000704700BF00ED00E0001002400CC07FF846
:1042A000CCFC00FF80EAE073A3EBE0738B4206DBFB
:1042B000002801DD401A704702D0084470470020F2
:1042C00070472DE9F041824CD4F8C83BA0EB0308BD
:1042D00042F20F7398452DED048B40F2EB8044F6CB
:1042E000206398457B4DC4F8C80B81BF0023C4F8F8
:1042F000D43BC4F8D83BC4F8DC3B95F8373043B323
:1043000094F8EC2512F0040223D1734BC4F8D42B9B
:104310000021196040F2DC50C4F8D82BC4F8DC2B23
:1043200085F83720C4F8E42BC4F89C25A3F24C424E
:10433000A3F58763694EA4F88C054FF07E5010609A
:1043400056609160D060116118605E609960D860BD
:104350001961D4F8E86BD4F8EC3BB3426ED0F31A91
:1043600008EE903ADFED5E7A5E4BF8EE688A68EE12
:10437000A78AD3ED007AF5EEC07AF1EE10FA40F29A
:104380009D8013ED017AB5EEC07AF1EE10FA40F29D
:10439000958087EE270AB5EEC00AF1EE10FA40F2DA
:1043A0008D80DFED517A93ED018A38EE278A0AF08D
:1043B0003FFCDFED4E7A28EE000A20EE270ADFED03
:1043C0004C7A20EE270AF6EE007AF4EEE78AF1EE58
:1043D00010FA31DCB4F9F03B0F2B72D1B4F9F23B97
:1043E000444A02EB830201331BB20F2B08BF0023A8
:1043F000A4F8F23BD2ED007A0E23A4F8F03B3E4B3A
:1044000093ED017A77EE877A30EE670A83ED000A42
:10441000B4F96A39002BB8BF5B429BB21E2B07D898
:10442000B4F96C39002BB8BF5B429BB21E2B4CD940
:10443000324BEB60FCF712F9C4F8EC6BD4F8D83BC4
:10444000002BC9BFD4F8D42B9FED2D9A07EE902AEC
:10445000B8EEE77AC4BF07EE903AF8EEE77A294B58
:10446000C8BF87EE279A9FED287AA3EC019AD3ED77
:10447000007A69EE277AF4EEC77AF1EE10FA08D4E2
:104480009FED227AF4EEC77AF1EE10FAD8BFB0EEC3
:10449000677AB4F9483C1E4E0027052B86ED007A5A
:1044A000C4F8D47BC4F8D87BC4F8DC7B36DC013399
:1044B000A4F8483CBDEC048BBDE8F0819FED100AE8
:1044C00081E7144BD3ED007A99E74FF08043B0E7D2
:1044D000600400200000002040100020CDCCCC3D26
:1044E0006F12833A680A0020339388438E2BEA4187
:1044F0000000C84254100020941000200000A0408A
:10450000000000009C100020000048C40000484447
:10451000A4100020901000200024744907EE908A17
:104520001FED036A16ED190A56ED039A56ED058A3A
:10453000F8EE677AA6F5D263C7EE866AA6F5D16271
:1045400016ED046AD3ED005AD6ED027A66EE255ACE
:10455000A6F28C63E5EEA67AD3ED005AC6ED027A98
:1045600066EE255A77EE877AA5EEA60AD2ED005AB6
:1045700026EE256A67EEA67AE6EE269AB0EE407A37
:10458000B6EE006AA7EE867A30EE270AE7EE268AB4
:1045900006ED190A46ED039A46ED058A0AF01AFC63
:1045A00039EEA80A08EE100A0AF014FCB4F9F01B60
:1045B0002A8F0E2902F1010207EE900A12B2A6F12B
:1045C000500300F3F1800E2ACCBF3A46174603EBA6
:1045D000820301312F87C3ED008AA4F8F01B824FBC
:1045E00097ED036A97ED007AD7ED016A97ED020A1D
:1045F00057ED045A36EE076AB8EEC88A76EE266A98
:1046000038EE408A86EE267AF7EE006AA7EE080AB0
:1046100087ED047A36EEC77A17ED038A87ED020A32
:1046200027EE067A17ED056A87ED037A17ED027A11
:1046300037EE067AF8EEE77A77EE255A77EEC87A03
:1046400087EE256AA6EE278A76EEC66A07ED016A2E
:1046500066EE876A07ED038A47ED026A0AF0BAFB45
:10466000B0EE480A0646C4F8500C0AF0B3FBB4F9A1
:104670007436C4F89805002BB8BF5B429BB2B3F503
:10468000487F07F2AC4780F0AC80B4F97636002B57
:10469000B8BF5B429BB2B3F5487F80F0A28094F82C
:1046A000EC256B7A97ED007AD4F8908712F004022B
:1046B00008BFC4F89405002B40F08C80D4F89435E2
:1046C000181AB0F5FA7F494BA8BF4FF4FA70984218
:1046D000B8BF18460521FFF7E5FD98F804304449B6
:1046E00043438B4279DB002BB8BF7F33DB11B3F53B
:1046F000967FA8BF4FF49673991B98F80A303D48EF
:104700004B4383426BDB002BB8BF1F335B11B3F508
:10471000967FA8BF4FF496732AB198F81500D4F885
:10472000E42B01FB0022B2F5161F3349A8BF4FF45A
:1047300016128A42B8BF0A46C4F8E42B002ABCBF4E
:1047400002F5FF521F3203EB623398F8202007EE88
:10475000902A37EE097AF8EEE77A6FF0950167EE66
:10476000877A9FED267A67EE877AFDEEE77A17EE75
:10477000902A962AA8BF96228A42ACBF9B1A5B1A3F
:1047800030460521C4F89C3587ED009AFFF78AFD75
:10479000002EB8BF7642C82EC8BF0123C4F87009E6
:1047A000C8BF85F8373085E6B4F8F21B2A87013197
:1047B0000F2A09B205D12F87C3ED008AA4F8F21B96
:1047C0000DE703EB82030F29C3ED008AF6D1A4F8AD
:1047D000F27B04E7D4F8AC358EE7094B8CE7084B45
:1047E0009AE70023CCE700BF080C00200CFEFFFF77
:1047F0008169FFFF61DAFFFF0080DAFF0000003B04
:10480000D4FEFFFFD0ED005A9FED2B4A08B535EEE0
:10481000840AFBF723FEF0EE403AB0EE650AFBF7A0
:104820001DFE90ED015AF0EE404A35EE040AFBF70A
:1048300015FEF0EE405AB0EE450AFBF70FFE90ED84
:10484000023AB0EE405A33EE040AFBF707FEB0EE30
:10485000404AB0EE430AFBF701FE65EEC07A20EE57
:10486000236A24EE847AC1ED017AF0EE467AE5EE11
:10487000077A24EE233A64EE806AC1ED037AF0EE03
:10488000437AE5EE667AA5EE067AE5EE436A24EE13
:10489000254A64EEE54A65EEA35A81ED004A81EDB2
:1048A000025AC1ED047AC1ED054AC1ED066A81EDF7
:1048B000077AC1ED085A08BDDB0FC93F2DE9F04F5B
:1048C0002DED028BB1B04FF00009FBF779FC18B960
:1048D000FCF78EFAFCF706FEBA4CBB4DFCF75EFC0B
:1048E00094F8588C48F0010384F8583CB74B4FF4C7
:1048F0007002C3F8882000230493059306932B6865
:1049000043F480332B602B6803F400330593049B3E
:1049100001330493059B1BB9049BB3F5A04FF2D15F
:104920002B6813F4003318BF01230593059B012B5B
:1049300040F0018302230693A54B12221A606B6894
:104940006B606B686B606B6843F480636B606B6873
:1049500023F47C136B606B6843F4E8136B602B6883
:1049600043F080732B602B689901FCD56B6823F0B2
:1049700003036B606B6843F002036B606B6803F0CA
:104980000C03082BFAD1069B904EC4F85C3C914B6B
:10499000F3606B6A6B6A43F080736B626B6943F41C
:1049A000FC031CAF6B6103238DF87230394641F66E
:1049B000FF734FF09040ADF8703006F07FFB4FF67C
:1049C000FF738548ADF87030394606F077FB8348B1
:1049D000394606F073FB8248394606F06FFB814882
:1049E000394606F06BFB39467F4806F067FB3846D0
:1049F00004F096F81C9B7D4AB3FBF2F3C4F8603CCC
:104A00007B4B7C4ADFF8FCC14FF0000EC4F864EC2D
:104A1000C3F804E04FF0E0230DF1740A5A61F0226C
:104A200086F823200722C3F818E01A61BCE80F00BB
:104A30003E460FC6BCE80F000FC69CE80F00D4F836
:104A400008B0C4F808B886E80F006B6943F4002387
:104A50006B616B6943F400236B616B6943F4002362
:104A60006B616B6943F400336B614FF0904310222C
:104A70001A8520221A8540221A85584A4FF480430D
:104A800093614FF4005393614FF400439361764672
:104A90005AF8040C5146013606F010FB062E0AF1B6
:104AA000080AF5D1544B1C936B69DFF85CA14A48A6
:104AB00043F480236B61394606F000FB9AF8192015
:104AC0000823002A40F03A82434A93614B48C4F8D5
:104AD000280904233022002100F2E27084F876399C
:104AE00001260BF05BFC1422002117A884F88469CE
:104AF00048F005080BF052FC1BF4802F08BF84F827
:104B00006C6C84F8588CEB69334E43F48043EB6152
:104B10002B6943F480432B616B6943F480236B6101
:104B2000736A23F470037362736A43F4A0037362BD
:104B3000736A23F070637362736A43F0A0637362F5
:104B4000736A23F070437362736A43F0A043736225
:104B5000336A23F470033362336A43F4A00333628D
:104B6000736A23F470237362736A43F4A02373623D
:104B700040F2023B4FF4604339463046CDE91C3BDE
:104B800003F07AFF20220123394630464FF4805843
:104B90001C928DF8743003F06FFF39463046CDF823
:104BA000708003F069FF2B6943F480432B612B690C
:104BB00023F480432B61124B998821F4805109041E
:104BC000090C23E0600400200010024000ED00E02A
:104BD000002002400005FA050004004800080048D3
:104BE000000C0048001000480014004840420F002C
:104BF000C41000203F19010008000102F605002042
:104C00000038004038180108000000209980998879
:104C100089B241EA08019980198801F4415141F4AF
:104C2000437141F003011980998821F470610904EE
:104C3000090C41F4E0619980998B21F40061090429
:104C4000090C998307211982198889B2202241F021
:104C500040011980B261C6F818806B69DFF8B8832B
:104C6000C4F82C8943F480236B61EB6943F400138F
:104C7000EB612B6B23F010032B632B6B43F01003C2
:104C80002B63736A23F00F037362736A43F00403A8
:104C90007362736A23F0F0037362736A43F0400334
:104CA000736239464FF480733046CDE91C3B03F004
:104CB000E3FE4FF40073394630461C9303F0DCFEEC
:104CC000D8F80030B4F9E81023F00103C8F8003038
:104CD000D8F80020C24B1340C8F80030C14BC8F8C8
:104CE0001030D8F80030B4F9EA20002043F0010376
:104CF000C8F80030C8F80800C8F80C00C8F8080068
:104D0000D8F8083043F40043C8F80830D8F8003029
:104D1000C8F80030D8F8043023F0784323F4004377
:104D2000C8F80430D8F8003043F00103C8F8003068
:104D3000B4F9EC3041EA02051D431FD007EE901A8A
:104D40009FEDA97A8AF83A00F8EEE77AA74967EE6C
:104D5000877A3846CDED1C7A07EE902AF8EEE77A8E
:104D600067EE877ACDED1D7A07EE903AF8EEE77A96
:104D700067EE877ACDED1E7AFFF744FD9C4EB4F8BE
:104D8000F03003934FF0000B10225946A6F5EE7059
:104D9000C4F898BC94F8EF5094F8F78084F894BC69
:104DA000C6E901BB0BF0FAFA2320C4F8A8BCA4F8AA
:104DB000A4BCC6E905BBC4F8B4BC03F089FB0BAACC
:104DC0000121752004F0A2FA002840D0894AC4F8D5
:104DD000AC2C894AC4F8B02C43F64332A4F8A82C72
:104DE00001210FAA584604F091FA9DF83C200028B2
:104DF00000F0A780EA2A40F0A48042F633525946D8
:104E000006267F20A4F8A82C84F8A46C04F0CDF921
:104E10000A2003F05DFB7821032004F0C6F90A2084
:104E200003F056FB0121304604F0BFF90A2003F0DD
:104E30004FFB3F21072004F0B8F9142003F048FB92
:104E40005946072004F0B1F90A2003F041FB94F819
:104E5000A43C0022062B84F8B82C40F0DF80674B7E
:104E6000C4F8BC3A664BC4F8C03A664B6649D96090
:104E7000D4F834390A2D43F00101C4F8341928BF9D
:104E8000154640F2FD2121FA05F212F0010240F030
:104E9000E682012D40F0E18284F8B92C9A0700F1F6
:104EA000EB82D4F8BC3A03989847002384F8BA3CC4
:104EB000B8F1000F40F0E4824FF0000800252A46C8
:104EC0007F2168208DF8705004F04BF932220F21B9
:104ED000682004F046F92A460321682004F041F9CD
:104EE00001223B4611460C2004F08DF99DF87030EC
:104EF000092B40F0CE82454BC4F8BC3C444BC4F86F
:104F0000C03C072384F8BA3CD4F8343943F0080392
:104F1000C4F8343994F8E4300BB184F8B83C94F810
:104F2000E5300BB184F8B93C94F8E630002B78D02A
:104F300084F8BA3C75E00123069324E5354A1385CD
:104F4000C4E502F07E028DF83C2040B1682A06D10B
:104F5000012384F8A43C1D2384F8A83C77E79DF83E
:104F60002C3003F07E03682B8DF82C3032D10621D3
:104F700002233A46084684F8A43C04F0C7F99DF899
:104F800075309DF873209B00520002F0020203F07E
:104F9000040313439DF8712002F0010213430CD067
:104FA000012B03D1002384F8A53C50E7022B01D14B
:104FB0000123F8E7022003F09AFA13AA01210C203A
:104FC00004F0A4F99DF84C3013F00F03F2D0042B39
:104FD000EED1E7E7702B04BF042384F8A43C36E746
:104FE000FFE0CF007A25E00035FA8E3CD01000209B
:104FF000F81000200D930008AB910008C1B1000823
:10500000FD6400081C0F00202D23FA3BB39100081B
:10501000239300080004004800540040022384F851
:10502000943C94F8F830052B00F28280012505FAB3
:1050300003F313F0160F40F0348213F0290F77D0EA
:105040000A2003F045FA4CF6EF030FA90220ADF851
:105050003C3006F0B1FE002800F02382284603F021
:1050600037FA13A902208DF84C908DF84D9006F078
:1050700089FD002800F01582BDF84C305BBA03F0C2
:105080003F03082B40F00D82D14B9DF84C90D3F894
:10509000040293F808321C9039463B7105209DF8B4
:1050A0004DB006F089FE002800F0FB81C94D4FF29B
:1050B000C77805F110060FA90220ADF83C8006F074
:1050C0007BFE002800F0ED81012003F001FA13A916
:1050D00002208DF84C908DF84DB006F053FDBDF8D0
:1050E0004C309DF84C909DF84DB05BBA9BB20028B7
:1050F00000F0D78107EE903AF8EEE77AE5EC017A16
:10510000AE42D8D1B44BC4F8E83CB44BC4F8F03C40
:10511000B34B00221A606223C4F8F83CD4F85C3523
:10512000C4F8FC3C0320002384F8003D06F098FE00
:10513000D4F8343943F00403C4F8343949F6117310
:10514000ADF8703002223B460021402003F016FFEC
:1051500028B994F8943C63F07F0384F8943CD4F825
:105160005C3C012B02BF94F8943C43F0400384F86C
:10517000943C94F8940C00287FF41DAF94F8583CAC
:10518000984E43F0020384F8583C4FF400533385A3
:105190004FF48043B3610F25B38A9BB283F400536D
:1051A000B382B38A9BB283F48043B382B38A9BB247
:1051B00083F40043B382192003F08AF9013D1920DA
:1051C00003F086F915F0FF05E6D14FF48043B36193
:1051D0004FF40053B3614FF40043B361D4F8343952
:1051E0001B0705D5D4F8BC3C9847012384F8013D42
:1051F000D4F88437DFED7C6A1B7BA4F8023DBAF853
:105200001E307A4807EE103AB8EEC77A1A22C6EE78
:10521000877AFF219FED767A67EE877AC0ED007A74
:10522000A0F206300BF0BAF8D4F8341901230022AA
:105230008F0784F8383984F8392907D584F83A3942
:10524000032384F83839022384F83B394E0708D504
:1052500094F838395A1C234484F83829032283F8F7
:10526000392994F8383911F00A0F03F10102D2B24A
:1052700010D0E1182244042081F83909052182F870
:105280003919DA1C023354FA83F384F838290622D8
:1052900083F83929D4F80868B00608D594F8383965
:1052A0005A1C234484F83829072283F83929637962
:1052B000082B01D00E2B08D194F838395A1C2344FE
:1052C00084F838290B2283F8392994F83829A11851
:1052D0000C20531C81F839097107DBB205D5234432
:1052E0000232102183F83919D3B25A1CE118D2B214
:1052F0001220770584F8382981F8390909D594F8FE
:10530000B81131B10233224484F83839132382F8BA
:105310003939B00508D594F838395A1C234484F833
:105320003829152283F83929F10508D594F8383938
:105330005A1C234484F838291A2283F839299822E0
:1053400000212C48DFF888B00BF028F8012003F08A
:1053500033FA4FF04C0A002840F0B380D4F8243AD6
:10536000B4F944C1C4F82439234BD4F8EC16B4F88A
:105370004401C4F8B03B0022A4F8302784F8322757
:10538000C4F85427C4F85827C4F8F43684F8012B1D
:1053900003F23247624603F61623F82527F8022B5C
:1053A0000135D4F85C25EDB202F516720A2D43F8EA
:1053B000042B40F0AB80F20458BFB4F84A310F4CD4
:1053C00048BF0346A4F86E3501F1500518E000BF50
:1053D000641601082411002061BE00081DBC0008ED
:1053E00054110020000800480AE81C41A0100020C9
:1053F0000000C842840E00209605002060040020B2
:1054000091F87D30B3B991F87F2091F880309A42BD
:1054100010D2002A00F08280013A02EB820202EBF5
:10542000820202F5617293B291F87E2004EB42028F
:10543000A2F8703504318D42E2D1330740F1898002
:1054400094F83E21062A7ED8DFE812F07600930415
:105450009704C104E304FE04FE04154613E500228C
:1054600084F8B92C314AC4F8982C43F00303304A2D
:10547000C4F89C2CC4F83439D4F8983C984710E50B
:10548000A8F10203032B7FF619ADB8F1010F04D187
:1054900040E5B8F1000F3FF43DAD002384F8BA3C7D
:1054A0000AE594F8943C43F0200384F8943C45E6E4
:1054B0000AFB05F904EB090898F86E7A27B1013563
:1054C000EDB2022DF4D149E7037990F9000001977C
:1054D0000BEB830303220092D3F80C323A460121EE
:1054E00006F066FF039068B11248482239464844E6
:1054F0000AF054FF039BC8F8243A01231D4488F89E
:105500006E3AEDB2012003F031F924E7022D9DBF80
:10551000B4F84621643212B262463FE7013303EB2E
:10552000830303EB830303F561737DE7ADB10008EB
:10553000C9640008880E002045F2F053A4F8043D29
:1055400006F06EFF28B90820FAF766FED04BD14A64
:105550001A6316F4804F18BF1223CD4D1EBF84F876
:105560006839CD4B2B6342F201031E4211D044F641
:105570002063B704A4F8043D41BF082384F86839C8
:10558000C64B2B63F60741BF0C2384F86839C44B24
:105590002B6394F86839C34E043B84F86939322090
:1055A0009F234FF48057139302F092FF0023378517
:1055B000042213A91CA88DF8713006F07BFF9DF81A
:1055C0007130B7619DF872201B0443EA02239DF8F5
:1055D00073201343B44A934200F0778400F36E843F
:1055E000A2F51A42033A934200F0768402F51A4279
:1055F0000232934200F09A840023C5E90A332B62F9
:1056000002F014FE6379C4F8580D052B04BF4FF463
:10561000C873A4F85235FBF721F84FF47A73A34FFF
:10562000A4F854350320D4F8E83C9847DFEDA07A7D
:105630003E460836C7ED007A4FF06508B0EE677A4F
:10564000B0EE678A07F1040AB5EE407AF1EE10FA7F
:10565000C6ED007A40F0C884B8F1010840F07884C3
:1056600094F81B3943F0080384F81B3994F8EC359F
:1056700023F0020384F8EC35D4F8083840F602022F
:105680001A4221D0032384F8E53801232B77002523
:1056900029468848A4F8E858C822A4F8EC58A4F889
:1056A000EA58A4F8EE580AF079FED4F85C35C4F84C
:1056B000F438814BC4F8185800200021C3E90001D8
:1056C00084F8145884F8E45894F8583C7B4F7C4D87
:1056D000D4F80880C4F8088863F07F0384F8583C45
:1056E0003B464FF0804243F8042B764A1A604FF055
:1056F000010A754B84F86CACBB604FF49663A4F858
:1057000072356B69714EDFF89C9143F400336B6125
:10571000EB6943F00203EB6196E80F000DF1700CAA
:105720008CE80F004FF48023C4F88C36684B139339
:105730006B69C4F8849643F480230DF14C0BA4F8F4
:1057400088A648466B61594605F0B8FCA9F828A020
:10575000022206214FF0904003F0D0F9B4F8E02087
:105760005C49B1FBF2F2002392B212211CA805F0B1
:105770009BFE6B69C4F8680D43F400336B61EB6901
:1057800043F00203EB6106F110030FCB0DF1700C37
:105790008CE80F004FF48023C4F898364E4B1393D7
:1057A0006B69C4F8909643F480234FF0020A484690
:1057B000A4F894A659466B6105F080FCC9F818A0BE
:1057C000524607214FF0904003F098F9B4F8E020DA
:1057D0004049B1FBF2F2002392B212211CA805F05D
:1057E00063FE06F12003C4F86C0D0FCB0DF11C0E07
:1057F0008EE80F0006F130030FCB0DF12C0C8CE876
:105800000F0006F140030FCB0DF13C0989E80F00B2
:1058100006F150030FCB60368BE80F0096E80F00BF
:105820001CAE86E80F009EE80F0007F1140686E81C
:105830000F009CE80F0007F1240E8EE80F0099E896
:105840000F0007F1340C8CE80F009BE80F0007F104
:10585000440C8CE80F001CAB0FCB07F1540C8CE808
:105860000F004FF4967002F033FE4FF48C7200215B
:1058700007F164000AF092FDEB6943F00703EB6166
:10588000AB6943F4A523AB616B6943F4C02325E006
:1058900000000020116200082D6200081562000857
:1058A000216200080004004818BA2000640A0020A1
:1058B000000000007C0C0020600D0020BC110020C6
:1058C00000100240ABAAAA3F26B4973E90180108E8
:1058D0000100010280A81201020001026B61B146C1
:1058E0000025F27BB17B7068043503F007F9142DB5
:1058F00006F11006F5D16279D4F82819182A9DBF4F
:10590000CE4BD34003F0010300238DF86630002214
:10591000881C10F93250022D00F09A830132042ABB
:10592000F7D100228DF86120C8F340028DF8622083
:10593000C8F380128DF86420C8F340328DF85C20E3
:10594000C8F3C0328DF85F2018F4006204D094F8D8
:105950003221D51E6A426A418DF86020C8F30042A8
:105960008DF8652008F001028DF85D20C8F3C002B3
:105970008DF85E20C8F3804218F4805FB4F8D4102C
:105980008DF86320B4F8E020ADF86A101CBFB4F8BD
:10599000DC10ADF86A10B2F5FA7FADF8682094BF5C
:1059A000BDF86A200022ADF86A2094F8822184F8BC
:1059B000D82E00225B0018F0090FA4F8D92EA04AB7
:1059C00018BF013302EB83034FF6FF78D3F89C62D4
:1059D000B71E083637F8020F404500F0C780030AAB
:1059E000022B00F0C080C0B2012B4FEA001A09EB75
:1059F000001040F08F839DF85D30002B00F0B380E5
:105A000004EB0A0B002384F8DC3EC4F8E03EC4F843
:105A1000E43EC4F8E83EC4F81C3F84F8243F9BF8F9
:105A20007D3DBBF8782DC4F8300F8DF87230DBF86F
:105A3000740DADF8702002231CA98DF87330C4F8E2
:105A4000208F05F03BFB94F8D83EDBF8705D9BF8A7
:105A50007ABD012B18BF00222B6A08BF0322BBF1BD
:105A6000000F40F0FC8223F001032B62AB69296A2E
:105A700023F0F30343EA021321F00A0143F0010388
:105A800041F00101AB612962AB6923F00C03AB610A
:105A9000AB69AB6101220021284605F0B5FC2B88DB
:105AA0009BB243F00103A2442B809AF87BAD504691
:105AB00006F030FBBAF11B0F02D1192006F02AFBC9
:105AC000604BC4F8343F4FF0000A5F4BC4F8383FD6
:105AD0002846C4F83CAF05F00FFC062843D80A233B
:105AE000434303EB9B0304EB8301584AC1F8C02DE9
:105AF0000B46111DC3F8D01D4FEA9B0B0223E9682A
:105B000003FA0BF39BB20B43EB6028234343A2F54C
